{
	"learning-dsa/02-factorial/02-factorial.sol": {
		"FactorialCalculator": {
			"abi": [
				{
					"inputs": [
						{
							"internalType": "uint256",
							"name": "n",
							"type": "uint256"
						}
					],
					"name": "calculateFactorial",
					"outputs": [
						{
							"internalType": "uint256",
							"name": "",
							"type": "uint256"
						}
					],
					"stateMutability": "pure",
					"type": "function"
				}
			],
			"devdoc": {
				"kind": "dev",
				"methods": {},
				"version": 1
			},
			"evm": {
				"assembly": "    /* \"learning-dsa/02-factorial/02-factorial.sol\":60:396  contract FactorialCalculator {... */\n  mstore(0x40, 0x80)\n  callvalue\n  dup1\n  iszero\n  tag_1\n  jumpi\n  0x00\n  dup1\n  revert\ntag_1:\n  pop\n  dataSize(sub_0)\n  dup1\n  dataOffset(sub_0)\n  0x00\n  codecopy\n  0x00\n  return\nstop\n\nsub_0: assembly {\n        /* \"learning-dsa/02-factorial/02-factorial.sol\":60:396  contract FactorialCalculator {... */\n      mstore(0x40, 0x80)\n      callvalue\n      dup1\n      iszero\n      tag_1\n      jumpi\n      0x00\n      dup1\n      revert\n    tag_1:\n      pop\n      jumpi(tag_2, lt(calldatasize, 0x04))\n      shr(0xe0, calldataload(0x00))\n      dup1\n      0x3d41c222\n      eq\n      tag_3\n      jumpi\n    tag_2:\n      0x00\n      dup1\n      revert\n        /* \"learning-dsa/02-factorial/02-factorial.sol\":96:393  function calculateFactorial(uint256 n) public pure returns (uint256) {... */\n    tag_3:\n      tag_4\n      0x04\n      dup1\n      calldatasize\n      sub\n      dup2\n      add\n      swap1\n      tag_5\n      swap2\n      swap1\n      tag_6\n      jump\t// in\n    tag_5:\n      tag_7\n      jump\t// in\n    tag_4:\n      mload(0x40)\n      tag_8\n      swap2\n      swap1\n      tag_9\n      jump\t// in\n    tag_8:\n      mload(0x40)\n      dup1\n      swap2\n      sub\n      swap1\n      return\n    tag_7:\n        /* \"learning-dsa/02-factorial/02-factorial.sol\":156:163  uint256 */\n      0x00\n        /* \"learning-dsa/02-factorial/02-factorial.sol\":189:190  0 */\n      dup1\n        /* \"learning-dsa/02-factorial/02-factorial.sol\":184:185  n */\n      dup3\n        /* \"learning-dsa/02-factorial/02-factorial.sol\":184:190  n >= 0 */\n      lt\n      iszero\n        /* \"learning-dsa/02-factorial/02-factorial.sol\":176:231  require(n >= 0, \"Input must be a non-negative integer\") */\n      tag_11\n      jumpi\n      mload(0x40)\n      0x08c379a000000000000000000000000000000000000000000000000000000000\n      dup2\n      mstore\n      0x04\n      add\n      tag_12\n      swap1\n      tag_13\n      jump\t// in\n    tag_12:\n      mload(0x40)\n      dup1\n      swap2\n      sub\n      swap1\n      revert\n    tag_11:\n        /* \"learning-dsa/02-factorial/02-factorial.sol\":242:256  uint256 result */\n      0x00\n        /* \"learning-dsa/02-factorial/02-factorial.sol\":259:260  1 */\n      0x01\n        /* \"learning-dsa/02-factorial/02-factorial.sol\":242:260  uint256 result = 1 */\n      swap1\n      pop\n        /* \"learning-dsa/02-factorial/02-factorial.sol\":286:295  uint256 i */\n      0x00\n        /* \"learning-dsa/02-factorial/02-factorial.sol\":298:299  2 */\n      0x02\n        /* \"learning-dsa/02-factorial/02-factorial.sol\":286:299  uint256 i = 2 */\n      swap1\n      pop\n        /* \"learning-dsa/02-factorial/02-factorial.sol\":281:352  for (uint256 i = 2; i <= n; i++) {... */\n    tag_14:\n        /* \"learning-dsa/02-factorial/02-factorial.sol\":306:307  n */\n      dup4\n        /* \"learning-dsa/02-factorial/02-factorial.sol\":301:302  i */\n      dup2\n        /* \"learning-dsa/02-factorial/02-factorial.sol\":301:307  i <= n */\n      gt\n        /* \"learning-dsa/02-factorial/02-factorial.sol\":281:352  for (uint256 i = 2; i <= n; i++) {... */\n      tag_15\n      jumpi\n        /* \"learning-dsa/02-factorial/02-factorial.sol\":339:340  i */\n      dup1\n        /* \"learning-dsa/02-factorial/02-factorial.sol\":329:340  result *= i */\n      dup3\n      tag_17\n      swap2\n      swap1\n      tag_18\n      jump\t// in\n    tag_17:\n      swap2\n      pop\n        /* \"learning-dsa/02-factorial/02-factorial.sol\":309:312  i++ */\n      dup1\n      dup1\n      tag_19\n      swap1\n      tag_20\n      jump\t// in\n    tag_19:\n      swap2\n      pop\n      pop\n        /* \"learning-dsa/02-factorial/02-factorial.sol\":281:352  for (uint256 i = 2; i <= n; i++) {... */\n      jump(tag_14)\n    tag_15:\n      pop\n        /* \"learning-dsa/02-factorial/02-factorial.sol\":379:385  result */\n      dup1\n        /* \"learning-dsa/02-factorial/02-factorial.sol\":372:385  return result */\n      swap2\n      pop\n      pop\n        /* \"learning-dsa/02-factorial/02-factorial.sol\":96:393  function calculateFactorial(uint256 n) public pure returns (uint256) {... */\n      swap2\n      swap1\n      pop\n      jump\t// out\n        /* \"#utility.yul\":88:205   */\n    tag_22:\n        /* \"#utility.yul\":197:198   */\n      0x00\n        /* \"#utility.yul\":194:195   */\n      dup1\n        /* \"#utility.yul\":187:199   */\n      revert\n        /* \"#utility.yul\":334:411   */\n    tag_24:\n        /* \"#utility.yul\":371:378   */\n      0x00\n        /* \"#utility.yul\":400:405   */\n      dup2\n        /* \"#utility.yul\":389:405   */\n      swap1\n      pop\n        /* \"#utility.yul\":334:411   */\n      swap2\n      swap1\n      pop\n      jump\t// out\n        /* \"#utility.yul\":417:539   */\n    tag_25:\n        /* \"#utility.yul\":490:514   */\n      tag_38\n        /* \"#utility.yul\":508:513   */\n      dup2\n        /* \"#utility.yul\":490:514   */\n      tag_24\n      jump\t// in\n    tag_38:\n        /* \"#utility.yul\":483:488   */\n      dup2\n        /* \"#utility.yul\":480:515   */\n      eq\n        /* \"#utility.yul\":470:533   */\n      tag_39\n      jumpi\n        /* \"#utility.yul\":529:530   */\n      0x00\n        /* \"#utility.yul\":526:527   */\n      dup1\n        /* \"#utility.yul\":519:531   */\n      revert\n        /* \"#utility.yul\":470:533   */\n    tag_39:\n        /* \"#utility.yul\":417:539   */\n      pop\n      jump\t// out\n        /* \"#utility.yul\":545:684   */\n    tag_26:\n        /* \"#utility.yul\":591:596   */\n      0x00\n        /* \"#utility.yul\":629:635   */\n      dup2\n        /* \"#utility.yul\":616:636   */\n      calldataload\n        /* \"#utility.yul\":607:636   */\n      swap1\n      pop\n        /* \"#utility.yul\":645:678   */\n      tag_41\n        /* \"#utility.yul\":672:677   */\n      dup2\n        /* \"#utility.yul\":645:678   */\n      tag_25\n      jump\t// in\n    tag_41:\n        /* \"#utility.yul\":545:684   */\n      swap3\n      swap2\n      pop\n      pop\n      jump\t// out\n        /* \"#utility.yul\":690:1019   */\n    tag_6:\n        /* \"#utility.yul\":749:755   */\n      0x00\n        /* \"#utility.yul\":798:800   */\n      0x20\n        /* \"#utility.yul\":786:795   */\n      dup3\n        /* \"#utility.yul\":777:784   */\n      dup5\n        /* \"#utility.yul\":773:796   */\n      sub\n        /* \"#utility.yul\":769:801   */\n      slt\n        /* \"#utility.yul\":766:885   */\n      iszero\n      tag_43\n      jumpi\n        /* \"#utility.yul\":804:883   */\n      tag_44\n      tag_22\n      jump\t// in\n    tag_44:\n        /* \"#utility.yul\":766:885   */\n    tag_43:\n        /* \"#utility.yul\":924:925   */\n      0x00\n        /* \"#utility.yul\":949:1002   */\n      tag_45\n        /* \"#utility.yul\":994:1001   */\n      dup5\n        /* \"#utility.yul\":985:991   */\n      dup3\n        /* \"#utility.yul\":974:983   */\n      dup6\n        /* \"#utility.yul\":970:992   */\n      add\n        /* \"#utility.yul\":949:1002   */\n      tag_26\n      jump\t// in\n    tag_45:\n        /* \"#utility.yul\":939:1002   */\n      swap2\n      pop\n        /* \"#utility.yul\":895:1012   */\n      pop\n        /* \"#utility.yul\":690:1019   */\n      swap3\n      swap2\n      pop\n      pop\n      jump\t// out\n        /* \"#utility.yul\":1025:1143   */\n    tag_27:\n        /* \"#utility.yul\":1112:1136   */\n      tag_47\n        /* \"#utility.yul\":1130:1135   */\n      dup2\n        /* \"#utility.yul\":1112:1136   */\n      tag_24\n      jump\t// in\n    tag_47:\n        /* \"#utility.yul\":1107:1110   */\n      dup3\n        /* \"#utility.yul\":1100:1137   */\n      mstore\n        /* \"#utility.yul\":1025:1143   */\n      pop\n      pop\n      jump\t// out\n        /* \"#utility.yul\":1149:1371   */\n    tag_9:\n        /* \"#utility.yul\":1242:1246   */\n      0x00\n        /* \"#utility.yul\":1280:1282   */\n      0x20\n        /* \"#utility.yul\":1269:1278   */\n      dup3\n        /* \"#utility.yul\":1265:1283   */\n      add\n        /* \"#utility.yul\":1257:1283   */\n      swap1\n      pop\n        /* \"#utility.yul\":1293:1364   */\n      tag_49\n        /* \"#utility.yul\":1361:1362   */\n      0x00\n        /* \"#utility.yul\":1350:1359   */\n      dup4\n        /* \"#utility.yul\":1346:1363   */\n      add\n        /* \"#utility.yul\":1337:1343   */\n      dup5\n        /* \"#utility.yul\":1293:1364   */\n      tag_27\n      jump\t// in\n    tag_49:\n        /* \"#utility.yul\":1149:1371   */\n      swap3\n      swap2\n      pop\n      pop\n      jump\t// out\n        /* \"#utility.yul\":1377:1546   */\n    tag_28:\n        /* \"#utility.yul\":1461:1472   */\n      0x00\n        /* \"#utility.yul\":1495:1501   */\n      dup3\n        /* \"#utility.yul\":1490:1493   */\n      dup3\n        /* \"#utility.yul\":1483:1502   */\n      mstore\n        /* \"#utility.yul\":1535:1539   */\n      0x20\n        /* \"#utility.yul\":1530:1533   */\n      dup3\n        /* \"#utility.yul\":1526:1540   */\n      add\n        /* \"#utility.yul\":1511:1540   */\n      swap1\n      pop\n        /* \"#utility.yul\":1377:1546   */\n      swap3\n      swap2\n      pop\n      pop\n      jump\t// out\n        /* \"#utility.yul\":1552:1775   */\n    tag_29:\n        /* \"#utility.yul\":1692:1726   */\n      0x496e707574206d7573742062652061206e6f6e2d6e6567617469766520696e74\n        /* \"#utility.yul\":1688:1689   */\n      0x00\n        /* \"#utility.yul\":1680:1686   */\n      dup3\n        /* \"#utility.yul\":1676:1690   */\n      add\n        /* \"#utility.yul\":1669:1727   */\n      mstore\n        /* \"#utility.yul\":1761:1767   */\n      0x6567657200000000000000000000000000000000000000000000000000000000\n        /* \"#utility.yul\":1756:1758   */\n      0x20\n        /* \"#utility.yul\":1748:1754   */\n      dup3\n        /* \"#utility.yul\":1744:1759   */\n      add\n        /* \"#utility.yul\":1737:1768   */\n      mstore\n        /* \"#utility.yul\":1552:1775   */\n      pop\n      jump\t// out\n        /* \"#utility.yul\":1781:2147   */\n    tag_30:\n        /* \"#utility.yul\":1923:1926   */\n      0x00\n        /* \"#utility.yul\":1944:2011   */\n      tag_53\n        /* \"#utility.yul\":2008:2010   */\n      0x24\n        /* \"#utility.yul\":2003:2006   */\n      dup4\n        /* \"#utility.yul\":1944:2011   */\n      tag_28\n      jump\t// in\n    tag_53:\n        /* \"#utility.yul\":1937:2011   */\n      swap2\n      pop\n        /* \"#utility.yul\":2020:2113   */\n      tag_54\n        /* \"#utility.yul\":2109:2112   */\n      dup3\n        /* \"#utility.yul\":2020:2113   */\n      tag_29\n      jump\t// in\n    tag_54:\n        /* \"#utility.yul\":2138:2140   */\n      0x40\n        /* \"#utility.yul\":2133:2136   */\n      dup3\n        /* \"#utility.yul\":2129:2141   */\n      add\n        /* \"#utility.yul\":2122:2141   */\n      swap1\n      pop\n        /* \"#utility.yul\":1781:2147   */\n      swap2\n      swap1\n      pop\n      jump\t// out\n        /* \"#utility.yul\":2153:2572   */\n    tag_13:\n        /* \"#utility.yul\":2319:2323   */\n      0x00\n        /* \"#utility.yul\":2357:2359   */\n      0x20\n        /* \"#utility.yul\":2346:2355   */\n      dup3\n        /* \"#utility.yul\":2342:2360   */\n      add\n        /* \"#utility.yul\":2334:2360   */\n      swap1\n      pop\n        /* \"#utility.yul\":2406:2415   */\n      dup2\n        /* \"#utility.yul\":2400:2404   */\n      dup2\n        /* \"#utility.yul\":2396:2416   */\n      sub\n        /* \"#utility.yul\":2392:2393   */\n      0x00\n        /* \"#utility.yul\":2381:2390   */\n      dup4\n        /* \"#utility.yul\":2377:2394   */\n      add\n        /* \"#utility.yul\":2370:2417   */\n      mstore\n        /* \"#utility.yul\":2434:2565   */\n      tag_56\n        /* \"#utility.yul\":2560:2564   */\n      dup2\n        /* \"#utility.yul\":2434:2565   */\n      tag_30\n      jump\t// in\n    tag_56:\n        /* \"#utility.yul\":2426:2565   */\n      swap1\n      pop\n        /* \"#utility.yul\":2153:2572   */\n      swap2\n      swap1\n      pop\n      jump\t// out\n        /* \"#utility.yul\":2578:2758   */\n    tag_31:\n        /* \"#utility.yul\":2626:2703   */\n      0x4e487b7100000000000000000000000000000000000000000000000000000000\n        /* \"#utility.yul\":2623:2624   */\n      0x00\n        /* \"#utility.yul\":2616:2704   */\n      mstore\n        /* \"#utility.yul\":2723:2727   */\n      0x11\n        /* \"#utility.yul\":2720:2721   */\n      0x04\n        /* \"#utility.yul\":2713:2728   */\n      mstore\n        /* \"#utility.yul\":2747:2751   */\n      0x24\n        /* \"#utility.yul\":2744:2745   */\n      0x00\n        /* \"#utility.yul\":2737:2752   */\n      revert\n        /* \"#utility.yul\":2764:3174   */\n    tag_18:\n        /* \"#utility.yul\":2804:2811   */\n      0x00\n        /* \"#utility.yul\":2827:2847   */\n      tag_59\n        /* \"#utility.yul\":2845:2846   */\n      dup3\n        /* \"#utility.yul\":2827:2847   */\n      tag_24\n      jump\t// in\n    tag_59:\n        /* \"#utility.yul\":2822:2847   */\n      swap2\n      pop\n        /* \"#utility.yul\":2861:2881   */\n      tag_60\n        /* \"#utility.yul\":2879:2880   */\n      dup4\n        /* \"#utility.yul\":2861:2881   */\n      tag_24\n      jump\t// in\n    tag_60:\n        /* \"#utility.yul\":2856:2881   */\n      swap3\n      pop\n        /* \"#utility.yul\":2916:2917   */\n      dup3\n        /* \"#utility.yul\":2913:2914   */\n      dup3\n        /* \"#utility.yul\":2909:2918   */\n      mul\n        /* \"#utility.yul\":2938:2968   */\n      tag_61\n        /* \"#utility.yul\":2956:2967   */\n      dup2\n        /* \"#utility.yul\":2938:2968   */\n      tag_24\n      jump\t// in\n    tag_61:\n        /* \"#utility.yul\":2927:2968   */\n      swap2\n      pop\n        /* \"#utility.yul\":3117:3118   */\n      dup3\n        /* \"#utility.yul\":3108:3115   */\n      dup3\n        /* \"#utility.yul\":3104:3119   */\n      div\n        /* \"#utility.yul\":3101:3102   */\n      dup5\n        /* \"#utility.yul\":3098:3120   */\n      eq\n        /* \"#utility.yul\":3078:3079   */\n      dup4\n        /* \"#utility.yul\":3071:3080   */\n      iszero\n        /* \"#utility.yul\":3051:3134   */\n      or\n        /* \"#utility.yul\":3028:3167   */\n      tag_62\n      jumpi\n        /* \"#utility.yul\":3147:3165   */\n      tag_63\n      tag_31\n      jump\t// in\n    tag_63:\n        /* \"#utility.yul\":3028:3167   */\n    tag_62:\n        /* \"#utility.yul\":2812:3174   */\n      pop\n        /* \"#utility.yul\":2764:3174   */\n      swap3\n      swap2\n      pop\n      pop\n      jump\t// out\n        /* \"#utility.yul\":3180:3413   */\n    tag_20:\n        /* \"#utility.yul\":3219:3222   */\n      0x00\n        /* \"#utility.yul\":3242:3266   */\n      tag_65\n        /* \"#utility.yul\":3260:3265   */\n      dup3\n        /* \"#utility.yul\":3242:3266   */\n      tag_24\n      jump\t// in\n    tag_65:\n        /* \"#utility.yul\":3233:3266   */\n      swap2\n      pop\n        /* \"#utility.yul\":3288:3354   */\n      0xffffffffffffffffffffffffffffffffffffffffffffffffffffffffffffffff\n        /* \"#utility.yul\":3281:3286   */\n      dup3\n        /* \"#utility.yul\":3278:3355   */\n      sub\n        /* \"#utility.yul\":3275:3378   */\n      tag_66\n      jumpi\n        /* \"#utility.yul\":3358:3376   */\n      tag_67\n      tag_31\n      jump\t// in\n    tag_67:\n        /* \"#utility.yul\":3275:3378   */\n    tag_66:\n        /* \"#utility.yul\":3405:3406   */\n      0x01\n        /* \"#utility.yul\":3398:3403   */\n      dup3\n        /* \"#utility.yul\":3394:3407   */\n      add\n        /* \"#utility.yul\":3387:3407   */\n      swap1\n      pop\n        /* \"#utility.yul\":3180:3413   */\n      swap2\n      swap1\n      pop\n      jump\t// out\n\n    auxdata: 0xa26469706673582212205954c8f810d1c13df99f728a99ce7d719be375c3648ef4d6a747d8f7a8c0845564736f6c63430008120033\n}\n",
				"bytecode": {
					"linkReferences": {},
					"object": "608060405234801561001057600080fd5b50610308806100206000396000f3fe608060405234801561001057600080fd5b506004361061002b5760003560e01c80633d41c22214610030575b600080fd5b61004a6004803603810190610045919061011f565b610060565b604051610057919061015b565b60405180910390f35b6000808210156100a5576040517f08c379a000000000000000000000000000000000000000000000000000000000815260040161009c906101f9565b60405180910390fd5b6000600190506000600290505b8381116100da5780826100c59190610248565b915080806100d29061028a565b9150506100b2565b5080915050919050565b600080fd5b6000819050919050565b6100fc816100e9565b811461010757600080fd5b50565b600081359050610119816100f3565b92915050565b600060208284031215610135576101346100e4565b5b60006101438482850161010a565b91505092915050565b610155816100e9565b82525050565b6000602082019050610170600083018461014c565b92915050565b600082825260208201905092915050565b7f496e707574206d7573742062652061206e6f6e2d6e6567617469766520696e7460008201527f6567657200000000000000000000000000000000000000000000000000000000602082015250565b60006101e3602483610176565b91506101ee82610187565b604082019050919050565b60006020820190508181036000830152610212816101d6565b9050919050565b7f4e487b7100000000000000000000000000000000000000000000000000000000600052601160045260246000fd5b6000610253826100e9565b915061025e836100e9565b925082820261026c816100e9565b9150828204841483151761028357610282610219565b5b5092915050565b6000610295826100e9565b91507fffffffffffffffffffffffffffffffffffffffffffffffffffffffffffffffff82036102c7576102c6610219565b5b60018201905091905056fea26469706673582212205954c8f810d1c13df99f728a99ce7d719be375c3648ef4d6a747d8f7a8c0845564736f6c63430008120033",
					"opcodes": "PUSH1 0x80 PUSH1 0x40 MSTORE CALLVALUE DUP1 ISZERO PUSH2 0x10 JUMPI PUSH1 0x0 DUP1 REVERT JUMPDEST POP PUSH2 0x308 DUP1 PUSH2 0x20 PUSH1 0x0 CODECOPY PUSH1 0x0 RETURN INVALID PUSH1 0x80 PUSH1 0x40 MSTORE CALLVALUE DUP1 ISZERO PUSH2 0x10 JUMPI PUSH1 0x0 DUP1 REVERT JUMPDEST POP PUSH1 0x4 CALLDATASIZE LT PUSH2 0x2B JUMPI PUSH1 0x0 CALLDATALOAD PUSH1 0xE0 SHR DUP1 PUSH4 0x3D41C222 EQ PUSH2 0x30 JUMPI JUMPDEST PUSH1 0x0 DUP1 REVERT JUMPDEST PUSH2 0x4A PUSH1 0x4 DUP1 CALLDATASIZE SUB DUP2 ADD SWAP1 PUSH2 0x45 SWAP2 SWAP1 PUSH2 0x11F JUMP JUMPDEST PUSH2 0x60 JUMP JUMPDEST PUSH1 0x40 MLOAD PUSH2 0x57 SWAP2 SWAP1 PUSH2 0x15B JUMP JUMPDEST PUSH1 0x40 MLOAD DUP1 SWAP2 SUB SWAP1 RETURN JUMPDEST PUSH1 0x0 DUP1 DUP3 LT ISZERO PUSH2 0xA5 JUMPI PUSH1 0x40 MLOAD PUSH32 0x8C379A000000000000000000000000000000000000000000000000000000000 DUP2 MSTORE PUSH1 0x4 ADD PUSH2 0x9C SWAP1 PUSH2 0x1F9 JUMP JUMPDEST PUSH1 0x40 MLOAD DUP1 SWAP2 SUB SWAP1 REVERT JUMPDEST PUSH1 0x0 PUSH1 0x1 SWAP1 POP PUSH1 0x0 PUSH1 0x2 SWAP1 POP JUMPDEST DUP4 DUP2 GT PUSH2 0xDA JUMPI DUP1 DUP3 PUSH2 0xC5 SWAP2 SWAP1 PUSH2 0x248 JUMP JUMPDEST SWAP2 POP DUP1 DUP1 PUSH2 0xD2 SWAP1 PUSH2 0x28A JUMP JUMPDEST SWAP2 POP POP PUSH2 0xB2 JUMP JUMPDEST POP DUP1 SWAP2 POP POP SWAP2 SWAP1 POP JUMP JUMPDEST PUSH1 0x0 DUP1 REVERT JUMPDEST PUSH1 0x0 DUP2 SWAP1 POP SWAP2 SWAP1 POP JUMP JUMPDEST PUSH2 0xFC DUP2 PUSH2 0xE9 JUMP JUMPDEST DUP2 EQ PUSH2 0x107 JUMPI PUSH1 0x0 DUP1 REVERT JUMPDEST POP JUMP JUMPDEST PUSH1 0x0 DUP2 CALLDATALOAD SWAP1 POP PUSH2 0x119 DUP2 PUSH2 0xF3 JUMP JUMPDEST SWAP3 SWAP2 POP POP JUMP JUMPDEST PUSH1 0x0 PUSH1 0x20 DUP3 DUP5 SUB SLT ISZERO PUSH2 0x135 JUMPI PUSH2 0x134 PUSH2 0xE4 JUMP JUMPDEST JUMPDEST PUSH1 0x0 PUSH2 0x143 DUP5 DUP3 DUP6 ADD PUSH2 0x10A JUMP JUMPDEST SWAP2 POP POP SWAP3 SWAP2 POP POP JUMP JUMPDEST PUSH2 0x155 DUP2 PUSH2 0xE9 JUMP JUMPDEST DUP3 MSTORE POP POP JUMP JUMPDEST PUSH1 0x0 PUSH1 0x20 DUP3 ADD SWAP1 POP PUSH2 0x170 PUSH1 0x0 DUP4 ADD DUP5 PUSH2 0x14C JUMP JUMPDEST SWAP3 SWAP2 POP POP JUMP JUMPDEST PUSH1 0x0 DUP3 DUP3 MSTORE PUSH1 0x20 DUP3 ADD SWAP1 POP SWAP3 SWAP2 POP POP JUMP JUMPDEST PUSH32 0x496E707574206D7573742062652061206E6F6E2D6E6567617469766520696E74 PUSH1 0x0 DUP3 ADD MSTORE PUSH32 0x6567657200000000000000000000000000000000000000000000000000000000 PUSH1 0x20 DUP3 ADD MSTORE POP JUMP JUMPDEST PUSH1 0x0 PUSH2 0x1E3 PUSH1 0x24 DUP4 PUSH2 0x176 JUMP JUMPDEST SWAP2 POP PUSH2 0x1EE DUP3 PUSH2 0x187 JUMP JUMPDEST PUSH1 0x40 DUP3 ADD SWAP1 POP SWAP2 SWAP1 POP JUMP JUMPDEST PUSH1 0x0 PUSH1 0x20 DUP3 ADD SWAP1 POP DUP2 DUP2 SUB PUSH1 0x0 DUP4 ADD MSTORE PUSH2 0x212 DUP2 PUSH2 0x1D6 JUMP JUMPDEST SWAP1 POP SWAP2 SWAP1 POP JUMP JUMPDEST PUSH32 0x4E487B7100000000000000000000000000000000000000000000000000000000 PUSH1 0x0 MSTORE PUSH1 0x11 PUSH1 0x4 MSTORE PUSH1 0x24 PUSH1 0x0 REVERT JUMPDEST PUSH1 0x0 PUSH2 0x253 DUP3 PUSH2 0xE9 JUMP JUMPDEST SWAP2 POP PUSH2 0x25E DUP4 PUSH2 0xE9 JUMP JUMPDEST SWAP3 POP DUP3 DUP3 MUL PUSH2 0x26C DUP2 PUSH2 0xE9 JUMP JUMPDEST SWAP2 POP DUP3 DUP3 DIV DUP5 EQ DUP4 ISZERO OR PUSH2 0x283 JUMPI PUSH2 0x282 PUSH2 0x219 JUMP JUMPDEST JUMPDEST POP SWAP3 SWAP2 POP POP JUMP JUMPDEST PUSH1 0x0 PUSH2 0x295 DUP3 PUSH2 0xE9 JUMP JUMPDEST SWAP2 POP PUSH32 0xFFFFFFFFFFFFFFFFFFFFFFFFFFFFFFFFFFFFFFFFFFFFFFFFFFFFFFFFFFFFFFFF DUP3 SUB PUSH2 0x2C7 JUMPI PUSH2 0x2C6 PUSH2 0x219 JUMP JUMPDEST JUMPDEST PUSH1 0x1 DUP3 ADD SWAP1 POP SWAP2 SWAP1 POP JUMP INVALID LOG2 PUSH5 0x6970667358 0x22 SLT KECCAK256 MSIZE SLOAD 0xC8 0xF8 LT 0xD1 0xC1 RETURNDATASIZE 0xF9 SWAP16 PUSH19 0x8A99CE7D719BE375C3648EF4D6A747D8F7A8C0 DUP5 SSTORE PUSH5 0x736F6C6343 STOP ADDMOD SLT STOP CALLER "
				},
				"gasEstimates": {
					"creation": {
						"codeDepositCost": "155200",
						"executionCost": "202",
						"totalCost": "155402"
					},
					"external": {
						"calculateFactorial(uint256)": "infinite"
					}
				},
				"methodIdentifiers": {
					"calculateFactorial(uint256)": "3d41c222"
				}
			},
			"storageLayout": {
				"storage": [],
				"types": null
			},
			"userdoc": {
				"kind": "user",
				"methods": {},
				"version": 1
			}
		}
	}
}