{
	"code-eater/event-organisation/Event.sol": {
		"EventContract": {
			"abi": [
				{
					"inputs": [
						{
							"internalType": "string",
							"name": "name",
							"type": "string"
						},
						{
							"internalType": "uint256",
							"name": "date",
							"type": "uint256"
						},
						{
							"internalType": "uint256",
							"name": "price",
							"type": "uint256"
						},
						{
							"internalType": "uint256",
							"name": "ticketCount",
							"type": "uint256"
						}
					],
					"name": "createEvent",
					"outputs": [],
					"stateMutability": "nonpayable",
					"type": "function"
				},
				{
					"inputs": [
						{
							"internalType": "uint256",
							"name": "",
							"type": "uint256"
						}
					],
					"name": "events",
					"outputs": [
						{
							"internalType": "address",
							"name": "organizer",
							"type": "address"
						},
						{
							"internalType": "string",
							"name": "name",
							"type": "string"
						},
						{
							"internalType": "uint256",
							"name": "date",
							"type": "uint256"
						},
						{
							"internalType": "uint256",
							"name": "price",
							"type": "uint256"
						},
						{
							"internalType": "uint256",
							"name": "ticketCount",
							"type": "uint256"
						},
						{
							"internalType": "uint256",
							"name": "ticketRemain",
							"type": "uint256"
						}
					],
					"stateMutability": "view",
					"type": "function"
				},
				{
					"inputs": [],
					"name": "nextId",
					"outputs": [
						{
							"internalType": "uint256",
							"name": "",
							"type": "uint256"
						}
					],
					"stateMutability": "view",
					"type": "function"
				},
				{
					"inputs": [
						{
							"internalType": "address",
							"name": "",
							"type": "address"
						},
						{
							"internalType": "uint256",
							"name": "",
							"type": "uint256"
						}
					],
					"name": "tickets",
					"outputs": [
						{
							"internalType": "uint256",
							"name": "",
							"type": "uint256"
						}
					],
					"stateMutability": "view",
					"type": "function"
				}
			],
			"devdoc": {
				"kind": "dev",
				"methods": {},
				"version": 1
			},
			"evm": {
				"assembly": "    /* \"code-eater/event-organisation/Event.sol\":70:844  contract EventContract{... */\n  mstore(0x40, 0x80)\n  callvalue\n  dup1\n  iszero\n  tag_1\n  jumpi\n  0x00\n  dup1\n  revert\ntag_1:\n  pop\n  dataSize(sub_0)\n  dup1\n  dataOffset(sub_0)\n  0x00\n  codecopy\n  0x00\n  return\nstop\n\nsub_0: assembly {\n        /* \"code-eater/event-organisation/Event.sol\":70:844  contract EventContract{... */\n      mstore(0x40, 0x80)\n      callvalue\n      dup1\n      iszero\n      tag_1\n      jumpi\n      0x00\n      dup1\n      revert\n    tag_1:\n      pop\n      jumpi(tag_2, lt(calldatasize, 0x04))\n      shr(0xe0, calldataload(0x00))\n      dup1\n      0x0374ab0b\n      eq\n      tag_3\n      jumpi\n      dup1\n      0x0b791430\n      eq\n      tag_4\n      jumpi\n      dup1\n      0x61b8ce8c\n      eq\n      tag_5\n      jumpi\n      dup1\n      0xdae7a13c\n      eq\n      tag_6\n      jumpi\n    tag_2:\n      0x00\n      dup1\n      revert\n        /* \"code-eater/event-organisation/Event.sol\":435:840  function createEvent( string memory name, uint date, uint price, uint ticketCount) external{... */\n    tag_3:\n      tag_7\n      0x04\n      dup1\n      calldatasize\n      sub\n      dup2\n      add\n      swap1\n      tag_8\n      swap2\n      swap1\n      tag_9\n      jump\t// in\n    tag_8:\n      tag_10\n      jump\t// in\n    tag_7:\n      stop\n        /* \"code-eater/event-organisation/Event.sol\":282:319  mapping( uint => Event) public events */\n    tag_4:\n      tag_11\n      0x04\n      dup1\n      calldatasize\n      sub\n      dup2\n      add\n      swap1\n      tag_12\n      swap2\n      swap1\n      tag_13\n      jump\t// in\n    tag_12:\n      tag_14\n      jump\t// in\n    tag_11:\n      mload(0x40)\n      tag_15\n      swap7\n      swap6\n      swap5\n      swap4\n      swap3\n      swap2\n      swap1\n      tag_16\n      jump\t// in\n    tag_15:\n      mload(0x40)\n      dup1\n      swap2\n      sub\n      swap1\n      return\n        /* \"code-eater/event-organisation/Event.sol\":407:425  uint public nextId */\n    tag_5:\n      tag_17\n      tag_18\n      jump\t// in\n    tag_17:\n      mload(0x40)\n      tag_19\n      swap2\n      swap1\n      tag_20\n      jump\t// in\n    tag_19:\n      mload(0x40)\n      dup1\n      swap2\n      sub\n      swap1\n      return\n        /* \"code-eater/event-organisation/Event.sol\":327:382  mapping( address => mapping(uint=>uint)) public tickets */\n    tag_6:\n      tag_21\n      0x04\n      dup1\n      calldatasize\n      sub\n      dup2\n      add\n      swap1\n      tag_22\n      swap2\n      swap1\n      tag_23\n      jump\t// in\n    tag_22:\n      tag_24\n      jump\t// in\n    tag_21:\n      mload(0x40)\n      tag_25\n      swap2\n      swap1\n      tag_20\n      jump\t// in\n    tag_25:\n      mload(0x40)\n      dup1\n      swap2\n      sub\n      swap1\n      return\n        /* \"code-eater/event-organisation/Event.sol\":435:840  function createEvent( string memory name, uint date, uint price, uint ticketCount) external{... */\n    tag_10:\n        /* \"code-eater/event-organisation/Event.sol\":553:568  block.timestamp */\n      timestamp\n        /* \"code-eater/event-organisation/Event.sol\":546:550  date */\n      dup4\n        /* \"code-eater/event-organisation/Event.sol\":546:568  date > block.timestamp */\n      gt\n        /* \"code-eater/event-organisation/Event.sol\":537:612  require( date > block.timestamp , \"You can organize event for future date\") */\n      tag_27\n      jumpi\n      mload(0x40)\n      0x08c379a000000000000000000000000000000000000000000000000000000000\n      dup2\n      mstore\n      0x04\n      add\n      tag_28\n      swap1\n      tag_29\n      jump\t// in\n    tag_28:\n      mload(0x40)\n      dup1\n      swap2\n      sub\n      swap1\n      revert\n    tag_27:\n        /* \"code-eater/event-organisation/Event.sol\":646:647  0 */\n      0x00\n        /* \"code-eater/event-organisation/Event.sol\":632:643  ticketCount */\n      dup2\n        /* \"code-eater/event-organisation/Event.sol\":632:647  ticketCount > 0 */\n      gt\n        /* \"code-eater/event-organisation/Event.sol\":623:714  require( ticketCount > 0 , \"You can organize event only if you create more than 0 tickets\") */\n      tag_30\n      jumpi\n      mload(0x40)\n      0x08c379a000000000000000000000000000000000000000000000000000000000\n      dup2\n      mstore\n      0x04\n      add\n      tag_31\n      swap1\n      tag_32\n      jump\t// in\n    tag_31:\n      mload(0x40)\n      dup1\n      swap2\n      sub\n      swap1\n      revert\n    tag_30:\n        /* \"code-eater/event-organisation/Event.sol\":744:806  Event(msg.sender, name, date, price, ticketCount, ticketCount) */\n      mload(0x40)\n      dup1\n      0xc0\n      add\n      0x40\n      mstore\n      dup1\n        /* \"code-eater/event-organisation/Event.sol\":750:760  msg.sender */\n      caller\n        /* \"code-eater/event-organisation/Event.sol\":744:806  Event(msg.sender, name, date, price, ticketCount, ticketCount) */\n      0xffffffffffffffffffffffffffffffffffffffff\n      and\n      dup2\n      mstore\n      0x20\n      add\n        /* \"code-eater/event-organisation/Event.sol\":762:766  name */\n      dup6\n        /* \"code-eater/event-organisation/Event.sol\":744:806  Event(msg.sender, name, date, price, ticketCount, ticketCount) */\n      dup2\n      mstore\n      0x20\n      add\n        /* \"code-eater/event-organisation/Event.sol\":768:772  date */\n      dup5\n        /* \"code-eater/event-organisation/Event.sol\":744:806  Event(msg.sender, name, date, price, ticketCount, ticketCount) */\n      dup2\n      mstore\n      0x20\n      add\n        /* \"code-eater/event-organisation/Event.sol\":774:779  price */\n      dup4\n        /* \"code-eater/event-organisation/Event.sol\":744:806  Event(msg.sender, name, date, price, ticketCount, ticketCount) */\n      dup2\n      mstore\n      0x20\n      add\n        /* \"code-eater/event-organisation/Event.sol\":781:792  ticketCount */\n      dup3\n        /* \"code-eater/event-organisation/Event.sol\":744:806  Event(msg.sender, name, date, price, ticketCount, ticketCount) */\n      dup2\n      mstore\n      0x20\n      add\n        /* \"code-eater/event-organisation/Event.sol\":794:805  ticketCount */\n      dup3\n        /* \"code-eater/event-organisation/Event.sol\":744:806  Event(msg.sender, name, date, price, ticketCount, ticketCount) */\n      dup2\n      mstore\n      pop\n        /* \"code-eater/event-organisation/Event.sol\":727:733  events */\n      0x00\n        /* \"code-eater/event-organisation/Event.sol\":727:741  events[nextId] */\n      dup1\n        /* \"code-eater/event-organisation/Event.sol\":734:740  nextId */\n      sload(0x02)\n        /* \"code-eater/event-organisation/Event.sol\":727:741  events[nextId] */\n      dup2\n      mstore\n      0x20\n      add\n      swap1\n      dup2\n      mstore\n      0x20\n      add\n      0x00\n      keccak256\n        /* \"code-eater/event-organisation/Event.sol\":727:806  events[nextId] = Event(msg.sender, name, date, price, ticketCount, ticketCount) */\n      0x00\n      dup3\n      add\n      mload\n      dup2\n      0x00\n      add\n      exp(0x0100, 0x00)\n      dup2\n      sload\n      dup2\n      0xffffffffffffffffffffffffffffffffffffffff\n      mul\n      not\n      and\n      swap1\n      dup4\n      0xffffffffffffffffffffffffffffffffffffffff\n      and\n      mul\n      or\n      swap1\n      sstore\n      pop\n      0x20\n      dup3\n      add\n      mload\n      dup2\n      0x01\n      add\n      swap1\n      dup2\n      tag_33\n      swap2\n      swap1\n      tag_34\n      jump\t// in\n    tag_33:\n      pop\n      0x40\n      dup3\n      add\n      mload\n      dup2\n      0x02\n      add\n      sstore\n      0x60\n      dup3\n      add\n      mload\n      dup2\n      0x03\n      add\n      sstore\n      0x80\n      dup3\n      add\n      mload\n      dup2\n      0x04\n      add\n      sstore\n      0xa0\n      dup3\n      add\n      mload\n      dup2\n      0x05\n      add\n      sstore\n      swap1\n      pop\n      pop\n        /* \"code-eater/event-organisation/Event.sol\":817:823  nextId */\n      0x02\n      0x00\n        /* \"code-eater/event-organisation/Event.sol\":817:825  nextId++ */\n      dup2\n      sload\n      dup1\n      swap3\n      swap2\n      swap1\n      tag_35\n      swap1\n      tag_36\n      jump\t// in\n    tag_35:\n      swap2\n      swap1\n      pop\n      sstore\n      pop\n        /* \"code-eater/event-organisation/Event.sol\":435:840  function createEvent( string memory name, uint date, uint price, uint ticketCount) external{... */\n      pop\n      pop\n      pop\n      pop\n      jump\t// out\n        /* \"code-eater/event-organisation/Event.sol\":282:319  mapping( uint => Event) public events */\n    tag_14:\n      mstore(0x20, 0x00)\n      dup1\n      0x00\n      mstore\n      keccak256(0x00, 0x40)\n      0x00\n      swap2\n      pop\n      swap1\n      pop\n      dup1\n      0x00\n      add\n      0x00\n      swap1\n      sload\n      swap1\n      0x0100\n      exp\n      swap1\n      div\n      0xffffffffffffffffffffffffffffffffffffffff\n      and\n      swap1\n      dup1\n      0x01\n      add\n      dup1\n      sload\n      tag_37\n      swap1\n      tag_38\n      jump\t// in\n    tag_37:\n      dup1\n      0x1f\n      add\n      0x20\n      dup1\n      swap2\n      div\n      mul\n      0x20\n      add\n      mload(0x40)\n      swap1\n      dup2\n      add\n      0x40\n      mstore\n      dup1\n      swap3\n      swap2\n      swap1\n      dup2\n      dup2\n      mstore\n      0x20\n      add\n      dup3\n      dup1\n      sload\n      tag_39\n      swap1\n      tag_38\n      jump\t// in\n    tag_39:\n      dup1\n      iszero\n      tag_40\n      jumpi\n      dup1\n      0x1f\n      lt\n      tag_41\n      jumpi\n      0x0100\n      dup1\n      dup4\n      sload\n      div\n      mul\n      dup4\n      mstore\n      swap2\n      0x20\n      add\n      swap2\n      jump(tag_40)\n    tag_41:\n      dup3\n      add\n      swap2\n      swap1\n      0x00\n      mstore\n      keccak256(0x00, 0x20)\n      swap1\n    tag_42:\n      dup2\n      sload\n      dup2\n      mstore\n      swap1\n      0x01\n      add\n      swap1\n      0x20\n      add\n      dup1\n      dup4\n      gt\n      tag_42\n      jumpi\n      dup3\n      swap1\n      sub\n      0x1f\n      and\n      dup3\n      add\n      swap2\n    tag_40:\n      pop\n      pop\n      pop\n      pop\n      pop\n      swap1\n      dup1\n      0x02\n      add\n      sload\n      swap1\n      dup1\n      0x03\n      add\n      sload\n      swap1\n      dup1\n      0x04\n      add\n      sload\n      swap1\n      dup1\n      0x05\n      add\n      sload\n      swap1\n      pop\n      dup7\n      jump\t// out\n        /* \"code-eater/event-organisation/Event.sol\":407:425  uint public nextId */\n    tag_18:\n      sload(0x02)\n      dup2\n      jump\t// out\n        /* \"code-eater/event-organisation/Event.sol\":327:382  mapping( address => mapping(uint=>uint)) public tickets */\n    tag_24:\n      mstore(0x20, 0x01)\n      dup2\n      0x00\n      mstore\n      mstore(0x20, keccak256(0x00, 0x40))\n      dup1\n      0x00\n      mstore\n      keccak256(0x00, 0x40)\n      0x00\n      swap2\n      pop\n      swap2\n      pop\n      pop\n      sload\n      dup2\n      jump\t// out\n        /* \"#utility.yul\":7:82   */\n    tag_43:\n        /* \"#utility.yul\":40:46   */\n      0x00\n        /* \"#utility.yul\":73:75   */\n      0x40\n        /* \"#utility.yul\":67:76   */\n      mload\n        /* \"#utility.yul\":57:76   */\n      swap1\n      pop\n        /* \"#utility.yul\":7:82   */\n      swap1\n      jump\t// out\n        /* \"#utility.yul\":88:205   */\n    tag_44:\n        /* \"#utility.yul\":197:198   */\n      0x00\n        /* \"#utility.yul\":194:195   */\n      dup1\n        /* \"#utility.yul\":187:199   */\n      revert\n        /* \"#utility.yul\":211:328   */\n    tag_45:\n        /* \"#utility.yul\":320:321   */\n      0x00\n        /* \"#utility.yul\":317:318   */\n      dup1\n        /* \"#utility.yul\":310:322   */\n      revert\n        /* \"#utility.yul\":334:451   */\n    tag_46:\n        /* \"#utility.yul\":443:444   */\n      0x00\n        /* \"#utility.yul\":440:441   */\n      dup1\n        /* \"#utility.yul\":433:445   */\n      revert\n        /* \"#utility.yul\":457:574   */\n    tag_47:\n        /* \"#utility.yul\":566:567   */\n      0x00\n        /* \"#utility.yul\":563:564   */\n      dup1\n        /* \"#utility.yul\":556:568   */\n      revert\n        /* \"#utility.yul\":580:682   */\n    tag_48:\n        /* \"#utility.yul\":621:627   */\n      0x00\n        /* \"#utility.yul\":672:674   */\n      0x1f\n        /* \"#utility.yul\":668:675   */\n      not\n        /* \"#utility.yul\":663:665   */\n      0x1f\n        /* \"#utility.yul\":656:661   */\n      dup4\n        /* \"#utility.yul\":652:666   */\n      add\n        /* \"#utility.yul\":648:676   */\n      and\n        /* \"#utility.yul\":638:676   */\n      swap1\n      pop\n        /* \"#utility.yul\":580:682   */\n      swap2\n      swap1\n      pop\n      jump\t// out\n        /* \"#utility.yul\":688:868   */\n    tag_49:\n        /* \"#utility.yul\":736:813   */\n      0x4e487b7100000000000000000000000000000000000000000000000000000000\n        /* \"#utility.yul\":733:734   */\n      0x00\n        /* \"#utility.yul\":726:814   */\n      mstore\n        /* \"#utility.yul\":833:837   */\n      0x41\n        /* \"#utility.yul\":830:831   */\n      0x04\n        /* \"#utility.yul\":823:838   */\n      mstore\n        /* \"#utility.yul\":857:861   */\n      0x24\n        /* \"#utility.yul\":854:855   */\n      0x00\n        /* \"#utility.yul\":847:862   */\n      revert\n        /* \"#utility.yul\":874:1155   */\n    tag_50:\n        /* \"#utility.yul\":957:984   */\n      tag_99\n        /* \"#utility.yul\":979:983   */\n      dup3\n        /* \"#utility.yul\":957:984   */\n      tag_48\n      jump\t// in\n    tag_99:\n        /* \"#utility.yul\":949:955   */\n      dup2\n        /* \"#utility.yul\":945:985   */\n      add\n        /* \"#utility.yul\":1087:1093   */\n      dup2\n        /* \"#utility.yul\":1075:1085   */\n      dup2\n        /* \"#utility.yul\":1072:1094   */\n      lt\n        /* \"#utility.yul\":1051:1069   */\n      0xffffffffffffffff\n        /* \"#utility.yul\":1039:1049   */\n      dup3\n        /* \"#utility.yul\":1036:1070   */\n      gt\n        /* \"#utility.yul\":1033:1095   */\n      or\n        /* \"#utility.yul\":1030:1118   */\n      iszero\n      tag_100\n      jumpi\n        /* \"#utility.yul\":1098:1116   */\n      tag_101\n      tag_49\n      jump\t// in\n    tag_101:\n        /* \"#utility.yul\":1030:1118   */\n    tag_100:\n        /* \"#utility.yul\":1138:1148   */\n      dup1\n        /* \"#utility.yul\":1134:1136   */\n      0x40\n        /* \"#utility.yul\":1127:1149   */\n      mstore\n        /* \"#utility.yul\":917:1155   */\n      pop\n        /* \"#utility.yul\":874:1155   */\n      pop\n      pop\n      jump\t// out\n        /* \"#utility.yul\":1161:1290   */\n    tag_51:\n        /* \"#utility.yul\":1195:1201   */\n      0x00\n        /* \"#utility.yul\":1222:1242   */\n      tag_103\n      tag_43\n      jump\t// in\n    tag_103:\n        /* \"#utility.yul\":1212:1242   */\n      swap1\n      pop\n        /* \"#utility.yul\":1251:1284   */\n      tag_104\n        /* \"#utility.yul\":1279:1283   */\n      dup3\n        /* \"#utility.yul\":1271:1277   */\n      dup3\n        /* \"#utility.yul\":1251:1284   */\n      tag_50\n      jump\t// in\n    tag_104:\n        /* \"#utility.yul\":1161:1290   */\n      swap2\n      swap1\n      pop\n      jump\t// out\n        /* \"#utility.yul\":1296:1604   */\n    tag_52:\n        /* \"#utility.yul\":1358:1362   */\n      0x00\n        /* \"#utility.yul\":1448:1466   */\n      0xffffffffffffffff\n        /* \"#utility.yul\":1440:1446   */\n      dup3\n        /* \"#utility.yul\":1437:1467   */\n      gt\n        /* \"#utility.yul\":1434:1490   */\n      iszero\n      tag_106\n      jumpi\n        /* \"#utility.yul\":1470:1488   */\n      tag_107\n      tag_49\n      jump\t// in\n    tag_107:\n        /* \"#utility.yul\":1434:1490   */\n    tag_106:\n        /* \"#utility.yul\":1508:1537   */\n      tag_108\n        /* \"#utility.yul\":1530:1536   */\n      dup3\n        /* \"#utility.yul\":1508:1537   */\n      tag_48\n      jump\t// in\n    tag_108:\n        /* \"#utility.yul\":1500:1537   */\n      swap1\n      pop\n        /* \"#utility.yul\":1592:1596   */\n      0x20\n        /* \"#utility.yul\":1586:1590   */\n      dup2\n        /* \"#utility.yul\":1582:1597   */\n      add\n        /* \"#utility.yul\":1574:1597   */\n      swap1\n      pop\n        /* \"#utility.yul\":1296:1604   */\n      swap2\n      swap1\n      pop\n      jump\t// out\n        /* \"#utility.yul\":1610:1756   */\n    tag_53:\n        /* \"#utility.yul\":1707:1713   */\n      dup3\n        /* \"#utility.yul\":1702:1705   */\n      dup2\n        /* \"#utility.yul\":1697:1700   */\n      dup4\n        /* \"#utility.yul\":1684:1714   */\n      calldatacopy\n        /* \"#utility.yul\":1748:1749   */\n      0x00\n        /* \"#utility.yul\":1739:1745   */\n      dup4\n        /* \"#utility.yul\":1734:1737   */\n      dup4\n        /* \"#utility.yul\":1730:1746   */\n      add\n        /* \"#utility.yul\":1723:1750   */\n      mstore\n        /* \"#utility.yul\":1610:1756   */\n      pop\n      pop\n      pop\n      jump\t// out\n        /* \"#utility.yul\":1762:2187   */\n    tag_54:\n        /* \"#utility.yul\":1840:1845   */\n      0x00\n        /* \"#utility.yul\":1865:1931   */\n      tag_111\n        /* \"#utility.yul\":1881:1930   */\n      tag_112\n        /* \"#utility.yul\":1923:1929   */\n      dup5\n        /* \"#utility.yul\":1881:1930   */\n      tag_52\n      jump\t// in\n    tag_112:\n        /* \"#utility.yul\":1865:1931   */\n      tag_51\n      jump\t// in\n    tag_111:\n        /* \"#utility.yul\":1856:1931   */\n      swap1\n      pop\n        /* \"#utility.yul\":1954:1960   */\n      dup3\n        /* \"#utility.yul\":1947:1952   */\n      dup2\n        /* \"#utility.yul\":1940:1961   */\n      mstore\n        /* \"#utility.yul\":1992:1996   */\n      0x20\n        /* \"#utility.yul\":1985:1990   */\n      dup2\n        /* \"#utility.yul\":1981:1997   */\n      add\n        /* \"#utility.yul\":2030:2033   */\n      dup5\n        /* \"#utility.yul\":2021:2027   */\n      dup5\n        /* \"#utility.yul\":2016:2019   */\n      dup5\n        /* \"#utility.yul\":2012:2028   */\n      add\n        /* \"#utility.yul\":2009:2034   */\n      gt\n        /* \"#utility.yul\":2006:2118   */\n      iszero\n      tag_113\n      jumpi\n        /* \"#utility.yul\":2037:2116   */\n      tag_114\n      tag_47\n      jump\t// in\n    tag_114:\n        /* \"#utility.yul\":2006:2118   */\n    tag_113:\n        /* \"#utility.yul\":2127:2181   */\n      tag_115\n        /* \"#utility.yul\":2174:2180   */\n      dup5\n        /* \"#utility.yul\":2169:2172   */\n      dup3\n        /* \"#utility.yul\":2164:2167   */\n      dup6\n        /* \"#utility.yul\":2127:2181   */\n      tag_53\n      jump\t// in\n    tag_115:\n        /* \"#utility.yul\":1846:2187   */\n      pop\n        /* \"#utility.yul\":1762:2187   */\n      swap4\n      swap3\n      pop\n      pop\n      pop\n      jump\t// out\n        /* \"#utility.yul\":2207:2547   */\n    tag_55:\n        /* \"#utility.yul\":2263:2268   */\n      0x00\n        /* \"#utility.yul\":2312:2315   */\n      dup3\n        /* \"#utility.yul\":2305:2309   */\n      0x1f\n        /* \"#utility.yul\":2297:2303   */\n      dup4\n        /* \"#utility.yul\":2293:2310   */\n      add\n        /* \"#utility.yul\":2289:2316   */\n      slt\n        /* \"#utility.yul\":2279:2401   */\n      tag_117\n      jumpi\n        /* \"#utility.yul\":2320:2399   */\n      tag_118\n      tag_46\n      jump\t// in\n    tag_118:\n        /* \"#utility.yul\":2279:2401   */\n    tag_117:\n        /* \"#utility.yul\":2437:2443   */\n      dup2\n        /* \"#utility.yul\":2424:2444   */\n      calldataload\n        /* \"#utility.yul\":2462:2541   */\n      tag_119\n        /* \"#utility.yul\":2537:2540   */\n      dup5\n        /* \"#utility.yul\":2529:2535   */\n      dup3\n        /* \"#utility.yul\":2522:2526   */\n      0x20\n        /* \"#utility.yul\":2514:2520   */\n      dup7\n        /* \"#utility.yul\":2510:2527   */\n      add\n        /* \"#utility.yul\":2462:2541   */\n      tag_54\n      jump\t// in\n    tag_119:\n        /* \"#utility.yul\":2453:2541   */\n      swap2\n      pop\n        /* \"#utility.yul\":2269:2547   */\n      pop\n        /* \"#utility.yul\":2207:2547   */\n      swap3\n      swap2\n      pop\n      pop\n      jump\t// out\n        /* \"#utility.yul\":2553:2630   */\n    tag_56:\n        /* \"#utility.yul\":2590:2597   */\n      0x00\n        /* \"#utility.yul\":2619:2624   */\n      dup2\n        /* \"#utility.yul\":2608:2624   */\n      swap1\n      pop\n        /* \"#utility.yul\":2553:2630   */\n      swap2\n      swap1\n      pop\n      jump\t// out\n        /* \"#utility.yul\":2636:2758   */\n    tag_57:\n        /* \"#utility.yul\":2709:2733   */\n      tag_122\n        /* \"#utility.yul\":2727:2732   */\n      dup2\n        /* \"#utility.yul\":2709:2733   */\n      tag_56\n      jump\t// in\n    tag_122:\n        /* \"#utility.yul\":2702:2707   */\n      dup2\n        /* \"#utility.yul\":2699:2734   */\n      eq\n        /* \"#utility.yul\":2689:2752   */\n      tag_123\n      jumpi\n        /* \"#utility.yul\":2748:2749   */\n      0x00\n        /* \"#utility.yul\":2745:2746   */\n      dup1\n        /* \"#utility.yul\":2738:2750   */\n      revert\n        /* \"#utility.yul\":2689:2752   */\n    tag_123:\n        /* \"#utility.yul\":2636:2758   */\n      pop\n      jump\t// out\n        /* \"#utility.yul\":2764:2903   */\n    tag_58:\n        /* \"#utility.yul\":2810:2815   */\n      0x00\n        /* \"#utility.yul\":2848:2854   */\n      dup2\n        /* \"#utility.yul\":2835:2855   */\n      calldataload\n        /* \"#utility.yul\":2826:2855   */\n      swap1\n      pop\n        /* \"#utility.yul\":2864:2897   */\n      tag_125\n        /* \"#utility.yul\":2891:2896   */\n      dup2\n        /* \"#utility.yul\":2864:2897   */\n      tag_57\n      jump\t// in\n    tag_125:\n        /* \"#utility.yul\":2764:2903   */\n      swap3\n      swap2\n      pop\n      pop\n      jump\t// out\n        /* \"#utility.yul\":2909:3854   */\n    tag_9:\n        /* \"#utility.yul\":3005:3011   */\n      0x00\n        /* \"#utility.yul\":3013:3019   */\n      dup1\n        /* \"#utility.yul\":3021:3027   */\n      0x00\n        /* \"#utility.yul\":3029:3035   */\n      dup1\n        /* \"#utility.yul\":3078:3081   */\n      0x80\n        /* \"#utility.yul\":3066:3075   */\n      dup6\n        /* \"#utility.yul\":3057:3064   */\n      dup8\n        /* \"#utility.yul\":3053:3076   */\n      sub\n        /* \"#utility.yul\":3049:3082   */\n      slt\n        /* \"#utility.yul\":3046:3166   */\n      iszero\n      tag_127\n      jumpi\n        /* \"#utility.yul\":3085:3164   */\n      tag_128\n      tag_44\n      jump\t// in\n    tag_128:\n        /* \"#utility.yul\":3046:3166   */\n    tag_127:\n        /* \"#utility.yul\":3233:3234   */\n      0x00\n        /* \"#utility.yul\":3222:3231   */\n      dup6\n        /* \"#utility.yul\":3218:3235   */\n      add\n        /* \"#utility.yul\":3205:3236   */\n      calldataload\n        /* \"#utility.yul\":3263:3281   */\n      0xffffffffffffffff\n        /* \"#utility.yul\":3255:3261   */\n      dup2\n        /* \"#utility.yul\":3252:3282   */\n      gt\n        /* \"#utility.yul\":3249:3366   */\n      iszero\n      tag_129\n      jumpi\n        /* \"#utility.yul\":3285:3364   */\n      tag_130\n      tag_45\n      jump\t// in\n    tag_130:\n        /* \"#utility.yul\":3249:3366   */\n    tag_129:\n        /* \"#utility.yul\":3390:3453   */\n      tag_131\n        /* \"#utility.yul\":3445:3452   */\n      dup8\n        /* \"#utility.yul\":3436:3442   */\n      dup3\n        /* \"#utility.yul\":3425:3434   */\n      dup9\n        /* \"#utility.yul\":3421:3443   */\n      add\n        /* \"#utility.yul\":3390:3453   */\n      tag_55\n      jump\t// in\n    tag_131:\n        /* \"#utility.yul\":3380:3453   */\n      swap5\n      pop\n        /* \"#utility.yul\":3176:3463   */\n      pop\n        /* \"#utility.yul\":3502:3504   */\n      0x20\n        /* \"#utility.yul\":3528:3581   */\n      tag_132\n        /* \"#utility.yul\":3573:3580   */\n      dup8\n        /* \"#utility.yul\":3564:3570   */\n      dup3\n        /* \"#utility.yul\":3553:3562   */\n      dup9\n        /* \"#utility.yul\":3549:3571   */\n      add\n        /* \"#utility.yul\":3528:3581   */\n      tag_58\n      jump\t// in\n    tag_132:\n        /* \"#utility.yul\":3518:3581   */\n      swap4\n      pop\n        /* \"#utility.yul\":3473:3591   */\n      pop\n        /* \"#utility.yul\":3630:3632   */\n      0x40\n        /* \"#utility.yul\":3656:3709   */\n      tag_133\n        /* \"#utility.yul\":3701:3708   */\n      dup8\n        /* \"#utility.yul\":3692:3698   */\n      dup3\n        /* \"#utility.yul\":3681:3690   */\n      dup9\n        /* \"#utility.yul\":3677:3699   */\n      add\n        /* \"#utility.yul\":3656:3709   */\n      tag_58\n      jump\t// in\n    tag_133:\n        /* \"#utility.yul\":3646:3709   */\n      swap3\n      pop\n        /* \"#utility.yul\":3601:3719   */\n      pop\n        /* \"#utility.yul\":3758:3760   */\n      0x60\n        /* \"#utility.yul\":3784:3837   */\n      tag_134\n        /* \"#utility.yul\":3829:3836   */\n      dup8\n        /* \"#utility.yul\":3820:3826   */\n      dup3\n        /* \"#utility.yul\":3809:3818   */\n      dup9\n        /* \"#utility.yul\":3805:3827   */\n      add\n        /* \"#utility.yul\":3784:3837   */\n      tag_58\n      jump\t// in\n    tag_134:\n        /* \"#utility.yul\":3774:3837   */\n      swap2\n      pop\n        /* \"#utility.yul\":3729:3847   */\n      pop\n        /* \"#utility.yul\":2909:3854   */\n      swap3\n      swap6\n      swap2\n      swap5\n      pop\n      swap3\n      pop\n      jump\t// out\n        /* \"#utility.yul\":3860:4189   */\n    tag_13:\n        /* \"#utility.yul\":3919:3925   */\n      0x00\n        /* \"#utility.yul\":3968:3970   */\n      0x20\n        /* \"#utility.yul\":3956:3965   */\n      dup3\n        /* \"#utility.yul\":3947:3954   */\n      dup5\n        /* \"#utility.yul\":3943:3966   */\n      sub\n        /* \"#utility.yul\":3939:3971   */\n      slt\n        /* \"#utility.yul\":3936:4055   */\n      iszero\n      tag_136\n      jumpi\n        /* \"#utility.yul\":3974:4053   */\n      tag_137\n      tag_44\n      jump\t// in\n    tag_137:\n        /* \"#utility.yul\":3936:4055   */\n    tag_136:\n        /* \"#utility.yul\":4094:4095   */\n      0x00\n        /* \"#utility.yul\":4119:4172   */\n      tag_138\n        /* \"#utility.yul\":4164:4171   */\n      dup5\n        /* \"#utility.yul\":4155:4161   */\n      dup3\n        /* \"#utility.yul\":4144:4153   */\n      dup6\n        /* \"#utility.yul\":4140:4162   */\n      add\n        /* \"#utility.yul\":4119:4172   */\n      tag_58\n      jump\t// in\n    tag_138:\n        /* \"#utility.yul\":4109:4172   */\n      swap2\n      pop\n        /* \"#utility.yul\":4065:4182   */\n      pop\n        /* \"#utility.yul\":3860:4189   */\n      swap3\n      swap2\n      pop\n      pop\n      jump\t// out\n        /* \"#utility.yul\":4195:4321   */\n    tag_59:\n        /* \"#utility.yul\":4232:4239   */\n      0x00\n        /* \"#utility.yul\":4272:4314   */\n      0xffffffffffffffffffffffffffffffffffffffff\n        /* \"#utility.yul\":4265:4270   */\n      dup3\n        /* \"#utility.yul\":4261:4315   */\n      and\n        /* \"#utility.yul\":4250:4315   */\n      swap1\n      pop\n        /* \"#utility.yul\":4195:4321   */\n      swap2\n      swap1\n      pop\n      jump\t// out\n        /* \"#utility.yul\":4327:4423   */\n    tag_60:\n        /* \"#utility.yul\":4364:4371   */\n      0x00\n        /* \"#utility.yul\":4393:4417   */\n      tag_141\n        /* \"#utility.yul\":4411:4416   */\n      dup3\n        /* \"#utility.yul\":4393:4417   */\n      tag_59\n      jump\t// in\n    tag_141:\n        /* \"#utility.yul\":4382:4417   */\n      swap1\n      pop\n        /* \"#utility.yul\":4327:4423   */\n      swap2\n      swap1\n      pop\n      jump\t// out\n        /* \"#utility.yul\":4429:4547   */\n    tag_61:\n        /* \"#utility.yul\":4516:4540   */\n      tag_143\n        /* \"#utility.yul\":4534:4539   */\n      dup2\n        /* \"#utility.yul\":4516:4540   */\n      tag_60\n      jump\t// in\n    tag_143:\n        /* \"#utility.yul\":4511:4514   */\n      dup3\n        /* \"#utility.yul\":4504:4541   */\n      mstore\n        /* \"#utility.yul\":4429:4547   */\n      pop\n      pop\n      jump\t// out\n        /* \"#utility.yul\":4553:4652   */\n    tag_62:\n        /* \"#utility.yul\":4605:4611   */\n      0x00\n        /* \"#utility.yul\":4639:4644   */\n      dup2\n        /* \"#utility.yul\":4633:4645   */\n      mload\n        /* \"#utility.yul\":4623:4645   */\n      swap1\n      pop\n        /* \"#utility.yul\":4553:4652   */\n      swap2\n      swap1\n      pop\n      jump\t// out\n        /* \"#utility.yul\":4658:4827   */\n    tag_63:\n        /* \"#utility.yul\":4742:4753   */\n      0x00\n        /* \"#utility.yul\":4776:4782   */\n      dup3\n        /* \"#utility.yul\":4771:4774   */\n      dup3\n        /* \"#utility.yul\":4764:4783   */\n      mstore\n        /* \"#utility.yul\":4816:4820   */\n      0x20\n        /* \"#utility.yul\":4811:4814   */\n      dup3\n        /* \"#utility.yul\":4807:4821   */\n      add\n        /* \"#utility.yul\":4792:4821   */\n      swap1\n      pop\n        /* \"#utility.yul\":4658:4827   */\n      swap3\n      swap2\n      pop\n      pop\n      jump\t// out\n        /* \"#utility.yul\":4833:5079   */\n    tag_64:\n        /* \"#utility.yul\":4914:4915   */\n      0x00\n        /* \"#utility.yul\":4924:5037   */\n    tag_147:\n        /* \"#utility.yul\":4938:4944   */\n      dup4\n        /* \"#utility.yul\":4935:4936   */\n      dup2\n        /* \"#utility.yul\":4932:4945   */\n      lt\n        /* \"#utility.yul\":4924:5037   */\n      iszero\n      tag_149\n      jumpi\n        /* \"#utility.yul\":5023:5024   */\n      dup1\n        /* \"#utility.yul\":5018:5021   */\n      dup3\n        /* \"#utility.yul\":5014:5025   */\n      add\n        /* \"#utility.yul\":5008:5026   */\n      mload\n        /* \"#utility.yul\":5004:5005   */\n      dup2\n        /* \"#utility.yul\":4999:5002   */\n      dup5\n        /* \"#utility.yul\":4995:5006   */\n      add\n        /* \"#utility.yul\":4988:5027   */\n      mstore\n        /* \"#utility.yul\":4960:4962   */\n      0x20\n        /* \"#utility.yul\":4957:4958   */\n      dup2\n        /* \"#utility.yul\":4953:4963   */\n      add\n        /* \"#utility.yul\":4948:4963   */\n      swap1\n      pop\n        /* \"#utility.yul\":4924:5037   */\n      jump(tag_147)\n    tag_149:\n        /* \"#utility.yul\":5071:5072   */\n      0x00\n        /* \"#utility.yul\":5062:5068   */\n      dup5\n        /* \"#utility.yul\":5057:5060   */\n      dup5\n        /* \"#utility.yul\":5053:5069   */\n      add\n        /* \"#utility.yul\":5046:5073   */\n      mstore\n        /* \"#utility.yul\":4895:5079   */\n      pop\n        /* \"#utility.yul\":4833:5079   */\n      pop\n      pop\n      pop\n      jump\t// out\n        /* \"#utility.yul\":5085:5462   */\n    tag_65:\n        /* \"#utility.yul\":5173:5176   */\n      0x00\n        /* \"#utility.yul\":5201:5240   */\n      tag_151\n        /* \"#utility.yul\":5234:5239   */\n      dup3\n        /* \"#utility.yul\":5201:5240   */\n      tag_62\n      jump\t// in\n    tag_151:\n        /* \"#utility.yul\":5256:5327   */\n      tag_152\n        /* \"#utility.yul\":5320:5326   */\n      dup2\n        /* \"#utility.yul\":5315:5318   */\n      dup6\n        /* \"#utility.yul\":5256:5327   */\n      tag_63\n      jump\t// in\n    tag_152:\n        /* \"#utility.yul\":5249:5327   */\n      swap4\n      pop\n        /* \"#utility.yul\":5336:5401   */\n      tag_153\n        /* \"#utility.yul\":5394:5400   */\n      dup2\n        /* \"#utility.yul\":5389:5392   */\n      dup6\n        /* \"#utility.yul\":5382:5386   */\n      0x20\n        /* \"#utility.yul\":5375:5380   */\n      dup7\n        /* \"#utility.yul\":5371:5387   */\n      add\n        /* \"#utility.yul\":5336:5401   */\n      tag_64\n      jump\t// in\n    tag_153:\n        /* \"#utility.yul\":5426:5455   */\n      tag_154\n        /* \"#utility.yul\":5448:5454   */\n      dup2\n        /* \"#utility.yul\":5426:5455   */\n      tag_48\n      jump\t// in\n    tag_154:\n        /* \"#utility.yul\":5421:5424   */\n      dup5\n        /* \"#utility.yul\":5417:5456   */\n      add\n        /* \"#utility.yul\":5410:5456   */\n      swap2\n      pop\n        /* \"#utility.yul\":5177:5462   */\n      pop\n        /* \"#utility.yul\":5085:5462   */\n      swap3\n      swap2\n      pop\n      pop\n      jump\t// out\n        /* \"#utility.yul\":5468:5586   */\n    tag_66:\n        /* \"#utility.yul\":5555:5579   */\n      tag_156\n        /* \"#utility.yul\":5573:5578   */\n      dup2\n        /* \"#utility.yul\":5555:5579   */\n      tag_56\n      jump\t// in\n    tag_156:\n        /* \"#utility.yul\":5550:5553   */\n      dup3\n        /* \"#utility.yul\":5543:5580   */\n      mstore\n        /* \"#utility.yul\":5468:5586   */\n      pop\n      pop\n      jump\t// out\n        /* \"#utility.yul\":5592:6458   */\n    tag_16:\n        /* \"#utility.yul\":5845:5849   */\n      0x00\n        /* \"#utility.yul\":5883:5886   */\n      0xc0\n        /* \"#utility.yul\":5872:5881   */\n      dup3\n        /* \"#utility.yul\":5868:5887   */\n      add\n        /* \"#utility.yul\":5860:5887   */\n      swap1\n      pop\n        /* \"#utility.yul\":5897:5968   */\n      tag_158\n        /* \"#utility.yul\":5965:5966   */\n      0x00\n        /* \"#utility.yul\":5954:5963   */\n      dup4\n        /* \"#utility.yul\":5950:5967   */\n      add\n        /* \"#utility.yul\":5941:5947   */\n      dup10\n        /* \"#utility.yul\":5897:5968   */\n      tag_61\n      jump\t// in\n    tag_158:\n        /* \"#utility.yul\":6015:6024   */\n      dup2\n        /* \"#utility.yul\":6009:6013   */\n      dup2\n        /* \"#utility.yul\":6005:6025   */\n      sub\n        /* \"#utility.yul\":6000:6002   */\n      0x20\n        /* \"#utility.yul\":5989:5998   */\n      dup4\n        /* \"#utility.yul\":5985:6003   */\n      add\n        /* \"#utility.yul\":5978:6026   */\n      mstore\n        /* \"#utility.yul\":6043:6121   */\n      tag_159\n        /* \"#utility.yul\":6116:6120   */\n      dup2\n        /* \"#utility.yul\":6107:6113   */\n      dup9\n        /* \"#utility.yul\":6043:6121   */\n      tag_65\n      jump\t// in\n    tag_159:\n        /* \"#utility.yul\":6035:6121   */\n      swap1\n      pop\n        /* \"#utility.yul\":6131:6203   */\n      tag_160\n        /* \"#utility.yul\":6199:6201   */\n      0x40\n        /* \"#utility.yul\":6188:6197   */\n      dup4\n        /* \"#utility.yul\":6184:6202   */\n      add\n        /* \"#utility.yul\":6175:6181   */\n      dup8\n        /* \"#utility.yul\":6131:6203   */\n      tag_66\n      jump\t// in\n    tag_160:\n        /* \"#utility.yul\":6213:6285   */\n      tag_161\n        /* \"#utility.yul\":6281:6283   */\n      0x60\n        /* \"#utility.yul\":6270:6279   */\n      dup4\n        /* \"#utility.yul\":6266:6284   */\n      add\n        /* \"#utility.yul\":6257:6263   */\n      dup7\n        /* \"#utility.yul\":6213:6285   */\n      tag_66\n      jump\t// in\n    tag_161:\n        /* \"#utility.yul\":6295:6368   */\n      tag_162\n        /* \"#utility.yul\":6363:6366   */\n      0x80\n        /* \"#utility.yul\":6352:6361   */\n      dup4\n        /* \"#utility.yul\":6348:6367   */\n      add\n        /* \"#utility.yul\":6339:6345   */\n      dup6\n        /* \"#utility.yul\":6295:6368   */\n      tag_66\n      jump\t// in\n    tag_162:\n        /* \"#utility.yul\":6378:6451   */\n      tag_163\n        /* \"#utility.yul\":6446:6449   */\n      0xa0\n        /* \"#utility.yul\":6435:6444   */\n      dup4\n        /* \"#utility.yul\":6431:6450   */\n      add\n        /* \"#utility.yul\":6422:6428   */\n      dup5\n        /* \"#utility.yul\":6378:6451   */\n      tag_66\n      jump\t// in\n    tag_163:\n        /* \"#utility.yul\":5592:6458   */\n      swap8\n      swap7\n      pop\n      pop\n      pop\n      pop\n      pop\n      pop\n      pop\n      jump\t// out\n        /* \"#utility.yul\":6464:6686   */\n    tag_20:\n        /* \"#utility.yul\":6557:6561   */\n      0x00\n        /* \"#utility.yul\":6595:6597   */\n      0x20\n        /* \"#utility.yul\":6584:6593   */\n      dup3\n        /* \"#utility.yul\":6580:6598   */\n      add\n        /* \"#utility.yul\":6572:6598   */\n      swap1\n      pop\n        /* \"#utility.yul\":6608:6679   */\n      tag_165\n        /* \"#utility.yul\":6676:6677   */\n      0x00\n        /* \"#utility.yul\":6665:6674   */\n      dup4\n        /* \"#utility.yul\":6661:6678   */\n      add\n        /* \"#utility.yul\":6652:6658   */\n      dup5\n        /* \"#utility.yul\":6608:6679   */\n      tag_66\n      jump\t// in\n    tag_165:\n        /* \"#utility.yul\":6464:6686   */\n      swap3\n      swap2\n      pop\n      pop\n      jump\t// out\n        /* \"#utility.yul\":6692:6814   */\n    tag_67:\n        /* \"#utility.yul\":6765:6789   */\n      tag_167\n        /* \"#utility.yul\":6783:6788   */\n      dup2\n        /* \"#utility.yul\":6765:6789   */\n      tag_60\n      jump\t// in\n    tag_167:\n        /* \"#utility.yul\":6758:6763   */\n      dup2\n        /* \"#utility.yul\":6755:6790   */\n      eq\n        /* \"#utility.yul\":6745:6808   */\n      tag_168\n      jumpi\n        /* \"#utility.yul\":6804:6805   */\n      0x00\n        /* \"#utility.yul\":6801:6802   */\n      dup1\n        /* \"#utility.yul\":6794:6806   */\n      revert\n        /* \"#utility.yul\":6745:6808   */\n    tag_168:\n        /* \"#utility.yul\":6692:6814   */\n      pop\n      jump\t// out\n        /* \"#utility.yul\":6820:6959   */\n    tag_68:\n        /* \"#utility.yul\":6866:6871   */\n      0x00\n        /* \"#utility.yul\":6904:6910   */\n      dup2\n        /* \"#utility.yul\":6891:6911   */\n      calldataload\n        /* \"#utility.yul\":6882:6911   */\n      swap1\n      pop\n        /* \"#utility.yul\":6920:6953   */\n      tag_170\n        /* \"#utility.yul\":6947:6952   */\n      dup2\n        /* \"#utility.yul\":6920:6953   */\n      tag_67\n      jump\t// in\n    tag_170:\n        /* \"#utility.yul\":6820:6959   */\n      swap3\n      swap2\n      pop\n      pop\n      jump\t// out\n        /* \"#utility.yul\":6965:7439   */\n    tag_23:\n        /* \"#utility.yul\":7033:7039   */\n      0x00\n        /* \"#utility.yul\":7041:7047   */\n      dup1\n        /* \"#utility.yul\":7090:7092   */\n      0x40\n        /* \"#utility.yul\":7078:7087   */\n      dup4\n        /* \"#utility.yul\":7069:7076   */\n      dup6\n        /* \"#utility.yul\":7065:7088   */\n      sub\n        /* \"#utility.yul\":7061:7093   */\n      slt\n        /* \"#utility.yul\":7058:7177   */\n      iszero\n      tag_172\n      jumpi\n        /* \"#utility.yul\":7096:7175   */\n      tag_173\n      tag_44\n      jump\t// in\n    tag_173:\n        /* \"#utility.yul\":7058:7177   */\n    tag_172:\n        /* \"#utility.yul\":7216:7217   */\n      0x00\n        /* \"#utility.yul\":7241:7294   */\n      tag_174\n        /* \"#utility.yul\":7286:7293   */\n      dup6\n        /* \"#utility.yul\":7277:7283   */\n      dup3\n        /* \"#utility.yul\":7266:7275   */\n      dup7\n        /* \"#utility.yul\":7262:7284   */\n      add\n        /* \"#utility.yul\":7241:7294   */\n      tag_68\n      jump\t// in\n    tag_174:\n        /* \"#utility.yul\":7231:7294   */\n      swap3\n      pop\n        /* \"#utility.yul\":7187:7304   */\n      pop\n        /* \"#utility.yul\":7343:7345   */\n      0x20\n        /* \"#utility.yul\":7369:7422   */\n      tag_175\n        /* \"#utility.yul\":7414:7421   */\n      dup6\n        /* \"#utility.yul\":7405:7411   */\n      dup3\n        /* \"#utility.yul\":7394:7403   */\n      dup7\n        /* \"#utility.yul\":7390:7412   */\n      add\n        /* \"#utility.yul\":7369:7422   */\n      tag_58\n      jump\t// in\n    tag_175:\n        /* \"#utility.yul\":7359:7422   */\n      swap2\n      pop\n        /* \"#utility.yul\":7314:7432   */\n      pop\n        /* \"#utility.yul\":6965:7439   */\n      swap3\n      pop\n      swap3\n      swap1\n      pop\n      jump\t// out\n        /* \"#utility.yul\":7445:7670   */\n    tag_69:\n        /* \"#utility.yul\":7585:7619   */\n      0x596f752063616e206f7267616e697a65206576656e7420666f72206675747572\n        /* \"#utility.yul\":7581:7582   */\n      0x00\n        /* \"#utility.yul\":7573:7579   */\n      dup3\n        /* \"#utility.yul\":7569:7583   */\n      add\n        /* \"#utility.yul\":7562:7620   */\n      mstore\n        /* \"#utility.yul\":7654:7662   */\n      0x6520646174650000000000000000000000000000000000000000000000000000\n        /* \"#utility.yul\":7649:7651   */\n      0x20\n        /* \"#utility.yul\":7641:7647   */\n      dup3\n        /* \"#utility.yul\":7637:7652   */\n      add\n        /* \"#utility.yul\":7630:7663   */\n      mstore\n        /* \"#utility.yul\":7445:7670   */\n      pop\n      jump\t// out\n        /* \"#utility.yul\":7676:8042   */\n    tag_70:\n        /* \"#utility.yul\":7818:7821   */\n      0x00\n        /* \"#utility.yul\":7839:7906   */\n      tag_178\n        /* \"#utility.yul\":7903:7905   */\n      0x26\n        /* \"#utility.yul\":7898:7901   */\n      dup4\n        /* \"#utility.yul\":7839:7906   */\n      tag_63\n      jump\t// in\n    tag_178:\n        /* \"#utility.yul\":7832:7906   */\n      swap2\n      pop\n        /* \"#utility.yul\":7915:8008   */\n      tag_179\n        /* \"#utility.yul\":8004:8007   */\n      dup3\n        /* \"#utility.yul\":7915:8008   */\n      tag_69\n      jump\t// in\n    tag_179:\n        /* \"#utility.yul\":8033:8035   */\n      0x40\n        /* \"#utility.yul\":8028:8031   */\n      dup3\n        /* \"#utility.yul\":8024:8036   */\n      add\n        /* \"#utility.yul\":8017:8036   */\n      swap1\n      pop\n        /* \"#utility.yul\":7676:8042   */\n      swap2\n      swap1\n      pop\n      jump\t// out\n        /* \"#utility.yul\":8048:8467   */\n    tag_29:\n        /* \"#utility.yul\":8214:8218   */\n      0x00\n        /* \"#utility.yul\":8252:8254   */\n      0x20\n        /* \"#utility.yul\":8241:8250   */\n      dup3\n        /* \"#utility.yul\":8237:8255   */\n      add\n        /* \"#utility.yul\":8229:8255   */\n      swap1\n      pop\n        /* \"#utility.yul\":8301:8310   */\n      dup2\n        /* \"#utility.yul\":8295:8299   */\n      dup2\n        /* \"#utility.yul\":8291:8311   */\n      sub\n        /* \"#utility.yul\":8287:8288   */\n      0x00\n        /* \"#utility.yul\":8276:8285   */\n      dup4\n        /* \"#utility.yul\":8272:8289   */\n      add\n        /* \"#utility.yul\":8265:8312   */\n      mstore\n        /* \"#utility.yul\":8329:8460   */\n      tag_181\n        /* \"#utility.yul\":8455:8459   */\n      dup2\n        /* \"#utility.yul\":8329:8460   */\n      tag_70\n      jump\t// in\n    tag_181:\n        /* \"#utility.yul\":8321:8460   */\n      swap1\n      pop\n        /* \"#utility.yul\":8048:8467   */\n      swap2\n      swap1\n      pop\n      jump\t// out\n        /* \"#utility.yul\":8473:8721   */\n    tag_71:\n        /* \"#utility.yul\":8613:8647   */\n      0x596f752063616e206f7267616e697a65206576656e74206f6e6c792069662079\n        /* \"#utility.yul\":8609:8610   */\n      0x00\n        /* \"#utility.yul\":8601:8607   */\n      dup3\n        /* \"#utility.yul\":8597:8611   */\n      add\n        /* \"#utility.yul\":8590:8648   */\n      mstore\n        /* \"#utility.yul\":8682:8713   */\n      0x6f7520637265617465206d6f7265207468616e2030207469636b657473000000\n        /* \"#utility.yul\":8677:8679   */\n      0x20\n        /* \"#utility.yul\":8669:8675   */\n      dup3\n        /* \"#utility.yul\":8665:8680   */\n      add\n        /* \"#utility.yul\":8658:8714   */\n      mstore\n        /* \"#utility.yul\":8473:8721   */\n      pop\n      jump\t// out\n        /* \"#utility.yul\":8727:9093   */\n    tag_72:\n        /* \"#utility.yul\":8869:8872   */\n      0x00\n        /* \"#utility.yul\":8890:8957   */\n      tag_184\n        /* \"#utility.yul\":8954:8956   */\n      0x3d\n        /* \"#utility.yul\":8949:8952   */\n      dup4\n        /* \"#utility.yul\":8890:8957   */\n      tag_63\n      jump\t// in\n    tag_184:\n        /* \"#utility.yul\":8883:8957   */\n      swap2\n      pop\n        /* \"#utility.yul\":8966:9059   */\n      tag_185\n        /* \"#utility.yul\":9055:9058   */\n      dup3\n        /* \"#utility.yul\":8966:9059   */\n      tag_71\n      jump\t// in\n    tag_185:\n        /* \"#utility.yul\":9084:9086   */\n      0x40\n        /* \"#utility.yul\":9079:9082   */\n      dup3\n        /* \"#utility.yul\":9075:9087   */\n      add\n        /* \"#utility.yul\":9068:9087   */\n      swap1\n      pop\n        /* \"#utility.yul\":8727:9093   */\n      swap2\n      swap1\n      pop\n      jump\t// out\n        /* \"#utility.yul\":9099:9518   */\n    tag_32:\n        /* \"#utility.yul\":9265:9269   */\n      0x00\n        /* \"#utility.yul\":9303:9305   */\n      0x20\n        /* \"#utility.yul\":9292:9301   */\n      dup3\n        /* \"#utility.yul\":9288:9306   */\n      add\n        /* \"#utility.yul\":9280:9306   */\n      swap1\n      pop\n        /* \"#utility.yul\":9352:9361   */\n      dup2\n        /* \"#utility.yul\":9346:9350   */\n      dup2\n        /* \"#utility.yul\":9342:9362   */\n      sub\n        /* \"#utility.yul\":9338:9339   */\n      0x00\n        /* \"#utility.yul\":9327:9336   */\n      dup4\n        /* \"#utility.yul\":9323:9340   */\n      add\n        /* \"#utility.yul\":9316:9363   */\n      mstore\n        /* \"#utility.yul\":9380:9511   */\n      tag_187\n        /* \"#utility.yul\":9506:9510   */\n      dup2\n        /* \"#utility.yul\":9380:9511   */\n      tag_72\n      jump\t// in\n    tag_187:\n        /* \"#utility.yul\":9372:9511   */\n      swap1\n      pop\n        /* \"#utility.yul\":9099:9518   */\n      swap2\n      swap1\n      pop\n      jump\t// out\n        /* \"#utility.yul\":9524:9704   */\n    tag_73:\n        /* \"#utility.yul\":9572:9649   */\n      0x4e487b7100000000000000000000000000000000000000000000000000000000\n        /* \"#utility.yul\":9569:9570   */\n      0x00\n        /* \"#utility.yul\":9562:9650   */\n      mstore\n        /* \"#utility.yul\":9669:9673   */\n      0x22\n        /* \"#utility.yul\":9666:9667   */\n      0x04\n        /* \"#utility.yul\":9659:9674   */\n      mstore\n        /* \"#utility.yul\":9693:9697   */\n      0x24\n        /* \"#utility.yul\":9690:9691   */\n      0x00\n        /* \"#utility.yul\":9683:9698   */\n      revert\n        /* \"#utility.yul\":9710:10030   */\n    tag_38:\n        /* \"#utility.yul\":9754:9760   */\n      0x00\n        /* \"#utility.yul\":9791:9792   */\n      0x02\n        /* \"#utility.yul\":9785:9789   */\n      dup3\n        /* \"#utility.yul\":9781:9793   */\n      div\n        /* \"#utility.yul\":9771:9793   */\n      swap1\n      pop\n        /* \"#utility.yul\":9838:9839   */\n      0x01\n        /* \"#utility.yul\":9832:9836   */\n      dup3\n        /* \"#utility.yul\":9828:9840   */\n      and\n        /* \"#utility.yul\":9859:9877   */\n      dup1\n        /* \"#utility.yul\":9849:9930   */\n      tag_190\n      jumpi\n        /* \"#utility.yul\":9915:9919   */\n      0x7f\n        /* \"#utility.yul\":9907:9913   */\n      dup3\n        /* \"#utility.yul\":9903:9920   */\n      and\n        /* \"#utility.yul\":9893:9920   */\n      swap2\n      pop\n        /* \"#utility.yul\":9849:9930   */\n    tag_190:\n        /* \"#utility.yul\":9977:9979   */\n      0x20\n        /* \"#utility.yul\":9969:9975   */\n      dup3\n        /* \"#utility.yul\":9966:9980   */\n      lt\n        /* \"#utility.yul\":9946:9964   */\n      dup2\n        /* \"#utility.yul\":9943:9981   */\n      sub\n        /* \"#utility.yul\":9940:10024   */\n      tag_191\n      jumpi\n        /* \"#utility.yul\":9996:10014   */\n      tag_192\n      tag_73\n      jump\t// in\n    tag_192:\n        /* \"#utility.yul\":9940:10024   */\n    tag_191:\n        /* \"#utility.yul\":9761:10030   */\n      pop\n        /* \"#utility.yul\":9710:10030   */\n      swap2\n      swap1\n      pop\n      jump\t// out\n        /* \"#utility.yul\":10036:10177   */\n    tag_74:\n        /* \"#utility.yul\":10085:10089   */\n      0x00\n        /* \"#utility.yul\":10108:10111   */\n      dup2\n        /* \"#utility.yul\":10100:10111   */\n      swap1\n      pop\n        /* \"#utility.yul\":10131:10134   */\n      dup2\n        /* \"#utility.yul\":10128:10129   */\n      0x00\n        /* \"#utility.yul\":10121:10135   */\n      mstore\n        /* \"#utility.yul\":10165:10169   */\n      0x20\n        /* \"#utility.yul\":10162:10163   */\n      0x00\n        /* \"#utility.yul\":10152:10170   */\n      keccak256\n        /* \"#utility.yul\":10144:10170   */\n      swap1\n      pop\n        /* \"#utility.yul\":10036:10177   */\n      swap2\n      swap1\n      pop\n      jump\t// out\n        /* \"#utility.yul\":10183:10276   */\n    tag_75:\n        /* \"#utility.yul\":10220:10226   */\n      0x00\n        /* \"#utility.yul\":10267:10269   */\n      0x20\n        /* \"#utility.yul\":10262:10264   */\n      0x1f\n        /* \"#utility.yul\":10255:10260   */\n      dup4\n        /* \"#utility.yul\":10251:10265   */\n      add\n        /* \"#utility.yul\":10247:10270   */\n      div\n        /* \"#utility.yul\":10237:10270   */\n      swap1\n      pop\n        /* \"#utility.yul\":10183:10276   */\n      swap2\n      swap1\n      pop\n      jump\t// out\n        /* \"#utility.yul\":10282:10389   */\n    tag_76:\n        /* \"#utility.yul\":10326:10334   */\n      0x00\n        /* \"#utility.yul\":10376:10381   */\n      dup3\n        /* \"#utility.yul\":10370:10374   */\n      dup3\n        /* \"#utility.yul\":10366:10382   */\n      shl\n        /* \"#utility.yul\":10345:10382   */\n      swap1\n      pop\n        /* \"#utility.yul\":10282:10389   */\n      swap3\n      swap2\n      pop\n      pop\n      jump\t// out\n        /* \"#utility.yul\":10395:10788   */\n    tag_77:\n        /* \"#utility.yul\":10464:10470   */\n      0x00\n        /* \"#utility.yul\":10514:10515   */\n      0x08\n        /* \"#utility.yul\":10502:10512   */\n      dup4\n        /* \"#utility.yul\":10498:10516   */\n      mul\n        /* \"#utility.yul\":10537:10634   */\n      tag_197\n        /* \"#utility.yul\":10567:10633   */\n      0xffffffffffffffffffffffffffffffffffffffffffffffffffffffffffffffff\n        /* \"#utility.yul\":10556:10565   */\n      dup3\n        /* \"#utility.yul\":10537:10634   */\n      tag_76\n      jump\t// in\n    tag_197:\n        /* \"#utility.yul\":10655:10694   */\n      tag_198\n        /* \"#utility.yul\":10685:10693   */\n      dup7\n        /* \"#utility.yul\":10674:10683   */\n      dup4\n        /* \"#utility.yul\":10655:10694   */\n      tag_76\n      jump\t// in\n    tag_198:\n        /* \"#utility.yul\":10643:10694   */\n      swap6\n      pop\n        /* \"#utility.yul\":10727:10731   */\n      dup1\n        /* \"#utility.yul\":10723:10732   */\n      not\n        /* \"#utility.yul\":10716:10721   */\n      dup5\n        /* \"#utility.yul\":10712:10733   */\n      and\n        /* \"#utility.yul\":10703:10733   */\n      swap4\n      pop\n        /* \"#utility.yul\":10776:10780   */\n      dup1\n        /* \"#utility.yul\":10766:10774   */\n      dup7\n        /* \"#utility.yul\":10762:10781   */\n      and\n        /* \"#utility.yul\":10755:10760   */\n      dup5\n        /* \"#utility.yul\":10752:10782   */\n      or\n        /* \"#utility.yul\":10742:10782   */\n      swap3\n      pop\n        /* \"#utility.yul\":10471:10788   */\n      pop\n      pop\n        /* \"#utility.yul\":10395:10788   */\n      swap4\n      swap3\n      pop\n      pop\n      pop\n      jump\t// out\n        /* \"#utility.yul\":10794:10854   */\n    tag_78:\n        /* \"#utility.yul\":10822:10825   */\n      0x00\n        /* \"#utility.yul\":10843:10848   */\n      dup2\n        /* \"#utility.yul\":10836:10848   */\n      swap1\n      pop\n        /* \"#utility.yul\":10794:10854   */\n      swap2\n      swap1\n      pop\n      jump\t// out\n        /* \"#utility.yul\":10860:11002   */\n    tag_79:\n        /* \"#utility.yul\":10910:10919   */\n      0x00\n        /* \"#utility.yul\":10943:10996   */\n      tag_201\n        /* \"#utility.yul\":10961:10995   */\n      tag_202\n        /* \"#utility.yul\":10970:10994   */\n      tag_203\n        /* \"#utility.yul\":10988:10993   */\n      dup5\n        /* \"#utility.yul\":10970:10994   */\n      tag_56\n      jump\t// in\n    tag_203:\n        /* \"#utility.yul\":10961:10995   */\n      tag_78\n      jump\t// in\n    tag_202:\n        /* \"#utility.yul\":10943:10996   */\n      tag_56\n      jump\t// in\n    tag_201:\n        /* \"#utility.yul\":10930:10996   */\n      swap1\n      pop\n        /* \"#utility.yul\":10860:11002   */\n      swap2\n      swap1\n      pop\n      jump\t// out\n        /* \"#utility.yul\":11008:11083   */\n    tag_80:\n        /* \"#utility.yul\":11051:11054   */\n      0x00\n        /* \"#utility.yul\":11072:11077   */\n      dup2\n        /* \"#utility.yul\":11065:11077   */\n      swap1\n      pop\n        /* \"#utility.yul\":11008:11083   */\n      swap2\n      swap1\n      pop\n      jump\t// out\n        /* \"#utility.yul\":11089:11358   */\n    tag_81:\n        /* \"#utility.yul\":11199:11238   */\n      tag_206\n        /* \"#utility.yul\":11230:11237   */\n      dup4\n        /* \"#utility.yul\":11199:11238   */\n      tag_79\n      jump\t// in\n    tag_206:\n        /* \"#utility.yul\":11260:11351   */\n      tag_207\n        /* \"#utility.yul\":11309:11350   */\n      tag_208\n        /* \"#utility.yul\":11333:11349   */\n      dup3\n        /* \"#utility.yul\":11309:11350   */\n      tag_80\n      jump\t// in\n    tag_208:\n        /* \"#utility.yul\":11301:11307   */\n      dup5\n        /* \"#utility.yul\":11294:11298   */\n      dup5\n        /* \"#utility.yul\":11288:11299   */\n      sload\n        /* \"#utility.yul\":11260:11351   */\n      tag_77\n      jump\t// in\n    tag_207:\n        /* \"#utility.yul\":11254:11258   */\n      dup3\n        /* \"#utility.yul\":11247:11352   */\n      sstore\n        /* \"#utility.yul\":11165:11358   */\n      pop\n        /* \"#utility.yul\":11089:11358   */\n      pop\n      pop\n      pop\n      jump\t// out\n        /* \"#utility.yul\":11364:11437   */\n    tag_82:\n        /* \"#utility.yul\":11409:11412   */\n      0x00\n        /* \"#utility.yul\":11364:11437   */\n      swap1\n      jump\t// out\n        /* \"#utility.yul\":11443:11632   */\n    tag_83:\n        /* \"#utility.yul\":11520:11552   */\n      tag_211\n      tag_82\n      jump\t// in\n    tag_211:\n        /* \"#utility.yul\":11561:11626   */\n      tag_212\n        /* \"#utility.yul\":11619:11625   */\n      dup2\n        /* \"#utility.yul\":11611:11617   */\n      dup5\n        /* \"#utility.yul\":11605:11609   */\n      dup5\n        /* \"#utility.yul\":11561:11626   */\n      tag_81\n      jump\t// in\n    tag_212:\n        /* \"#utility.yul\":11496:11632   */\n      pop\n        /* \"#utility.yul\":11443:11632   */\n      pop\n      pop\n      jump\t// out\n        /* \"#utility.yul\":11638:11824   */\n    tag_84:\n        /* \"#utility.yul\":11698:11818   */\n    tag_214:\n        /* \"#utility.yul\":11715:11718   */\n      dup2\n        /* \"#utility.yul\":11708:11713   */\n      dup2\n        /* \"#utility.yul\":11705:11719   */\n      lt\n        /* \"#utility.yul\":11698:11818   */\n      iszero\n      tag_216\n      jumpi\n        /* \"#utility.yul\":11769:11808   */\n      tag_217\n        /* \"#utility.yul\":11806:11807   */\n      0x00\n        /* \"#utility.yul\":11799:11804   */\n      dup3\n        /* \"#utility.yul\":11769:11808   */\n      tag_83\n      jump\t// in\n    tag_217:\n        /* \"#utility.yul\":11742:11743   */\n      0x01\n        /* \"#utility.yul\":11735:11740   */\n      dup2\n        /* \"#utility.yul\":11731:11744   */\n      add\n        /* \"#utility.yul\":11722:11744   */\n      swap1\n      pop\n        /* \"#utility.yul\":11698:11818   */\n      jump(tag_214)\n    tag_216:\n        /* \"#utility.yul\":11638:11824   */\n      pop\n      pop\n      jump\t// out\n        /* \"#utility.yul\":11830:12373   */\n    tag_85:\n        /* \"#utility.yul\":11931:11933   */\n      0x1f\n        /* \"#utility.yul\":11926:11929   */\n      dup3\n        /* \"#utility.yul\":11923:11934   */\n      gt\n        /* \"#utility.yul\":11920:12366   */\n      iszero\n      tag_219\n      jumpi\n        /* \"#utility.yul\":11965:12003   */\n      tag_220\n        /* \"#utility.yul\":11997:12002   */\n      dup2\n        /* \"#utility.yul\":11965:12003   */\n      tag_74\n      jump\t// in\n    tag_220:\n        /* \"#utility.yul\":12049:12078   */\n      tag_221\n        /* \"#utility.yul\":12067:12077   */\n      dup5\n        /* \"#utility.yul\":12049:12078   */\n      tag_75\n      jump\t// in\n    tag_221:\n        /* \"#utility.yul\":12039:12047   */\n      dup2\n        /* \"#utility.yul\":12035:12079   */\n      add\n        /* \"#utility.yul\":12232:12234   */\n      0x20\n        /* \"#utility.yul\":12220:12230   */\n      dup6\n        /* \"#utility.yul\":12217:12235   */\n      lt\n        /* \"#utility.yul\":12214:12263   */\n      iszero\n      tag_222\n      jumpi\n        /* \"#utility.yul\":12253:12261   */\n      dup2\n        /* \"#utility.yul\":12238:12261   */\n      swap1\n      pop\n        /* \"#utility.yul\":12214:12263   */\n    tag_222:\n        /* \"#utility.yul\":12276:12356   */\n      tag_223\n        /* \"#utility.yul\":12332:12354   */\n      tag_224\n        /* \"#utility.yul\":12350:12353   */\n      dup6\n        /* \"#utility.yul\":12332:12354   */\n      tag_75\n      jump\t// in\n    tag_224:\n        /* \"#utility.yul\":12322:12330   */\n      dup4\n        /* \"#utility.yul\":12318:12355   */\n      add\n        /* \"#utility.yul\":12305:12316   */\n      dup3\n        /* \"#utility.yul\":12276:12356   */\n      tag_84\n      jump\t// in\n    tag_223:\n        /* \"#utility.yul\":11935:12366   */\n      pop\n      pop\n        /* \"#utility.yul\":11920:12366   */\n    tag_219:\n        /* \"#utility.yul\":11830:12373   */\n      pop\n      pop\n      pop\n      jump\t// out\n        /* \"#utility.yul\":12379:12496   */\n    tag_86:\n        /* \"#utility.yul\":12433:12441   */\n      0x00\n        /* \"#utility.yul\":12483:12488   */\n      dup3\n        /* \"#utility.yul\":12477:12481   */\n      dup3\n        /* \"#utility.yul\":12473:12489   */\n      shr\n        /* \"#utility.yul\":12452:12489   */\n      swap1\n      pop\n        /* \"#utility.yul\":12379:12496   */\n      swap3\n      swap2\n      pop\n      pop\n      jump\t// out\n        /* \"#utility.yul\":12502:12671   */\n    tag_87:\n        /* \"#utility.yul\":12546:12552   */\n      0x00\n        /* \"#utility.yul\":12579:12630   */\n      tag_227\n        /* \"#utility.yul\":12627:12628   */\n      0x00\n        /* \"#utility.yul\":12623:12629   */\n      not\n        /* \"#utility.yul\":12615:12620   */\n      dup5\n        /* \"#utility.yul\":12612:12613   */\n      0x08\n        /* \"#utility.yul\":12608:12621   */\n      mul\n        /* \"#utility.yul\":12579:12630   */\n      tag_86\n      jump\t// in\n    tag_227:\n        /* \"#utility.yul\":12575:12631   */\n      not\n        /* \"#utility.yul\":12660:12664   */\n      dup1\n        /* \"#utility.yul\":12654:12658   */\n      dup4\n        /* \"#utility.yul\":12650:12665   */\n      and\n        /* \"#utility.yul\":12640:12665   */\n      swap2\n      pop\n        /* \"#utility.yul\":12553:12671   */\n      pop\n        /* \"#utility.yul\":12502:12671   */\n      swap3\n      swap2\n      pop\n      pop\n      jump\t// out\n        /* \"#utility.yul\":12676:12971   */\n    tag_88:\n        /* \"#utility.yul\":12752:12756   */\n      0x00\n        /* \"#utility.yul\":12898:12927   */\n      tag_229\n        /* \"#utility.yul\":12923:12926   */\n      dup4\n        /* \"#utility.yul\":12917:12921   */\n      dup4\n        /* \"#utility.yul\":12898:12927   */\n      tag_87\n      jump\t// in\n    tag_229:\n        /* \"#utility.yul\":12890:12927   */\n      swap2\n      pop\n        /* \"#utility.yul\":12960:12963   */\n      dup3\n        /* \"#utility.yul\":12957:12958   */\n      0x02\n        /* \"#utility.yul\":12953:12964   */\n      mul\n        /* \"#utility.yul\":12947:12951   */\n      dup3\n        /* \"#utility.yul\":12944:12965   */\n      or\n        /* \"#utility.yul\":12936:12965   */\n      swap1\n      pop\n        /* \"#utility.yul\":12676:12971   */\n      swap3\n      swap2\n      pop\n      pop\n      jump\t// out\n        /* \"#utility.yul\":12976:14371   */\n    tag_34:\n        /* \"#utility.yul\":13093:13130   */\n      tag_231\n        /* \"#utility.yul\":13126:13129   */\n      dup3\n        /* \"#utility.yul\":13093:13130   */\n      tag_62\n      jump\t// in\n    tag_231:\n        /* \"#utility.yul\":13195:13213   */\n      0xffffffffffffffff\n        /* \"#utility.yul\":13187:13193   */\n      dup2\n        /* \"#utility.yul\":13184:13214   */\n      gt\n        /* \"#utility.yul\":13181:13237   */\n      iszero\n      tag_232\n      jumpi\n        /* \"#utility.yul\":13217:13235   */\n      tag_233\n      tag_49\n      jump\t// in\n    tag_233:\n        /* \"#utility.yul\":13181:13237   */\n    tag_232:\n        /* \"#utility.yul\":13261:13299   */\n      tag_234\n        /* \"#utility.yul\":13293:13297   */\n      dup3\n        /* \"#utility.yul\":13287:13298   */\n      sload\n        /* \"#utility.yul\":13261:13299   */\n      tag_38\n      jump\t// in\n    tag_234:\n        /* \"#utility.yul\":13346:13413   */\n      tag_235\n        /* \"#utility.yul\":13406:13412   */\n      dup3\n        /* \"#utility.yul\":13398:13404   */\n      dup3\n        /* \"#utility.yul\":13392:13396   */\n      dup6\n        /* \"#utility.yul\":13346:13413   */\n      tag_85\n      jump\t// in\n    tag_235:\n        /* \"#utility.yul\":13440:13441   */\n      0x00\n        /* \"#utility.yul\":13464:13468   */\n      0x20\n        /* \"#utility.yul\":13451:13468   */\n      swap1\n      pop\n        /* \"#utility.yul\":13496:13498   */\n      0x1f\n        /* \"#utility.yul\":13488:13494   */\n      dup4\n        /* \"#utility.yul\":13485:13499   */\n      gt\n        /* \"#utility.yul\":13513:13514   */\n      0x01\n        /* \"#utility.yul\":13508:14126   */\n      dup2\n      eq\n      tag_237\n      jumpi\n        /* \"#utility.yul\":14170:14171   */\n      0x00\n        /* \"#utility.yul\":14187:14193   */\n      dup5\n        /* \"#utility.yul\":14184:14261   */\n      iszero\n      tag_238\n      jumpi\n        /* \"#utility.yul\":14236:14245   */\n      dup3\n        /* \"#utility.yul\":14231:14234   */\n      dup8\n        /* \"#utility.yul\":14227:14246   */\n      add\n        /* \"#utility.yul\":14221:14247   */\n      mload\n        /* \"#utility.yul\":14212:14247   */\n      swap1\n      pop\n        /* \"#utility.yul\":14184:14261   */\n    tag_238:\n        /* \"#utility.yul\":14287:14354   */\n      tag_239\n        /* \"#utility.yul\":14347:14353   */\n      dup6\n        /* \"#utility.yul\":14340:14345   */\n      dup3\n        /* \"#utility.yul\":14287:14354   */\n      tag_88\n      jump\t// in\n    tag_239:\n        /* \"#utility.yul\":14281:14285   */\n      dup7\n        /* \"#utility.yul\":14274:14355   */\n      sstore\n        /* \"#utility.yul\":14143:14365   */\n      pop\n        /* \"#utility.yul\":13478:14365   */\n      jump(tag_236)\n        /* \"#utility.yul\":13508:14126   */\n    tag_237:\n        /* \"#utility.yul\":13560:13564   */\n      0x1f\n        /* \"#utility.yul\":13556:13565   */\n      not\n        /* \"#utility.yul\":13548:13554   */\n      dup5\n        /* \"#utility.yul\":13544:13566   */\n      and\n        /* \"#utility.yul\":13594:13631   */\n      tag_240\n        /* \"#utility.yul\":13626:13630   */\n      dup7\n        /* \"#utility.yul\":13594:13631   */\n      tag_74\n      jump\t// in\n    tag_240:\n        /* \"#utility.yul\":13653:13654   */\n      0x00\n        /* \"#utility.yul\":13667:13875   */\n    tag_241:\n        /* \"#utility.yul\":13681:13688   */\n      dup3\n        /* \"#utility.yul\":13678:13679   */\n      dup2\n        /* \"#utility.yul\":13675:13689   */\n      lt\n        /* \"#utility.yul\":13667:13875   */\n      iszero\n      tag_243\n      jumpi\n        /* \"#utility.yul\":13760:13769   */\n      dup5\n        /* \"#utility.yul\":13755:13758   */\n      dup10\n        /* \"#utility.yul\":13751:13770   */\n      add\n        /* \"#utility.yul\":13745:13771   */\n      mload\n        /* \"#utility.yul\":13737:13743   */\n      dup3\n        /* \"#utility.yul\":13730:13772   */\n      sstore\n        /* \"#utility.yul\":13811:13812   */\n      0x01\n        /* \"#utility.yul\":13803:13809   */\n      dup3\n        /* \"#utility.yul\":13799:13813   */\n      add\n        /* \"#utility.yul\":13789:13813   */\n      swap2\n      pop\n        /* \"#utility.yul\":13858:13860   */\n      0x20\n        /* \"#utility.yul\":13847:13856   */\n      dup6\n        /* \"#utility.yul\":13843:13861   */\n      add\n        /* \"#utility.yul\":13830:13861   */\n      swap5\n      pop\n        /* \"#utility.yul\":13704:13708   */\n      0x20\n        /* \"#utility.yul\":13701:13702   */\n      dup2\n        /* \"#utility.yul\":13697:13709   */\n      add\n        /* \"#utility.yul\":13692:13709   */\n      swap1\n      pop\n        /* \"#utility.yul\":13667:13875   */\n      jump(tag_241)\n    tag_243:\n        /* \"#utility.yul\":13903:13909   */\n      dup7\n        /* \"#utility.yul\":13894:13901   */\n      dup4\n        /* \"#utility.yul\":13891:13910   */\n      lt\n        /* \"#utility.yul\":13888:14067   */\n      iszero\n      tag_244\n      jumpi\n        /* \"#utility.yul\":13961:13970   */\n      dup5\n        /* \"#utility.yul\":13956:13959   */\n      dup10\n        /* \"#utility.yul\":13952:13971   */\n      add\n        /* \"#utility.yul\":13946:13972   */\n      mload\n        /* \"#utility.yul\":14004:14052   */\n      tag_245\n        /* \"#utility.yul\":14046:14050   */\n      0x1f\n        /* \"#utility.yul\":14038:14044   */\n      dup10\n        /* \"#utility.yul\":14034:14051   */\n      and\n        /* \"#utility.yul\":14023:14032   */\n      dup3\n        /* \"#utility.yul\":14004:14052   */\n      tag_87\n      jump\t// in\n    tag_245:\n        /* \"#utility.yul\":13996:14002   */\n      dup4\n        /* \"#utility.yul\":13989:14053   */\n      sstore\n        /* \"#utility.yul\":13911:14067   */\n      pop\n        /* \"#utility.yul\":13888:14067   */\n    tag_244:\n        /* \"#utility.yul\":14113:14114   */\n      0x01\n        /* \"#utility.yul\":14109:14110   */\n      0x02\n        /* \"#utility.yul\":14101:14107   */\n      dup9\n        /* \"#utility.yul\":14097:14111   */\n      mul\n        /* \"#utility.yul\":14093:14115   */\n      add\n        /* \"#utility.yul\":14087:14091   */\n      dup9\n        /* \"#utility.yul\":14080:14116   */\n      sstore\n        /* \"#utility.yul\":13515:14126   */\n      pop\n      pop\n      pop\n        /* \"#utility.yul\":13478:14365   */\n    tag_236:\n      pop\n        /* \"#utility.yul\":13068:14371   */\n      pop\n      pop\n      pop\n        /* \"#utility.yul\":12976:14371   */\n      pop\n      pop\n      jump\t// out\n        /* \"#utility.yul\":14377:14557   */\n    tag_89:\n        /* \"#utility.yul\":14425:14502   */\n      0x4e487b7100000000000000000000000000000000000000000000000000000000\n        /* \"#utility.yul\":14422:14423   */\n      0x00\n        /* \"#utility.yul\":14415:14503   */\n      mstore\n        /* \"#utility.yul\":14522:14526   */\n      0x11\n        /* \"#utility.yul\":14519:14520   */\n      0x04\n        /* \"#utility.yul\":14512:14527   */\n      mstore\n        /* \"#utility.yul\":14546:14550   */\n      0x24\n        /* \"#utility.yul\":14543:14544   */\n      0x00\n        /* \"#utility.yul\":14536:14551   */\n      revert\n        /* \"#utility.yul\":14563:14796   */\n    tag_36:\n        /* \"#utility.yul\":14602:14605   */\n      0x00\n        /* \"#utility.yul\":14625:14649   */\n      tag_248\n        /* \"#utility.yul\":14643:14648   */\n      dup3\n        /* \"#utility.yul\":14625:14649   */\n      tag_56\n      jump\t// in\n    tag_248:\n        /* \"#utility.yul\":14616:14649   */\n      swap2\n      pop\n        /* \"#utility.yul\":14671:14737   */\n      0xffffffffffffffffffffffffffffffffffffffffffffffffffffffffffffffff\n        /* \"#utility.yul\":14664:14669   */\n      dup3\n        /* \"#utility.yul\":14661:14738   */\n      sub\n        /* \"#utility.yul\":14658:14761   */\n      tag_249\n      jumpi\n        /* \"#utility.yul\":14741:14759   */\n      tag_250\n      tag_89\n      jump\t// in\n    tag_250:\n        /* \"#utility.yul\":14658:14761   */\n    tag_249:\n        /* \"#utility.yul\":14788:14789   */\n      0x01\n        /* \"#utility.yul\":14781:14786   */\n      dup3\n        /* \"#utility.yul\":14777:14790   */\n      add\n        /* \"#utility.yul\":14770:14790   */\n      swap1\n      pop\n        /* \"#utility.yul\":14563:14796   */\n      swap2\n      swap1\n      pop\n      jump\t// out\n\n    auxdata: 0xa2646970667358221220f99ce80b154fc6b270db945e0fc563854086eb5ff2d98f1064516c68fd838e5764736f6c63430008120033\n}\n",
				"bytecode": {
					"linkReferences": {},
					"object": "608060405234801561001057600080fd5b50610c2e806100206000396000f3fe608060405234801561001057600080fd5b506004361061004c5760003560e01c80630374ab0b146100515780630b7914301461006d57806361b8ce8c146100a2578063dae7a13c146100c0575b600080fd5b61006b60048036038101906100669190610511565b6100f0565b005b61008760048036038101906100829190610594565b610272565b60405161009996959493929190610690565b60405180910390f35b6100aa610356565b6040516100b791906106f8565b60405180910390f35b6100da60048036038101906100d5919061073f565b61035c565b6040516100e791906106f8565b60405180910390f35b428311610132576040517f08c379a0000000000000000000000000000000000000000000000000000000008152600401610129906107f1565b60405180910390fd5b60008111610175576040517f08c379a000000000000000000000000000000000000000000000000000000000815260040161016c90610883565b60405180910390fd5b6040518060c001604052803373ffffffffffffffffffffffffffffffffffffffff16815260200185815260200184815260200183815260200182815260200182815250600080600254815260200190815260200160002060008201518160000160006101000a81548173ffffffffffffffffffffffffffffffffffffffff021916908373ffffffffffffffffffffffffffffffffffffffff16021790555060208201518160010190816102289190610aaf565b5060408201518160020155606082015181600301556080820151816004015560a082015181600501559050506002600081548092919061026790610bb0565b919050555050505050565b60006020528060005260406000206000915090508060000160009054906101000a900473ffffffffffffffffffffffffffffffffffffffff16908060010180546102bb906108d2565b80601f01602080910402602001604051908101604052809291908181526020018280546102e7906108d2565b80156103345780601f1061030957610100808354040283529160200191610334565b820191906000526020600020905b81548152906001019060200180831161031757829003601f168201915b5050505050908060020154908060030154908060040154908060050154905086565b60025481565b6001602052816000526040600020602052806000526040600020600091509150505481565b6000604051905090565b600080fd5b600080fd5b600080fd5b600080fd5b6000601f19601f8301169050919050565b7f4e487b7100000000000000000000000000000000000000000000000000000000600052604160045260246000fd5b6103e88261039f565b810181811067ffffffffffffffff82111715610407576104066103b0565b5b80604052505050565b600061041a610381565b905061042682826103df565b919050565b600067ffffffffffffffff821115610446576104456103b0565b5b61044f8261039f565b9050602081019050919050565b82818337600083830152505050565b600061047e6104798461042b565b610410565b90508281526020810184848401111561049a5761049961039a565b5b6104a584828561045c565b509392505050565b600082601f8301126104c2576104c1610395565b5b81356104d284826020860161046b565b91505092915050565b6000819050919050565b6104ee816104db565b81146104f957600080fd5b50565b60008135905061050b816104e5565b92915050565b6000806000806080858703121561052b5761052a61038b565b5b600085013567ffffffffffffffff81111561054957610548610390565b5b610555878288016104ad565b9450506020610566878288016104fc565b9350506040610577878288016104fc565b9250506060610588878288016104fc565b91505092959194509250565b6000602082840312156105aa576105a961038b565b5b60006105b8848285016104fc565b91505092915050565b600073ffffffffffffffffffffffffffffffffffffffff82169050919050565b60006105ec826105c1565b9050919050565b6105fc816105e1565b82525050565b600081519050919050565b600082825260208201905092915050565b60005b8381101561063c578082015181840152602081019050610621565b60008484015250505050565b600061065382610602565b61065d818561060d565b935061066d81856020860161061e565b6106768161039f565b840191505092915050565b61068a816104db565b82525050565b600060c0820190506106a560008301896105f3565b81810360208301526106b78188610648565b90506106c66040830187610681565b6106d36060830186610681565b6106e06080830185610681565b6106ed60a0830184610681565b979650505050505050565b600060208201905061070d6000830184610681565b92915050565b61071c816105e1565b811461072757600080fd5b50565b60008135905061073981610713565b92915050565b600080604083850312156107565761075561038b565b5b60006107648582860161072a565b9250506020610775858286016104fc565b9150509250929050565b7f596f752063616e206f7267616e697a65206576656e7420666f7220667574757260008201527f6520646174650000000000000000000000000000000000000000000000000000602082015250565b60006107db60268361060d565b91506107e68261077f565b604082019050919050565b6000602082019050818103600083015261080a816107ce565b9050919050565b7f596f752063616e206f7267616e697a65206576656e74206f6e6c79206966207960008201527f6f7520637265617465206d6f7265207468616e2030207469636b657473000000602082015250565b600061086d603d8361060d565b915061087882610811565b604082019050919050565b6000602082019050818103600083015261089c81610860565b9050919050565b7f4e487b7100000000000000000000000000000000000000000000000000000000600052602260045260246000fd5b600060028204905060018216806108ea57607f821691505b6020821081036108fd576108fc6108a3565b5b50919050565b60008190508160005260206000209050919050565b60006020601f8301049050919050565b600082821b905092915050565b6000600883026109657fffffffffffffffffffffffffffffffffffffffffffffffffffffffffffffffff82610928565b61096f8683610928565b95508019841693508086168417925050509392505050565b6000819050919050565b60006109ac6109a76109a2846104db565b610987565b6104db565b9050919050565b6000819050919050565b6109c683610991565b6109da6109d2826109b3565b848454610935565b825550505050565b600090565b6109ef6109e2565b6109fa8184846109bd565b505050565b5b81811015610a1e57610a136000826109e7565b600181019050610a00565b5050565b601f821115610a6357610a3481610903565b610a3d84610918565b81016020851015610a4c578190505b610a60610a5885610918565b8301826109ff565b50505b505050565b600082821c905092915050565b6000610a8660001984600802610a68565b1980831691505092915050565b6000610a9f8383610a75565b9150826002028217905092915050565b610ab882610602565b67ffffffffffffffff811115610ad157610ad06103b0565b5b610adb82546108d2565b610ae6828285610a22565b600060209050601f831160018114610b195760008415610b07578287015190505b610b118582610a93565b865550610b79565b601f198416610b2786610903565b60005b82811015610b4f57848901518255600182019150602085019450602081019050610b2a565b86831015610b6c5784890151610b68601f891682610a75565b8355505b6001600288020188555050505b505050505050565b7f4e487b7100000000000000000000000000000000000000000000000000000000600052601160045260246000fd5b6000610bbb826104db565b91507fffffffffffffffffffffffffffffffffffffffffffffffffffffffffffffffff8203610bed57610bec610b81565b5b60018201905091905056fea2646970667358221220f99ce80b154fc6b270db945e0fc563854086eb5ff2d98f1064516c68fd838e5764736f6c63430008120033",
					"opcodes": "PUSH1 0x80 PUSH1 0x40 MSTORE CALLVALUE DUP1 ISZERO PUSH2 0x10 JUMPI PUSH1 0x0 DUP1 REVERT JUMPDEST POP PUSH2 0xC2E DUP1 PUSH2 0x20 PUSH1 0x0 CODECOPY PUSH1 0x0 RETURN INVALID PUSH1 0x80 PUSH1 0x40 MSTORE CALLVALUE DUP1 ISZERO PUSH2 0x10 JUMPI PUSH1 0x0 DUP1 REVERT JUMPDEST POP PUSH1 0x4 CALLDATASIZE LT PUSH2 0x4C JUMPI PUSH1 0x0 CALLDATALOAD PUSH1 0xE0 SHR DUP1 PUSH4 0x374AB0B EQ PUSH2 0x51 JUMPI DUP1 PUSH4 0xB791430 EQ PUSH2 0x6D JUMPI DUP1 PUSH4 0x61B8CE8C EQ PUSH2 0xA2 JUMPI DUP1 PUSH4 0xDAE7A13C EQ PUSH2 0xC0 JUMPI JUMPDEST PUSH1 0x0 DUP1 REVERT JUMPDEST PUSH2 0x6B PUSH1 0x4 DUP1 CALLDATASIZE SUB DUP2 ADD SWAP1 PUSH2 0x66 SWAP2 SWAP1 PUSH2 0x511 JUMP JUMPDEST PUSH2 0xF0 JUMP JUMPDEST STOP JUMPDEST PUSH2 0x87 PUSH1 0x4 DUP1 CALLDATASIZE SUB DUP2 ADD SWAP1 PUSH2 0x82 SWAP2 SWAP1 PUSH2 0x594 JUMP JUMPDEST PUSH2 0x272 JUMP JUMPDEST PUSH1 0x40 MLOAD PUSH2 0x99 SWAP7 SWAP6 SWAP5 SWAP4 SWAP3 SWAP2 SWAP1 PUSH2 0x690 JUMP JUMPDEST PUSH1 0x40 MLOAD DUP1 SWAP2 SUB SWAP1 RETURN JUMPDEST PUSH2 0xAA PUSH2 0x356 JUMP JUMPDEST PUSH1 0x40 MLOAD PUSH2 0xB7 SWAP2 SWAP1 PUSH2 0x6F8 JUMP JUMPDEST PUSH1 0x40 MLOAD DUP1 SWAP2 SUB SWAP1 RETURN JUMPDEST PUSH2 0xDA PUSH1 0x4 DUP1 CALLDATASIZE SUB DUP2 ADD SWAP1 PUSH2 0xD5 SWAP2 SWAP1 PUSH2 0x73F JUMP JUMPDEST PUSH2 0x35C JUMP JUMPDEST PUSH1 0x40 MLOAD PUSH2 0xE7 SWAP2 SWAP1 PUSH2 0x6F8 JUMP JUMPDEST PUSH1 0x40 MLOAD DUP1 SWAP2 SUB SWAP1 RETURN JUMPDEST TIMESTAMP DUP4 GT PUSH2 0x132 JUMPI PUSH1 0x40 MLOAD PUSH32 0x8C379A000000000000000000000000000000000000000000000000000000000 DUP2 MSTORE PUSH1 0x4 ADD PUSH2 0x129 SWAP1 PUSH2 0x7F1 JUMP JUMPDEST PUSH1 0x40 MLOAD DUP1 SWAP2 SUB SWAP1 REVERT JUMPDEST PUSH1 0x0 DUP2 GT PUSH2 0x175 JUMPI PUSH1 0x40 MLOAD PUSH32 0x8C379A000000000000000000000000000000000000000000000000000000000 DUP2 MSTORE PUSH1 0x4 ADD PUSH2 0x16C SWAP1 PUSH2 0x883 JUMP JUMPDEST PUSH1 0x40 MLOAD DUP1 SWAP2 SUB SWAP1 REVERT JUMPDEST PUSH1 0x40 MLOAD DUP1 PUSH1 0xC0 ADD PUSH1 0x40 MSTORE DUP1 CALLER PUSH20 0xFFFFFFFFFFFFFFFFFFFFFFFFFFFFFFFFFFFFFFFF AND DUP2 MSTORE PUSH1 0x20 ADD DUP6 DUP2 MSTORE PUSH1 0x20 ADD DUP5 DUP2 MSTORE PUSH1 0x20 ADD DUP4 DUP2 MSTORE PUSH1 0x20 ADD DUP3 DUP2 MSTORE PUSH1 0x20 ADD DUP3 DUP2 MSTORE POP PUSH1 0x0 DUP1 PUSH1 0x2 SLOAD DUP2 MSTORE PUSH1 0x20 ADD SWAP1 DUP2 MSTORE PUSH1 0x20 ADD PUSH1 0x0 KECCAK256 PUSH1 0x0 DUP3 ADD MLOAD DUP2 PUSH1 0x0 ADD PUSH1 0x0 PUSH2 0x100 EXP DUP2 SLOAD DUP2 PUSH20 0xFFFFFFFFFFFFFFFFFFFFFFFFFFFFFFFFFFFFFFFF MUL NOT AND SWAP1 DUP4 PUSH20 0xFFFFFFFFFFFFFFFFFFFFFFFFFFFFFFFFFFFFFFFF AND MUL OR SWAP1 SSTORE POP PUSH1 0x20 DUP3 ADD MLOAD DUP2 PUSH1 0x1 ADD SWAP1 DUP2 PUSH2 0x228 SWAP2 SWAP1 PUSH2 0xAAF JUMP JUMPDEST POP PUSH1 0x40 DUP3 ADD MLOAD DUP2 PUSH1 0x2 ADD SSTORE PUSH1 0x60 DUP3 ADD MLOAD DUP2 PUSH1 0x3 ADD SSTORE PUSH1 0x80 DUP3 ADD MLOAD DUP2 PUSH1 0x4 ADD SSTORE PUSH1 0xA0 DUP3 ADD MLOAD DUP2 PUSH1 0x5 ADD SSTORE SWAP1 POP POP PUSH1 0x2 PUSH1 0x0 DUP2 SLOAD DUP1 SWAP3 SWAP2 SWAP1 PUSH2 0x267 SWAP1 PUSH2 0xBB0 JUMP JUMPDEST SWAP2 SWAP1 POP SSTORE POP POP POP POP POP JUMP JUMPDEST PUSH1 0x0 PUSH1 0x20 MSTORE DUP1 PUSH1 0x0 MSTORE PUSH1 0x40 PUSH1 0x0 KECCAK256 PUSH1 0x0 SWAP2 POP SWAP1 POP DUP1 PUSH1 0x0 ADD PUSH1 0x0 SWAP1 SLOAD SWAP1 PUSH2 0x100 EXP SWAP1 DIV PUSH20 0xFFFFFFFFFFFFFFFFFFFFFFFFFFFFFFFFFFFFFFFF AND SWAP1 DUP1 PUSH1 0x1 ADD DUP1 SLOAD PUSH2 0x2BB SWAP1 PUSH2 0x8D2 JUMP JUMPDEST DUP1 PUSH1 0x1F ADD PUSH1 0x20 DUP1 SWAP2 DIV MUL PUSH1 0x20 ADD PUSH1 0x40 MLOAD SWAP1 DUP2 ADD PUSH1 0x40 MSTORE DUP1 SWAP3 SWAP2 SWAP1 DUP2 DUP2 MSTORE PUSH1 0x20 ADD DUP3 DUP1 SLOAD PUSH2 0x2E7 SWAP1 PUSH2 0x8D2 JUMP JUMPDEST DUP1 ISZERO PUSH2 0x334 JUMPI DUP1 PUSH1 0x1F LT PUSH2 0x309 JUMPI PUSH2 0x100 DUP1 DUP4 SLOAD DIV MUL DUP4 MSTORE SWAP2 PUSH1 0x20 ADD SWAP2 PUSH2 0x334 JUMP JUMPDEST DUP3 ADD SWAP2 SWAP1 PUSH1 0x0 MSTORE PUSH1 0x20 PUSH1 0x0 KECCAK256 SWAP1 JUMPDEST DUP2 SLOAD DUP2 MSTORE SWAP1 PUSH1 0x1 ADD SWAP1 PUSH1 0x20 ADD DUP1 DUP4 GT PUSH2 0x317 JUMPI DUP3 SWAP1 SUB PUSH1 0x1F AND DUP3 ADD SWAP2 JUMPDEST POP POP POP POP POP SWAP1 DUP1 PUSH1 0x2 ADD SLOAD SWAP1 DUP1 PUSH1 0x3 ADD SLOAD SWAP1 DUP1 PUSH1 0x4 ADD SLOAD SWAP1 DUP1 PUSH1 0x5 ADD SLOAD SWAP1 POP DUP7 JUMP JUMPDEST PUSH1 0x2 SLOAD DUP2 JUMP JUMPDEST PUSH1 0x1 PUSH1 0x20 MSTORE DUP2 PUSH1 0x0 MSTORE PUSH1 0x40 PUSH1 0x0 KECCAK256 PUSH1 0x20 MSTORE DUP1 PUSH1 0x0 MSTORE PUSH1 0x40 PUSH1 0x0 KECCAK256 PUSH1 0x0 SWAP2 POP SWAP2 POP POP SLOAD DUP2 JUMP JUMPDEST PUSH1 0x0 PUSH1 0x40 MLOAD SWAP1 POP SWAP1 JUMP JUMPDEST PUSH1 0x0 DUP1 REVERT JUMPDEST PUSH1 0x0 DUP1 REVERT JUMPDEST PUSH1 0x0 DUP1 REVERT JUMPDEST PUSH1 0x0 DUP1 REVERT JUMPDEST PUSH1 0x0 PUSH1 0x1F NOT PUSH1 0x1F DUP4 ADD AND SWAP1 POP SWAP2 SWAP1 POP JUMP JUMPDEST PUSH32 0x4E487B7100000000000000000000000000000000000000000000000000000000 PUSH1 0x0 MSTORE PUSH1 0x41 PUSH1 0x4 MSTORE PUSH1 0x24 PUSH1 0x0 REVERT JUMPDEST PUSH2 0x3E8 DUP3 PUSH2 0x39F JUMP JUMPDEST DUP2 ADD DUP2 DUP2 LT PUSH8 0xFFFFFFFFFFFFFFFF DUP3 GT OR ISZERO PUSH2 0x407 JUMPI PUSH2 0x406 PUSH2 0x3B0 JUMP JUMPDEST JUMPDEST DUP1 PUSH1 0x40 MSTORE POP POP POP JUMP JUMPDEST PUSH1 0x0 PUSH2 0x41A PUSH2 0x381 JUMP JUMPDEST SWAP1 POP PUSH2 0x426 DUP3 DUP3 PUSH2 0x3DF JUMP JUMPDEST SWAP2 SWAP1 POP JUMP JUMPDEST PUSH1 0x0 PUSH8 0xFFFFFFFFFFFFFFFF DUP3 GT ISZERO PUSH2 0x446 JUMPI PUSH2 0x445 PUSH2 0x3B0 JUMP JUMPDEST JUMPDEST PUSH2 0x44F DUP3 PUSH2 0x39F JUMP JUMPDEST SWAP1 POP PUSH1 0x20 DUP2 ADD SWAP1 POP SWAP2 SWAP1 POP JUMP JUMPDEST DUP3 DUP2 DUP4 CALLDATACOPY PUSH1 0x0 DUP4 DUP4 ADD MSTORE POP POP POP JUMP JUMPDEST PUSH1 0x0 PUSH2 0x47E PUSH2 0x479 DUP5 PUSH2 0x42B JUMP JUMPDEST PUSH2 0x410 JUMP JUMPDEST SWAP1 POP DUP3 DUP2 MSTORE PUSH1 0x20 DUP2 ADD DUP5 DUP5 DUP5 ADD GT ISZERO PUSH2 0x49A JUMPI PUSH2 0x499 PUSH2 0x39A JUMP JUMPDEST JUMPDEST PUSH2 0x4A5 DUP5 DUP3 DUP6 PUSH2 0x45C JUMP JUMPDEST POP SWAP4 SWAP3 POP POP POP JUMP JUMPDEST PUSH1 0x0 DUP3 PUSH1 0x1F DUP4 ADD SLT PUSH2 0x4C2 JUMPI PUSH2 0x4C1 PUSH2 0x395 JUMP JUMPDEST JUMPDEST DUP2 CALLDATALOAD PUSH2 0x4D2 DUP5 DUP3 PUSH1 0x20 DUP7 ADD PUSH2 0x46B JUMP JUMPDEST SWAP2 POP POP SWAP3 SWAP2 POP POP JUMP JUMPDEST PUSH1 0x0 DUP2 SWAP1 POP SWAP2 SWAP1 POP JUMP JUMPDEST PUSH2 0x4EE DUP2 PUSH2 0x4DB JUMP JUMPDEST DUP2 EQ PUSH2 0x4F9 JUMPI PUSH1 0x0 DUP1 REVERT JUMPDEST POP JUMP JUMPDEST PUSH1 0x0 DUP2 CALLDATALOAD SWAP1 POP PUSH2 0x50B DUP2 PUSH2 0x4E5 JUMP JUMPDEST SWAP3 SWAP2 POP POP JUMP JUMPDEST PUSH1 0x0 DUP1 PUSH1 0x0 DUP1 PUSH1 0x80 DUP6 DUP8 SUB SLT ISZERO PUSH2 0x52B JUMPI PUSH2 0x52A PUSH2 0x38B JUMP JUMPDEST JUMPDEST PUSH1 0x0 DUP6 ADD CALLDATALOAD PUSH8 0xFFFFFFFFFFFFFFFF DUP2 GT ISZERO PUSH2 0x549 JUMPI PUSH2 0x548 PUSH2 0x390 JUMP JUMPDEST JUMPDEST PUSH2 0x555 DUP8 DUP3 DUP9 ADD PUSH2 0x4AD JUMP JUMPDEST SWAP5 POP POP PUSH1 0x20 PUSH2 0x566 DUP8 DUP3 DUP9 ADD PUSH2 0x4FC JUMP JUMPDEST SWAP4 POP POP PUSH1 0x40 PUSH2 0x577 DUP8 DUP3 DUP9 ADD PUSH2 0x4FC JUMP JUMPDEST SWAP3 POP POP PUSH1 0x60 PUSH2 0x588 DUP8 DUP3 DUP9 ADD PUSH2 0x4FC JUMP JUMPDEST SWAP2 POP POP SWAP3 SWAP6 SWAP2 SWAP5 POP SWAP3 POP JUMP JUMPDEST PUSH1 0x0 PUSH1 0x20 DUP3 DUP5 SUB SLT ISZERO PUSH2 0x5AA JUMPI PUSH2 0x5A9 PUSH2 0x38B JUMP JUMPDEST JUMPDEST PUSH1 0x0 PUSH2 0x5B8 DUP5 DUP3 DUP6 ADD PUSH2 0x4FC JUMP JUMPDEST SWAP2 POP POP SWAP3 SWAP2 POP POP JUMP JUMPDEST PUSH1 0x0 PUSH20 0xFFFFFFFFFFFFFFFFFFFFFFFFFFFFFFFFFFFFFFFF DUP3 AND SWAP1 POP SWAP2 SWAP1 POP JUMP JUMPDEST PUSH1 0x0 PUSH2 0x5EC DUP3 PUSH2 0x5C1 JUMP JUMPDEST SWAP1 POP SWAP2 SWAP1 POP JUMP JUMPDEST PUSH2 0x5FC DUP2 PUSH2 0x5E1 JUMP JUMPDEST DUP3 MSTORE POP POP JUMP JUMPDEST PUSH1 0x0 DUP2 MLOAD SWAP1 POP SWAP2 SWAP1 POP JUMP JUMPDEST PUSH1 0x0 DUP3 DUP3 MSTORE PUSH1 0x20 DUP3 ADD SWAP1 POP SWAP3 SWAP2 POP POP JUMP JUMPDEST PUSH1 0x0 JUMPDEST DUP4 DUP2 LT ISZERO PUSH2 0x63C JUMPI DUP1 DUP3 ADD MLOAD DUP2 DUP5 ADD MSTORE PUSH1 0x20 DUP2 ADD SWAP1 POP PUSH2 0x621 JUMP JUMPDEST PUSH1 0x0 DUP5 DUP5 ADD MSTORE POP POP POP POP JUMP JUMPDEST PUSH1 0x0 PUSH2 0x653 DUP3 PUSH2 0x602 JUMP JUMPDEST PUSH2 0x65D DUP2 DUP6 PUSH2 0x60D JUMP JUMPDEST SWAP4 POP PUSH2 0x66D DUP2 DUP6 PUSH1 0x20 DUP7 ADD PUSH2 0x61E JUMP JUMPDEST PUSH2 0x676 DUP2 PUSH2 0x39F JUMP JUMPDEST DUP5 ADD SWAP2 POP POP SWAP3 SWAP2 POP POP JUMP JUMPDEST PUSH2 0x68A DUP2 PUSH2 0x4DB JUMP JUMPDEST DUP3 MSTORE POP POP JUMP JUMPDEST PUSH1 0x0 PUSH1 0xC0 DUP3 ADD SWAP1 POP PUSH2 0x6A5 PUSH1 0x0 DUP4 ADD DUP10 PUSH2 0x5F3 JUMP JUMPDEST DUP2 DUP2 SUB PUSH1 0x20 DUP4 ADD MSTORE PUSH2 0x6B7 DUP2 DUP9 PUSH2 0x648 JUMP JUMPDEST SWAP1 POP PUSH2 0x6C6 PUSH1 0x40 DUP4 ADD DUP8 PUSH2 0x681 JUMP JUMPDEST PUSH2 0x6D3 PUSH1 0x60 DUP4 ADD DUP7 PUSH2 0x681 JUMP JUMPDEST PUSH2 0x6E0 PUSH1 0x80 DUP4 ADD DUP6 PUSH2 0x681 JUMP JUMPDEST PUSH2 0x6ED PUSH1 0xA0 DUP4 ADD DUP5 PUSH2 0x681 JUMP JUMPDEST SWAP8 SWAP7 POP POP POP POP POP POP POP JUMP JUMPDEST PUSH1 0x0 PUSH1 0x20 DUP3 ADD SWAP1 POP PUSH2 0x70D PUSH1 0x0 DUP4 ADD DUP5 PUSH2 0x681 JUMP JUMPDEST SWAP3 SWAP2 POP POP JUMP JUMPDEST PUSH2 0x71C DUP2 PUSH2 0x5E1 JUMP JUMPDEST DUP2 EQ PUSH2 0x727 JUMPI PUSH1 0x0 DUP1 REVERT JUMPDEST POP JUMP JUMPDEST PUSH1 0x0 DUP2 CALLDATALOAD SWAP1 POP PUSH2 0x739 DUP2 PUSH2 0x713 JUMP JUMPDEST SWAP3 SWAP2 POP POP JUMP JUMPDEST PUSH1 0x0 DUP1 PUSH1 0x40 DUP4 DUP6 SUB SLT ISZERO PUSH2 0x756 JUMPI PUSH2 0x755 PUSH2 0x38B JUMP JUMPDEST JUMPDEST PUSH1 0x0 PUSH2 0x764 DUP6 DUP3 DUP7 ADD PUSH2 0x72A JUMP JUMPDEST SWAP3 POP POP PUSH1 0x20 PUSH2 0x775 DUP6 DUP3 DUP7 ADD PUSH2 0x4FC JUMP JUMPDEST SWAP2 POP POP SWAP3 POP SWAP3 SWAP1 POP JUMP JUMPDEST PUSH32 0x596F752063616E206F7267616E697A65206576656E7420666F72206675747572 PUSH1 0x0 DUP3 ADD MSTORE PUSH32 0x6520646174650000000000000000000000000000000000000000000000000000 PUSH1 0x20 DUP3 ADD MSTORE POP JUMP JUMPDEST PUSH1 0x0 PUSH2 0x7DB PUSH1 0x26 DUP4 PUSH2 0x60D JUMP JUMPDEST SWAP2 POP PUSH2 0x7E6 DUP3 PUSH2 0x77F JUMP JUMPDEST PUSH1 0x40 DUP3 ADD SWAP1 POP SWAP2 SWAP1 POP JUMP JUMPDEST PUSH1 0x0 PUSH1 0x20 DUP3 ADD SWAP1 POP DUP2 DUP2 SUB PUSH1 0x0 DUP4 ADD MSTORE PUSH2 0x80A DUP2 PUSH2 0x7CE JUMP JUMPDEST SWAP1 POP SWAP2 SWAP1 POP JUMP JUMPDEST PUSH32 0x596F752063616E206F7267616E697A65206576656E74206F6E6C792069662079 PUSH1 0x0 DUP3 ADD MSTORE PUSH32 0x6F7520637265617465206D6F7265207468616E2030207469636B657473000000 PUSH1 0x20 DUP3 ADD MSTORE POP JUMP JUMPDEST PUSH1 0x0 PUSH2 0x86D PUSH1 0x3D DUP4 PUSH2 0x60D JUMP JUMPDEST SWAP2 POP PUSH2 0x878 DUP3 PUSH2 0x811 JUMP JUMPDEST PUSH1 0x40 DUP3 ADD SWAP1 POP SWAP2 SWAP1 POP JUMP JUMPDEST PUSH1 0x0 PUSH1 0x20 DUP3 ADD SWAP1 POP DUP2 DUP2 SUB PUSH1 0x0 DUP4 ADD MSTORE PUSH2 0x89C DUP2 PUSH2 0x860 JUMP JUMPDEST SWAP1 POP SWAP2 SWAP1 POP JUMP JUMPDEST PUSH32 0x4E487B7100000000000000000000000000000000000000000000000000000000 PUSH1 0x0 MSTORE PUSH1 0x22 PUSH1 0x4 MSTORE PUSH1 0x24 PUSH1 0x0 REVERT JUMPDEST PUSH1 0x0 PUSH1 0x2 DUP3 DIV SWAP1 POP PUSH1 0x1 DUP3 AND DUP1 PUSH2 0x8EA JUMPI PUSH1 0x7F DUP3 AND SWAP2 POP JUMPDEST PUSH1 0x20 DUP3 LT DUP2 SUB PUSH2 0x8FD JUMPI PUSH2 0x8FC PUSH2 0x8A3 JUMP JUMPDEST JUMPDEST POP SWAP2 SWAP1 POP JUMP JUMPDEST PUSH1 0x0 DUP2 SWAP1 POP DUP2 PUSH1 0x0 MSTORE PUSH1 0x20 PUSH1 0x0 KECCAK256 SWAP1 POP SWAP2 SWAP1 POP JUMP JUMPDEST PUSH1 0x0 PUSH1 0x20 PUSH1 0x1F DUP4 ADD DIV SWAP1 POP SWAP2 SWAP1 POP JUMP JUMPDEST PUSH1 0x0 DUP3 DUP3 SHL SWAP1 POP SWAP3 SWAP2 POP POP JUMP JUMPDEST PUSH1 0x0 PUSH1 0x8 DUP4 MUL PUSH2 0x965 PUSH32 0xFFFFFFFFFFFFFFFFFFFFFFFFFFFFFFFFFFFFFFFFFFFFFFFFFFFFFFFFFFFFFFFF DUP3 PUSH2 0x928 JUMP JUMPDEST PUSH2 0x96F DUP7 DUP4 PUSH2 0x928 JUMP JUMPDEST SWAP6 POP DUP1 NOT DUP5 AND SWAP4 POP DUP1 DUP7 AND DUP5 OR SWAP3 POP POP POP SWAP4 SWAP3 POP POP POP JUMP JUMPDEST PUSH1 0x0 DUP2 SWAP1 POP SWAP2 SWAP1 POP JUMP JUMPDEST PUSH1 0x0 PUSH2 0x9AC PUSH2 0x9A7 PUSH2 0x9A2 DUP5 PUSH2 0x4DB JUMP JUMPDEST PUSH2 0x987 JUMP JUMPDEST PUSH2 0x4DB JUMP JUMPDEST SWAP1 POP SWAP2 SWAP1 POP JUMP JUMPDEST PUSH1 0x0 DUP2 SWAP1 POP SWAP2 SWAP1 POP JUMP JUMPDEST PUSH2 0x9C6 DUP4 PUSH2 0x991 JUMP JUMPDEST PUSH2 0x9DA PUSH2 0x9D2 DUP3 PUSH2 0x9B3 JUMP JUMPDEST DUP5 DUP5 SLOAD PUSH2 0x935 JUMP JUMPDEST DUP3 SSTORE POP POP POP POP JUMP JUMPDEST PUSH1 0x0 SWAP1 JUMP JUMPDEST PUSH2 0x9EF PUSH2 0x9E2 JUMP JUMPDEST PUSH2 0x9FA DUP2 DUP5 DUP5 PUSH2 0x9BD JUMP JUMPDEST POP POP POP JUMP JUMPDEST JUMPDEST DUP2 DUP2 LT ISZERO PUSH2 0xA1E JUMPI PUSH2 0xA13 PUSH1 0x0 DUP3 PUSH2 0x9E7 JUMP JUMPDEST PUSH1 0x1 DUP2 ADD SWAP1 POP PUSH2 0xA00 JUMP JUMPDEST POP POP JUMP JUMPDEST PUSH1 0x1F DUP3 GT ISZERO PUSH2 0xA63 JUMPI PUSH2 0xA34 DUP2 PUSH2 0x903 JUMP JUMPDEST PUSH2 0xA3D DUP5 PUSH2 0x918 JUMP JUMPDEST DUP2 ADD PUSH1 0x20 DUP6 LT ISZERO PUSH2 0xA4C JUMPI DUP2 SWAP1 POP JUMPDEST PUSH2 0xA60 PUSH2 0xA58 DUP6 PUSH2 0x918 JUMP JUMPDEST DUP4 ADD DUP3 PUSH2 0x9FF JUMP JUMPDEST POP POP JUMPDEST POP POP POP JUMP JUMPDEST PUSH1 0x0 DUP3 DUP3 SHR SWAP1 POP SWAP3 SWAP2 POP POP JUMP JUMPDEST PUSH1 0x0 PUSH2 0xA86 PUSH1 0x0 NOT DUP5 PUSH1 0x8 MUL PUSH2 0xA68 JUMP JUMPDEST NOT DUP1 DUP4 AND SWAP2 POP POP SWAP3 SWAP2 POP POP JUMP JUMPDEST PUSH1 0x0 PUSH2 0xA9F DUP4 DUP4 PUSH2 0xA75 JUMP JUMPDEST SWAP2 POP DUP3 PUSH1 0x2 MUL DUP3 OR SWAP1 POP SWAP3 SWAP2 POP POP JUMP JUMPDEST PUSH2 0xAB8 DUP3 PUSH2 0x602 JUMP JUMPDEST PUSH8 0xFFFFFFFFFFFFFFFF DUP2 GT ISZERO PUSH2 0xAD1 JUMPI PUSH2 0xAD0 PUSH2 0x3B0 JUMP JUMPDEST JUMPDEST PUSH2 0xADB DUP3 SLOAD PUSH2 0x8D2 JUMP JUMPDEST PUSH2 0xAE6 DUP3 DUP3 DUP6 PUSH2 0xA22 JUMP JUMPDEST PUSH1 0x0 PUSH1 0x20 SWAP1 POP PUSH1 0x1F DUP4 GT PUSH1 0x1 DUP2 EQ PUSH2 0xB19 JUMPI PUSH1 0x0 DUP5 ISZERO PUSH2 0xB07 JUMPI DUP3 DUP8 ADD MLOAD SWAP1 POP JUMPDEST PUSH2 0xB11 DUP6 DUP3 PUSH2 0xA93 JUMP JUMPDEST DUP7 SSTORE POP PUSH2 0xB79 JUMP JUMPDEST PUSH1 0x1F NOT DUP5 AND PUSH2 0xB27 DUP7 PUSH2 0x903 JUMP JUMPDEST PUSH1 0x0 JUMPDEST DUP3 DUP2 LT ISZERO PUSH2 0xB4F JUMPI DUP5 DUP10 ADD MLOAD DUP3 SSTORE PUSH1 0x1 DUP3 ADD SWAP2 POP PUSH1 0x20 DUP6 ADD SWAP5 POP PUSH1 0x20 DUP2 ADD SWAP1 POP PUSH2 0xB2A JUMP JUMPDEST DUP7 DUP4 LT ISZERO PUSH2 0xB6C JUMPI DUP5 DUP10 ADD MLOAD PUSH2 0xB68 PUSH1 0x1F DUP10 AND DUP3 PUSH2 0xA75 JUMP JUMPDEST DUP4 SSTORE POP JUMPDEST PUSH1 0x1 PUSH1 0x2 DUP9 MUL ADD DUP9 SSTORE POP POP POP JUMPDEST POP POP POP POP POP POP JUMP JUMPDEST PUSH32 0x4E487B7100000000000000000000000000000000000000000000000000000000 PUSH1 0x0 MSTORE PUSH1 0x11 PUSH1 0x4 MSTORE PUSH1 0x24 PUSH1 0x0 REVERT JUMPDEST PUSH1 0x0 PUSH2 0xBBB DUP3 PUSH2 0x4DB JUMP JUMPDEST SWAP2 POP PUSH32 0xFFFFFFFFFFFFFFFFFFFFFFFFFFFFFFFFFFFFFFFFFFFFFFFFFFFFFFFFFFFFFFFF DUP3 SUB PUSH2 0xBED JUMPI PUSH2 0xBEC PUSH2 0xB81 JUMP JUMPDEST JUMPDEST PUSH1 0x1 DUP3 ADD SWAP1 POP SWAP2 SWAP1 POP JUMP INVALID LOG2 PUSH5 0x6970667358 0x22 SLT KECCAK256 0xF9 SWAP13 0xE8 SIGNEXTEND ISZERO 0x4F 0xC6 0xB2 PUSH17 0xDB945E0FC563854086EB5FF2D98F106451 PUSH13 0x68FD838E5764736F6C63430008 SLT STOP CALLER "
				},
				"gasEstimates": {
					"creation": {
						"codeDepositCost": "623600",
						"executionCost": "657",
						"totalCost": "624257"
					},
					"external": {
						"createEvent(string,uint256,uint256,uint256)": "infinite",
						"events(uint256)": "infinite",
						"nextId()": "2451",
						"tickets(address,uint256)": "infinite"
					}
				},
				"methodIdentifiers": {
					"createEvent(string,uint256,uint256,uint256)": "0374ab0b",
					"events(uint256)": "0b791430",
					"nextId()": "61b8ce8c",
					"tickets(address,uint256)": "dae7a13c"
				}
			},
			"storageLayout": {
				"storage": [
					{
						"astId": 19,
						"contract": "code-eater/event-organisation/Event.sol:EventContract",
						"label": "events",
						"offset": 0,
						"slot": "0",
						"type": "t_mapping(t_uint256,t_struct(Event)14_storage)"
					},
					{
						"astId": 25,
						"contract": "code-eater/event-organisation/Event.sol:EventContract",
						"label": "tickets",
						"offset": 0,
						"slot": "1",
						"type": "t_mapping(t_address,t_mapping(t_uint256,t_uint256))"
					},
					{
						"astId": 27,
						"contract": "code-eater/event-organisation/Event.sol:EventContract",
						"label": "nextId",
						"offset": 0,
						"slot": "2",
						"type": "t_uint256"
					}
				],
				"types": {
					"t_address": {
						"encoding": "inplace",
						"label": "address",
						"numberOfBytes": "20"
					},
					"t_mapping(t_address,t_mapping(t_uint256,t_uint256))": {
						"encoding": "mapping",
						"key": "t_address",
						"label": "mapping(address => mapping(uint256 => uint256))",
						"numberOfBytes": "32",
						"value": "t_mapping(t_uint256,t_uint256)"
					},
					"t_mapping(t_uint256,t_struct(Event)14_storage)": {
						"encoding": "mapping",
						"key": "t_uint256",
						"label": "mapping(uint256 => struct EventContract.Event)",
						"numberOfBytes": "32",
						"value": "t_struct(Event)14_storage"
					},
					"t_mapping(t_uint256,t_uint256)": {
						"encoding": "mapping",
						"key": "t_uint256",
						"label": "mapping(uint256 => uint256)",
						"numberOfBytes": "32",
						"value": "t_uint256"
					},
					"t_string_storage": {
						"encoding": "bytes",
						"label": "string",
						"numberOfBytes": "32"
					},
					"t_struct(Event)14_storage": {
						"encoding": "inplace",
						"label": "struct EventContract.Event",
						"members": [
							{
								"astId": 3,
								"contract": "code-eater/event-organisation/Event.sol:EventContract",
								"label": "organizer",
								"offset": 0,
								"slot": "0",
								"type": "t_address"
							},
							{
								"astId": 5,
								"contract": "code-eater/event-organisation/Event.sol:EventContract",
								"label": "name",
								"offset": 0,
								"slot": "1",
								"type": "t_string_storage"
							},
							{
								"astId": 7,
								"contract": "code-eater/event-organisation/Event.sol:EventContract",
								"label": "date",
								"offset": 0,
								"slot": "2",
								"type": "t_uint256"
							},
							{
								"astId": 9,
								"contract": "code-eater/event-organisation/Event.sol:EventContract",
								"label": "price",
								"offset": 0,
								"slot": "3",
								"type": "t_uint256"
							},
							{
								"astId": 11,
								"contract": "code-eater/event-organisation/Event.sol:EventContract",
								"label": "ticketCount",
								"offset": 0,
								"slot": "4",
								"type": "t_uint256"
							},
							{
								"astId": 13,
								"contract": "code-eater/event-organisation/Event.sol:EventContract",
								"label": "ticketRemain",
								"offset": 0,
								"slot": "5",
								"type": "t_uint256"
							}
						],
						"numberOfBytes": "192"
					},
					"t_uint256": {
						"encoding": "inplace",
						"label": "uint256",
						"numberOfBytes": "32"
					}
				}
			},
			"userdoc": {
				"kind": "user",
				"methods": {},
				"version": 1
			}
		}
	}
}