{
	"by-daulat-hussain/solidity/05-variables/demo.sol": {
		"demo": {
			"abi": [
				{
					"inputs": [
						{
							"internalType": "string",
							"name": "_text",
							"type": "string"
						},
						{
							"internalType": "uint256",
							"name": "_no",
							"type": "uint256"
						}
					],
					"stateMutability": "nonpayable",
					"type": "constructor"
				},
				{
					"inputs": [],
					"name": "myNum",
					"outputs": [
						{
							"internalType": "uint256",
							"name": "",
							"type": "uint256"
						}
					],
					"stateMutability": "view",
					"type": "function"
				},
				{
					"inputs": [],
					"name": "myState",
					"outputs": [
						{
							"internalType": "string",
							"name": "",
							"type": "string"
						}
					],
					"stateMutability": "view",
					"type": "function"
				},
				{
					"inputs": [
						{
							"internalType": "string",
							"name": "_text",
							"type": "string"
						},
						{
							"internalType": "uint256",
							"name": "_no",
							"type": "uint256"
						}
					],
					"name": "update",
					"outputs": [],
					"stateMutability": "nonpayable",
					"type": "function"
				}
			],
			"devdoc": {
				"kind": "dev",
				"methods": {},
				"version": 1
			},
			"evm": {
				"assembly": "    /* \"by-daulat-hussain/solidity/05-variables/demo.sol\":60:534  contract demo {... */\n  mstore(0x40, 0x80)\n    /* \"by-daulat-hussain/solidity/05-variables/demo.sol\":312:411  constructor( string memory _text, uint _no){... */\n  callvalue\n  dup1\n  iszero\n  tag_1\n  jumpi\n  0x00\n  dup1\n  revert\ntag_1:\n  pop\n  mload(0x40)\n  sub(codesize, bytecodeSize)\n  dup1\n  bytecodeSize\n  dup4\n  codecopy\n  dup2\n  dup2\n  add\n  0x40\n  mstore\n  dup2\n  add\n  swap1\n  tag_2\n  swap2\n  swap1\n  tag_3\n  jump\t// in\ntag_2:\n    /* \"by-daulat-hussain/solidity/05-variables/demo.sol\":376:381  _text */\n  dup2\n    /* \"by-daulat-hussain/solidity/05-variables/demo.sol\":366:373  myState */\n  0x00\n    /* \"by-daulat-hussain/solidity/05-variables/demo.sol\":366:381  myState = _text */\n  swap1\n  dup2\n  tag_6\n  swap2\n  swap1\n  tag_7\n  jump\t// in\ntag_6:\n  pop\n    /* \"by-daulat-hussain/solidity/05-variables/demo.sol\":400:403  _no */\n  dup1\n    /* \"by-daulat-hussain/solidity/05-variables/demo.sol\":392:397  myNum */\n  0x01\n    /* \"by-daulat-hussain/solidity/05-variables/demo.sol\":392:403  myNum = _no */\n  dup2\n  swap1\n  sstore\n  pop\n    /* \"by-daulat-hussain/solidity/05-variables/demo.sol\":312:411  constructor( string memory _text, uint _no){... */\n  pop\n  pop\n    /* \"by-daulat-hussain/solidity/05-variables/demo.sol\":60:534  contract demo {... */\n  jump(tag_8)\n    /* \"#utility.yul\":7:82   */\ntag_9:\n    /* \"#utility.yul\":40:46   */\n  0x00\n    /* \"#utility.yul\":73:75   */\n  0x40\n    /* \"#utility.yul\":67:76   */\n  mload\n    /* \"#utility.yul\":57:76   */\n  swap1\n  pop\n    /* \"#utility.yul\":7:82   */\n  swap1\n  jump\t// out\n    /* \"#utility.yul\":88:205   */\ntag_10:\n    /* \"#utility.yul\":197:198   */\n  0x00\n    /* \"#utility.yul\":194:195   */\n  dup1\n    /* \"#utility.yul\":187:199   */\n  revert\n    /* \"#utility.yul\":211:328   */\ntag_11:\n    /* \"#utility.yul\":320:321   */\n  0x00\n    /* \"#utility.yul\":317:318   */\n  dup1\n    /* \"#utility.yul\":310:322   */\n  revert\n    /* \"#utility.yul\":334:451   */\ntag_12:\n    /* \"#utility.yul\":443:444   */\n  0x00\n    /* \"#utility.yul\":440:441   */\n  dup1\n    /* \"#utility.yul\":433:445   */\n  revert\n    /* \"#utility.yul\":457:574   */\ntag_13:\n    /* \"#utility.yul\":566:567   */\n  0x00\n    /* \"#utility.yul\":563:564   */\n  dup1\n    /* \"#utility.yul\":556:568   */\n  revert\n    /* \"#utility.yul\":580:682   */\ntag_14:\n    /* \"#utility.yul\":621:627   */\n  0x00\n    /* \"#utility.yul\":672:674   */\n  0x1f\n    /* \"#utility.yul\":668:675   */\n  not\n    /* \"#utility.yul\":663:665   */\n  0x1f\n    /* \"#utility.yul\":656:661   */\n  dup4\n    /* \"#utility.yul\":652:666   */\n  add\n    /* \"#utility.yul\":648:676   */\n  and\n    /* \"#utility.yul\":638:676   */\n  swap1\n  pop\n    /* \"#utility.yul\":580:682   */\n  swap2\n  swap1\n  pop\n  jump\t// out\n    /* \"#utility.yul\":688:868   */\ntag_15:\n    /* \"#utility.yul\":736:813   */\n  0x4e487b7100000000000000000000000000000000000000000000000000000000\n    /* \"#utility.yul\":733:734   */\n  0x00\n    /* \"#utility.yul\":726:814   */\n  mstore\n    /* \"#utility.yul\":833:837   */\n  0x41\n    /* \"#utility.yul\":830:831   */\n  0x04\n    /* \"#utility.yul\":823:838   */\n  mstore\n    /* \"#utility.yul\":857:861   */\n  0x24\n    /* \"#utility.yul\":854:855   */\n  0x00\n    /* \"#utility.yul\":847:862   */\n  revert\n    /* \"#utility.yul\":874:1155   */\ntag_16:\n    /* \"#utility.yul\":957:984   */\n  tag_52\n    /* \"#utility.yul\":979:983   */\n  dup3\n    /* \"#utility.yul\":957:984   */\n  tag_14\n  jump\t// in\ntag_52:\n    /* \"#utility.yul\":949:955   */\n  dup2\n    /* \"#utility.yul\":945:985   */\n  add\n    /* \"#utility.yul\":1087:1093   */\n  dup2\n    /* \"#utility.yul\":1075:1085   */\n  dup2\n    /* \"#utility.yul\":1072:1094   */\n  lt\n    /* \"#utility.yul\":1051:1069   */\n  0xffffffffffffffff\n    /* \"#utility.yul\":1039:1049   */\n  dup3\n    /* \"#utility.yul\":1036:1070   */\n  gt\n    /* \"#utility.yul\":1033:1095   */\n  or\n    /* \"#utility.yul\":1030:1118   */\n  iszero\n  tag_53\n  jumpi\n    /* \"#utility.yul\":1098:1116   */\n  tag_54\n  tag_15\n  jump\t// in\ntag_54:\n    /* \"#utility.yul\":1030:1118   */\ntag_53:\n    /* \"#utility.yul\":1138:1148   */\n  dup1\n    /* \"#utility.yul\":1134:1136   */\n  0x40\n    /* \"#utility.yul\":1127:1149   */\n  mstore\n    /* \"#utility.yul\":917:1155   */\n  pop\n    /* \"#utility.yul\":874:1155   */\n  pop\n  pop\n  jump\t// out\n    /* \"#utility.yul\":1161:1290   */\ntag_17:\n    /* \"#utility.yul\":1195:1201   */\n  0x00\n    /* \"#utility.yul\":1222:1242   */\n  tag_56\n  tag_9\n  jump\t// in\ntag_56:\n    /* \"#utility.yul\":1212:1242   */\n  swap1\n  pop\n    /* \"#utility.yul\":1251:1284   */\n  tag_57\n    /* \"#utility.yul\":1279:1283   */\n  dup3\n    /* \"#utility.yul\":1271:1277   */\n  dup3\n    /* \"#utility.yul\":1251:1284   */\n  tag_16\n  jump\t// in\ntag_57:\n    /* \"#utility.yul\":1161:1290   */\n  swap2\n  swap1\n  pop\n  jump\t// out\n    /* \"#utility.yul\":1296:1604   */\ntag_18:\n    /* \"#utility.yul\":1358:1362   */\n  0x00\n    /* \"#utility.yul\":1448:1466   */\n  0xffffffffffffffff\n    /* \"#utility.yul\":1440:1446   */\n  dup3\n    /* \"#utility.yul\":1437:1467   */\n  gt\n    /* \"#utility.yul\":1434:1490   */\n  iszero\n  tag_59\n  jumpi\n    /* \"#utility.yul\":1470:1488   */\n  tag_60\n  tag_15\n  jump\t// in\ntag_60:\n    /* \"#utility.yul\":1434:1490   */\ntag_59:\n    /* \"#utility.yul\":1508:1537   */\n  tag_61\n    /* \"#utility.yul\":1530:1536   */\n  dup3\n    /* \"#utility.yul\":1508:1537   */\n  tag_14\n  jump\t// in\ntag_61:\n    /* \"#utility.yul\":1500:1537   */\n  swap1\n  pop\n    /* \"#utility.yul\":1592:1596   */\n  0x20\n    /* \"#utility.yul\":1586:1590   */\n  dup2\n    /* \"#utility.yul\":1582:1597   */\n  add\n    /* \"#utility.yul\":1574:1597   */\n  swap1\n  pop\n    /* \"#utility.yul\":1296:1604   */\n  swap2\n  swap1\n  pop\n  jump\t// out\n    /* \"#utility.yul\":1610:1856   */\ntag_19:\n    /* \"#utility.yul\":1691:1692   */\n  0x00\n    /* \"#utility.yul\":1701:1814   */\ntag_63:\n    /* \"#utility.yul\":1715:1721   */\n  dup4\n    /* \"#utility.yul\":1712:1713   */\n  dup2\n    /* \"#utility.yul\":1709:1722   */\n  lt\n    /* \"#utility.yul\":1701:1814   */\n  iszero\n  tag_65\n  jumpi\n    /* \"#utility.yul\":1800:1801   */\n  dup1\n    /* \"#utility.yul\":1795:1798   */\n  dup3\n    /* \"#utility.yul\":1791:1802   */\n  add\n    /* \"#utility.yul\":1785:1803   */\n  mload\n    /* \"#utility.yul\":1781:1782   */\n  dup2\n    /* \"#utility.yul\":1776:1779   */\n  dup5\n    /* \"#utility.yul\":1772:1783   */\n  add\n    /* \"#utility.yul\":1765:1804   */\n  mstore\n    /* \"#utility.yul\":1737:1739   */\n  0x20\n    /* \"#utility.yul\":1734:1735   */\n  dup2\n    /* \"#utility.yul\":1730:1740   */\n  add\n    /* \"#utility.yul\":1725:1740   */\n  swap1\n  pop\n    /* \"#utility.yul\":1701:1814   */\n  jump(tag_63)\ntag_65:\n    /* \"#utility.yul\":1848:1849   */\n  0x00\n    /* \"#utility.yul\":1839:1845   */\n  dup5\n    /* \"#utility.yul\":1834:1837   */\n  dup5\n    /* \"#utility.yul\":1830:1846   */\n  add\n    /* \"#utility.yul\":1823:1850   */\n  mstore\n    /* \"#utility.yul\":1672:1856   */\n  pop\n    /* \"#utility.yul\":1610:1856   */\n  pop\n  pop\n  pop\n  jump\t// out\n    /* \"#utility.yul\":1862:2296   */\ntag_20:\n    /* \"#utility.yul\":1951:1956   */\n  0x00\n    /* \"#utility.yul\":1976:2042   */\n  tag_67\n    /* \"#utility.yul\":1992:2041   */\n  tag_68\n    /* \"#utility.yul\":2034:2040   */\n  dup5\n    /* \"#utility.yul\":1992:2041   */\n  tag_18\n  jump\t// in\ntag_68:\n    /* \"#utility.yul\":1976:2042   */\n  tag_17\n  jump\t// in\ntag_67:\n    /* \"#utility.yul\":1967:2042   */\n  swap1\n  pop\n    /* \"#utility.yul\":2065:2071   */\n  dup3\n    /* \"#utility.yul\":2058:2063   */\n  dup2\n    /* \"#utility.yul\":2051:2072   */\n  mstore\n    /* \"#utility.yul\":2103:2107   */\n  0x20\n    /* \"#utility.yul\":2096:2101   */\n  dup2\n    /* \"#utility.yul\":2092:2108   */\n  add\n    /* \"#utility.yul\":2141:2144   */\n  dup5\n    /* \"#utility.yul\":2132:2138   */\n  dup5\n    /* \"#utility.yul\":2127:2130   */\n  dup5\n    /* \"#utility.yul\":2123:2139   */\n  add\n    /* \"#utility.yul\":2120:2145   */\n  gt\n    /* \"#utility.yul\":2117:2229   */\n  iszero\n  tag_69\n  jumpi\n    /* \"#utility.yul\":2148:2227   */\n  tag_70\n  tag_13\n  jump\t// in\ntag_70:\n    /* \"#utility.yul\":2117:2229   */\ntag_69:\n    /* \"#utility.yul\":2238:2290   */\n  tag_71\n    /* \"#utility.yul\":2283:2289   */\n  dup5\n    /* \"#utility.yul\":2278:2281   */\n  dup3\n    /* \"#utility.yul\":2273:2276   */\n  dup6\n    /* \"#utility.yul\":2238:2290   */\n  tag_19\n  jump\t// in\ntag_71:\n    /* \"#utility.yul\":1957:2296   */\n  pop\n    /* \"#utility.yul\":1862:2296   */\n  swap4\n  swap3\n  pop\n  pop\n  pop\n  jump\t// out\n    /* \"#utility.yul\":2316:2671   */\ntag_21:\n    /* \"#utility.yul\":2383:2388   */\n  0x00\n    /* \"#utility.yul\":2432:2435   */\n  dup3\n    /* \"#utility.yul\":2425:2429   */\n  0x1f\n    /* \"#utility.yul\":2417:2423   */\n  dup4\n    /* \"#utility.yul\":2413:2430   */\n  add\n    /* \"#utility.yul\":2409:2436   */\n  slt\n    /* \"#utility.yul\":2399:2521   */\n  tag_73\n  jumpi\n    /* \"#utility.yul\":2440:2519   */\n  tag_74\n  tag_12\n  jump\t// in\ntag_74:\n    /* \"#utility.yul\":2399:2521   */\ntag_73:\n    /* \"#utility.yul\":2550:2556   */\n  dup2\n    /* \"#utility.yul\":2544:2557   */\n  mload\n    /* \"#utility.yul\":2575:2665   */\n  tag_75\n    /* \"#utility.yul\":2661:2664   */\n  dup5\n    /* \"#utility.yul\":2653:2659   */\n  dup3\n    /* \"#utility.yul\":2646:2650   */\n  0x20\n    /* \"#utility.yul\":2638:2644   */\n  dup7\n    /* \"#utility.yul\":2634:2651   */\n  add\n    /* \"#utility.yul\":2575:2665   */\n  tag_20\n  jump\t// in\ntag_75:\n    /* \"#utility.yul\":2566:2665   */\n  swap2\n  pop\n    /* \"#utility.yul\":2389:2671   */\n  pop\n    /* \"#utility.yul\":2316:2671   */\n  swap3\n  swap2\n  pop\n  pop\n  jump\t// out\n    /* \"#utility.yul\":2677:2754   */\ntag_22:\n    /* \"#utility.yul\":2714:2721   */\n  0x00\n    /* \"#utility.yul\":2743:2748   */\n  dup2\n    /* \"#utility.yul\":2732:2748   */\n  swap1\n  pop\n    /* \"#utility.yul\":2677:2754   */\n  swap2\n  swap1\n  pop\n  jump\t// out\n    /* \"#utility.yul\":2760:2882   */\ntag_23:\n    /* \"#utility.yul\":2833:2857   */\n  tag_78\n    /* \"#utility.yul\":2851:2856   */\n  dup2\n    /* \"#utility.yul\":2833:2857   */\n  tag_22\n  jump\t// in\ntag_78:\n    /* \"#utility.yul\":2826:2831   */\n  dup2\n    /* \"#utility.yul\":2823:2858   */\n  eq\n    /* \"#utility.yul\":2813:2876   */\n  tag_79\n  jumpi\n    /* \"#utility.yul\":2872:2873   */\n  0x00\n    /* \"#utility.yul\":2869:2870   */\n  dup1\n    /* \"#utility.yul\":2862:2874   */\n  revert\n    /* \"#utility.yul\":2813:2876   */\ntag_79:\n    /* \"#utility.yul\":2760:2882   */\n  pop\n  jump\t// out\n    /* \"#utility.yul\":2888:3031   */\ntag_24:\n    /* \"#utility.yul\":2945:2950   */\n  0x00\n    /* \"#utility.yul\":2976:2982   */\n  dup2\n    /* \"#utility.yul\":2970:2983   */\n  mload\n    /* \"#utility.yul\":2961:2983   */\n  swap1\n  pop\n    /* \"#utility.yul\":2992:3025   */\n  tag_81\n    /* \"#utility.yul\":3019:3024   */\n  dup2\n    /* \"#utility.yul\":2992:3025   */\n  tag_23\n  jump\t// in\ntag_81:\n    /* \"#utility.yul\":2888:3031   */\n  swap3\n  swap2\n  pop\n  pop\n  jump\t// out\n    /* \"#utility.yul\":3037:3717   */\ntag_3:\n    /* \"#utility.yul\":3126:3132   */\n  0x00\n    /* \"#utility.yul\":3134:3140   */\n  dup1\n    /* \"#utility.yul\":3183:3185   */\n  0x40\n    /* \"#utility.yul\":3171:3180   */\n  dup4\n    /* \"#utility.yul\":3162:3169   */\n  dup6\n    /* \"#utility.yul\":3158:3181   */\n  sub\n    /* \"#utility.yul\":3154:3186   */\n  slt\n    /* \"#utility.yul\":3151:3270   */\n  iszero\n  tag_83\n  jumpi\n    /* \"#utility.yul\":3189:3268   */\n  tag_84\n  tag_10\n  jump\t// in\ntag_84:\n    /* \"#utility.yul\":3151:3270   */\ntag_83:\n    /* \"#utility.yul\":3330:3331   */\n  0x00\n    /* \"#utility.yul\":3319:3328   */\n  dup4\n    /* \"#utility.yul\":3315:3332   */\n  add\n    /* \"#utility.yul\":3309:3333   */\n  mload\n    /* \"#utility.yul\":3360:3378   */\n  0xffffffffffffffff\n    /* \"#utility.yul\":3352:3358   */\n  dup2\n    /* \"#utility.yul\":3349:3379   */\n  gt\n    /* \"#utility.yul\":3346:3463   */\n  iszero\n  tag_85\n  jumpi\n    /* \"#utility.yul\":3382:3461   */\n  tag_86\n  tag_11\n  jump\t// in\ntag_86:\n    /* \"#utility.yul\":3346:3463   */\ntag_85:\n    /* \"#utility.yul\":3487:3561   */\n  tag_87\n    /* \"#utility.yul\":3553:3560   */\n  dup6\n    /* \"#utility.yul\":3544:3550   */\n  dup3\n    /* \"#utility.yul\":3533:3542   */\n  dup7\n    /* \"#utility.yul\":3529:3551   */\n  add\n    /* \"#utility.yul\":3487:3561   */\n  tag_21\n  jump\t// in\ntag_87:\n    /* \"#utility.yul\":3477:3561   */\n  swap3\n  pop\n    /* \"#utility.yul\":3280:3571   */\n  pop\n    /* \"#utility.yul\":3610:3612   */\n  0x20\n    /* \"#utility.yul\":3636:3700   */\n  tag_88\n    /* \"#utility.yul\":3692:3699   */\n  dup6\n    /* \"#utility.yul\":3683:3689   */\n  dup3\n    /* \"#utility.yul\":3672:3681   */\n  dup7\n    /* \"#utility.yul\":3668:3690   */\n  add\n    /* \"#utility.yul\":3636:3700   */\n  tag_24\n  jump\t// in\ntag_88:\n    /* \"#utility.yul\":3626:3700   */\n  swap2\n  pop\n    /* \"#utility.yul\":3581:3710   */\n  pop\n    /* \"#utility.yul\":3037:3717   */\n  swap3\n  pop\n  swap3\n  swap1\n  pop\n  jump\t// out\n    /* \"#utility.yul\":3723:3822   */\ntag_25:\n    /* \"#utility.yul\":3775:3781   */\n  0x00\n    /* \"#utility.yul\":3809:3814   */\n  dup2\n    /* \"#utility.yul\":3803:3815   */\n  mload\n    /* \"#utility.yul\":3793:3815   */\n  swap1\n  pop\n    /* \"#utility.yul\":3723:3822   */\n  swap2\n  swap1\n  pop\n  jump\t// out\n    /* \"#utility.yul\":3828:4008   */\ntag_26:\n    /* \"#utility.yul\":3876:3953   */\n  0x4e487b7100000000000000000000000000000000000000000000000000000000\n    /* \"#utility.yul\":3873:3874   */\n  0x00\n    /* \"#utility.yul\":3866:3954   */\n  mstore\n    /* \"#utility.yul\":3973:3977   */\n  0x22\n    /* \"#utility.yul\":3970:3971   */\n  0x04\n    /* \"#utility.yul\":3963:3978   */\n  mstore\n    /* \"#utility.yul\":3997:4001   */\n  0x24\n    /* \"#utility.yul\":3994:3995   */\n  0x00\n    /* \"#utility.yul\":3987:4002   */\n  revert\n    /* \"#utility.yul\":4014:4334   */\ntag_27:\n    /* \"#utility.yul\":4058:4064   */\n  0x00\n    /* \"#utility.yul\":4095:4096   */\n  0x02\n    /* \"#utility.yul\":4089:4093   */\n  dup3\n    /* \"#utility.yul\":4085:4097   */\n  div\n    /* \"#utility.yul\":4075:4097   */\n  swap1\n  pop\n    /* \"#utility.yul\":4142:4143   */\n  0x01\n    /* \"#utility.yul\":4136:4140   */\n  dup3\n    /* \"#utility.yul\":4132:4144   */\n  and\n    /* \"#utility.yul\":4163:4181   */\n  dup1\n    /* \"#utility.yul\":4153:4234   */\n  tag_92\n  jumpi\n    /* \"#utility.yul\":4219:4223   */\n  0x7f\n    /* \"#utility.yul\":4211:4217   */\n  dup3\n    /* \"#utility.yul\":4207:4224   */\n  and\n    /* \"#utility.yul\":4197:4224   */\n  swap2\n  pop\n    /* \"#utility.yul\":4153:4234   */\ntag_92:\n    /* \"#utility.yul\":4281:4283   */\n  0x20\n    /* \"#utility.yul\":4273:4279   */\n  dup3\n    /* \"#utility.yul\":4270:4284   */\n  lt\n    /* \"#utility.yul\":4250:4268   */\n  dup2\n    /* \"#utility.yul\":4247:4285   */\n  sub\n    /* \"#utility.yul\":4244:4328   */\n  tag_93\n  jumpi\n    /* \"#utility.yul\":4300:4318   */\n  tag_94\n  tag_26\n  jump\t// in\ntag_94:\n    /* \"#utility.yul\":4244:4328   */\ntag_93:\n    /* \"#utility.yul\":4065:4334   */\n  pop\n    /* \"#utility.yul\":4014:4334   */\n  swap2\n  swap1\n  pop\n  jump\t// out\n    /* \"#utility.yul\":4340:4481   */\ntag_28:\n    /* \"#utility.yul\":4389:4393   */\n  0x00\n    /* \"#utility.yul\":4412:4415   */\n  dup2\n    /* \"#utility.yul\":4404:4415   */\n  swap1\n  pop\n    /* \"#utility.yul\":4435:4438   */\n  dup2\n    /* \"#utility.yul\":4432:4433   */\n  0x00\n    /* \"#utility.yul\":4425:4439   */\n  mstore\n    /* \"#utility.yul\":4469:4473   */\n  0x20\n    /* \"#utility.yul\":4466:4467   */\n  0x00\n    /* \"#utility.yul\":4456:4474   */\n  keccak256\n    /* \"#utility.yul\":4448:4474   */\n  swap1\n  pop\n    /* \"#utility.yul\":4340:4481   */\n  swap2\n  swap1\n  pop\n  jump\t// out\n    /* \"#utility.yul\":4487:4580   */\ntag_29:\n    /* \"#utility.yul\":4524:4530   */\n  0x00\n    /* \"#utility.yul\":4571:4573   */\n  0x20\n    /* \"#utility.yul\":4566:4568   */\n  0x1f\n    /* \"#utility.yul\":4559:4564   */\n  dup4\n    /* \"#utility.yul\":4555:4569   */\n  add\n    /* \"#utility.yul\":4551:4574   */\n  div\n    /* \"#utility.yul\":4541:4574   */\n  swap1\n  pop\n    /* \"#utility.yul\":4487:4580   */\n  swap2\n  swap1\n  pop\n  jump\t// out\n    /* \"#utility.yul\":4586:4693   */\ntag_30:\n    /* \"#utility.yul\":4630:4638   */\n  0x00\n    /* \"#utility.yul\":4680:4685   */\n  dup3\n    /* \"#utility.yul\":4674:4678   */\n  dup3\n    /* \"#utility.yul\":4670:4686   */\n  shl\n    /* \"#utility.yul\":4649:4686   */\n  swap1\n  pop\n    /* \"#utility.yul\":4586:4693   */\n  swap3\n  swap2\n  pop\n  pop\n  jump\t// out\n    /* \"#utility.yul\":4699:5092   */\ntag_31:\n    /* \"#utility.yul\":4768:4774   */\n  0x00\n    /* \"#utility.yul\":4818:4819   */\n  0x08\n    /* \"#utility.yul\":4806:4816   */\n  dup4\n    /* \"#utility.yul\":4802:4820   */\n  mul\n    /* \"#utility.yul\":4841:4938   */\n  tag_99\n    /* \"#utility.yul\":4871:4937   */\n  0xffffffffffffffffffffffffffffffffffffffffffffffffffffffffffffffff\n    /* \"#utility.yul\":4860:4869   */\n  dup3\n    /* \"#utility.yul\":4841:4938   */\n  tag_30\n  jump\t// in\ntag_99:\n    /* \"#utility.yul\":4959:4998   */\n  tag_100\n    /* \"#utility.yul\":4989:4997   */\n  dup7\n    /* \"#utility.yul\":4978:4987   */\n  dup4\n    /* \"#utility.yul\":4959:4998   */\n  tag_30\n  jump\t// in\ntag_100:\n    /* \"#utility.yul\":4947:4998   */\n  swap6\n  pop\n    /* \"#utility.yul\":5031:5035   */\n  dup1\n    /* \"#utility.yul\":5027:5036   */\n  not\n    /* \"#utility.yul\":5020:5025   */\n  dup5\n    /* \"#utility.yul\":5016:5037   */\n  and\n    /* \"#utility.yul\":5007:5037   */\n  swap4\n  pop\n    /* \"#utility.yul\":5080:5084   */\n  dup1\n    /* \"#utility.yul\":5070:5078   */\n  dup7\n    /* \"#utility.yul\":5066:5085   */\n  and\n    /* \"#utility.yul\":5059:5064   */\n  dup5\n    /* \"#utility.yul\":5056:5086   */\n  or\n    /* \"#utility.yul\":5046:5086   */\n  swap3\n  pop\n    /* \"#utility.yul\":4775:5092   */\n  pop\n  pop\n    /* \"#utility.yul\":4699:5092   */\n  swap4\n  swap3\n  pop\n  pop\n  pop\n  jump\t// out\n    /* \"#utility.yul\":5098:5158   */\ntag_32:\n    /* \"#utility.yul\":5126:5129   */\n  0x00\n    /* \"#utility.yul\":5147:5152   */\n  dup2\n    /* \"#utility.yul\":5140:5152   */\n  swap1\n  pop\n    /* \"#utility.yul\":5098:5158   */\n  swap2\n  swap1\n  pop\n  jump\t// out\n    /* \"#utility.yul\":5164:5306   */\ntag_33:\n    /* \"#utility.yul\":5214:5223   */\n  0x00\n    /* \"#utility.yul\":5247:5300   */\n  tag_103\n    /* \"#utility.yul\":5265:5299   */\n  tag_104\n    /* \"#utility.yul\":5274:5298   */\n  tag_105\n    /* \"#utility.yul\":5292:5297   */\n  dup5\n    /* \"#utility.yul\":5274:5298   */\n  tag_22\n  jump\t// in\ntag_105:\n    /* \"#utility.yul\":5265:5299   */\n  tag_32\n  jump\t// in\ntag_104:\n    /* \"#utility.yul\":5247:5300   */\n  tag_22\n  jump\t// in\ntag_103:\n    /* \"#utility.yul\":5234:5300   */\n  swap1\n  pop\n    /* \"#utility.yul\":5164:5306   */\n  swap2\n  swap1\n  pop\n  jump\t// out\n    /* \"#utility.yul\":5312:5387   */\ntag_34:\n    /* \"#utility.yul\":5355:5358   */\n  0x00\n    /* \"#utility.yul\":5376:5381   */\n  dup2\n    /* \"#utility.yul\":5369:5381   */\n  swap1\n  pop\n    /* \"#utility.yul\":5312:5387   */\n  swap2\n  swap1\n  pop\n  jump\t// out\n    /* \"#utility.yul\":5393:5662   */\ntag_35:\n    /* \"#utility.yul\":5503:5542   */\n  tag_108\n    /* \"#utility.yul\":5534:5541   */\n  dup4\n    /* \"#utility.yul\":5503:5542   */\n  tag_33\n  jump\t// in\ntag_108:\n    /* \"#utility.yul\":5564:5655   */\n  tag_109\n    /* \"#utility.yul\":5613:5654   */\n  tag_110\n    /* \"#utility.yul\":5637:5653   */\n  dup3\n    /* \"#utility.yul\":5613:5654   */\n  tag_34\n  jump\t// in\ntag_110:\n    /* \"#utility.yul\":5605:5611   */\n  dup5\n    /* \"#utility.yul\":5598:5602   */\n  dup5\n    /* \"#utility.yul\":5592:5603   */\n  sload\n    /* \"#utility.yul\":5564:5655   */\n  tag_31\n  jump\t// in\ntag_109:\n    /* \"#utility.yul\":5558:5562   */\n  dup3\n    /* \"#utility.yul\":5551:5656   */\n  sstore\n    /* \"#utility.yul\":5469:5662   */\n  pop\n    /* \"#utility.yul\":5393:5662   */\n  pop\n  pop\n  pop\n  jump\t// out\n    /* \"#utility.yul\":5668:5741   */\ntag_36:\n    /* \"#utility.yul\":5713:5716   */\n  0x00\n    /* \"#utility.yul\":5668:5741   */\n  swap1\n  jump\t// out\n    /* \"#utility.yul\":5747:5936   */\ntag_37:\n    /* \"#utility.yul\":5824:5856   */\n  tag_113\n  tag_36\n  jump\t// in\ntag_113:\n    /* \"#utility.yul\":5865:5930   */\n  tag_114\n    /* \"#utility.yul\":5923:5929   */\n  dup2\n    /* \"#utility.yul\":5915:5921   */\n  dup5\n    /* \"#utility.yul\":5909:5913   */\n  dup5\n    /* \"#utility.yul\":5865:5930   */\n  tag_35\n  jump\t// in\ntag_114:\n    /* \"#utility.yul\":5800:5936   */\n  pop\n    /* \"#utility.yul\":5747:5936   */\n  pop\n  pop\n  jump\t// out\n    /* \"#utility.yul\":5942:6128   */\ntag_38:\n    /* \"#utility.yul\":6002:6122   */\ntag_116:\n    /* \"#utility.yul\":6019:6022   */\n  dup2\n    /* \"#utility.yul\":6012:6017   */\n  dup2\n    /* \"#utility.yul\":6009:6023   */\n  lt\n    /* \"#utility.yul\":6002:6122   */\n  iszero\n  tag_118\n  jumpi\n    /* \"#utility.yul\":6073:6112   */\n  tag_119\n    /* \"#utility.yul\":6110:6111   */\n  0x00\n    /* \"#utility.yul\":6103:6108   */\n  dup3\n    /* \"#utility.yul\":6073:6112   */\n  tag_37\n  jump\t// in\ntag_119:\n    /* \"#utility.yul\":6046:6047   */\n  0x01\n    /* \"#utility.yul\":6039:6044   */\n  dup2\n    /* \"#utility.yul\":6035:6048   */\n  add\n    /* \"#utility.yul\":6026:6048   */\n  swap1\n  pop\n    /* \"#utility.yul\":6002:6122   */\n  jump(tag_116)\ntag_118:\n    /* \"#utility.yul\":5942:6128   */\n  pop\n  pop\n  jump\t// out\n    /* \"#utility.yul\":6134:6677   */\ntag_39:\n    /* \"#utility.yul\":6235:6237   */\n  0x1f\n    /* \"#utility.yul\":6230:6233   */\n  dup3\n    /* \"#utility.yul\":6227:6238   */\n  gt\n    /* \"#utility.yul\":6224:6670   */\n  iszero\n  tag_121\n  jumpi\n    /* \"#utility.yul\":6269:6307   */\n  tag_122\n    /* \"#utility.yul\":6301:6306   */\n  dup2\n    /* \"#utility.yul\":6269:6307   */\n  tag_28\n  jump\t// in\ntag_122:\n    /* \"#utility.yul\":6353:6382   */\n  tag_123\n    /* \"#utility.yul\":6371:6381   */\n  dup5\n    /* \"#utility.yul\":6353:6382   */\n  tag_29\n  jump\t// in\ntag_123:\n    /* \"#utility.yul\":6343:6351   */\n  dup2\n    /* \"#utility.yul\":6339:6383   */\n  add\n    /* \"#utility.yul\":6536:6538   */\n  0x20\n    /* \"#utility.yul\":6524:6534   */\n  dup6\n    /* \"#utility.yul\":6521:6539   */\n  lt\n    /* \"#utility.yul\":6518:6567   */\n  iszero\n  tag_124\n  jumpi\n    /* \"#utility.yul\":6557:6565   */\n  dup2\n    /* \"#utility.yul\":6542:6565   */\n  swap1\n  pop\n    /* \"#utility.yul\":6518:6567   */\ntag_124:\n    /* \"#utility.yul\":6580:6660   */\n  tag_125\n    /* \"#utility.yul\":6636:6658   */\n  tag_126\n    /* \"#utility.yul\":6654:6657   */\n  dup6\n    /* \"#utility.yul\":6636:6658   */\n  tag_29\n  jump\t// in\ntag_126:\n    /* \"#utility.yul\":6626:6634   */\n  dup4\n    /* \"#utility.yul\":6622:6659   */\n  add\n    /* \"#utility.yul\":6609:6620   */\n  dup3\n    /* \"#utility.yul\":6580:6660   */\n  tag_38\n  jump\t// in\ntag_125:\n    /* \"#utility.yul\":6239:6670   */\n  pop\n  pop\n    /* \"#utility.yul\":6224:6670   */\ntag_121:\n    /* \"#utility.yul\":6134:6677   */\n  pop\n  pop\n  pop\n  jump\t// out\n    /* \"#utility.yul\":6683:6800   */\ntag_40:\n    /* \"#utility.yul\":6737:6745   */\n  0x00\n    /* \"#utility.yul\":6787:6792   */\n  dup3\n    /* \"#utility.yul\":6781:6785   */\n  dup3\n    /* \"#utility.yul\":6777:6793   */\n  shr\n    /* \"#utility.yul\":6756:6793   */\n  swap1\n  pop\n    /* \"#utility.yul\":6683:6800   */\n  swap3\n  swap2\n  pop\n  pop\n  jump\t// out\n    /* \"#utility.yul\":6806:6975   */\ntag_41:\n    /* \"#utility.yul\":6850:6856   */\n  0x00\n    /* \"#utility.yul\":6883:6934   */\n  tag_129\n    /* \"#utility.yul\":6931:6932   */\n  0x00\n    /* \"#utility.yul\":6927:6933   */\n  not\n    /* \"#utility.yul\":6919:6924   */\n  dup5\n    /* \"#utility.yul\":6916:6917   */\n  0x08\n    /* \"#utility.yul\":6912:6925   */\n  mul\n    /* \"#utility.yul\":6883:6934   */\n  tag_40\n  jump\t// in\ntag_129:\n    /* \"#utility.yul\":6879:6935   */\n  not\n    /* \"#utility.yul\":6964:6968   */\n  dup1\n    /* \"#utility.yul\":6958:6962   */\n  dup4\n    /* \"#utility.yul\":6954:6969   */\n  and\n    /* \"#utility.yul\":6944:6969   */\n  swap2\n  pop\n    /* \"#utility.yul\":6857:6975   */\n  pop\n    /* \"#utility.yul\":6806:6975   */\n  swap3\n  swap2\n  pop\n  pop\n  jump\t// out\n    /* \"#utility.yul\":6980:7275   */\ntag_42:\n    /* \"#utility.yul\":7056:7060   */\n  0x00\n    /* \"#utility.yul\":7202:7231   */\n  tag_131\n    /* \"#utility.yul\":7227:7230   */\n  dup4\n    /* \"#utility.yul\":7221:7225   */\n  dup4\n    /* \"#utility.yul\":7202:7231   */\n  tag_41\n  jump\t// in\ntag_131:\n    /* \"#utility.yul\":7194:7231   */\n  swap2\n  pop\n    /* \"#utility.yul\":7264:7267   */\n  dup3\n    /* \"#utility.yul\":7261:7262   */\n  0x02\n    /* \"#utility.yul\":7257:7268   */\n  mul\n    /* \"#utility.yul\":7251:7255   */\n  dup3\n    /* \"#utility.yul\":7248:7269   */\n  or\n    /* \"#utility.yul\":7240:7269   */\n  swap1\n  pop\n    /* \"#utility.yul\":6980:7275   */\n  swap3\n  swap2\n  pop\n  pop\n  jump\t// out\n    /* \"#utility.yul\":7280:8675   */\ntag_7:\n    /* \"#utility.yul\":7397:7434   */\n  tag_133\n    /* \"#utility.yul\":7430:7433   */\n  dup3\n    /* \"#utility.yul\":7397:7434   */\n  tag_25\n  jump\t// in\ntag_133:\n    /* \"#utility.yul\":7499:7517   */\n  0xffffffffffffffff\n    /* \"#utility.yul\":7491:7497   */\n  dup2\n    /* \"#utility.yul\":7488:7518   */\n  gt\n    /* \"#utility.yul\":7485:7541   */\n  iszero\n  tag_134\n  jumpi\n    /* \"#utility.yul\":7521:7539   */\n  tag_135\n  tag_15\n  jump\t// in\ntag_135:\n    /* \"#utility.yul\":7485:7541   */\ntag_134:\n    /* \"#utility.yul\":7565:7603   */\n  tag_136\n    /* \"#utility.yul\":7597:7601   */\n  dup3\n    /* \"#utility.yul\":7591:7602   */\n  sload\n    /* \"#utility.yul\":7565:7603   */\n  tag_27\n  jump\t// in\ntag_136:\n    /* \"#utility.yul\":7650:7717   */\n  tag_137\n    /* \"#utility.yul\":7710:7716   */\n  dup3\n    /* \"#utility.yul\":7702:7708   */\n  dup3\n    /* \"#utility.yul\":7696:7700   */\n  dup6\n    /* \"#utility.yul\":7650:7717   */\n  tag_39\n  jump\t// in\ntag_137:\n    /* \"#utility.yul\":7744:7745   */\n  0x00\n    /* \"#utility.yul\":7768:7772   */\n  0x20\n    /* \"#utility.yul\":7755:7772   */\n  swap1\n  pop\n    /* \"#utility.yul\":7800:7802   */\n  0x1f\n    /* \"#utility.yul\":7792:7798   */\n  dup4\n    /* \"#utility.yul\":7789:7803   */\n  gt\n    /* \"#utility.yul\":7817:7818   */\n  0x01\n    /* \"#utility.yul\":7812:8430   */\n  dup2\n  eq\n  tag_139\n  jumpi\n    /* \"#utility.yul\":8474:8475   */\n  0x00\n    /* \"#utility.yul\":8491:8497   */\n  dup5\n    /* \"#utility.yul\":8488:8565   */\n  iszero\n  tag_140\n  jumpi\n    /* \"#utility.yul\":8540:8549   */\n  dup3\n    /* \"#utility.yul\":8535:8538   */\n  dup8\n    /* \"#utility.yul\":8531:8550   */\n  add\n    /* \"#utility.yul\":8525:8551   */\n  mload\n    /* \"#utility.yul\":8516:8551   */\n  swap1\n  pop\n    /* \"#utility.yul\":8488:8565   */\ntag_140:\n    /* \"#utility.yul\":8591:8658   */\n  tag_141\n    /* \"#utility.yul\":8651:8657   */\n  dup6\n    /* \"#utility.yul\":8644:8649   */\n  dup3\n    /* \"#utility.yul\":8591:8658   */\n  tag_42\n  jump\t// in\ntag_141:\n    /* \"#utility.yul\":8585:8589   */\n  dup7\n    /* \"#utility.yul\":8578:8659   */\n  sstore\n    /* \"#utility.yul\":8447:8669   */\n  pop\n    /* \"#utility.yul\":7782:8669   */\n  jump(tag_138)\n    /* \"#utility.yul\":7812:8430   */\ntag_139:\n    /* \"#utility.yul\":7864:7868   */\n  0x1f\n    /* \"#utility.yul\":7860:7869   */\n  not\n    /* \"#utility.yul\":7852:7858   */\n  dup5\n    /* \"#utility.yul\":7848:7870   */\n  and\n    /* \"#utility.yul\":7898:7935   */\n  tag_142\n    /* \"#utility.yul\":7930:7934   */\n  dup7\n    /* \"#utility.yul\":7898:7935   */\n  tag_28\n  jump\t// in\ntag_142:\n    /* \"#utility.yul\":7957:7958   */\n  0x00\n    /* \"#utility.yul\":7971:8179   */\ntag_143:\n    /* \"#utility.yul\":7985:7992   */\n  dup3\n    /* \"#utility.yul\":7982:7983   */\n  dup2\n    /* \"#utility.yul\":7979:7993   */\n  lt\n    /* \"#utility.yul\":7971:8179   */\n  iszero\n  tag_145\n  jumpi\n    /* \"#utility.yul\":8064:8073   */\n  dup5\n    /* \"#utility.yul\":8059:8062   */\n  dup10\n    /* \"#utility.yul\":8055:8074   */\n  add\n    /* \"#utility.yul\":8049:8075   */\n  mload\n    /* \"#utility.yul\":8041:8047   */\n  dup3\n    /* \"#utility.yul\":8034:8076   */\n  sstore\n    /* \"#utility.yul\":8115:8116   */\n  0x01\n    /* \"#utility.yul\":8107:8113   */\n  dup3\n    /* \"#utility.yul\":8103:8117   */\n  add\n    /* \"#utility.yul\":8093:8117   */\n  swap2\n  pop\n    /* \"#utility.yul\":8162:8164   */\n  0x20\n    /* \"#utility.yul\":8151:8160   */\n  dup6\n    /* \"#utility.yul\":8147:8165   */\n  add\n    /* \"#utility.yul\":8134:8165   */\n  swap5\n  pop\n    /* \"#utility.yul\":8008:8012   */\n  0x20\n    /* \"#utility.yul\":8005:8006   */\n  dup2\n    /* \"#utility.yul\":8001:8013   */\n  add\n    /* \"#utility.yul\":7996:8013   */\n  swap1\n  pop\n    /* \"#utility.yul\":7971:8179   */\n  jump(tag_143)\ntag_145:\n    /* \"#utility.yul\":8207:8213   */\n  dup7\n    /* \"#utility.yul\":8198:8205   */\n  dup4\n    /* \"#utility.yul\":8195:8214   */\n  lt\n    /* \"#utility.yul\":8192:8371   */\n  iszero\n  tag_146\n  jumpi\n    /* \"#utility.yul\":8265:8274   */\n  dup5\n    /* \"#utility.yul\":8260:8263   */\n  dup10\n    /* \"#utility.yul\":8256:8275   */\n  add\n    /* \"#utility.yul\":8250:8276   */\n  mload\n    /* \"#utility.yul\":8308:8356   */\n  tag_147\n    /* \"#utility.yul\":8350:8354   */\n  0x1f\n    /* \"#utility.yul\":8342:8348   */\n  dup10\n    /* \"#utility.yul\":8338:8355   */\n  and\n    /* \"#utility.yul\":8327:8336   */\n  dup3\n    /* \"#utility.yul\":8308:8356   */\n  tag_41\n  jump\t// in\ntag_147:\n    /* \"#utility.yul\":8300:8306   */\n  dup4\n    /* \"#utility.yul\":8293:8357   */\n  sstore\n    /* \"#utility.yul\":8215:8371   */\n  pop\n    /* \"#utility.yul\":8192:8371   */\ntag_146:\n    /* \"#utility.yul\":8417:8418   */\n  0x01\n    /* \"#utility.yul\":8413:8414   */\n  0x02\n    /* \"#utility.yul\":8405:8411   */\n  dup9\n    /* \"#utility.yul\":8401:8415   */\n  mul\n    /* \"#utility.yul\":8397:8419   */\n  add\n    /* \"#utility.yul\":8391:8395   */\n  dup9\n    /* \"#utility.yul\":8384:8420   */\n  sstore\n    /* \"#utility.yul\":7819:8430   */\n  pop\n  pop\n  pop\n    /* \"#utility.yul\":7782:8669   */\ntag_138:\n  pop\n    /* \"#utility.yul\":7372:8675   */\n  pop\n  pop\n  pop\n    /* \"#utility.yul\":7280:8675   */\n  pop\n  pop\n  jump\t// out\n    /* \"by-daulat-hussain/solidity/05-variables/demo.sol\":60:534  contract demo {... */\ntag_8:\n  dataSize(sub_0)\n  dup1\n  dataOffset(sub_0)\n  0x00\n  codecopy\n  0x00\n  return\nstop\n\nsub_0: assembly {\n        /* \"by-daulat-hussain/solidity/05-variables/demo.sol\":60:534  contract demo {... */\n      mstore(0x40, 0x80)\n      callvalue\n      dup1\n      iszero\n      tag_1\n      jumpi\n      0x00\n      dup1\n      revert\n    tag_1:\n      pop\n      jumpi(tag_2, lt(calldatasize, 0x04))\n      shr(0xe0, calldataload(0x00))\n      dup1\n      0x4ee5c2ee\n      eq\n      tag_3\n      jumpi\n      dup1\n      0x8bf1799f\n      eq\n      tag_4\n      jumpi\n      dup1\n      0xd4da005a\n      eq\n      tag_5\n      jumpi\n    tag_2:\n      0x00\n      dup1\n      revert\n        /* \"by-daulat-hussain/solidity/05-variables/demo.sol\":419:529  function update(string memory _text, uint _no) public {... */\n    tag_3:\n      tag_6\n      0x04\n      dup1\n      calldatasize\n      sub\n      dup2\n      add\n      swap1\n      tag_7\n      swap2\n      swap1\n      tag_8\n      jump\t// in\n    tag_7:\n      tag_9\n      jump\t// in\n    tag_6:\n      stop\n        /* \"by-daulat-hussain/solidity/05-variables/demo.sol\":81:102  string public myState */\n    tag_4:\n      tag_10\n      tag_11\n      jump\t// in\n    tag_10:\n      mload(0x40)\n      tag_12\n      swap2\n      swap1\n      tag_13\n      jump\t// in\n    tag_12:\n      mload(0x40)\n      dup1\n      swap2\n      sub\n      swap1\n      return\n        /* \"by-daulat-hussain/solidity/05-variables/demo.sol\":109:126  uint public myNum */\n    tag_5:\n      tag_14\n      tag_15\n      jump\t// in\n    tag_14:\n      mload(0x40)\n      tag_16\n      swap2\n      swap1\n      tag_17\n      jump\t// in\n    tag_16:\n      mload(0x40)\n      dup1\n      swap2\n      sub\n      swap1\n      return\n        /* \"by-daulat-hussain/solidity/05-variables/demo.sol\":419:529  function update(string memory _text, uint _no) public {... */\n    tag_9:\n        /* \"by-daulat-hussain/solidity/05-variables/demo.sol\":494:499  _text */\n      dup2\n        /* \"by-daulat-hussain/solidity/05-variables/demo.sol\":484:491  myState */\n      0x00\n        /* \"by-daulat-hussain/solidity/05-variables/demo.sol\":484:499  myState = _text */\n      swap1\n      dup2\n      tag_19\n      swap2\n      swap1\n      tag_20\n      jump\t// in\n    tag_19:\n      pop\n        /* \"by-daulat-hussain/solidity/05-variables/demo.sol\":518:521  _no */\n      dup1\n        /* \"by-daulat-hussain/solidity/05-variables/demo.sol\":510:515  myNum */\n      0x01\n        /* \"by-daulat-hussain/solidity/05-variables/demo.sol\":510:521  myNum = _no */\n      dup2\n      swap1\n      sstore\n      pop\n        /* \"by-daulat-hussain/solidity/05-variables/demo.sol\":419:529  function update(string memory _text, uint _no) public {... */\n      pop\n      pop\n      jump\t// out\n        /* \"by-daulat-hussain/solidity/05-variables/demo.sol\":81:102  string public myState */\n    tag_11:\n      0x00\n      dup1\n      sload\n      tag_21\n      swap1\n      tag_22\n      jump\t// in\n    tag_21:\n      dup1\n      0x1f\n      add\n      0x20\n      dup1\n      swap2\n      div\n      mul\n      0x20\n      add\n      mload(0x40)\n      swap1\n      dup2\n      add\n      0x40\n      mstore\n      dup1\n      swap3\n      swap2\n      swap1\n      dup2\n      dup2\n      mstore\n      0x20\n      add\n      dup3\n      dup1\n      sload\n      tag_23\n      swap1\n      tag_22\n      jump\t// in\n    tag_23:\n      dup1\n      iszero\n      tag_24\n      jumpi\n      dup1\n      0x1f\n      lt\n      tag_25\n      jumpi\n      0x0100\n      dup1\n      dup4\n      sload\n      div\n      mul\n      dup4\n      mstore\n      swap2\n      0x20\n      add\n      swap2\n      jump(tag_24)\n    tag_25:\n      dup3\n      add\n      swap2\n      swap1\n      0x00\n      mstore\n      keccak256(0x00, 0x20)\n      swap1\n    tag_26:\n      dup2\n      sload\n      dup2\n      mstore\n      swap1\n      0x01\n      add\n      swap1\n      0x20\n      add\n      dup1\n      dup4\n      gt\n      tag_26\n      jumpi\n      dup3\n      swap1\n      sub\n      0x1f\n      and\n      dup3\n      add\n      swap2\n    tag_24:\n      pop\n      pop\n      pop\n      pop\n      pop\n      dup2\n      jump\t// out\n        /* \"by-daulat-hussain/solidity/05-variables/demo.sol\":109:126  uint public myNum */\n    tag_15:\n      sload(0x01)\n      dup2\n      jump\t// out\n        /* \"#utility.yul\":7:82   */\n    tag_27:\n        /* \"#utility.yul\":40:46   */\n      0x00\n        /* \"#utility.yul\":73:75   */\n      0x40\n        /* \"#utility.yul\":67:76   */\n      mload\n        /* \"#utility.yul\":57:76   */\n      swap1\n      pop\n        /* \"#utility.yul\":7:82   */\n      swap1\n      jump\t// out\n        /* \"#utility.yul\":88:205   */\n    tag_28:\n        /* \"#utility.yul\":197:198   */\n      0x00\n        /* \"#utility.yul\":194:195   */\n      dup1\n        /* \"#utility.yul\":187:199   */\n      revert\n        /* \"#utility.yul\":211:328   */\n    tag_29:\n        /* \"#utility.yul\":320:321   */\n      0x00\n        /* \"#utility.yul\":317:318   */\n      dup1\n        /* \"#utility.yul\":310:322   */\n      revert\n        /* \"#utility.yul\":334:451   */\n    tag_30:\n        /* \"#utility.yul\":443:444   */\n      0x00\n        /* \"#utility.yul\":440:441   */\n      dup1\n        /* \"#utility.yul\":433:445   */\n      revert\n        /* \"#utility.yul\":457:574   */\n    tag_31:\n        /* \"#utility.yul\":566:567   */\n      0x00\n        /* \"#utility.yul\":563:564   */\n      dup1\n        /* \"#utility.yul\":556:568   */\n      revert\n        /* \"#utility.yul\":580:682   */\n    tag_32:\n        /* \"#utility.yul\":621:627   */\n      0x00\n        /* \"#utility.yul\":672:674   */\n      0x1f\n        /* \"#utility.yul\":668:675   */\n      not\n        /* \"#utility.yul\":663:665   */\n      0x1f\n        /* \"#utility.yul\":656:661   */\n      dup4\n        /* \"#utility.yul\":652:666   */\n      add\n        /* \"#utility.yul\":648:676   */\n      and\n        /* \"#utility.yul\":638:676   */\n      swap1\n      pop\n        /* \"#utility.yul\":580:682   */\n      swap2\n      swap1\n      pop\n      jump\t// out\n        /* \"#utility.yul\":688:868   */\n    tag_33:\n        /* \"#utility.yul\":736:813   */\n      0x4e487b7100000000000000000000000000000000000000000000000000000000\n        /* \"#utility.yul\":733:734   */\n      0x00\n        /* \"#utility.yul\":726:814   */\n      mstore\n        /* \"#utility.yul\":833:837   */\n      0x41\n        /* \"#utility.yul\":830:831   */\n      0x04\n        /* \"#utility.yul\":823:838   */\n      mstore\n        /* \"#utility.yul\":857:861   */\n      0x24\n        /* \"#utility.yul\":854:855   */\n      0x00\n        /* \"#utility.yul\":847:862   */\n      revert\n        /* \"#utility.yul\":874:1155   */\n    tag_34:\n        /* \"#utility.yul\":957:984   */\n      tag_73\n        /* \"#utility.yul\":979:983   */\n      dup3\n        /* \"#utility.yul\":957:984   */\n      tag_32\n      jump\t// in\n    tag_73:\n        /* \"#utility.yul\":949:955   */\n      dup2\n        /* \"#utility.yul\":945:985   */\n      add\n        /* \"#utility.yul\":1087:1093   */\n      dup2\n        /* \"#utility.yul\":1075:1085   */\n      dup2\n        /* \"#utility.yul\":1072:1094   */\n      lt\n        /* \"#utility.yul\":1051:1069   */\n      0xffffffffffffffff\n        /* \"#utility.yul\":1039:1049   */\n      dup3\n        /* \"#utility.yul\":1036:1070   */\n      gt\n        /* \"#utility.yul\":1033:1095   */\n      or\n        /* \"#utility.yul\":1030:1118   */\n      iszero\n      tag_74\n      jumpi\n        /* \"#utility.yul\":1098:1116   */\n      tag_75\n      tag_33\n      jump\t// in\n    tag_75:\n        /* \"#utility.yul\":1030:1118   */\n    tag_74:\n        /* \"#utility.yul\":1138:1148   */\n      dup1\n        /* \"#utility.yul\":1134:1136   */\n      0x40\n        /* \"#utility.yul\":1127:1149   */\n      mstore\n        /* \"#utility.yul\":917:1155   */\n      pop\n        /* \"#utility.yul\":874:1155   */\n      pop\n      pop\n      jump\t// out\n        /* \"#utility.yul\":1161:1290   */\n    tag_35:\n        /* \"#utility.yul\":1195:1201   */\n      0x00\n        /* \"#utility.yul\":1222:1242   */\n      tag_77\n      tag_27\n      jump\t// in\n    tag_77:\n        /* \"#utility.yul\":1212:1242   */\n      swap1\n      pop\n        /* \"#utility.yul\":1251:1284   */\n      tag_78\n        /* \"#utility.yul\":1279:1283   */\n      dup3\n        /* \"#utility.yul\":1271:1277   */\n      dup3\n        /* \"#utility.yul\":1251:1284   */\n      tag_34\n      jump\t// in\n    tag_78:\n        /* \"#utility.yul\":1161:1290   */\n      swap2\n      swap1\n      pop\n      jump\t// out\n        /* \"#utility.yul\":1296:1604   */\n    tag_36:\n        /* \"#utility.yul\":1358:1362   */\n      0x00\n        /* \"#utility.yul\":1448:1466   */\n      0xffffffffffffffff\n        /* \"#utility.yul\":1440:1446   */\n      dup3\n        /* \"#utility.yul\":1437:1467   */\n      gt\n        /* \"#utility.yul\":1434:1490   */\n      iszero\n      tag_80\n      jumpi\n        /* \"#utility.yul\":1470:1488   */\n      tag_81\n      tag_33\n      jump\t// in\n    tag_81:\n        /* \"#utility.yul\":1434:1490   */\n    tag_80:\n        /* \"#utility.yul\":1508:1537   */\n      tag_82\n        /* \"#utility.yul\":1530:1536   */\n      dup3\n        /* \"#utility.yul\":1508:1537   */\n      tag_32\n      jump\t// in\n    tag_82:\n        /* \"#utility.yul\":1500:1537   */\n      swap1\n      pop\n        /* \"#utility.yul\":1592:1596   */\n      0x20\n        /* \"#utility.yul\":1586:1590   */\n      dup2\n        /* \"#utility.yul\":1582:1597   */\n      add\n        /* \"#utility.yul\":1574:1597   */\n      swap1\n      pop\n        /* \"#utility.yul\":1296:1604   */\n      swap2\n      swap1\n      pop\n      jump\t// out\n        /* \"#utility.yul\":1610:1756   */\n    tag_37:\n        /* \"#utility.yul\":1707:1713   */\n      dup3\n        /* \"#utility.yul\":1702:1705   */\n      dup2\n        /* \"#utility.yul\":1697:1700   */\n      dup4\n        /* \"#utility.yul\":1684:1714   */\n      calldatacopy\n        /* \"#utility.yul\":1748:1749   */\n      0x00\n        /* \"#utility.yul\":1739:1745   */\n      dup4\n        /* \"#utility.yul\":1734:1737   */\n      dup4\n        /* \"#utility.yul\":1730:1746   */\n      add\n        /* \"#utility.yul\":1723:1750   */\n      mstore\n        /* \"#utility.yul\":1610:1756   */\n      pop\n      pop\n      pop\n      jump\t// out\n        /* \"#utility.yul\":1762:2187   */\n    tag_38:\n        /* \"#utility.yul\":1840:1845   */\n      0x00\n        /* \"#utility.yul\":1865:1931   */\n      tag_85\n        /* \"#utility.yul\":1881:1930   */\n      tag_86\n        /* \"#utility.yul\":1923:1929   */\n      dup5\n        /* \"#utility.yul\":1881:1930   */\n      tag_36\n      jump\t// in\n    tag_86:\n        /* \"#utility.yul\":1865:1931   */\n      tag_35\n      jump\t// in\n    tag_85:\n        /* \"#utility.yul\":1856:1931   */\n      swap1\n      pop\n        /* \"#utility.yul\":1954:1960   */\n      dup3\n        /* \"#utility.yul\":1947:1952   */\n      dup2\n        /* \"#utility.yul\":1940:1961   */\n      mstore\n        /* \"#utility.yul\":1992:1996   */\n      0x20\n        /* \"#utility.yul\":1985:1990   */\n      dup2\n        /* \"#utility.yul\":1981:1997   */\n      add\n        /* \"#utility.yul\":2030:2033   */\n      dup5\n        /* \"#utility.yul\":2021:2027   */\n      dup5\n        /* \"#utility.yul\":2016:2019   */\n      dup5\n        /* \"#utility.yul\":2012:2028   */\n      add\n        /* \"#utility.yul\":2009:2034   */\n      gt\n        /* \"#utility.yul\":2006:2118   */\n      iszero\n      tag_87\n      jumpi\n        /* \"#utility.yul\":2037:2116   */\n      tag_88\n      tag_31\n      jump\t// in\n    tag_88:\n        /* \"#utility.yul\":2006:2118   */\n    tag_87:\n        /* \"#utility.yul\":2127:2181   */\n      tag_89\n        /* \"#utility.yul\":2174:2180   */\n      dup5\n        /* \"#utility.yul\":2169:2172   */\n      dup3\n        /* \"#utility.yul\":2164:2167   */\n      dup6\n        /* \"#utility.yul\":2127:2181   */\n      tag_37\n      jump\t// in\n    tag_89:\n        /* \"#utility.yul\":1846:2187   */\n      pop\n        /* \"#utility.yul\":1762:2187   */\n      swap4\n      swap3\n      pop\n      pop\n      pop\n      jump\t// out\n        /* \"#utility.yul\":2207:2547   */\n    tag_39:\n        /* \"#utility.yul\":2263:2268   */\n      0x00\n        /* \"#utility.yul\":2312:2315   */\n      dup3\n        /* \"#utility.yul\":2305:2309   */\n      0x1f\n        /* \"#utility.yul\":2297:2303   */\n      dup4\n        /* \"#utility.yul\":2293:2310   */\n      add\n        /* \"#utility.yul\":2289:2316   */\n      slt\n        /* \"#utility.yul\":2279:2401   */\n      tag_91\n      jumpi\n        /* \"#utility.yul\":2320:2399   */\n      tag_92\n      tag_30\n      jump\t// in\n    tag_92:\n        /* \"#utility.yul\":2279:2401   */\n    tag_91:\n        /* \"#utility.yul\":2437:2443   */\n      dup2\n        /* \"#utility.yul\":2424:2444   */\n      calldataload\n        /* \"#utility.yul\":2462:2541   */\n      tag_93\n        /* \"#utility.yul\":2537:2540   */\n      dup5\n        /* \"#utility.yul\":2529:2535   */\n      dup3\n        /* \"#utility.yul\":2522:2526   */\n      0x20\n        /* \"#utility.yul\":2514:2520   */\n      dup7\n        /* \"#utility.yul\":2510:2527   */\n      add\n        /* \"#utility.yul\":2462:2541   */\n      tag_38\n      jump\t// in\n    tag_93:\n        /* \"#utility.yul\":2453:2541   */\n      swap2\n      pop\n        /* \"#utility.yul\":2269:2547   */\n      pop\n        /* \"#utility.yul\":2207:2547   */\n      swap3\n      swap2\n      pop\n      pop\n      jump\t// out\n        /* \"#utility.yul\":2553:2630   */\n    tag_40:\n        /* \"#utility.yul\":2590:2597   */\n      0x00\n        /* \"#utility.yul\":2619:2624   */\n      dup2\n        /* \"#utility.yul\":2608:2624   */\n      swap1\n      pop\n        /* \"#utility.yul\":2553:2630   */\n      swap2\n      swap1\n      pop\n      jump\t// out\n        /* \"#utility.yul\":2636:2758   */\n    tag_41:\n        /* \"#utility.yul\":2709:2733   */\n      tag_96\n        /* \"#utility.yul\":2727:2732   */\n      dup2\n        /* \"#utility.yul\":2709:2733   */\n      tag_40\n      jump\t// in\n    tag_96:\n        /* \"#utility.yul\":2702:2707   */\n      dup2\n        /* \"#utility.yul\":2699:2734   */\n      eq\n        /* \"#utility.yul\":2689:2752   */\n      tag_97\n      jumpi\n        /* \"#utility.yul\":2748:2749   */\n      0x00\n        /* \"#utility.yul\":2745:2746   */\n      dup1\n        /* \"#utility.yul\":2738:2750   */\n      revert\n        /* \"#utility.yul\":2689:2752   */\n    tag_97:\n        /* \"#utility.yul\":2636:2758   */\n      pop\n      jump\t// out\n        /* \"#utility.yul\":2764:2903   */\n    tag_42:\n        /* \"#utility.yul\":2810:2815   */\n      0x00\n        /* \"#utility.yul\":2848:2854   */\n      dup2\n        /* \"#utility.yul\":2835:2855   */\n      calldataload\n        /* \"#utility.yul\":2826:2855   */\n      swap1\n      pop\n        /* \"#utility.yul\":2864:2897   */\n      tag_99\n        /* \"#utility.yul\":2891:2896   */\n      dup2\n        /* \"#utility.yul\":2864:2897   */\n      tag_41\n      jump\t// in\n    tag_99:\n        /* \"#utility.yul\":2764:2903   */\n      swap3\n      swap2\n      pop\n      pop\n      jump\t// out\n        /* \"#utility.yul\":2909:3563   */\n    tag_8:\n        /* \"#utility.yul\":2987:2993   */\n      0x00\n        /* \"#utility.yul\":2995:3001   */\n      dup1\n        /* \"#utility.yul\":3044:3046   */\n      0x40\n        /* \"#utility.yul\":3032:3041   */\n      dup4\n        /* \"#utility.yul\":3023:3030   */\n      dup6\n        /* \"#utility.yul\":3019:3042   */\n      sub\n        /* \"#utility.yul\":3015:3047   */\n      slt\n        /* \"#utility.yul\":3012:3131   */\n      iszero\n      tag_101\n      jumpi\n        /* \"#utility.yul\":3050:3129   */\n      tag_102\n      tag_28\n      jump\t// in\n    tag_102:\n        /* \"#utility.yul\":3012:3131   */\n    tag_101:\n        /* \"#utility.yul\":3198:3199   */\n      0x00\n        /* \"#utility.yul\":3187:3196   */\n      dup4\n        /* \"#utility.yul\":3183:3200   */\n      add\n        /* \"#utility.yul\":3170:3201   */\n      calldataload\n        /* \"#utility.yul\":3228:3246   */\n      0xffffffffffffffff\n        /* \"#utility.yul\":3220:3226   */\n      dup2\n        /* \"#utility.yul\":3217:3247   */\n      gt\n        /* \"#utility.yul\":3214:3331   */\n      iszero\n      tag_103\n      jumpi\n        /* \"#utility.yul\":3250:3329   */\n      tag_104\n      tag_29\n      jump\t// in\n    tag_104:\n        /* \"#utility.yul\":3214:3331   */\n    tag_103:\n        /* \"#utility.yul\":3355:3418   */\n      tag_105\n        /* \"#utility.yul\":3410:3417   */\n      dup6\n        /* \"#utility.yul\":3401:3407   */\n      dup3\n        /* \"#utility.yul\":3390:3399   */\n      dup7\n        /* \"#utility.yul\":3386:3408   */\n      add\n        /* \"#utility.yul\":3355:3418   */\n      tag_39\n      jump\t// in\n    tag_105:\n        /* \"#utility.yul\":3345:3418   */\n      swap3\n      pop\n        /* \"#utility.yul\":3141:3428   */\n      pop\n        /* \"#utility.yul\":3467:3469   */\n      0x20\n        /* \"#utility.yul\":3493:3546   */\n      tag_106\n        /* \"#utility.yul\":3538:3545   */\n      dup6\n        /* \"#utility.yul\":3529:3535   */\n      dup3\n        /* \"#utility.yul\":3518:3527   */\n      dup7\n        /* \"#utility.yul\":3514:3536   */\n      add\n        /* \"#utility.yul\":3493:3546   */\n      tag_42\n      jump\t// in\n    tag_106:\n        /* \"#utility.yul\":3483:3546   */\n      swap2\n      pop\n        /* \"#utility.yul\":3438:3556   */\n      pop\n        /* \"#utility.yul\":2909:3563   */\n      swap3\n      pop\n      swap3\n      swap1\n      pop\n      jump\t// out\n        /* \"#utility.yul\":3569:3668   */\n    tag_43:\n        /* \"#utility.yul\":3621:3627   */\n      0x00\n        /* \"#utility.yul\":3655:3660   */\n      dup2\n        /* \"#utility.yul\":3649:3661   */\n      mload\n        /* \"#utility.yul\":3639:3661   */\n      swap1\n      pop\n        /* \"#utility.yul\":3569:3668   */\n      swap2\n      swap1\n      pop\n      jump\t// out\n        /* \"#utility.yul\":3674:3843   */\n    tag_44:\n        /* \"#utility.yul\":3758:3769   */\n      0x00\n        /* \"#utility.yul\":3792:3798   */\n      dup3\n        /* \"#utility.yul\":3787:3790   */\n      dup3\n        /* \"#utility.yul\":3780:3799   */\n      mstore\n        /* \"#utility.yul\":3832:3836   */\n      0x20\n        /* \"#utility.yul\":3827:3830   */\n      dup3\n        /* \"#utility.yul\":3823:3837   */\n      add\n        /* \"#utility.yul\":3808:3837   */\n      swap1\n      pop\n        /* \"#utility.yul\":3674:3843   */\n      swap3\n      swap2\n      pop\n      pop\n      jump\t// out\n        /* \"#utility.yul\":3849:4095   */\n    tag_45:\n        /* \"#utility.yul\":3930:3931   */\n      0x00\n        /* \"#utility.yul\":3940:4053   */\n    tag_110:\n        /* \"#utility.yul\":3954:3960   */\n      dup4\n        /* \"#utility.yul\":3951:3952   */\n      dup2\n        /* \"#utility.yul\":3948:3961   */\n      lt\n        /* \"#utility.yul\":3940:4053   */\n      iszero\n      tag_112\n      jumpi\n        /* \"#utility.yul\":4039:4040   */\n      dup1\n        /* \"#utility.yul\":4034:4037   */\n      dup3\n        /* \"#utility.yul\":4030:4041   */\n      add\n        /* \"#utility.yul\":4024:4042   */\n      mload\n        /* \"#utility.yul\":4020:4021   */\n      dup2\n        /* \"#utility.yul\":4015:4018   */\n      dup5\n        /* \"#utility.yul\":4011:4022   */\n      add\n        /* \"#utility.yul\":4004:4043   */\n      mstore\n        /* \"#utility.yul\":3976:3978   */\n      0x20\n        /* \"#utility.yul\":3973:3974   */\n      dup2\n        /* \"#utility.yul\":3969:3979   */\n      add\n        /* \"#utility.yul\":3964:3979   */\n      swap1\n      pop\n        /* \"#utility.yul\":3940:4053   */\n      jump(tag_110)\n    tag_112:\n        /* \"#utility.yul\":4087:4088   */\n      0x00\n        /* \"#utility.yul\":4078:4084   */\n      dup5\n        /* \"#utility.yul\":4073:4076   */\n      dup5\n        /* \"#utility.yul\":4069:4085   */\n      add\n        /* \"#utility.yul\":4062:4089   */\n      mstore\n        /* \"#utility.yul\":3911:4095   */\n      pop\n        /* \"#utility.yul\":3849:4095   */\n      pop\n      pop\n      pop\n      jump\t// out\n        /* \"#utility.yul\":4101:4478   */\n    tag_46:\n        /* \"#utility.yul\":4189:4192   */\n      0x00\n        /* \"#utility.yul\":4217:4256   */\n      tag_114\n        /* \"#utility.yul\":4250:4255   */\n      dup3\n        /* \"#utility.yul\":4217:4256   */\n      tag_43\n      jump\t// in\n    tag_114:\n        /* \"#utility.yul\":4272:4343   */\n      tag_115\n        /* \"#utility.yul\":4336:4342   */\n      dup2\n        /* \"#utility.yul\":4331:4334   */\n      dup6\n        /* \"#utility.yul\":4272:4343   */\n      tag_44\n      jump\t// in\n    tag_115:\n        /* \"#utility.yul\":4265:4343   */\n      swap4\n      pop\n        /* \"#utility.yul\":4352:4417   */\n      tag_116\n        /* \"#utility.yul\":4410:4416   */\n      dup2\n        /* \"#utility.yul\":4405:4408   */\n      dup6\n        /* \"#utility.yul\":4398:4402   */\n      0x20\n        /* \"#utility.yul\":4391:4396   */\n      dup7\n        /* \"#utility.yul\":4387:4403   */\n      add\n        /* \"#utility.yul\":4352:4417   */\n      tag_45\n      jump\t// in\n    tag_116:\n        /* \"#utility.yul\":4442:4471   */\n      tag_117\n        /* \"#utility.yul\":4464:4470   */\n      dup2\n        /* \"#utility.yul\":4442:4471   */\n      tag_32\n      jump\t// in\n    tag_117:\n        /* \"#utility.yul\":4437:4440   */\n      dup5\n        /* \"#utility.yul\":4433:4472   */\n      add\n        /* \"#utility.yul\":4426:4472   */\n      swap2\n      pop\n        /* \"#utility.yul\":4193:4478   */\n      pop\n        /* \"#utility.yul\":4101:4478   */\n      swap3\n      swap2\n      pop\n      pop\n      jump\t// out\n        /* \"#utility.yul\":4484:4797   */\n    tag_13:\n        /* \"#utility.yul\":4597:4601   */\n      0x00\n        /* \"#utility.yul\":4635:4637   */\n      0x20\n        /* \"#utility.yul\":4624:4633   */\n      dup3\n        /* \"#utility.yul\":4620:4638   */\n      add\n        /* \"#utility.yul\":4612:4638   */\n      swap1\n      pop\n        /* \"#utility.yul\":4684:4693   */\n      dup2\n        /* \"#utility.yul\":4678:4682   */\n      dup2\n        /* \"#utility.yul\":4674:4694   */\n      sub\n        /* \"#utility.yul\":4670:4671   */\n      0x00\n        /* \"#utility.yul\":4659:4668   */\n      dup4\n        /* \"#utility.yul\":4655:4672   */\n      add\n        /* \"#utility.yul\":4648:4695   */\n      mstore\n        /* \"#utility.yul\":4712:4790   */\n      tag_119\n        /* \"#utility.yul\":4785:4789   */\n      dup2\n        /* \"#utility.yul\":4776:4782   */\n      dup5\n        /* \"#utility.yul\":4712:4790   */\n      tag_46\n      jump\t// in\n    tag_119:\n        /* \"#utility.yul\":4704:4790   */\n      swap1\n      pop\n        /* \"#utility.yul\":4484:4797   */\n      swap3\n      swap2\n      pop\n      pop\n      jump\t// out\n        /* \"#utility.yul\":4803:4921   */\n    tag_47:\n        /* \"#utility.yul\":4890:4914   */\n      tag_121\n        /* \"#utility.yul\":4908:4913   */\n      dup2\n        /* \"#utility.yul\":4890:4914   */\n      tag_40\n      jump\t// in\n    tag_121:\n        /* \"#utility.yul\":4885:4888   */\n      dup3\n        /* \"#utility.yul\":4878:4915   */\n      mstore\n        /* \"#utility.yul\":4803:4921   */\n      pop\n      pop\n      jump\t// out\n        /* \"#utility.yul\":4927:5149   */\n    tag_17:\n        /* \"#utility.yul\":5020:5024   */\n      0x00\n        /* \"#utility.yul\":5058:5060   */\n      0x20\n        /* \"#utility.yul\":5047:5056   */\n      dup3\n        /* \"#utility.yul\":5043:5061   */\n      add\n        /* \"#utility.yul\":5035:5061   */\n      swap1\n      pop\n        /* \"#utility.yul\":5071:5142   */\n      tag_123\n        /* \"#utility.yul\":5139:5140   */\n      0x00\n        /* \"#utility.yul\":5128:5137   */\n      dup4\n        /* \"#utility.yul\":5124:5141   */\n      add\n        /* \"#utility.yul\":5115:5121   */\n      dup5\n        /* \"#utility.yul\":5071:5142   */\n      tag_47\n      jump\t// in\n    tag_123:\n        /* \"#utility.yul\":4927:5149   */\n      swap3\n      swap2\n      pop\n      pop\n      jump\t// out\n        /* \"#utility.yul\":5155:5335   */\n    tag_48:\n        /* \"#utility.yul\":5203:5280   */\n      0x4e487b7100000000000000000000000000000000000000000000000000000000\n        /* \"#utility.yul\":5200:5201   */\n      0x00\n        /* \"#utility.yul\":5193:5281   */\n      mstore\n        /* \"#utility.yul\":5300:5304   */\n      0x22\n        /* \"#utility.yul\":5297:5298   */\n      0x04\n        /* \"#utility.yul\":5290:5305   */\n      mstore\n        /* \"#utility.yul\":5324:5328   */\n      0x24\n        /* \"#utility.yul\":5321:5322   */\n      0x00\n        /* \"#utility.yul\":5314:5329   */\n      revert\n        /* \"#utility.yul\":5341:5661   */\n    tag_22:\n        /* \"#utility.yul\":5385:5391   */\n      0x00\n        /* \"#utility.yul\":5422:5423   */\n      0x02\n        /* \"#utility.yul\":5416:5420   */\n      dup3\n        /* \"#utility.yul\":5412:5424   */\n      div\n        /* \"#utility.yul\":5402:5424   */\n      swap1\n      pop\n        /* \"#utility.yul\":5469:5470   */\n      0x01\n        /* \"#utility.yul\":5463:5467   */\n      dup3\n        /* \"#utility.yul\":5459:5471   */\n      and\n        /* \"#utility.yul\":5490:5508   */\n      dup1\n        /* \"#utility.yul\":5480:5561   */\n      tag_126\n      jumpi\n        /* \"#utility.yul\":5546:5550   */\n      0x7f\n        /* \"#utility.yul\":5538:5544   */\n      dup3\n        /* \"#utility.yul\":5534:5551   */\n      and\n        /* \"#utility.yul\":5524:5551   */\n      swap2\n      pop\n        /* \"#utility.yul\":5480:5561   */\n    tag_126:\n        /* \"#utility.yul\":5608:5610   */\n      0x20\n        /* \"#utility.yul\":5600:5606   */\n      dup3\n        /* \"#utility.yul\":5597:5611   */\n      lt\n        /* \"#utility.yul\":5577:5595   */\n      dup2\n        /* \"#utility.yul\":5574:5612   */\n      sub\n        /* \"#utility.yul\":5571:5655   */\n      tag_127\n      jumpi\n        /* \"#utility.yul\":5627:5645   */\n      tag_128\n      tag_48\n      jump\t// in\n    tag_128:\n        /* \"#utility.yul\":5571:5655   */\n    tag_127:\n        /* \"#utility.yul\":5392:5661   */\n      pop\n        /* \"#utility.yul\":5341:5661   */\n      swap2\n      swap1\n      pop\n      jump\t// out\n        /* \"#utility.yul\":5667:5808   */\n    tag_49:\n        /* \"#utility.yul\":5716:5720   */\n      0x00\n        /* \"#utility.yul\":5739:5742   */\n      dup2\n        /* \"#utility.yul\":5731:5742   */\n      swap1\n      pop\n        /* \"#utility.yul\":5762:5765   */\n      dup2\n        /* \"#utility.yul\":5759:5760   */\n      0x00\n        /* \"#utility.yul\":5752:5766   */\n      mstore\n        /* \"#utility.yul\":5796:5800   */\n      0x20\n        /* \"#utility.yul\":5793:5794   */\n      0x00\n        /* \"#utility.yul\":5783:5801   */\n      keccak256\n        /* \"#utility.yul\":5775:5801   */\n      swap1\n      pop\n        /* \"#utility.yul\":5667:5808   */\n      swap2\n      swap1\n      pop\n      jump\t// out\n        /* \"#utility.yul\":5814:5907   */\n    tag_50:\n        /* \"#utility.yul\":5851:5857   */\n      0x00\n        /* \"#utility.yul\":5898:5900   */\n      0x20\n        /* \"#utility.yul\":5893:5895   */\n      0x1f\n        /* \"#utility.yul\":5886:5891   */\n      dup4\n        /* \"#utility.yul\":5882:5896   */\n      add\n        /* \"#utility.yul\":5878:5901   */\n      div\n        /* \"#utility.yul\":5868:5901   */\n      swap1\n      pop\n        /* \"#utility.yul\":5814:5907   */\n      swap2\n      swap1\n      pop\n      jump\t// out\n        /* \"#utility.yul\":5913:6020   */\n    tag_51:\n        /* \"#utility.yul\":5957:5965   */\n      0x00\n        /* \"#utility.yul\":6007:6012   */\n      dup3\n        /* \"#utility.yul\":6001:6005   */\n      dup3\n        /* \"#utility.yul\":5997:6013   */\n      shl\n        /* \"#utility.yul\":5976:6013   */\n      swap1\n      pop\n        /* \"#utility.yul\":5913:6020   */\n      swap3\n      swap2\n      pop\n      pop\n      jump\t// out\n        /* \"#utility.yul\":6026:6419   */\n    tag_52:\n        /* \"#utility.yul\":6095:6101   */\n      0x00\n        /* \"#utility.yul\":6145:6146   */\n      0x08\n        /* \"#utility.yul\":6133:6143   */\n      dup4\n        /* \"#utility.yul\":6129:6147   */\n      mul\n        /* \"#utility.yul\":6168:6265   */\n      tag_133\n        /* \"#utility.yul\":6198:6264   */\n      0xffffffffffffffffffffffffffffffffffffffffffffffffffffffffffffffff\n        /* \"#utility.yul\":6187:6196   */\n      dup3\n        /* \"#utility.yul\":6168:6265   */\n      tag_51\n      jump\t// in\n    tag_133:\n        /* \"#utility.yul\":6286:6325   */\n      tag_134\n        /* \"#utility.yul\":6316:6324   */\n      dup7\n        /* \"#utility.yul\":6305:6314   */\n      dup4\n        /* \"#utility.yul\":6286:6325   */\n      tag_51\n      jump\t// in\n    tag_134:\n        /* \"#utility.yul\":6274:6325   */\n      swap6\n      pop\n        /* \"#utility.yul\":6358:6362   */\n      dup1\n        /* \"#utility.yul\":6354:6363   */\n      not\n        /* \"#utility.yul\":6347:6352   */\n      dup5\n        /* \"#utility.yul\":6343:6364   */\n      and\n        /* \"#utility.yul\":6334:6364   */\n      swap4\n      pop\n        /* \"#utility.yul\":6407:6411   */\n      dup1\n        /* \"#utility.yul\":6397:6405   */\n      dup7\n        /* \"#utility.yul\":6393:6412   */\n      and\n        /* \"#utility.yul\":6386:6391   */\n      dup5\n        /* \"#utility.yul\":6383:6413   */\n      or\n        /* \"#utility.yul\":6373:6413   */\n      swap3\n      pop\n        /* \"#utility.yul\":6102:6419   */\n      pop\n      pop\n        /* \"#utility.yul\":6026:6419   */\n      swap4\n      swap3\n      pop\n      pop\n      pop\n      jump\t// out\n        /* \"#utility.yul\":6425:6485   */\n    tag_53:\n        /* \"#utility.yul\":6453:6456   */\n      0x00\n        /* \"#utility.yul\":6474:6479   */\n      dup2\n        /* \"#utility.yul\":6467:6479   */\n      swap1\n      pop\n        /* \"#utility.yul\":6425:6485   */\n      swap2\n      swap1\n      pop\n      jump\t// out\n        /* \"#utility.yul\":6491:6633   */\n    tag_54:\n        /* \"#utility.yul\":6541:6550   */\n      0x00\n        /* \"#utility.yul\":6574:6627   */\n      tag_137\n        /* \"#utility.yul\":6592:6626   */\n      tag_138\n        /* \"#utility.yul\":6601:6625   */\n      tag_139\n        /* \"#utility.yul\":6619:6624   */\n      dup5\n        /* \"#utility.yul\":6601:6625   */\n      tag_40\n      jump\t// in\n    tag_139:\n        /* \"#utility.yul\":6592:6626   */\n      tag_53\n      jump\t// in\n    tag_138:\n        /* \"#utility.yul\":6574:6627   */\n      tag_40\n      jump\t// in\n    tag_137:\n        /* \"#utility.yul\":6561:6627   */\n      swap1\n      pop\n        /* \"#utility.yul\":6491:6633   */\n      swap2\n      swap1\n      pop\n      jump\t// out\n        /* \"#utility.yul\":6639:6714   */\n    tag_55:\n        /* \"#utility.yul\":6682:6685   */\n      0x00\n        /* \"#utility.yul\":6703:6708   */\n      dup2\n        /* \"#utility.yul\":6696:6708   */\n      swap1\n      pop\n        /* \"#utility.yul\":6639:6714   */\n      swap2\n      swap1\n      pop\n      jump\t// out\n        /* \"#utility.yul\":6720:6989   */\n    tag_56:\n        /* \"#utility.yul\":6830:6869   */\n      tag_142\n        /* \"#utility.yul\":6861:6868   */\n      dup4\n        /* \"#utility.yul\":6830:6869   */\n      tag_54\n      jump\t// in\n    tag_142:\n        /* \"#utility.yul\":6891:6982   */\n      tag_143\n        /* \"#utility.yul\":6940:6981   */\n      tag_144\n        /* \"#utility.yul\":6964:6980   */\n      dup3\n        /* \"#utility.yul\":6940:6981   */\n      tag_55\n      jump\t// in\n    tag_144:\n        /* \"#utility.yul\":6932:6938   */\n      dup5\n        /* \"#utility.yul\":6925:6929   */\n      dup5\n        /* \"#utility.yul\":6919:6930   */\n      sload\n        /* \"#utility.yul\":6891:6982   */\n      tag_52\n      jump\t// in\n    tag_143:\n        /* \"#utility.yul\":6885:6889   */\n      dup3\n        /* \"#utility.yul\":6878:6983   */\n      sstore\n        /* \"#utility.yul\":6796:6989   */\n      pop\n        /* \"#utility.yul\":6720:6989   */\n      pop\n      pop\n      pop\n      jump\t// out\n        /* \"#utility.yul\":6995:7068   */\n    tag_57:\n        /* \"#utility.yul\":7040:7043   */\n      0x00\n        /* \"#utility.yul\":6995:7068   */\n      swap1\n      jump\t// out\n        /* \"#utility.yul\":7074:7263   */\n    tag_58:\n        /* \"#utility.yul\":7151:7183   */\n      tag_147\n      tag_57\n      jump\t// in\n    tag_147:\n        /* \"#utility.yul\":7192:7257   */\n      tag_148\n        /* \"#utility.yul\":7250:7256   */\n      dup2\n        /* \"#utility.yul\":7242:7248   */\n      dup5\n        /* \"#utility.yul\":7236:7240   */\n      dup5\n        /* \"#utility.yul\":7192:7257   */\n      tag_56\n      jump\t// in\n    tag_148:\n        /* \"#utility.yul\":7127:7263   */\n      pop\n        /* \"#utility.yul\":7074:7263   */\n      pop\n      pop\n      jump\t// out\n        /* \"#utility.yul\":7269:7455   */\n    tag_59:\n        /* \"#utility.yul\":7329:7449   */\n    tag_150:\n        /* \"#utility.yul\":7346:7349   */\n      dup2\n        /* \"#utility.yul\":7339:7344   */\n      dup2\n        /* \"#utility.yul\":7336:7350   */\n      lt\n        /* \"#utility.yul\":7329:7449   */\n      iszero\n      tag_152\n      jumpi\n        /* \"#utility.yul\":7400:7439   */\n      tag_153\n        /* \"#utility.yul\":7437:7438   */\n      0x00\n        /* \"#utility.yul\":7430:7435   */\n      dup3\n        /* \"#utility.yul\":7400:7439   */\n      tag_58\n      jump\t// in\n    tag_153:\n        /* \"#utility.yul\":7373:7374   */\n      0x01\n        /* \"#utility.yul\":7366:7371   */\n      dup2\n        /* \"#utility.yul\":7362:7375   */\n      add\n        /* \"#utility.yul\":7353:7375   */\n      swap1\n      pop\n        /* \"#utility.yul\":7329:7449   */\n      jump(tag_150)\n    tag_152:\n        /* \"#utility.yul\":7269:7455   */\n      pop\n      pop\n      jump\t// out\n        /* \"#utility.yul\":7461:8004   */\n    tag_60:\n        /* \"#utility.yul\":7562:7564   */\n      0x1f\n        /* \"#utility.yul\":7557:7560   */\n      dup3\n        /* \"#utility.yul\":7554:7565   */\n      gt\n        /* \"#utility.yul\":7551:7997   */\n      iszero\n      tag_155\n      jumpi\n        /* \"#utility.yul\":7596:7634   */\n      tag_156\n        /* \"#utility.yul\":7628:7633   */\n      dup2\n        /* \"#utility.yul\":7596:7634   */\n      tag_49\n      jump\t// in\n    tag_156:\n        /* \"#utility.yul\":7680:7709   */\n      tag_157\n        /* \"#utility.yul\":7698:7708   */\n      dup5\n        /* \"#utility.yul\":7680:7709   */\n      tag_50\n      jump\t// in\n    tag_157:\n        /* \"#utility.yul\":7670:7678   */\n      dup2\n        /* \"#utility.yul\":7666:7710   */\n      add\n        /* \"#utility.yul\":7863:7865   */\n      0x20\n        /* \"#utility.yul\":7851:7861   */\n      dup6\n        /* \"#utility.yul\":7848:7866   */\n      lt\n        /* \"#utility.yul\":7845:7894   */\n      iszero\n      tag_158\n      jumpi\n        /* \"#utility.yul\":7884:7892   */\n      dup2\n        /* \"#utility.yul\":7869:7892   */\n      swap1\n      pop\n        /* \"#utility.yul\":7845:7894   */\n    tag_158:\n        /* \"#utility.yul\":7907:7987   */\n      tag_159\n        /* \"#utility.yul\":7963:7985   */\n      tag_160\n        /* \"#utility.yul\":7981:7984   */\n      dup6\n        /* \"#utility.yul\":7963:7985   */\n      tag_50\n      jump\t// in\n    tag_160:\n        /* \"#utility.yul\":7953:7961   */\n      dup4\n        /* \"#utility.yul\":7949:7986   */\n      add\n        /* \"#utility.yul\":7936:7947   */\n      dup3\n        /* \"#utility.yul\":7907:7987   */\n      tag_59\n      jump\t// in\n    tag_159:\n        /* \"#utility.yul\":7566:7997   */\n      pop\n      pop\n        /* \"#utility.yul\":7551:7997   */\n    tag_155:\n        /* \"#utility.yul\":7461:8004   */\n      pop\n      pop\n      pop\n      jump\t// out\n        /* \"#utility.yul\":8010:8127   */\n    tag_61:\n        /* \"#utility.yul\":8064:8072   */\n      0x00\n        /* \"#utility.yul\":8114:8119   */\n      dup3\n        /* \"#utility.yul\":8108:8112   */\n      dup3\n        /* \"#utility.yul\":8104:8120   */\n      shr\n        /* \"#utility.yul\":8083:8120   */\n      swap1\n      pop\n        /* \"#utility.yul\":8010:8127   */\n      swap3\n      swap2\n      pop\n      pop\n      jump\t// out\n        /* \"#utility.yul\":8133:8302   */\n    tag_62:\n        /* \"#utility.yul\":8177:8183   */\n      0x00\n        /* \"#utility.yul\":8210:8261   */\n      tag_163\n        /* \"#utility.yul\":8258:8259   */\n      0x00\n        /* \"#utility.yul\":8254:8260   */\n      not\n        /* \"#utility.yul\":8246:8251   */\n      dup5\n        /* \"#utility.yul\":8243:8244   */\n      0x08\n        /* \"#utility.yul\":8239:8252   */\n      mul\n        /* \"#utility.yul\":8210:8261   */\n      tag_61\n      jump\t// in\n    tag_163:\n        /* \"#utility.yul\":8206:8262   */\n      not\n        /* \"#utility.yul\":8291:8295   */\n      dup1\n        /* \"#utility.yul\":8285:8289   */\n      dup4\n        /* \"#utility.yul\":8281:8296   */\n      and\n        /* \"#utility.yul\":8271:8296   */\n      swap2\n      pop\n        /* \"#utility.yul\":8184:8302   */\n      pop\n        /* \"#utility.yul\":8133:8302   */\n      swap3\n      swap2\n      pop\n      pop\n      jump\t// out\n        /* \"#utility.yul\":8307:8602   */\n    tag_63:\n        /* \"#utility.yul\":8383:8387   */\n      0x00\n        /* \"#utility.yul\":8529:8558   */\n      tag_165\n        /* \"#utility.yul\":8554:8557   */\n      dup4\n        /* \"#utility.yul\":8548:8552   */\n      dup4\n        /* \"#utility.yul\":8529:8558   */\n      tag_62\n      jump\t// in\n    tag_165:\n        /* \"#utility.yul\":8521:8558   */\n      swap2\n      pop\n        /* \"#utility.yul\":8591:8594   */\n      dup3\n        /* \"#utility.yul\":8588:8589   */\n      0x02\n        /* \"#utility.yul\":8584:8595   */\n      mul\n        /* \"#utility.yul\":8578:8582   */\n      dup3\n        /* \"#utility.yul\":8575:8596   */\n      or\n        /* \"#utility.yul\":8567:8596   */\n      swap1\n      pop\n        /* \"#utility.yul\":8307:8602   */\n      swap3\n      swap2\n      pop\n      pop\n      jump\t// out\n        /* \"#utility.yul\":8607:10002   */\n    tag_20:\n        /* \"#utility.yul\":8724:8761   */\n      tag_167\n        /* \"#utility.yul\":8757:8760   */\n      dup3\n        /* \"#utility.yul\":8724:8761   */\n      tag_43\n      jump\t// in\n    tag_167:\n        /* \"#utility.yul\":8826:8844   */\n      0xffffffffffffffff\n        /* \"#utility.yul\":8818:8824   */\n      dup2\n        /* \"#utility.yul\":8815:8845   */\n      gt\n        /* \"#utility.yul\":8812:8868   */\n      iszero\n      tag_168\n      jumpi\n        /* \"#utility.yul\":8848:8866   */\n      tag_169\n      tag_33\n      jump\t// in\n    tag_169:\n        /* \"#utility.yul\":8812:8868   */\n    tag_168:\n        /* \"#utility.yul\":8892:8930   */\n      tag_170\n        /* \"#utility.yul\":8924:8928   */\n      dup3\n        /* \"#utility.yul\":8918:8929   */\n      sload\n        /* \"#utility.yul\":8892:8930   */\n      tag_22\n      jump\t// in\n    tag_170:\n        /* \"#utility.yul\":8977:9044   */\n      tag_171\n        /* \"#utility.yul\":9037:9043   */\n      dup3\n        /* \"#utility.yul\":9029:9035   */\n      dup3\n        /* \"#utility.yul\":9023:9027   */\n      dup6\n        /* \"#utility.yul\":8977:9044   */\n      tag_60\n      jump\t// in\n    tag_171:\n        /* \"#utility.yul\":9071:9072   */\n      0x00\n        /* \"#utility.yul\":9095:9099   */\n      0x20\n        /* \"#utility.yul\":9082:9099   */\n      swap1\n      pop\n        /* \"#utility.yul\":9127:9129   */\n      0x1f\n        /* \"#utility.yul\":9119:9125   */\n      dup4\n        /* \"#utility.yul\":9116:9130   */\n      gt\n        /* \"#utility.yul\":9144:9145   */\n      0x01\n        /* \"#utility.yul\":9139:9757   */\n      dup2\n      eq\n      tag_173\n      jumpi\n        /* \"#utility.yul\":9801:9802   */\n      0x00\n        /* \"#utility.yul\":9818:9824   */\n      dup5\n        /* \"#utility.yul\":9815:9892   */\n      iszero\n      tag_174\n      jumpi\n        /* \"#utility.yul\":9867:9876   */\n      dup3\n        /* \"#utility.yul\":9862:9865   */\n      dup8\n        /* \"#utility.yul\":9858:9877   */\n      add\n        /* \"#utility.yul\":9852:9878   */\n      mload\n        /* \"#utility.yul\":9843:9878   */\n      swap1\n      pop\n        /* \"#utility.yul\":9815:9892   */\n    tag_174:\n        /* \"#utility.yul\":9918:9985   */\n      tag_175\n        /* \"#utility.yul\":9978:9984   */\n      dup6\n        /* \"#utility.yul\":9971:9976   */\n      dup3\n        /* \"#utility.yul\":9918:9985   */\n      tag_63\n      jump\t// in\n    tag_175:\n        /* \"#utility.yul\":9912:9916   */\n      dup7\n        /* \"#utility.yul\":9905:9986   */\n      sstore\n        /* \"#utility.yul\":9774:9996   */\n      pop\n        /* \"#utility.yul\":9109:9996   */\n      jump(tag_172)\n        /* \"#utility.yul\":9139:9757   */\n    tag_173:\n        /* \"#utility.yul\":9191:9195   */\n      0x1f\n        /* \"#utility.yul\":9187:9196   */\n      not\n        /* \"#utility.yul\":9179:9185   */\n      dup5\n        /* \"#utility.yul\":9175:9197   */\n      and\n        /* \"#utility.yul\":9225:9262   */\n      tag_176\n        /* \"#utility.yul\":9257:9261   */\n      dup7\n        /* \"#utility.yul\":9225:9262   */\n      tag_49\n      jump\t// in\n    tag_176:\n        /* \"#utility.yul\":9284:9285   */\n      0x00\n        /* \"#utility.yul\":9298:9506   */\n    tag_177:\n        /* \"#utility.yul\":9312:9319   */\n      dup3\n        /* \"#utility.yul\":9309:9310   */\n      dup2\n        /* \"#utility.yul\":9306:9320   */\n      lt\n        /* \"#utility.yul\":9298:9506   */\n      iszero\n      tag_179\n      jumpi\n        /* \"#utility.yul\":9391:9400   */\n      dup5\n        /* \"#utility.yul\":9386:9389   */\n      dup10\n        /* \"#utility.yul\":9382:9401   */\n      add\n        /* \"#utility.yul\":9376:9402   */\n      mload\n        /* \"#utility.yul\":9368:9374   */\n      dup3\n        /* \"#utility.yul\":9361:9403   */\n      sstore\n        /* \"#utility.yul\":9442:9443   */\n      0x01\n        /* \"#utility.yul\":9434:9440   */\n      dup3\n        /* \"#utility.yul\":9430:9444   */\n      add\n        /* \"#utility.yul\":9420:9444   */\n      swap2\n      pop\n        /* \"#utility.yul\":9489:9491   */\n      0x20\n        /* \"#utility.yul\":9478:9487   */\n      dup6\n        /* \"#utility.yul\":9474:9492   */\n      add\n        /* \"#utility.yul\":9461:9492   */\n      swap5\n      pop\n        /* \"#utility.yul\":9335:9339   */\n      0x20\n        /* \"#utility.yul\":9332:9333   */\n      dup2\n        /* \"#utility.yul\":9328:9340   */\n      add\n        /* \"#utility.yul\":9323:9340   */\n      swap1\n      pop\n        /* \"#utility.yul\":9298:9506   */\n      jump(tag_177)\n    tag_179:\n        /* \"#utility.yul\":9534:9540   */\n      dup7\n        /* \"#utility.yul\":9525:9532   */\n      dup4\n        /* \"#utility.yul\":9522:9541   */\n      lt\n        /* \"#utility.yul\":9519:9698   */\n      iszero\n      tag_180\n      jumpi\n        /* \"#utility.yul\":9592:9601   */\n      dup5\n        /* \"#utility.yul\":9587:9590   */\n      dup10\n        /* \"#utility.yul\":9583:9602   */\n      add\n        /* \"#utility.yul\":9577:9603   */\n      mload\n        /* \"#utility.yul\":9635:9683   */\n      tag_181\n        /* \"#utility.yul\":9677:9681   */\n      0x1f\n        /* \"#utility.yul\":9669:9675   */\n      dup10\n        /* \"#utility.yul\":9665:9682   */\n      and\n        /* \"#utility.yul\":9654:9663   */\n      dup3\n        /* \"#utility.yul\":9635:9683   */\n      tag_62\n      jump\t// in\n    tag_181:\n        /* \"#utility.yul\":9627:9633   */\n      dup4\n        /* \"#utility.yul\":9620:9684   */\n      sstore\n        /* \"#utility.yul\":9542:9698   */\n      pop\n        /* \"#utility.yul\":9519:9698   */\n    tag_180:\n        /* \"#utility.yul\":9744:9745   */\n      0x01\n        /* \"#utility.yul\":9740:9741   */\n      0x02\n        /* \"#utility.yul\":9732:9738   */\n      dup9\n        /* \"#utility.yul\":9728:9742   */\n      mul\n        /* \"#utility.yul\":9724:9746   */\n      add\n        /* \"#utility.yul\":9718:9722   */\n      dup9\n        /* \"#utility.yul\":9711:9747   */\n      sstore\n        /* \"#utility.yul\":9146:9757   */\n      pop\n      pop\n      pop\n        /* \"#utility.yul\":9109:9996   */\n    tag_172:\n      pop\n        /* \"#utility.yul\":8699:10002   */\n      pop\n      pop\n      pop\n        /* \"#utility.yul\":8607:10002   */\n      pop\n      pop\n      jump\t// out\n\n    auxdata: 0xa264697066735822122024e3358f6042cad5e085a2f04db222e1df11021584d396dee570949547d34c5c64736f6c63430008120033\n}\n",
				"bytecode": {
					"linkReferences": {},
					"object": "60806040523480156200001157600080fd5b5060405162000cdc38038062000cdc833981810160405281019062000037919062000226565b8160009081620000489190620004cd565b50806001819055505050620005b4565b6000604051905090565b600080fd5b600080fd5b600080fd5b600080fd5b6000601f19601f8301169050919050565b7f4e487b7100000000000000000000000000000000000000000000000000000000600052604160045260246000fd5b620000c18262000076565b810181811067ffffffffffffffff82111715620000e357620000e262000087565b5b80604052505050565b6000620000f862000058565b9050620001068282620000b6565b919050565b600067ffffffffffffffff82111562000129576200012862000087565b5b620001348262000076565b9050602081019050919050565b60005b838110156200016157808201518184015260208101905062000144565b60008484015250505050565b6000620001846200017e846200010b565b620000ec565b905082815260208101848484011115620001a357620001a262000071565b5b620001b084828562000141565b509392505050565b600082601f830112620001d057620001cf6200006c565b5b8151620001e28482602086016200016d565b91505092915050565b6000819050919050565b6200020081620001eb565b81146200020c57600080fd5b50565b6000815190506200022081620001f5565b92915050565b6000806040838503121562000240576200023f62000062565b5b600083015167ffffffffffffffff81111562000261576200026062000067565b5b6200026f85828601620001b8565b925050602062000282858286016200020f565b9150509250929050565b600081519050919050565b7f4e487b7100000000000000000000000000000000000000000000000000000000600052602260045260246000fd5b60006002820490506001821680620002df57607f821691505b602082108103620002f557620002f462000297565b5b50919050565b60008190508160005260206000209050919050565b60006020601f8301049050919050565b600082821b905092915050565b6000600883026200035f7fffffffffffffffffffffffffffffffffffffffffffffffffffffffffffffffff8262000320565b6200036b868362000320565b95508019841693508086168417925050509392505050565b6000819050919050565b6000620003ae620003a8620003a284620001eb565b62000383565b620001eb565b9050919050565b6000819050919050565b620003ca836200038d565b620003e2620003d982620003b5565b8484546200032d565b825550505050565b600090565b620003f9620003ea565b62000406818484620003bf565b505050565b5b818110156200042e5762000422600082620003ef565b6001810190506200040c565b5050565b601f8211156200047d576200044781620002fb565b620004528462000310565b8101602085101562000462578190505b6200047a620004718562000310565b8301826200040b565b50505b505050565b600082821c905092915050565b6000620004a26000198460080262000482565b1980831691505092915050565b6000620004bd83836200048f565b9150826002028217905092915050565b620004d8826200028c565b67ffffffffffffffff811115620004f457620004f362000087565b5b620005008254620002c6565b6200050d82828562000432565b600060209050601f83116001811462000545576000841562000530578287015190505b6200053c8582620004af565b865550620005ac565b601f1984166200055586620002fb565b60005b828110156200057f5784890151825560018201915060208501945060208101905062000558565b868310156200059f57848901516200059b601f8916826200048f565b8355505b6001600288020188555050505b505050505050565b61071880620005c46000396000f3fe608060405234801561001057600080fd5b50600436106100415760003560e01c80634ee5c2ee146100465780638bf1799f14610062578063d4da005a14610080575b600080fd5b610060600480360381019061005b91906102dd565b61009e565b005b61006a6100b9565b60405161007791906103b8565b60405180910390f35b610088610147565b60405161009591906103e9565b60405180910390f35b81600090816100ad9190610610565b50806001819055505050565b600080546100c690610433565b80601f01602080910402602001604051908101604052809291908181526020018280546100f290610433565b801561013f5780601f106101145761010080835404028352916020019161013f565b820191906000526020600020905b81548152906001019060200180831161012257829003601f168201915b505050505081565b60015481565b6000604051905090565b600080fd5b600080fd5b600080fd5b600080fd5b6000601f19601f8301169050919050565b7f4e487b7100000000000000000000000000000000000000000000000000000000600052604160045260246000fd5b6101b48261016b565b810181811067ffffffffffffffff821117156101d3576101d261017c565b5b80604052505050565b60006101e661014d565b90506101f282826101ab565b919050565b600067ffffffffffffffff8211156102125761021161017c565b5b61021b8261016b565b9050602081019050919050565b82818337600083830152505050565b600061024a610245846101f7565b6101dc565b90508281526020810184848401111561026657610265610166565b5b610271848285610228565b509392505050565b600082601f83011261028e5761028d610161565b5b813561029e848260208601610237565b91505092915050565b6000819050919050565b6102ba816102a7565b81146102c557600080fd5b50565b6000813590506102d7816102b1565b92915050565b600080604083850312156102f4576102f3610157565b5b600083013567ffffffffffffffff8111156103125761031161015c565b5b61031e85828601610279565b925050602061032f858286016102c8565b9150509250929050565b600081519050919050565b600082825260208201905092915050565b60005b83811015610373578082015181840152602081019050610358565b60008484015250505050565b600061038a82610339565b6103948185610344565b93506103a4818560208601610355565b6103ad8161016b565b840191505092915050565b600060208201905081810360008301526103d2818461037f565b905092915050565b6103e3816102a7565b82525050565b60006020820190506103fe60008301846103da565b92915050565b7f4e487b7100000000000000000000000000000000000000000000000000000000600052602260045260246000fd5b6000600282049050600182168061044b57607f821691505b60208210810361045e5761045d610404565b5b50919050565b60008190508160005260206000209050919050565b60006020601f8301049050919050565b600082821b905092915050565b6000600883026104c67fffffffffffffffffffffffffffffffffffffffffffffffffffffffffffffffff82610489565b6104d08683610489565b95508019841693508086168417925050509392505050565b6000819050919050565b600061050d610508610503846102a7565b6104e8565b6102a7565b9050919050565b6000819050919050565b610527836104f2565b61053b61053382610514565b848454610496565b825550505050565b600090565b610550610543565b61055b81848461051e565b505050565b5b8181101561057f57610574600082610548565b600181019050610561565b5050565b601f8211156105c45761059581610464565b61059e84610479565b810160208510156105ad578190505b6105c16105b985610479565b830182610560565b50505b505050565b600082821c905092915050565b60006105e7600019846008026105c9565b1980831691505092915050565b600061060083836105d6565b9150826002028217905092915050565b61061982610339565b67ffffffffffffffff8111156106325761063161017c565b5b61063c8254610433565b610647828285610583565b600060209050601f83116001811461067a5760008415610668578287015190505b61067285826105f4565b8655506106da565b601f19841661068886610464565b60005b828110156106b05784890151825560018201915060208501945060208101905061068b565b868310156106cd57848901516106c9601f8916826105d6565b8355505b6001600288020188555050505b50505050505056fea264697066735822122024e3358f6042cad5e085a2f04db222e1df11021584d396dee570949547d34c5c64736f6c63430008120033",
					"opcodes": "PUSH1 0x80 PUSH1 0x40 MSTORE CALLVALUE DUP1 ISZERO PUSH3 0x11 JUMPI PUSH1 0x0 DUP1 REVERT JUMPDEST POP PUSH1 0x40 MLOAD PUSH3 0xCDC CODESIZE SUB DUP1 PUSH3 0xCDC DUP4 CODECOPY DUP2 DUP2 ADD PUSH1 0x40 MSTORE DUP2 ADD SWAP1 PUSH3 0x37 SWAP2 SWAP1 PUSH3 0x226 JUMP JUMPDEST DUP2 PUSH1 0x0 SWAP1 DUP2 PUSH3 0x48 SWAP2 SWAP1 PUSH3 0x4CD JUMP JUMPDEST POP DUP1 PUSH1 0x1 DUP2 SWAP1 SSTORE POP POP POP PUSH3 0x5B4 JUMP JUMPDEST PUSH1 0x0 PUSH1 0x40 MLOAD SWAP1 POP SWAP1 JUMP JUMPDEST PUSH1 0x0 DUP1 REVERT JUMPDEST PUSH1 0x0 DUP1 REVERT JUMPDEST PUSH1 0x0 DUP1 REVERT JUMPDEST PUSH1 0x0 DUP1 REVERT JUMPDEST PUSH1 0x0 PUSH1 0x1F NOT PUSH1 0x1F DUP4 ADD AND SWAP1 POP SWAP2 SWAP1 POP JUMP JUMPDEST PUSH32 0x4E487B7100000000000000000000000000000000000000000000000000000000 PUSH1 0x0 MSTORE PUSH1 0x41 PUSH1 0x4 MSTORE PUSH1 0x24 PUSH1 0x0 REVERT JUMPDEST PUSH3 0xC1 DUP3 PUSH3 0x76 JUMP JUMPDEST DUP2 ADD DUP2 DUP2 LT PUSH8 0xFFFFFFFFFFFFFFFF DUP3 GT OR ISZERO PUSH3 0xE3 JUMPI PUSH3 0xE2 PUSH3 0x87 JUMP JUMPDEST JUMPDEST DUP1 PUSH1 0x40 MSTORE POP POP POP JUMP JUMPDEST PUSH1 0x0 PUSH3 0xF8 PUSH3 0x58 JUMP JUMPDEST SWAP1 POP PUSH3 0x106 DUP3 DUP3 PUSH3 0xB6 JUMP JUMPDEST SWAP2 SWAP1 POP JUMP JUMPDEST PUSH1 0x0 PUSH8 0xFFFFFFFFFFFFFFFF DUP3 GT ISZERO PUSH3 0x129 JUMPI PUSH3 0x128 PUSH3 0x87 JUMP JUMPDEST JUMPDEST PUSH3 0x134 DUP3 PUSH3 0x76 JUMP JUMPDEST SWAP1 POP PUSH1 0x20 DUP2 ADD SWAP1 POP SWAP2 SWAP1 POP JUMP JUMPDEST PUSH1 0x0 JUMPDEST DUP4 DUP2 LT ISZERO PUSH3 0x161 JUMPI DUP1 DUP3 ADD MLOAD DUP2 DUP5 ADD MSTORE PUSH1 0x20 DUP2 ADD SWAP1 POP PUSH3 0x144 JUMP JUMPDEST PUSH1 0x0 DUP5 DUP5 ADD MSTORE POP POP POP POP JUMP JUMPDEST PUSH1 0x0 PUSH3 0x184 PUSH3 0x17E DUP5 PUSH3 0x10B JUMP JUMPDEST PUSH3 0xEC JUMP JUMPDEST SWAP1 POP DUP3 DUP2 MSTORE PUSH1 0x20 DUP2 ADD DUP5 DUP5 DUP5 ADD GT ISZERO PUSH3 0x1A3 JUMPI PUSH3 0x1A2 PUSH3 0x71 JUMP JUMPDEST JUMPDEST PUSH3 0x1B0 DUP5 DUP3 DUP6 PUSH3 0x141 JUMP JUMPDEST POP SWAP4 SWAP3 POP POP POP JUMP JUMPDEST PUSH1 0x0 DUP3 PUSH1 0x1F DUP4 ADD SLT PUSH3 0x1D0 JUMPI PUSH3 0x1CF PUSH3 0x6C JUMP JUMPDEST JUMPDEST DUP2 MLOAD PUSH3 0x1E2 DUP5 DUP3 PUSH1 0x20 DUP7 ADD PUSH3 0x16D JUMP JUMPDEST SWAP2 POP POP SWAP3 SWAP2 POP POP JUMP JUMPDEST PUSH1 0x0 DUP2 SWAP1 POP SWAP2 SWAP1 POP JUMP JUMPDEST PUSH3 0x200 DUP2 PUSH3 0x1EB JUMP JUMPDEST DUP2 EQ PUSH3 0x20C JUMPI PUSH1 0x0 DUP1 REVERT JUMPDEST POP JUMP JUMPDEST PUSH1 0x0 DUP2 MLOAD SWAP1 POP PUSH3 0x220 DUP2 PUSH3 0x1F5 JUMP JUMPDEST SWAP3 SWAP2 POP POP JUMP JUMPDEST PUSH1 0x0 DUP1 PUSH1 0x40 DUP4 DUP6 SUB SLT ISZERO PUSH3 0x240 JUMPI PUSH3 0x23F PUSH3 0x62 JUMP JUMPDEST JUMPDEST PUSH1 0x0 DUP4 ADD MLOAD PUSH8 0xFFFFFFFFFFFFFFFF DUP2 GT ISZERO PUSH3 0x261 JUMPI PUSH3 0x260 PUSH3 0x67 JUMP JUMPDEST JUMPDEST PUSH3 0x26F DUP6 DUP3 DUP7 ADD PUSH3 0x1B8 JUMP JUMPDEST SWAP3 POP POP PUSH1 0x20 PUSH3 0x282 DUP6 DUP3 DUP7 ADD PUSH3 0x20F JUMP JUMPDEST SWAP2 POP POP SWAP3 POP SWAP3 SWAP1 POP JUMP JUMPDEST PUSH1 0x0 DUP2 MLOAD SWAP1 POP SWAP2 SWAP1 POP JUMP JUMPDEST PUSH32 0x4E487B7100000000000000000000000000000000000000000000000000000000 PUSH1 0x0 MSTORE PUSH1 0x22 PUSH1 0x4 MSTORE PUSH1 0x24 PUSH1 0x0 REVERT JUMPDEST PUSH1 0x0 PUSH1 0x2 DUP3 DIV SWAP1 POP PUSH1 0x1 DUP3 AND DUP1 PUSH3 0x2DF JUMPI PUSH1 0x7F DUP3 AND SWAP2 POP JUMPDEST PUSH1 0x20 DUP3 LT DUP2 SUB PUSH3 0x2F5 JUMPI PUSH3 0x2F4 PUSH3 0x297 JUMP JUMPDEST JUMPDEST POP SWAP2 SWAP1 POP JUMP JUMPDEST PUSH1 0x0 DUP2 SWAP1 POP DUP2 PUSH1 0x0 MSTORE PUSH1 0x20 PUSH1 0x0 KECCAK256 SWAP1 POP SWAP2 SWAP1 POP JUMP JUMPDEST PUSH1 0x0 PUSH1 0x20 PUSH1 0x1F DUP4 ADD DIV SWAP1 POP SWAP2 SWAP1 POP JUMP JUMPDEST PUSH1 0x0 DUP3 DUP3 SHL SWAP1 POP SWAP3 SWAP2 POP POP JUMP JUMPDEST PUSH1 0x0 PUSH1 0x8 DUP4 MUL PUSH3 0x35F PUSH32 0xFFFFFFFFFFFFFFFFFFFFFFFFFFFFFFFFFFFFFFFFFFFFFFFFFFFFFFFFFFFFFFFF DUP3 PUSH3 0x320 JUMP JUMPDEST PUSH3 0x36B DUP7 DUP4 PUSH3 0x320 JUMP JUMPDEST SWAP6 POP DUP1 NOT DUP5 AND SWAP4 POP DUP1 DUP7 AND DUP5 OR SWAP3 POP POP POP SWAP4 SWAP3 POP POP POP JUMP JUMPDEST PUSH1 0x0 DUP2 SWAP1 POP SWAP2 SWAP1 POP JUMP JUMPDEST PUSH1 0x0 PUSH3 0x3AE PUSH3 0x3A8 PUSH3 0x3A2 DUP5 PUSH3 0x1EB JUMP JUMPDEST PUSH3 0x383 JUMP JUMPDEST PUSH3 0x1EB JUMP JUMPDEST SWAP1 POP SWAP2 SWAP1 POP JUMP JUMPDEST PUSH1 0x0 DUP2 SWAP1 POP SWAP2 SWAP1 POP JUMP JUMPDEST PUSH3 0x3CA DUP4 PUSH3 0x38D JUMP JUMPDEST PUSH3 0x3E2 PUSH3 0x3D9 DUP3 PUSH3 0x3B5 JUMP JUMPDEST DUP5 DUP5 SLOAD PUSH3 0x32D JUMP JUMPDEST DUP3 SSTORE POP POP POP POP JUMP JUMPDEST PUSH1 0x0 SWAP1 JUMP JUMPDEST PUSH3 0x3F9 PUSH3 0x3EA JUMP JUMPDEST PUSH3 0x406 DUP2 DUP5 DUP5 PUSH3 0x3BF JUMP JUMPDEST POP POP POP JUMP JUMPDEST JUMPDEST DUP2 DUP2 LT ISZERO PUSH3 0x42E JUMPI PUSH3 0x422 PUSH1 0x0 DUP3 PUSH3 0x3EF JUMP JUMPDEST PUSH1 0x1 DUP2 ADD SWAP1 POP PUSH3 0x40C JUMP JUMPDEST POP POP JUMP JUMPDEST PUSH1 0x1F DUP3 GT ISZERO PUSH3 0x47D JUMPI PUSH3 0x447 DUP2 PUSH3 0x2FB JUMP JUMPDEST PUSH3 0x452 DUP5 PUSH3 0x310 JUMP JUMPDEST DUP2 ADD PUSH1 0x20 DUP6 LT ISZERO PUSH3 0x462 JUMPI DUP2 SWAP1 POP JUMPDEST PUSH3 0x47A PUSH3 0x471 DUP6 PUSH3 0x310 JUMP JUMPDEST DUP4 ADD DUP3 PUSH3 0x40B JUMP JUMPDEST POP POP JUMPDEST POP POP POP JUMP JUMPDEST PUSH1 0x0 DUP3 DUP3 SHR SWAP1 POP SWAP3 SWAP2 POP POP JUMP JUMPDEST PUSH1 0x0 PUSH3 0x4A2 PUSH1 0x0 NOT DUP5 PUSH1 0x8 MUL PUSH3 0x482 JUMP JUMPDEST NOT DUP1 DUP4 AND SWAP2 POP POP SWAP3 SWAP2 POP POP JUMP JUMPDEST PUSH1 0x0 PUSH3 0x4BD DUP4 DUP4 PUSH3 0x48F JUMP JUMPDEST SWAP2 POP DUP3 PUSH1 0x2 MUL DUP3 OR SWAP1 POP SWAP3 SWAP2 POP POP JUMP JUMPDEST PUSH3 0x4D8 DUP3 PUSH3 0x28C JUMP JUMPDEST PUSH8 0xFFFFFFFFFFFFFFFF DUP2 GT ISZERO PUSH3 0x4F4 JUMPI PUSH3 0x4F3 PUSH3 0x87 JUMP JUMPDEST JUMPDEST PUSH3 0x500 DUP3 SLOAD PUSH3 0x2C6 JUMP JUMPDEST PUSH3 0x50D DUP3 DUP3 DUP6 PUSH3 0x432 JUMP JUMPDEST PUSH1 0x0 PUSH1 0x20 SWAP1 POP PUSH1 0x1F DUP4 GT PUSH1 0x1 DUP2 EQ PUSH3 0x545 JUMPI PUSH1 0x0 DUP5 ISZERO PUSH3 0x530 JUMPI DUP3 DUP8 ADD MLOAD SWAP1 POP JUMPDEST PUSH3 0x53C DUP6 DUP3 PUSH3 0x4AF JUMP JUMPDEST DUP7 SSTORE POP PUSH3 0x5AC JUMP JUMPDEST PUSH1 0x1F NOT DUP5 AND PUSH3 0x555 DUP7 PUSH3 0x2FB JUMP JUMPDEST PUSH1 0x0 JUMPDEST DUP3 DUP2 LT ISZERO PUSH3 0x57F JUMPI DUP5 DUP10 ADD MLOAD DUP3 SSTORE PUSH1 0x1 DUP3 ADD SWAP2 POP PUSH1 0x20 DUP6 ADD SWAP5 POP PUSH1 0x20 DUP2 ADD SWAP1 POP PUSH3 0x558 JUMP JUMPDEST DUP7 DUP4 LT ISZERO PUSH3 0x59F JUMPI DUP5 DUP10 ADD MLOAD PUSH3 0x59B PUSH1 0x1F DUP10 AND DUP3 PUSH3 0x48F JUMP JUMPDEST DUP4 SSTORE POP JUMPDEST PUSH1 0x1 PUSH1 0x2 DUP9 MUL ADD DUP9 SSTORE POP POP POP JUMPDEST POP POP POP POP POP POP JUMP JUMPDEST PUSH2 0x718 DUP1 PUSH3 0x5C4 PUSH1 0x0 CODECOPY PUSH1 0x0 RETURN INVALID PUSH1 0x80 PUSH1 0x40 MSTORE CALLVALUE DUP1 ISZERO PUSH2 0x10 JUMPI PUSH1 0x0 DUP1 REVERT JUMPDEST POP PUSH1 0x4 CALLDATASIZE LT PUSH2 0x41 JUMPI PUSH1 0x0 CALLDATALOAD PUSH1 0xE0 SHR DUP1 PUSH4 0x4EE5C2EE EQ PUSH2 0x46 JUMPI DUP1 PUSH4 0x8BF1799F EQ PUSH2 0x62 JUMPI DUP1 PUSH4 0xD4DA005A EQ PUSH2 0x80 JUMPI JUMPDEST PUSH1 0x0 DUP1 REVERT JUMPDEST PUSH2 0x60 PUSH1 0x4 DUP1 CALLDATASIZE SUB DUP2 ADD SWAP1 PUSH2 0x5B SWAP2 SWAP1 PUSH2 0x2DD JUMP JUMPDEST PUSH2 0x9E JUMP JUMPDEST STOP JUMPDEST PUSH2 0x6A PUSH2 0xB9 JUMP JUMPDEST PUSH1 0x40 MLOAD PUSH2 0x77 SWAP2 SWAP1 PUSH2 0x3B8 JUMP JUMPDEST PUSH1 0x40 MLOAD DUP1 SWAP2 SUB SWAP1 RETURN JUMPDEST PUSH2 0x88 PUSH2 0x147 JUMP JUMPDEST PUSH1 0x40 MLOAD PUSH2 0x95 SWAP2 SWAP1 PUSH2 0x3E9 JUMP JUMPDEST PUSH1 0x40 MLOAD DUP1 SWAP2 SUB SWAP1 RETURN JUMPDEST DUP2 PUSH1 0x0 SWAP1 DUP2 PUSH2 0xAD SWAP2 SWAP1 PUSH2 0x610 JUMP JUMPDEST POP DUP1 PUSH1 0x1 DUP2 SWAP1 SSTORE POP POP POP JUMP JUMPDEST PUSH1 0x0 DUP1 SLOAD PUSH2 0xC6 SWAP1 PUSH2 0x433 JUMP JUMPDEST DUP1 PUSH1 0x1F ADD PUSH1 0x20 DUP1 SWAP2 DIV MUL PUSH1 0x20 ADD PUSH1 0x40 MLOAD SWAP1 DUP2 ADD PUSH1 0x40 MSTORE DUP1 SWAP3 SWAP2 SWAP1 DUP2 DUP2 MSTORE PUSH1 0x20 ADD DUP3 DUP1 SLOAD PUSH2 0xF2 SWAP1 PUSH2 0x433 JUMP JUMPDEST DUP1 ISZERO PUSH2 0x13F JUMPI DUP1 PUSH1 0x1F LT PUSH2 0x114 JUMPI PUSH2 0x100 DUP1 DUP4 SLOAD DIV MUL DUP4 MSTORE SWAP2 PUSH1 0x20 ADD SWAP2 PUSH2 0x13F JUMP JUMPDEST DUP3 ADD SWAP2 SWAP1 PUSH1 0x0 MSTORE PUSH1 0x20 PUSH1 0x0 KECCAK256 SWAP1 JUMPDEST DUP2 SLOAD DUP2 MSTORE SWAP1 PUSH1 0x1 ADD SWAP1 PUSH1 0x20 ADD DUP1 DUP4 GT PUSH2 0x122 JUMPI DUP3 SWAP1 SUB PUSH1 0x1F AND DUP3 ADD SWAP2 JUMPDEST POP POP POP POP POP DUP2 JUMP JUMPDEST PUSH1 0x1 SLOAD DUP2 JUMP JUMPDEST PUSH1 0x0 PUSH1 0x40 MLOAD SWAP1 POP SWAP1 JUMP JUMPDEST PUSH1 0x0 DUP1 REVERT JUMPDEST PUSH1 0x0 DUP1 REVERT JUMPDEST PUSH1 0x0 DUP1 REVERT JUMPDEST PUSH1 0x0 DUP1 REVERT JUMPDEST PUSH1 0x0 PUSH1 0x1F NOT PUSH1 0x1F DUP4 ADD AND SWAP1 POP SWAP2 SWAP1 POP JUMP JUMPDEST PUSH32 0x4E487B7100000000000000000000000000000000000000000000000000000000 PUSH1 0x0 MSTORE PUSH1 0x41 PUSH1 0x4 MSTORE PUSH1 0x24 PUSH1 0x0 REVERT JUMPDEST PUSH2 0x1B4 DUP3 PUSH2 0x16B JUMP JUMPDEST DUP2 ADD DUP2 DUP2 LT PUSH8 0xFFFFFFFFFFFFFFFF DUP3 GT OR ISZERO PUSH2 0x1D3 JUMPI PUSH2 0x1D2 PUSH2 0x17C JUMP JUMPDEST JUMPDEST DUP1 PUSH1 0x40 MSTORE POP POP POP JUMP JUMPDEST PUSH1 0x0 PUSH2 0x1E6 PUSH2 0x14D JUMP JUMPDEST SWAP1 POP PUSH2 0x1F2 DUP3 DUP3 PUSH2 0x1AB JUMP JUMPDEST SWAP2 SWAP1 POP JUMP JUMPDEST PUSH1 0x0 PUSH8 0xFFFFFFFFFFFFFFFF DUP3 GT ISZERO PUSH2 0x212 JUMPI PUSH2 0x211 PUSH2 0x17C JUMP JUMPDEST JUMPDEST PUSH2 0x21B DUP3 PUSH2 0x16B JUMP JUMPDEST SWAP1 POP PUSH1 0x20 DUP2 ADD SWAP1 POP SWAP2 SWAP1 POP JUMP JUMPDEST DUP3 DUP2 DUP4 CALLDATACOPY PUSH1 0x0 DUP4 DUP4 ADD MSTORE POP POP POP JUMP JUMPDEST PUSH1 0x0 PUSH2 0x24A PUSH2 0x245 DUP5 PUSH2 0x1F7 JUMP JUMPDEST PUSH2 0x1DC JUMP JUMPDEST SWAP1 POP DUP3 DUP2 MSTORE PUSH1 0x20 DUP2 ADD DUP5 DUP5 DUP5 ADD GT ISZERO PUSH2 0x266 JUMPI PUSH2 0x265 PUSH2 0x166 JUMP JUMPDEST JUMPDEST PUSH2 0x271 DUP5 DUP3 DUP6 PUSH2 0x228 JUMP JUMPDEST POP SWAP4 SWAP3 POP POP POP JUMP JUMPDEST PUSH1 0x0 DUP3 PUSH1 0x1F DUP4 ADD SLT PUSH2 0x28E JUMPI PUSH2 0x28D PUSH2 0x161 JUMP JUMPDEST JUMPDEST DUP2 CALLDATALOAD PUSH2 0x29E DUP5 DUP3 PUSH1 0x20 DUP7 ADD PUSH2 0x237 JUMP JUMPDEST SWAP2 POP POP SWAP3 SWAP2 POP POP JUMP JUMPDEST PUSH1 0x0 DUP2 SWAP1 POP SWAP2 SWAP1 POP JUMP JUMPDEST PUSH2 0x2BA DUP2 PUSH2 0x2A7 JUMP JUMPDEST DUP2 EQ PUSH2 0x2C5 JUMPI PUSH1 0x0 DUP1 REVERT JUMPDEST POP JUMP JUMPDEST PUSH1 0x0 DUP2 CALLDATALOAD SWAP1 POP PUSH2 0x2D7 DUP2 PUSH2 0x2B1 JUMP JUMPDEST SWAP3 SWAP2 POP POP JUMP JUMPDEST PUSH1 0x0 DUP1 PUSH1 0x40 DUP4 DUP6 SUB SLT ISZERO PUSH2 0x2F4 JUMPI PUSH2 0x2F3 PUSH2 0x157 JUMP JUMPDEST JUMPDEST PUSH1 0x0 DUP4 ADD CALLDATALOAD PUSH8 0xFFFFFFFFFFFFFFFF DUP2 GT ISZERO PUSH2 0x312 JUMPI PUSH2 0x311 PUSH2 0x15C JUMP JUMPDEST JUMPDEST PUSH2 0x31E DUP6 DUP3 DUP7 ADD PUSH2 0x279 JUMP JUMPDEST SWAP3 POP POP PUSH1 0x20 PUSH2 0x32F DUP6 DUP3 DUP7 ADD PUSH2 0x2C8 JUMP JUMPDEST SWAP2 POP POP SWAP3 POP SWAP3 SWAP1 POP JUMP JUMPDEST PUSH1 0x0 DUP2 MLOAD SWAP1 POP SWAP2 SWAP1 POP JUMP JUMPDEST PUSH1 0x0 DUP3 DUP3 MSTORE PUSH1 0x20 DUP3 ADD SWAP1 POP SWAP3 SWAP2 POP POP JUMP JUMPDEST PUSH1 0x0 JUMPDEST DUP4 DUP2 LT ISZERO PUSH2 0x373 JUMPI DUP1 DUP3 ADD MLOAD DUP2 DUP5 ADD MSTORE PUSH1 0x20 DUP2 ADD SWAP1 POP PUSH2 0x358 JUMP JUMPDEST PUSH1 0x0 DUP5 DUP5 ADD MSTORE POP POP POP POP JUMP JUMPDEST PUSH1 0x0 PUSH2 0x38A DUP3 PUSH2 0x339 JUMP JUMPDEST PUSH2 0x394 DUP2 DUP6 PUSH2 0x344 JUMP JUMPDEST SWAP4 POP PUSH2 0x3A4 DUP2 DUP6 PUSH1 0x20 DUP7 ADD PUSH2 0x355 JUMP JUMPDEST PUSH2 0x3AD DUP2 PUSH2 0x16B JUMP JUMPDEST DUP5 ADD SWAP2 POP POP SWAP3 SWAP2 POP POP JUMP JUMPDEST PUSH1 0x0 PUSH1 0x20 DUP3 ADD SWAP1 POP DUP2 DUP2 SUB PUSH1 0x0 DUP4 ADD MSTORE PUSH2 0x3D2 DUP2 DUP5 PUSH2 0x37F JUMP JUMPDEST SWAP1 POP SWAP3 SWAP2 POP POP JUMP JUMPDEST PUSH2 0x3E3 DUP2 PUSH2 0x2A7 JUMP JUMPDEST DUP3 MSTORE POP POP JUMP JUMPDEST PUSH1 0x0 PUSH1 0x20 DUP3 ADD SWAP1 POP PUSH2 0x3FE PUSH1 0x0 DUP4 ADD DUP5 PUSH2 0x3DA JUMP JUMPDEST SWAP3 SWAP2 POP POP JUMP JUMPDEST PUSH32 0x4E487B7100000000000000000000000000000000000000000000000000000000 PUSH1 0x0 MSTORE PUSH1 0x22 PUSH1 0x4 MSTORE PUSH1 0x24 PUSH1 0x0 REVERT JUMPDEST PUSH1 0x0 PUSH1 0x2 DUP3 DIV SWAP1 POP PUSH1 0x1 DUP3 AND DUP1 PUSH2 0x44B JUMPI PUSH1 0x7F DUP3 AND SWAP2 POP JUMPDEST PUSH1 0x20 DUP3 LT DUP2 SUB PUSH2 0x45E JUMPI PUSH2 0x45D PUSH2 0x404 JUMP JUMPDEST JUMPDEST POP SWAP2 SWAP1 POP JUMP JUMPDEST PUSH1 0x0 DUP2 SWAP1 POP DUP2 PUSH1 0x0 MSTORE PUSH1 0x20 PUSH1 0x0 KECCAK256 SWAP1 POP SWAP2 SWAP1 POP JUMP JUMPDEST PUSH1 0x0 PUSH1 0x20 PUSH1 0x1F DUP4 ADD DIV SWAP1 POP SWAP2 SWAP1 POP JUMP JUMPDEST PUSH1 0x0 DUP3 DUP3 SHL SWAP1 POP SWAP3 SWAP2 POP POP JUMP JUMPDEST PUSH1 0x0 PUSH1 0x8 DUP4 MUL PUSH2 0x4C6 PUSH32 0xFFFFFFFFFFFFFFFFFFFFFFFFFFFFFFFFFFFFFFFFFFFFFFFFFFFFFFFFFFFFFFFF DUP3 PUSH2 0x489 JUMP JUMPDEST PUSH2 0x4D0 DUP7 DUP4 PUSH2 0x489 JUMP JUMPDEST SWAP6 POP DUP1 NOT DUP5 AND SWAP4 POP DUP1 DUP7 AND DUP5 OR SWAP3 POP POP POP SWAP4 SWAP3 POP POP POP JUMP JUMPDEST PUSH1 0x0 DUP2 SWAP1 POP SWAP2 SWAP1 POP JUMP JUMPDEST PUSH1 0x0 PUSH2 0x50D PUSH2 0x508 PUSH2 0x503 DUP5 PUSH2 0x2A7 JUMP JUMPDEST PUSH2 0x4E8 JUMP JUMPDEST PUSH2 0x2A7 JUMP JUMPDEST SWAP1 POP SWAP2 SWAP1 POP JUMP JUMPDEST PUSH1 0x0 DUP2 SWAP1 POP SWAP2 SWAP1 POP JUMP JUMPDEST PUSH2 0x527 DUP4 PUSH2 0x4F2 JUMP JUMPDEST PUSH2 0x53B PUSH2 0x533 DUP3 PUSH2 0x514 JUMP JUMPDEST DUP5 DUP5 SLOAD PUSH2 0x496 JUMP JUMPDEST DUP3 SSTORE POP POP POP POP JUMP JUMPDEST PUSH1 0x0 SWAP1 JUMP JUMPDEST PUSH2 0x550 PUSH2 0x543 JUMP JUMPDEST PUSH2 0x55B DUP2 DUP5 DUP5 PUSH2 0x51E JUMP JUMPDEST POP POP POP JUMP JUMPDEST JUMPDEST DUP2 DUP2 LT ISZERO PUSH2 0x57F JUMPI PUSH2 0x574 PUSH1 0x0 DUP3 PUSH2 0x548 JUMP JUMPDEST PUSH1 0x1 DUP2 ADD SWAP1 POP PUSH2 0x561 JUMP JUMPDEST POP POP JUMP JUMPDEST PUSH1 0x1F DUP3 GT ISZERO PUSH2 0x5C4 JUMPI PUSH2 0x595 DUP2 PUSH2 0x464 JUMP JUMPDEST PUSH2 0x59E DUP5 PUSH2 0x479 JUMP JUMPDEST DUP2 ADD PUSH1 0x20 DUP6 LT ISZERO PUSH2 0x5AD JUMPI DUP2 SWAP1 POP JUMPDEST PUSH2 0x5C1 PUSH2 0x5B9 DUP6 PUSH2 0x479 JUMP JUMPDEST DUP4 ADD DUP3 PUSH2 0x560 JUMP JUMPDEST POP POP JUMPDEST POP POP POP JUMP JUMPDEST PUSH1 0x0 DUP3 DUP3 SHR SWAP1 POP SWAP3 SWAP2 POP POP JUMP JUMPDEST PUSH1 0x0 PUSH2 0x5E7 PUSH1 0x0 NOT DUP5 PUSH1 0x8 MUL PUSH2 0x5C9 JUMP JUMPDEST NOT DUP1 DUP4 AND SWAP2 POP POP SWAP3 SWAP2 POP POP JUMP JUMPDEST PUSH1 0x0 PUSH2 0x600 DUP4 DUP4 PUSH2 0x5D6 JUMP JUMPDEST SWAP2 POP DUP3 PUSH1 0x2 MUL DUP3 OR SWAP1 POP SWAP3 SWAP2 POP POP JUMP JUMPDEST PUSH2 0x619 DUP3 PUSH2 0x339 JUMP JUMPDEST PUSH8 0xFFFFFFFFFFFFFFFF DUP2 GT ISZERO PUSH2 0x632 JUMPI PUSH2 0x631 PUSH2 0x17C JUMP JUMPDEST JUMPDEST PUSH2 0x63C DUP3 SLOAD PUSH2 0x433 JUMP JUMPDEST PUSH2 0x647 DUP3 DUP3 DUP6 PUSH2 0x583 JUMP JUMPDEST PUSH1 0x0 PUSH1 0x20 SWAP1 POP PUSH1 0x1F DUP4 GT PUSH1 0x1 DUP2 EQ PUSH2 0x67A JUMPI PUSH1 0x0 DUP5 ISZERO PUSH2 0x668 JUMPI DUP3 DUP8 ADD MLOAD SWAP1 POP JUMPDEST PUSH2 0x672 DUP6 DUP3 PUSH2 0x5F4 JUMP JUMPDEST DUP7 SSTORE POP PUSH2 0x6DA JUMP JUMPDEST PUSH1 0x1F NOT DUP5 AND PUSH2 0x688 DUP7 PUSH2 0x464 JUMP JUMPDEST PUSH1 0x0 JUMPDEST DUP3 DUP2 LT ISZERO PUSH2 0x6B0 JUMPI DUP5 DUP10 ADD MLOAD DUP3 SSTORE PUSH1 0x1 DUP3 ADD SWAP2 POP PUSH1 0x20 DUP6 ADD SWAP5 POP PUSH1 0x20 DUP2 ADD SWAP1 POP PUSH2 0x68B JUMP JUMPDEST DUP7 DUP4 LT ISZERO PUSH2 0x6CD JUMPI DUP5 DUP10 ADD MLOAD PUSH2 0x6C9 PUSH1 0x1F DUP10 AND DUP3 PUSH2 0x5D6 JUMP JUMPDEST DUP4 SSTORE POP JUMPDEST PUSH1 0x1 PUSH1 0x2 DUP9 MUL ADD DUP9 SSTORE POP POP POP JUMPDEST POP POP POP POP POP POP JUMP INVALID LOG2 PUSH5 0x6970667358 0x22 SLT KECCAK256 0x24 0xE3 CALLDATALOAD DUP16 PUSH1 0x42 0xCA 0xD5 0xE0 DUP6 LOG2 CREATE 0x4D 0xB2 0x22 0xE1 0xDF GT MUL ISZERO DUP5 0xD3 SWAP7 0xDE 0xE5 PUSH17 0x949547D34C5C64736F6C63430008120033 "
				},
				"gasEstimates": {
					"creation": {
						"codeDepositCost": "363200",
						"executionCost": "infinite",
						"totalCost": "infinite"
					},
					"external": {
						"myNum()": "2451",
						"myState()": "infinite",
						"update(string,uint256)": "infinite"
					}
				},
				"methodIdentifiers": {
					"myNum()": "d4da005a",
					"myState()": "8bf1799f",
					"update(string,uint256)": "4ee5c2ee"
				}
			},
			"storageLayout": {
				"storage": [
					{
						"astId": 3,
						"contract": "by-daulat-hussain/solidity/05-variables/demo.sol:demo",
						"label": "myState",
						"offset": 0,
						"slot": "0",
						"type": "t_string_storage"
					},
					{
						"astId": 5,
						"contract": "by-daulat-hussain/solidity/05-variables/demo.sol:demo",
						"label": "myNum",
						"offset": 0,
						"slot": "1",
						"type": "t_uint256"
					}
				],
				"types": {
					"t_string_storage": {
						"encoding": "bytes",
						"label": "string",
						"numberOfBytes": "32"
					},
					"t_uint256": {
						"encoding": "inplace",
						"label": "uint256",
						"numberOfBytes": "32"
					}
				}
			},
			"userdoc": {
				"kind": "user",
				"methods": {},
				"version": 1
			}
		}
	}
}