{
	"by-daulat-hussain/solidity/01-first/demo.sol": {
		"Demo": {
			"abi": [
				{
					"inputs": [
						{
							"internalType": "string",
							"name": "_hey",
							"type": "string"
						},
						{
							"internalType": "uint256",
							"name": "_no",
							"type": "uint256"
						}
					],
					"name": "addInfo",
					"outputs": [],
					"stateMutability": "nonpayable",
					"type": "function"
				},
				{
					"inputs": [],
					"name": "hey",
					"outputs": [
						{
							"internalType": "string",
							"name": "",
							"type": "string"
						}
					],
					"stateMutability": "view",
					"type": "function"
				},
				{
					"inputs": [],
					"name": "no",
					"outputs": [
						{
							"internalType": "uint256",
							"name": "",
							"type": "uint256"
						}
					],
					"stateMutability": "view",
					"type": "function"
				}
			],
			"devdoc": {
				"kind": "dev",
				"methods": {},
				"version": 1
			},
			"evm": {
				"assembly": "    /* \"by-daulat-hussain/solidity/01-first/demo.sol\":93:313  contract Demo{\r... */\n  mstore(0x40, 0x80)\n    /* \"by-daulat-hussain/solidity/01-first/demo.sol\":198:200  10 */\n  0x0a\n    /* \"by-daulat-hussain/solidity/01-first/demo.sol\":178:200  uint256 public no = 10 */\n  0x01\n  sstore\n    /* \"by-daulat-hussain/solidity/01-first/demo.sol\":93:313  contract Demo{\r... */\n  callvalue\n  dup1\n  iszero\n  tag_1\n  jumpi\n  0x00\n  dup1\n  revert\ntag_1:\n  pop\n  dataSize(sub_0)\n  dup1\n  dataOffset(sub_0)\n  0x00\n  codecopy\n  0x00\n  return\nstop\n\nsub_0: assembly {\n        /* \"by-daulat-hussain/solidity/01-first/demo.sol\":93:313  contract Demo{\r... */\n      mstore(0x40, 0x80)\n      callvalue\n      dup1\n      iszero\n      tag_1\n      jumpi\n      0x00\n      dup1\n      revert\n    tag_1:\n      pop\n      jumpi(tag_2, lt(calldatasize, 0x04))\n      shr(0xe0, calldataload(0x00))\n      dup1\n      0xb6c52ae8\n      eq\n      tag_3\n      jumpi\n      dup1\n      0xbde2b573\n      eq\n      tag_4\n      jumpi\n      dup1\n      0xcd6bc3dd\n      eq\n      tag_5\n      jumpi\n    tag_2:\n      0x00\n      dup1\n      revert\n        /* \"by-daulat-hussain/solidity/01-first/demo.sol\":178:200  uint256 public no = 10 */\n    tag_3:\n      tag_6\n      tag_7\n      jump\t// in\n    tag_6:\n      mload(0x40)\n      tag_8\n      swap2\n      swap1\n      tag_9\n      jump\t// in\n    tag_8:\n      mload(0x40)\n      dup1\n      swap2\n      sub\n      swap1\n      return\n        /* \"by-daulat-hussain/solidity/01-first/demo.sol\":154:171  string public hey */\n    tag_4:\n      tag_10\n      tag_11\n      jump\t// in\n    tag_10:\n      mload(0x40)\n      tag_12\n      swap2\n      swap1\n      tag_13\n      jump\t// in\n    tag_12:\n      mload(0x40)\n      dup1\n      swap2\n      sub\n      swap1\n      return\n        /* \"by-daulat-hussain/solidity/01-first/demo.sol\":209:310  function addInfo(string memory  _hey, uint _no) public {\r... */\n    tag_5:\n      tag_14\n      0x04\n      dup1\n      calldatasize\n      sub\n      dup2\n      add\n      swap1\n      tag_15\n      swap2\n      swap1\n      tag_16\n      jump\t// in\n    tag_15:\n      tag_17\n      jump\t// in\n    tag_14:\n      stop\n        /* \"by-daulat-hussain/solidity/01-first/demo.sol\":178:200  uint256 public no = 10 */\n    tag_7:\n      sload(0x01)\n      dup2\n      jump\t// out\n        /* \"by-daulat-hussain/solidity/01-first/demo.sol\":154:171  string public hey */\n    tag_11:\n      0x00\n      dup1\n      sload\n      tag_18\n      swap1\n      tag_19\n      jump\t// in\n    tag_18:\n      dup1\n      0x1f\n      add\n      0x20\n      dup1\n      swap2\n      div\n      mul\n      0x20\n      add\n      mload(0x40)\n      swap1\n      dup2\n      add\n      0x40\n      mstore\n      dup1\n      swap3\n      swap2\n      swap1\n      dup2\n      dup2\n      mstore\n      0x20\n      add\n      dup3\n      dup1\n      sload\n      tag_20\n      swap1\n      tag_19\n      jump\t// in\n    tag_20:\n      dup1\n      iszero\n      tag_21\n      jumpi\n      dup1\n      0x1f\n      lt\n      tag_22\n      jumpi\n      0x0100\n      dup1\n      dup4\n      sload\n      div\n      mul\n      dup4\n      mstore\n      swap2\n      0x20\n      add\n      swap2\n      jump(tag_21)\n    tag_22:\n      dup3\n      add\n      swap2\n      swap1\n      0x00\n      mstore\n      keccak256(0x00, 0x20)\n      swap1\n    tag_23:\n      dup2\n      sload\n      dup2\n      mstore\n      swap1\n      0x01\n      add\n      swap1\n      0x20\n      add\n      dup1\n      dup4\n      gt\n      tag_23\n      jumpi\n      dup3\n      swap1\n      sub\n      0x1f\n      and\n      dup3\n      add\n      swap2\n    tag_21:\n      pop\n      pop\n      pop\n      pop\n      pop\n      dup2\n      jump\t// out\n        /* \"by-daulat-hussain/solidity/01-first/demo.sol\":209:310  function addInfo(string memory  _hey, uint _no) public {\r... */\n    tag_17:\n        /* \"by-daulat-hussain/solidity/01-first/demo.sol\":280:284  _hey */\n      dup2\n        /* \"by-daulat-hussain/solidity/01-first/demo.sol\":275:278  hey */\n      0x00\n        /* \"by-daulat-hussain/solidity/01-first/demo.sol\":275:284  hey= _hey */\n      swap1\n      dup1\n      mload\n      swap1\n      0x20\n      add\n      swap1\n      tag_25\n      swap3\n      swap2\n      swap1\n      tag_26\n      jump\t// in\n    tag_25:\n      pop\n        /* \"by-daulat-hussain/solidity/01-first/demo.sol\":299:302  _no */\n      dup1\n        /* \"by-daulat-hussain/solidity/01-first/demo.sol\":295:297  no */\n      0x01\n        /* \"by-daulat-hussain/solidity/01-first/demo.sol\":295:302  no= _no */\n      dup2\n      swap1\n      sstore\n      pop\n        /* \"by-daulat-hussain/solidity/01-first/demo.sol\":209:310  function addInfo(string memory  _hey, uint _no) public {\r... */\n      pop\n      pop\n      jump\t// out\n    tag_26:\n      dup3\n      dup1\n      sload\n      tag_27\n      swap1\n      tag_19\n      jump\t// in\n    tag_27:\n      swap1\n      0x00\n      mstore\n      keccak256(0x00, 0x20)\n      swap1\n      0x1f\n      add\n      0x20\n      swap1\n      div\n      dup2\n      add\n      swap3\n      dup3\n      tag_29\n      jumpi\n      0x00\n      dup6\n      sstore\n      jump(tag_28)\n    tag_29:\n      dup3\n      0x1f\n      lt\n      tag_30\n      jumpi\n      dup1\n      mload\n      not(0xff)\n      and\n      dup4\n      dup1\n      add\n      or\n      dup6\n      sstore\n      jump(tag_28)\n    tag_30:\n      dup3\n      dup1\n      add\n      0x01\n      add\n      dup6\n      sstore\n      dup3\n      iszero\n      tag_28\n      jumpi\n      swap2\n      dup3\n      add\n    tag_31:\n      dup3\n      dup2\n      gt\n      iszero\n      tag_32\n      jumpi\n      dup3\n      mload\n      dup3\n      sstore\n      swap2\n      0x20\n      add\n      swap2\n      swap1\n      0x01\n      add\n      swap1\n      jump(tag_31)\n    tag_32:\n    tag_28:\n      pop\n      swap1\n      pop\n      tag_33\n      swap2\n      swap1\n      tag_34\n      jump\t// in\n    tag_33:\n      pop\n      swap1\n      jump\t// out\n    tag_34:\n    tag_35:\n      dup1\n      dup3\n      gt\n      iszero\n      tag_36\n      jumpi\n      0x00\n      dup2\n      0x00\n      swap1\n      sstore\n      pop\n      0x01\n      add\n      jump(tag_35)\n    tag_36:\n      pop\n      swap1\n      jump\t// out\n        /* \"#utility.yul\":7:351   */\n    tag_38:\n      0x00\n        /* \"#utility.yul\":110:175   */\n      tag_40\n        /* \"#utility.yul\":125:174   */\n      tag_41\n        /* \"#utility.yul\":167:173   */\n      dup5\n        /* \"#utility.yul\":125:174   */\n      tag_42\n      jump\t// in\n    tag_41:\n        /* \"#utility.yul\":110:175   */\n      tag_43\n      jump\t// in\n    tag_40:\n        /* \"#utility.yul\":101:175   */\n      swap1\n      pop\n        /* \"#utility.yul\":198:204   */\n      dup3\n        /* \"#utility.yul\":191:196   */\n      dup2\n        /* \"#utility.yul\":184:205   */\n      mstore\n        /* \"#utility.yul\":236:240   */\n      0x20\n        /* \"#utility.yul\":229:234   */\n      dup2\n        /* \"#utility.yul\":225:241   */\n      add\n        /* \"#utility.yul\":274:277   */\n      dup5\n        /* \"#utility.yul\":265:271   */\n      dup5\n        /* \"#utility.yul\":260:263   */\n      dup5\n        /* \"#utility.yul\":256:272   */\n      add\n        /* \"#utility.yul\":253:278   */\n      gt\n        /* \"#utility.yul\":250:252   */\n      iszero\n      tag_44\n      jumpi\n        /* \"#utility.yul\":291:292   */\n      0x00\n        /* \"#utility.yul\":288:289   */\n      dup1\n        /* \"#utility.yul\":281:293   */\n      revert\n        /* \"#utility.yul\":250:252   */\n    tag_44:\n        /* \"#utility.yul\":304:345   */\n      tag_45\n        /* \"#utility.yul\":338:344   */\n      dup5\n        /* \"#utility.yul\":333:336   */\n      dup3\n        /* \"#utility.yul\":328:331   */\n      dup6\n        /* \"#utility.yul\":304:345   */\n      tag_46\n      jump\t// in\n    tag_45:\n        /* \"#utility.yul\":91:351   */\n      pop\n      swap4\n      swap3\n      pop\n      pop\n      pop\n      jump\t// out\n        /* \"#utility.yul\":371:644   */\n    tag_47:\n      0x00\n        /* \"#utility.yul\":476:479   */\n      dup3\n        /* \"#utility.yul\":469:473   */\n      0x1f\n        /* \"#utility.yul\":461:467   */\n      dup4\n        /* \"#utility.yul\":457:474   */\n      add\n        /* \"#utility.yul\":453:480   */\n      slt\n        /* \"#utility.yul\":443:445   */\n      tag_49\n      jumpi\n        /* \"#utility.yul\":494:495   */\n      0x00\n        /* \"#utility.yul\":491:492   */\n      dup1\n        /* \"#utility.yul\":484:496   */\n      revert\n        /* \"#utility.yul\":443:445   */\n    tag_49:\n        /* \"#utility.yul\":534:540   */\n      dup2\n        /* \"#utility.yul\":521:541   */\n      calldataload\n        /* \"#utility.yul\":559:638   */\n      tag_50\n        /* \"#utility.yul\":634:637   */\n      dup5\n        /* \"#utility.yul\":626:632   */\n      dup3\n        /* \"#utility.yul\":619:623   */\n      0x20\n        /* \"#utility.yul\":611:617   */\n      dup7\n        /* \"#utility.yul\":607:624   */\n      add\n        /* \"#utility.yul\":559:638   */\n      tag_38\n      jump\t// in\n    tag_50:\n        /* \"#utility.yul\":550:638   */\n      swap2\n      pop\n        /* \"#utility.yul\":433:644   */\n      pop\n      swap3\n      swap2\n      pop\n      pop\n      jump\t// out\n        /* \"#utility.yul\":650:789   */\n    tag_51:\n      0x00\n        /* \"#utility.yul\":734:740   */\n      dup2\n        /* \"#utility.yul\":721:741   */\n      calldataload\n        /* \"#utility.yul\":712:741   */\n      swap1\n      pop\n        /* \"#utility.yul\":750:783   */\n      tag_53\n        /* \"#utility.yul\":777:782   */\n      dup2\n        /* \"#utility.yul\":750:783   */\n      tag_54\n      jump\t// in\n    tag_53:\n        /* \"#utility.yul\":702:789   */\n      swap3\n      swap2\n      pop\n      pop\n      jump\t// out\n        /* \"#utility.yul\":795:1315   */\n    tag_16:\n      0x00\n      dup1\n        /* \"#utility.yul\":930:932   */\n      0x40\n        /* \"#utility.yul\":918:927   */\n      dup4\n        /* \"#utility.yul\":909:916   */\n      dup6\n        /* \"#utility.yul\":905:928   */\n      sub\n        /* \"#utility.yul\":901:933   */\n      slt\n        /* \"#utility.yul\":898:900   */\n      iszero\n      tag_56\n      jumpi\n        /* \"#utility.yul\":946:947   */\n      0x00\n        /* \"#utility.yul\":943:944   */\n      dup1\n        /* \"#utility.yul\":936:948   */\n      revert\n        /* \"#utility.yul\":898:900   */\n    tag_56:\n        /* \"#utility.yul\":1017:1018   */\n      0x00\n        /* \"#utility.yul\":1006:1015   */\n      dup4\n        /* \"#utility.yul\":1002:1019   */\n      add\n        /* \"#utility.yul\":989:1020   */\n      calldataload\n        /* \"#utility.yul\":1047:1065   */\n      0xffffffffffffffff\n        /* \"#utility.yul\":1039:1045   */\n      dup2\n        /* \"#utility.yul\":1036:1066   */\n      gt\n        /* \"#utility.yul\":1033:1035   */\n      iszero\n      tag_57\n      jumpi\n        /* \"#utility.yul\":1079:1080   */\n      0x00\n        /* \"#utility.yul\":1076:1077   */\n      dup1\n        /* \"#utility.yul\":1069:1081   */\n      revert\n        /* \"#utility.yul\":1033:1035   */\n    tag_57:\n        /* \"#utility.yul\":1107:1170   */\n      tag_58\n        /* \"#utility.yul\":1162:1169   */\n      dup6\n        /* \"#utility.yul\":1153:1159   */\n      dup3\n        /* \"#utility.yul\":1142:1151   */\n      dup7\n        /* \"#utility.yul\":1138:1160   */\n      add\n        /* \"#utility.yul\":1107:1170   */\n      tag_47\n      jump\t// in\n    tag_58:\n        /* \"#utility.yul\":1097:1170   */\n      swap3\n      pop\n        /* \"#utility.yul\":960:1180   */\n      pop\n        /* \"#utility.yul\":1219:1221   */\n      0x20\n        /* \"#utility.yul\":1245:1298   */\n      tag_59\n        /* \"#utility.yul\":1290:1297   */\n      dup6\n        /* \"#utility.yul\":1281:1287   */\n      dup3\n        /* \"#utility.yul\":1270:1279   */\n      dup7\n        /* \"#utility.yul\":1266:1288   */\n      add\n        /* \"#utility.yul\":1245:1298   */\n      tag_51\n      jump\t// in\n    tag_59:\n        /* \"#utility.yul\":1235:1298   */\n      swap2\n      pop\n        /* \"#utility.yul\":1190:1308   */\n      pop\n        /* \"#utility.yul\":888:1315   */\n      swap3\n      pop\n      swap3\n      swap1\n      pop\n      jump\t// out\n        /* \"#utility.yul\":1321:1685   */\n    tag_60:\n      0x00\n        /* \"#utility.yul\":1437:1476   */\n      tag_62\n        /* \"#utility.yul\":1470:1475   */\n      dup3\n        /* \"#utility.yul\":1437:1476   */\n      tag_63\n      jump\t// in\n    tag_62:\n        /* \"#utility.yul\":1492:1563   */\n      tag_64\n        /* \"#utility.yul\":1556:1562   */\n      dup2\n        /* \"#utility.yul\":1551:1554   */\n      dup6\n        /* \"#utility.yul\":1492:1563   */\n      tag_65\n      jump\t// in\n    tag_64:\n        /* \"#utility.yul\":1485:1563   */\n      swap4\n      pop\n        /* \"#utility.yul\":1572:1624   */\n      tag_66\n        /* \"#utility.yul\":1617:1623   */\n      dup2\n        /* \"#utility.yul\":1612:1615   */\n      dup6\n        /* \"#utility.yul\":1605:1609   */\n      0x20\n        /* \"#utility.yul\":1598:1603   */\n      dup7\n        /* \"#utility.yul\":1594:1610   */\n      add\n        /* \"#utility.yul\":1572:1624   */\n      tag_67\n      jump\t// in\n    tag_66:\n        /* \"#utility.yul\":1649:1678   */\n      tag_68\n        /* \"#utility.yul\":1671:1677   */\n      dup2\n        /* \"#utility.yul\":1649:1678   */\n      tag_69\n      jump\t// in\n    tag_68:\n        /* \"#utility.yul\":1644:1647   */\n      dup5\n        /* \"#utility.yul\":1640:1679   */\n      add\n        /* \"#utility.yul\":1633:1679   */\n      swap2\n      pop\n        /* \"#utility.yul\":1413:1685   */\n      pop\n      swap3\n      swap2\n      pop\n      pop\n      jump\t// out\n        /* \"#utility.yul\":1691:1809   */\n    tag_70:\n        /* \"#utility.yul\":1778:1802   */\n      tag_72\n        /* \"#utility.yul\":1796:1801   */\n      dup2\n        /* \"#utility.yul\":1778:1802   */\n      tag_73\n      jump\t// in\n    tag_72:\n        /* \"#utility.yul\":1773:1776   */\n      dup3\n        /* \"#utility.yul\":1766:1803   */\n      mstore\n        /* \"#utility.yul\":1756:1809   */\n      pop\n      pop\n      jump\t// out\n        /* \"#utility.yul\":1815:2128   */\n    tag_13:\n      0x00\n        /* \"#utility.yul\":1966:1968   */\n      0x20\n        /* \"#utility.yul\":1955:1964   */\n      dup3\n        /* \"#utility.yul\":1951:1969   */\n      add\n        /* \"#utility.yul\":1943:1969   */\n      swap1\n      pop\n        /* \"#utility.yul\":2015:2024   */\n      dup2\n        /* \"#utility.yul\":2009:2013   */\n      dup2\n        /* \"#utility.yul\":2005:2025   */\n      sub\n        /* \"#utility.yul\":2001:2002   */\n      0x00\n        /* \"#utility.yul\":1990:1999   */\n      dup4\n        /* \"#utility.yul\":1986:2003   */\n      add\n        /* \"#utility.yul\":1979:2026   */\n      mstore\n        /* \"#utility.yul\":2043:2121   */\n      tag_75\n        /* \"#utility.yul\":2116:2120   */\n      dup2\n        /* \"#utility.yul\":2107:2113   */\n      dup5\n        /* \"#utility.yul\":2043:2121   */\n      tag_60\n      jump\t// in\n    tag_75:\n        /* \"#utility.yul\":2035:2121   */\n      swap1\n      pop\n        /* \"#utility.yul\":1933:2128   */\n      swap3\n      swap2\n      pop\n      pop\n      jump\t// out\n        /* \"#utility.yul\":2134:2356   */\n    tag_9:\n      0x00\n        /* \"#utility.yul\":2265:2267   */\n      0x20\n        /* \"#utility.yul\":2254:2263   */\n      dup3\n        /* \"#utility.yul\":2250:2268   */\n      add\n        /* \"#utility.yul\":2242:2268   */\n      swap1\n      pop\n        /* \"#utility.yul\":2278:2349   */\n      tag_77\n        /* \"#utility.yul\":2346:2347   */\n      0x00\n        /* \"#utility.yul\":2335:2344   */\n      dup4\n        /* \"#utility.yul\":2331:2348   */\n      add\n        /* \"#utility.yul\":2322:2328   */\n      dup5\n        /* \"#utility.yul\":2278:2349   */\n      tag_70\n      jump\t// in\n    tag_77:\n        /* \"#utility.yul\":2232:2356   */\n      swap3\n      swap2\n      pop\n      pop\n      jump\t// out\n        /* \"#utility.yul\":2362:2645   */\n    tag_43:\n      0x00\n        /* \"#utility.yul\":2428:2430   */\n      0x40\n        /* \"#utility.yul\":2422:2431   */\n      mload\n        /* \"#utility.yul\":2412:2431   */\n      swap1\n      pop\n        /* \"#utility.yul\":2470:2474   */\n      dup2\n        /* \"#utility.yul\":2462:2468   */\n      dup2\n        /* \"#utility.yul\":2458:2475   */\n      add\n        /* \"#utility.yul\":2577:2583   */\n      dup2\n        /* \"#utility.yul\":2565:2575   */\n      dup2\n        /* \"#utility.yul\":2562:2584   */\n      lt\n        /* \"#utility.yul\":2541:2559   */\n      0xffffffffffffffff\n        /* \"#utility.yul\":2529:2539   */\n      dup3\n        /* \"#utility.yul\":2526:2560   */\n      gt\n        /* \"#utility.yul\":2523:2585   */\n      or\n        /* \"#utility.yul\":2520:2522   */\n      iszero\n      tag_79\n      jumpi\n        /* \"#utility.yul\":2588:2606   */\n      tag_80\n      tag_81\n      jump\t// in\n    tag_80:\n        /* \"#utility.yul\":2520:2522   */\n    tag_79:\n        /* \"#utility.yul\":2628:2638   */\n      dup1\n        /* \"#utility.yul\":2624:2626   */\n      0x40\n        /* \"#utility.yul\":2617:2639   */\n      mstore\n        /* \"#utility.yul\":2402:2645   */\n      pop\n      swap2\n      swap1\n      pop\n      jump\t// out\n        /* \"#utility.yul\":2651:2983   */\n    tag_42:\n      0x00\n        /* \"#utility.yul\":2803:2821   */\n      0xffffffffffffffff\n        /* \"#utility.yul\":2795:2801   */\n      dup3\n        /* \"#utility.yul\":2792:2822   */\n      gt\n        /* \"#utility.yul\":2789:2791   */\n      iszero\n      tag_83\n      jumpi\n        /* \"#utility.yul\":2825:2843   */\n      tag_84\n      tag_81\n      jump\t// in\n    tag_84:\n        /* \"#utility.yul\":2789:2791   */\n    tag_83:\n        /* \"#utility.yul\":2910:2914   */\n      0x1f\n        /* \"#utility.yul\":2906:2915   */\n      not\n        /* \"#utility.yul\":2899:2903   */\n      0x1f\n        /* \"#utility.yul\":2891:2897   */\n      dup4\n        /* \"#utility.yul\":2887:2904   */\n      add\n        /* \"#utility.yul\":2883:2916   */\n      and\n        /* \"#utility.yul\":2875:2916   */\n      swap1\n      pop\n        /* \"#utility.yul\":2971:2975   */\n      0x20\n        /* \"#utility.yul\":2965:2969   */\n      dup2\n        /* \"#utility.yul\":2961:2976   */\n      add\n        /* \"#utility.yul\":2953:2976   */\n      swap1\n      pop\n        /* \"#utility.yul\":2718:2983   */\n      swap2\n      swap1\n      pop\n      jump\t// out\n        /* \"#utility.yul\":2989:3088   */\n    tag_63:\n      0x00\n        /* \"#utility.yul\":3075:3080   */\n      dup2\n        /* \"#utility.yul\":3069:3081   */\n      mload\n        /* \"#utility.yul\":3059:3081   */\n      swap1\n      pop\n        /* \"#utility.yul\":3048:3088   */\n      swap2\n      swap1\n      pop\n      jump\t// out\n        /* \"#utility.yul\":3094:3263   */\n    tag_65:\n      0x00\n        /* \"#utility.yul\":3212:3218   */\n      dup3\n        /* \"#utility.yul\":3207:3210   */\n      dup3\n        /* \"#utility.yul\":3200:3219   */\n      mstore\n        /* \"#utility.yul\":3252:3256   */\n      0x20\n        /* \"#utility.yul\":3247:3250   */\n      dup3\n        /* \"#utility.yul\":3243:3257   */\n      add\n        /* \"#utility.yul\":3228:3257   */\n      swap1\n      pop\n        /* \"#utility.yul\":3190:3263   */\n      swap3\n      swap2\n      pop\n      pop\n      jump\t// out\n        /* \"#utility.yul\":3269:3346   */\n    tag_73:\n      0x00\n        /* \"#utility.yul\":3335:3340   */\n      dup2\n        /* \"#utility.yul\":3324:3340   */\n      swap1\n      pop\n        /* \"#utility.yul\":3314:3346   */\n      swap2\n      swap1\n      pop\n      jump\t// out\n        /* \"#utility.yul\":3352:3506   */\n    tag_46:\n        /* \"#utility.yul\":3436:3442   */\n      dup3\n        /* \"#utility.yul\":3431:3434   */\n      dup2\n        /* \"#utility.yul\":3426:3429   */\n      dup4\n        /* \"#utility.yul\":3413:3443   */\n      calldatacopy\n        /* \"#utility.yul\":3498:3499   */\n      0x00\n        /* \"#utility.yul\":3489:3495   */\n      dup4\n        /* \"#utility.yul\":3484:3487   */\n      dup4\n        /* \"#utility.yul\":3480:3496   */\n      add\n        /* \"#utility.yul\":3473:3500   */\n      mstore\n        /* \"#utility.yul\":3403:3506   */\n      pop\n      pop\n      pop\n      jump\t// out\n        /* \"#utility.yul\":3512:3819   */\n    tag_67:\n        /* \"#utility.yul\":3580:3581   */\n      0x00\n        /* \"#utility.yul\":3590:3703   */\n    tag_90:\n        /* \"#utility.yul\":3604:3610   */\n      dup4\n        /* \"#utility.yul\":3601:3602   */\n      dup2\n        /* \"#utility.yul\":3598:3611   */\n      lt\n        /* \"#utility.yul\":3590:3703   */\n      iszero\n      tag_92\n      jumpi\n        /* \"#utility.yul\":3689:3690   */\n      dup1\n        /* \"#utility.yul\":3684:3687   */\n      dup3\n        /* \"#utility.yul\":3680:3691   */\n      add\n        /* \"#utility.yul\":3674:3692   */\n      mload\n        /* \"#utility.yul\":3670:3671   */\n      dup2\n        /* \"#utility.yul\":3665:3668   */\n      dup5\n        /* \"#utility.yul\":3661:3672   */\n      add\n        /* \"#utility.yul\":3654:3693   */\n      mstore\n        /* \"#utility.yul\":3626:3628   */\n      0x20\n        /* \"#utility.yul\":3623:3624   */\n      dup2\n        /* \"#utility.yul\":3619:3629   */\n      add\n        /* \"#utility.yul\":3614:3629   */\n      swap1\n      pop\n        /* \"#utility.yul\":3590:3703   */\n      jump(tag_90)\n    tag_92:\n        /* \"#utility.yul\":3721:3727   */\n      dup4\n        /* \"#utility.yul\":3718:3719   */\n      dup2\n        /* \"#utility.yul\":3715:3728   */\n      gt\n        /* \"#utility.yul\":3712:3714   */\n      iszero\n      tag_93\n      jumpi\n        /* \"#utility.yul\":3801:3802   */\n      0x00\n        /* \"#utility.yul\":3792:3798   */\n      dup5\n        /* \"#utility.yul\":3787:3790   */\n      dup5\n        /* \"#utility.yul\":3783:3799   */\n      add\n        /* \"#utility.yul\":3776:3803   */\n      mstore\n        /* \"#utility.yul\":3712:3714   */\n    tag_93:\n        /* \"#utility.yul\":3561:3819   */\n      pop\n      pop\n      pop\n      pop\n      jump\t// out\n        /* \"#utility.yul\":3825:4145   */\n    tag_19:\n      0x00\n        /* \"#utility.yul\":3906:3907   */\n      0x02\n        /* \"#utility.yul\":3900:3904   */\n      dup3\n        /* \"#utility.yul\":3896:3908   */\n      div\n        /* \"#utility.yul\":3886:3908   */\n      swap1\n      pop\n        /* \"#utility.yul\":3953:3954   */\n      0x01\n        /* \"#utility.yul\":3947:3951   */\n      dup3\n        /* \"#utility.yul\":3943:3955   */\n      and\n        /* \"#utility.yul\":3974:3992   */\n      dup1\n        /* \"#utility.yul\":3964:3966   */\n      tag_95\n      jumpi\n        /* \"#utility.yul\":4030:4034   */\n      0x7f\n        /* \"#utility.yul\":4022:4028   */\n      dup3\n        /* \"#utility.yul\":4018:4035   */\n      and\n        /* \"#utility.yul\":4008:4035   */\n      swap2\n      pop\n        /* \"#utility.yul\":3964:3966   */\n    tag_95:\n        /* \"#utility.yul\":4092:4094   */\n      0x20\n        /* \"#utility.yul\":4084:4090   */\n      dup3\n        /* \"#utility.yul\":4081:4095   */\n      lt\n        /* \"#utility.yul\":4061:4079   */\n      dup2\n        /* \"#utility.yul\":4058:4096   */\n      eq\n        /* \"#utility.yul\":4055:4057   */\n      iszero\n      tag_96\n      jumpi\n        /* \"#utility.yul\":4111:4129   */\n      tag_97\n      tag_98\n      jump\t// in\n    tag_97:\n        /* \"#utility.yul\":4055:4057   */\n    tag_96:\n        /* \"#utility.yul\":3876:4145   */\n      pop\n      swap2\n      swap1\n      pop\n      jump\t// out\n        /* \"#utility.yul\":4151:4331   */\n    tag_98:\n        /* \"#utility.yul\":4199:4276   */\n      0x4e487b7100000000000000000000000000000000000000000000000000000000\n        /* \"#utility.yul\":4196:4197   */\n      0x00\n        /* \"#utility.yul\":4189:4277   */\n      mstore\n        /* \"#utility.yul\":4296:4300   */\n      0x22\n        /* \"#utility.yul\":4293:4294   */\n      0x04\n        /* \"#utility.yul\":4286:4301   */\n      mstore\n        /* \"#utility.yul\":4320:4324   */\n      0x24\n        /* \"#utility.yul\":4317:4318   */\n      0x00\n        /* \"#utility.yul\":4310:4325   */\n      revert\n        /* \"#utility.yul\":4337:4517   */\n    tag_81:\n        /* \"#utility.yul\":4385:4462   */\n      0x4e487b7100000000000000000000000000000000000000000000000000000000\n        /* \"#utility.yul\":4382:4383   */\n      0x00\n        /* \"#utility.yul\":4375:4463   */\n      mstore\n        /* \"#utility.yul\":4482:4486   */\n      0x41\n        /* \"#utility.yul\":4479:4480   */\n      0x04\n        /* \"#utility.yul\":4472:4487   */\n      mstore\n        /* \"#utility.yul\":4506:4510   */\n      0x24\n        /* \"#utility.yul\":4503:4504   */\n      0x00\n        /* \"#utility.yul\":4496:4511   */\n      revert\n        /* \"#utility.yul\":4523:4625   */\n    tag_69:\n      0x00\n        /* \"#utility.yul\":4615:4617   */\n      0x1f\n        /* \"#utility.yul\":4611:4618   */\n      not\n        /* \"#utility.yul\":4606:4608   */\n      0x1f\n        /* \"#utility.yul\":4599:4604   */\n      dup4\n        /* \"#utility.yul\":4595:4609   */\n      add\n        /* \"#utility.yul\":4591:4619   */\n      and\n        /* \"#utility.yul\":4581:4619   */\n      swap1\n      pop\n        /* \"#utility.yul\":4571:4625   */\n      swap2\n      swap1\n      pop\n      jump\t// out\n        /* \"#utility.yul\":4631:4753   */\n    tag_54:\n        /* \"#utility.yul\":4704:4728   */\n      tag_103\n        /* \"#utility.yul\":4722:4727   */\n      dup2\n        /* \"#utility.yul\":4704:4728   */\n      tag_73\n      jump\t// in\n    tag_103:\n        /* \"#utility.yul\":4697:4702   */\n      dup2\n        /* \"#utility.yul\":4694:4729   */\n      eq\n        /* \"#utility.yul\":4684:4686   */\n      tag_104\n      jumpi\n        /* \"#utility.yul\":4743:4744   */\n      0x00\n        /* \"#utility.yul\":4740:4741   */\n      dup1\n        /* \"#utility.yul\":4733:4745   */\n      revert\n        /* \"#utility.yul\":4684:4686   */\n    tag_104:\n        /* \"#utility.yul\":4674:4753   */\n      pop\n      jump\t// out\n\n    auxdata: 0xa264697066735822122033631e7abc7543dc9018a235fa533871e2c1ed55e382df24582a57fba50c1fad64736f6c63430008000033\n}\n",
				"bytecode": {
					"linkReferences": {},
					"object": "6080604052600a60015534801561001557600080fd5b50610504806100256000396000f3fe608060405234801561001057600080fd5b50600436106100415760003560e01c8063b6c52ae814610046578063bde2b57314610064578063cd6bc3dd14610082575b600080fd5b61004e61009e565b60405161005b9190610332565b60405180910390f35b61006c6100a4565b6040516100799190610310565b60405180910390f35b61009c60048036038101906100979190610274565b610132565b005b60015481565b600080546100b190610416565b80601f01602080910402602001604051908101604052809291908181526020018280546100dd90610416565b801561012a5780601f106100ff5761010080835404028352916020019161012a565b820191906000526020600020905b81548152906001019060200180831161010d57829003601f168201915b505050505081565b8160009080519060200190610148929190610154565b50806001819055505050565b82805461016090610416565b90600052602060002090601f01602090048101928261018257600085556101c9565b82601f1061019b57805160ff19168380011785556101c9565b828001600101855582156101c9579182015b828111156101c85782518255916020019190600101906101ad565b5b5090506101d691906101da565b5090565b5b808211156101f35760008160009055506001016101db565b5090565b600061020a6102058461037e565b61034d565b90508281526020810184848401111561022257600080fd5b61022d8482856103d4565b509392505050565b600082601f83011261024657600080fd5b81356102568482602086016101f7565b91505092915050565b60008135905061026e816104b7565b92915050565b6000806040838503121561028757600080fd5b600083013567ffffffffffffffff8111156102a157600080fd5b6102ad85828601610235565b92505060206102be8582860161025f565b9150509250929050565b60006102d3826103ae565b6102dd81856103b9565b93506102ed8185602086016103e3565b6102f6816104a6565b840191505092915050565b61030a816103ca565b82525050565b6000602082019050818103600083015261032a81846102c8565b905092915050565b60006020820190506103476000830184610301565b92915050565b6000604051905081810181811067ffffffffffffffff8211171561037457610373610477565b5b8060405250919050565b600067ffffffffffffffff82111561039957610398610477565b5b601f19601f8301169050602081019050919050565b600081519050919050565b600082825260208201905092915050565b6000819050919050565b82818337600083830152505050565b60005b838110156104015780820151818401526020810190506103e6565b83811115610410576000848401525b50505050565b6000600282049050600182168061042e57607f821691505b6020821081141561044257610441610448565b5b50919050565b7f4e487b7100000000000000000000000000000000000000000000000000000000600052602260045260246000fd5b7f4e487b7100000000000000000000000000000000000000000000000000000000600052604160045260246000fd5b6000601f19601f8301169050919050565b6104c0816103ca565b81146104cb57600080fd5b5056fea264697066735822122033631e7abc7543dc9018a235fa533871e2c1ed55e382df24582a57fba50c1fad64736f6c63430008000033",
					"opcodes": "PUSH1 0x80 PUSH1 0x40 MSTORE PUSH1 0xA PUSH1 0x1 SSTORE CALLVALUE DUP1 ISZERO PUSH2 0x15 JUMPI PUSH1 0x0 DUP1 REVERT JUMPDEST POP PUSH2 0x504 DUP1 PUSH2 0x25 PUSH1 0x0 CODECOPY PUSH1 0x0 RETURN INVALID PUSH1 0x80 PUSH1 0x40 MSTORE CALLVALUE DUP1 ISZERO PUSH2 0x10 JUMPI PUSH1 0x0 DUP1 REVERT JUMPDEST POP PUSH1 0x4 CALLDATASIZE LT PUSH2 0x41 JUMPI PUSH1 0x0 CALLDATALOAD PUSH1 0xE0 SHR DUP1 PUSH4 0xB6C52AE8 EQ PUSH2 0x46 JUMPI DUP1 PUSH4 0xBDE2B573 EQ PUSH2 0x64 JUMPI DUP1 PUSH4 0xCD6BC3DD EQ PUSH2 0x82 JUMPI JUMPDEST PUSH1 0x0 DUP1 REVERT JUMPDEST PUSH2 0x4E PUSH2 0x9E JUMP JUMPDEST PUSH1 0x40 MLOAD PUSH2 0x5B SWAP2 SWAP1 PUSH2 0x332 JUMP JUMPDEST PUSH1 0x40 MLOAD DUP1 SWAP2 SUB SWAP1 RETURN JUMPDEST PUSH2 0x6C PUSH2 0xA4 JUMP JUMPDEST PUSH1 0x40 MLOAD PUSH2 0x79 SWAP2 SWAP1 PUSH2 0x310 JUMP JUMPDEST PUSH1 0x40 MLOAD DUP1 SWAP2 SUB SWAP1 RETURN JUMPDEST PUSH2 0x9C PUSH1 0x4 DUP1 CALLDATASIZE SUB DUP2 ADD SWAP1 PUSH2 0x97 SWAP2 SWAP1 PUSH2 0x274 JUMP JUMPDEST PUSH2 0x132 JUMP JUMPDEST STOP JUMPDEST PUSH1 0x1 SLOAD DUP2 JUMP JUMPDEST PUSH1 0x0 DUP1 SLOAD PUSH2 0xB1 SWAP1 PUSH2 0x416 JUMP JUMPDEST DUP1 PUSH1 0x1F ADD PUSH1 0x20 DUP1 SWAP2 DIV MUL PUSH1 0x20 ADD PUSH1 0x40 MLOAD SWAP1 DUP2 ADD PUSH1 0x40 MSTORE DUP1 SWAP3 SWAP2 SWAP1 DUP2 DUP2 MSTORE PUSH1 0x20 ADD DUP3 DUP1 SLOAD PUSH2 0xDD SWAP1 PUSH2 0x416 JUMP JUMPDEST DUP1 ISZERO PUSH2 0x12A JUMPI DUP1 PUSH1 0x1F LT PUSH2 0xFF JUMPI PUSH2 0x100 DUP1 DUP4 SLOAD DIV MUL DUP4 MSTORE SWAP2 PUSH1 0x20 ADD SWAP2 PUSH2 0x12A JUMP JUMPDEST DUP3 ADD SWAP2 SWAP1 PUSH1 0x0 MSTORE PUSH1 0x20 PUSH1 0x0 KECCAK256 SWAP1 JUMPDEST DUP2 SLOAD DUP2 MSTORE SWAP1 PUSH1 0x1 ADD SWAP1 PUSH1 0x20 ADD DUP1 DUP4 GT PUSH2 0x10D JUMPI DUP3 SWAP1 SUB PUSH1 0x1F AND DUP3 ADD SWAP2 JUMPDEST POP POP POP POP POP DUP2 JUMP JUMPDEST DUP2 PUSH1 0x0 SWAP1 DUP1 MLOAD SWAP1 PUSH1 0x20 ADD SWAP1 PUSH2 0x148 SWAP3 SWAP2 SWAP1 PUSH2 0x154 JUMP JUMPDEST POP DUP1 PUSH1 0x1 DUP2 SWAP1 SSTORE POP POP POP JUMP JUMPDEST DUP3 DUP1 SLOAD PUSH2 0x160 SWAP1 PUSH2 0x416 JUMP JUMPDEST SWAP1 PUSH1 0x0 MSTORE PUSH1 0x20 PUSH1 0x0 KECCAK256 SWAP1 PUSH1 0x1F ADD PUSH1 0x20 SWAP1 DIV DUP2 ADD SWAP3 DUP3 PUSH2 0x182 JUMPI PUSH1 0x0 DUP6 SSTORE PUSH2 0x1C9 JUMP JUMPDEST DUP3 PUSH1 0x1F LT PUSH2 0x19B JUMPI DUP1 MLOAD PUSH1 0xFF NOT AND DUP4 DUP1 ADD OR DUP6 SSTORE PUSH2 0x1C9 JUMP JUMPDEST DUP3 DUP1 ADD PUSH1 0x1 ADD DUP6 SSTORE DUP3 ISZERO PUSH2 0x1C9 JUMPI SWAP2 DUP3 ADD JUMPDEST DUP3 DUP2 GT ISZERO PUSH2 0x1C8 JUMPI DUP3 MLOAD DUP3 SSTORE SWAP2 PUSH1 0x20 ADD SWAP2 SWAP1 PUSH1 0x1 ADD SWAP1 PUSH2 0x1AD JUMP JUMPDEST JUMPDEST POP SWAP1 POP PUSH2 0x1D6 SWAP2 SWAP1 PUSH2 0x1DA JUMP JUMPDEST POP SWAP1 JUMP JUMPDEST JUMPDEST DUP1 DUP3 GT ISZERO PUSH2 0x1F3 JUMPI PUSH1 0x0 DUP2 PUSH1 0x0 SWAP1 SSTORE POP PUSH1 0x1 ADD PUSH2 0x1DB JUMP JUMPDEST POP SWAP1 JUMP JUMPDEST PUSH1 0x0 PUSH2 0x20A PUSH2 0x205 DUP5 PUSH2 0x37E JUMP JUMPDEST PUSH2 0x34D JUMP JUMPDEST SWAP1 POP DUP3 DUP2 MSTORE PUSH1 0x20 DUP2 ADD DUP5 DUP5 DUP5 ADD GT ISZERO PUSH2 0x222 JUMPI PUSH1 0x0 DUP1 REVERT JUMPDEST PUSH2 0x22D DUP5 DUP3 DUP6 PUSH2 0x3D4 JUMP JUMPDEST POP SWAP4 SWAP3 POP POP POP JUMP JUMPDEST PUSH1 0x0 DUP3 PUSH1 0x1F DUP4 ADD SLT PUSH2 0x246 JUMPI PUSH1 0x0 DUP1 REVERT JUMPDEST DUP2 CALLDATALOAD PUSH2 0x256 DUP5 DUP3 PUSH1 0x20 DUP7 ADD PUSH2 0x1F7 JUMP JUMPDEST SWAP2 POP POP SWAP3 SWAP2 POP POP JUMP JUMPDEST PUSH1 0x0 DUP2 CALLDATALOAD SWAP1 POP PUSH2 0x26E DUP2 PUSH2 0x4B7 JUMP JUMPDEST SWAP3 SWAP2 POP POP JUMP JUMPDEST PUSH1 0x0 DUP1 PUSH1 0x40 DUP4 DUP6 SUB SLT ISZERO PUSH2 0x287 JUMPI PUSH1 0x0 DUP1 REVERT JUMPDEST PUSH1 0x0 DUP4 ADD CALLDATALOAD PUSH8 0xFFFFFFFFFFFFFFFF DUP2 GT ISZERO PUSH2 0x2A1 JUMPI PUSH1 0x0 DUP1 REVERT JUMPDEST PUSH2 0x2AD DUP6 DUP3 DUP7 ADD PUSH2 0x235 JUMP JUMPDEST SWAP3 POP POP PUSH1 0x20 PUSH2 0x2BE DUP6 DUP3 DUP7 ADD PUSH2 0x25F JUMP JUMPDEST SWAP2 POP POP SWAP3 POP SWAP3 SWAP1 POP JUMP JUMPDEST PUSH1 0x0 PUSH2 0x2D3 DUP3 PUSH2 0x3AE JUMP JUMPDEST PUSH2 0x2DD DUP2 DUP6 PUSH2 0x3B9 JUMP JUMPDEST SWAP4 POP PUSH2 0x2ED DUP2 DUP6 PUSH1 0x20 DUP7 ADD PUSH2 0x3E3 JUMP JUMPDEST PUSH2 0x2F6 DUP2 PUSH2 0x4A6 JUMP JUMPDEST DUP5 ADD SWAP2 POP POP SWAP3 SWAP2 POP POP JUMP JUMPDEST PUSH2 0x30A DUP2 PUSH2 0x3CA JUMP JUMPDEST DUP3 MSTORE POP POP JUMP JUMPDEST PUSH1 0x0 PUSH1 0x20 DUP3 ADD SWAP1 POP DUP2 DUP2 SUB PUSH1 0x0 DUP4 ADD MSTORE PUSH2 0x32A DUP2 DUP5 PUSH2 0x2C8 JUMP JUMPDEST SWAP1 POP SWAP3 SWAP2 POP POP JUMP JUMPDEST PUSH1 0x0 PUSH1 0x20 DUP3 ADD SWAP1 POP PUSH2 0x347 PUSH1 0x0 DUP4 ADD DUP5 PUSH2 0x301 JUMP JUMPDEST SWAP3 SWAP2 POP POP JUMP JUMPDEST PUSH1 0x0 PUSH1 0x40 MLOAD SWAP1 POP DUP2 DUP2 ADD DUP2 DUP2 LT PUSH8 0xFFFFFFFFFFFFFFFF DUP3 GT OR ISZERO PUSH2 0x374 JUMPI PUSH2 0x373 PUSH2 0x477 JUMP JUMPDEST JUMPDEST DUP1 PUSH1 0x40 MSTORE POP SWAP2 SWAP1 POP JUMP JUMPDEST PUSH1 0x0 PUSH8 0xFFFFFFFFFFFFFFFF DUP3 GT ISZERO PUSH2 0x399 JUMPI PUSH2 0x398 PUSH2 0x477 JUMP JUMPDEST JUMPDEST PUSH1 0x1F NOT PUSH1 0x1F DUP4 ADD AND SWAP1 POP PUSH1 0x20 DUP2 ADD SWAP1 POP SWAP2 SWAP1 POP JUMP JUMPDEST PUSH1 0x0 DUP2 MLOAD SWAP1 POP SWAP2 SWAP1 POP JUMP JUMPDEST PUSH1 0x0 DUP3 DUP3 MSTORE PUSH1 0x20 DUP3 ADD SWAP1 POP SWAP3 SWAP2 POP POP JUMP JUMPDEST PUSH1 0x0 DUP2 SWAP1 POP SWAP2 SWAP1 POP JUMP JUMPDEST DUP3 DUP2 DUP4 CALLDATACOPY PUSH1 0x0 DUP4 DUP4 ADD MSTORE POP POP POP JUMP JUMPDEST PUSH1 0x0 JUMPDEST DUP4 DUP2 LT ISZERO PUSH2 0x401 JUMPI DUP1 DUP3 ADD MLOAD DUP2 DUP5 ADD MSTORE PUSH1 0x20 DUP2 ADD SWAP1 POP PUSH2 0x3E6 JUMP JUMPDEST DUP4 DUP2 GT ISZERO PUSH2 0x410 JUMPI PUSH1 0x0 DUP5 DUP5 ADD MSTORE JUMPDEST POP POP POP POP JUMP JUMPDEST PUSH1 0x0 PUSH1 0x2 DUP3 DIV SWAP1 POP PUSH1 0x1 DUP3 AND DUP1 PUSH2 0x42E JUMPI PUSH1 0x7F DUP3 AND SWAP2 POP JUMPDEST PUSH1 0x20 DUP3 LT DUP2 EQ ISZERO PUSH2 0x442 JUMPI PUSH2 0x441 PUSH2 0x448 JUMP JUMPDEST JUMPDEST POP SWAP2 SWAP1 POP JUMP JUMPDEST PUSH32 0x4E487B7100000000000000000000000000000000000000000000000000000000 PUSH1 0x0 MSTORE PUSH1 0x22 PUSH1 0x4 MSTORE PUSH1 0x24 PUSH1 0x0 REVERT JUMPDEST PUSH32 0x4E487B7100000000000000000000000000000000000000000000000000000000 PUSH1 0x0 MSTORE PUSH1 0x41 PUSH1 0x4 MSTORE PUSH1 0x24 PUSH1 0x0 REVERT JUMPDEST PUSH1 0x0 PUSH1 0x1F NOT PUSH1 0x1F DUP4 ADD AND SWAP1 POP SWAP2 SWAP1 POP JUMP JUMPDEST PUSH2 0x4C0 DUP2 PUSH2 0x3CA JUMP JUMPDEST DUP2 EQ PUSH2 0x4CB JUMPI PUSH1 0x0 DUP1 REVERT JUMPDEST POP JUMP INVALID LOG2 PUSH5 0x6970667358 0x22 SLT KECCAK256 CALLER PUSH4 0x1E7ABC75 NUMBER 0xDC SWAP1 XOR LOG2 CALLDATALOAD STATICCALL MSTORE8 CODESIZE PUSH18 0xE2C1ED55E382DF24582A57FBA50C1FAD6473 PUSH16 0x6C634300080000330000000000000000 "
				},
				"gasEstimates": {
					"creation": {
						"codeDepositCost": "256800",
						"executionCost": "20306",
						"totalCost": "277106"
					},
					"external": {
						"addInfo(string,uint256)": "infinite",
						"hey()": "infinite",
						"no()": "1107"
					}
				},
				"methodIdentifiers": {
					"addInfo(string,uint256)": "cd6bc3dd",
					"hey()": "bde2b573",
					"no()": "b6c52ae8"
				}
			},
			"storageLayout": {
				"storage": [
					{
						"astId": 3,
						"contract": "by-daulat-hussain/solidity/01-first/demo.sol:Demo",
						"label": "hey",
						"offset": 0,
						"slot": "0",
						"type": "t_string_storage"
					},
					{
						"astId": 6,
						"contract": "by-daulat-hussain/solidity/01-first/demo.sol:Demo",
						"label": "no",
						"offset": 0,
						"slot": "1",
						"type": "t_uint256"
					}
				],
				"types": {
					"t_string_storage": {
						"encoding": "bytes",
						"label": "string",
						"numberOfBytes": "32"
					},
					"t_uint256": {
						"encoding": "inplace",
						"label": "uint256",
						"numberOfBytes": "32"
					}
				}
			},
			"userdoc": {
				"kind": "user",
				"methods": {},
				"version": 1
			}
		}
	}
}