{
	"code-eater/solodity-project/Lottery.sol": {
		"Lottery": {
			"abi": [
				{
					"inputs": [],
					"stateMutability": "nonpayable",
					"type": "constructor"
				},
				{
					"inputs": [],
					"name": "getBalance",
					"outputs": [
						{
							"internalType": "uint256",
							"name": "",
							"type": "uint256"
						}
					],
					"stateMutability": "view",
					"type": "function"
				},
				{
					"inputs": [],
					"name": "manager",
					"outputs": [
						{
							"internalType": "address",
							"name": "",
							"type": "address"
						}
					],
					"stateMutability": "view",
					"type": "function"
				},
				{
					"inputs": [
						{
							"internalType": "uint256",
							"name": "",
							"type": "uint256"
						}
					],
					"name": "participants",
					"outputs": [
						{
							"internalType": "address payable",
							"name": "",
							"type": "address"
						}
					],
					"stateMutability": "view",
					"type": "function"
				},
				{
					"inputs": [],
					"name": "random",
					"outputs": [
						{
							"internalType": "uint256",
							"name": "",
							"type": "uint256"
						}
					],
					"stateMutability": "view",
					"type": "function"
				},
				{
					"inputs": [],
					"name": "selectWinner",
					"outputs": [
						{
							"internalType": "address",
							"name": "",
							"type": "address"
						}
					],
					"stateMutability": "view",
					"type": "function"
				},
				{
					"stateMutability": "payable",
					"type": "receive"
				}
			],
			"devdoc": {
				"kind": "dev",
				"methods": {},
				"version": 1
			},
			"evm": {
				"assembly": "    /* \"code-eater/solodity-project/Lottery.sol\":61:1028  contract Lottery{... */\n  mstore(0x40, 0x80)\n    /* \"code-eater/solodity-project/Lottery.sol\":159:230  constructor(){... */\n  callvalue\n  dup1\n  iszero\n  tag_1\n  jumpi\n  0x00\n  dup1\n  revert\ntag_1:\n  pop\n    /* \"code-eater/solodity-project/Lottery.sol\":193:203  msg.sender */\n  caller\n    /* \"code-eater/solodity-project/Lottery.sol\":183:190  manager */\n  0x00\n  dup1\n    /* \"code-eater/solodity-project/Lottery.sol\":183:203  manager = msg.sender */\n  0x0100\n  exp\n  dup2\n  sload\n  dup2\n  0xffffffffffffffffffffffffffffffffffffffff\n  mul\n  not\n  and\n  swap1\n  dup4\n  0xffffffffffffffffffffffffffffffffffffffff\n  and\n  mul\n  or\n  swap1\n  sstore\n  pop\n    /* \"code-eater/solodity-project/Lottery.sol\":61:1028  contract Lottery{... */\n  dataSize(sub_0)\n  dup1\n  dataOffset(sub_0)\n  0x00\n  codecopy\n  0x00\n  return\nstop\n\nsub_0: assembly {\n        /* \"code-eater/solodity-project/Lottery.sol\":61:1028  contract Lottery{... */\n      mstore(0x40, 0x80)\n      jumpi(tag_1, lt(calldatasize, 0x04))\n      shr(0xe0, calldataload(0x00))\n      dup1\n      0x12065fe0\n      eq\n      tag_3\n      jumpi\n      dup1\n      0x33a99e04\n      eq\n      tag_4\n      jumpi\n      dup1\n      0x35c1d349\n      eq\n      tag_5\n      jumpi\n      dup1\n      0x481c6a75\n      eq\n      tag_6\n      jumpi\n      dup1\n      0x5ec01e4d\n      eq\n      tag_7\n      jumpi\n      jump(tag_2)\n    tag_1:\n      jumpi(tag_2, calldatasize)\n        /* \"code-eater/solodity-project/Lottery.sol\":296:303  1 ether */\n      0x0de0b6b3a7640000\n        /* \"code-eater/solodity-project/Lottery.sol\":283:292  msg.value */\n      callvalue\n        /* \"code-eater/solodity-project/Lottery.sol\":283:303  msg.value == 1 ether */\n      eq\n        /* \"code-eater/solodity-project/Lottery.sol\":275:304  require(msg.value == 1 ether) */\n      tag_10\n      jumpi\n      0x00\n      dup1\n      revert\n    tag_10:\n        /* \"code-eater/solodity-project/Lottery.sol\":315:327  participants */\n      0x01\n        /* \"code-eater/solodity-project/Lottery.sol\":343:353  msg.sender */\n      caller\n        /* \"code-eater/solodity-project/Lottery.sol\":315:355  participants.push( payable( msg.sender)) */\n      swap1\n      dup1\n      0x01\n      dup2\n      sload\n      add\n      dup1\n      dup3\n      sstore\n      dup1\n      swap2\n      pop\n      pop\n      0x01\n      swap1\n      sub\n      swap1\n      0x00\n      mstore\n      keccak256(0x00, 0x20)\n      add\n      0x00\n      swap1\n      swap2\n      swap1\n      swap2\n      swap1\n      swap2\n      0x0100\n      exp\n      dup2\n      sload\n      dup2\n      0xffffffffffffffffffffffffffffffffffffffff\n      mul\n      not\n      and\n      swap1\n      dup4\n      0xffffffffffffffffffffffffffffffffffffffff\n      and\n      mul\n      or\n      swap1\n      sstore\n      stop\n        /* \"code-eater/solodity-project/Lottery.sol\":61:1028  contract Lottery{... */\n    tag_2:\n      0x00\n      dup1\n      revert\n        /* \"code-eater/solodity-project/Lottery.sol\":373:516  function getBalance() public view returns(uint){... */\n    tag_3:\n      callvalue\n      dup1\n      iszero\n      tag_12\n      jumpi\n      0x00\n      dup1\n      revert\n    tag_12:\n      pop\n      tag_13\n      tag_14\n      jump\t// in\n    tag_13:\n      mload(0x40)\n      tag_15\n      swap2\n      swap1\n      tag_16\n      jump\t// in\n    tag_15:\n      mload(0x40)\n      dup1\n      swap2\n      sub\n      swap1\n      return\n        /* \"code-eater/solodity-project/Lottery.sol\":698:1017  function selectWinner() public view returns(address){... */\n    tag_4:\n      callvalue\n      dup1\n      iszero\n      tag_17\n      jumpi\n      0x00\n      dup1\n      revert\n    tag_17:\n      pop\n      tag_18\n      tag_19\n      jump\t// in\n    tag_18:\n      mload(0x40)\n      tag_20\n      swap2\n      swap1\n      tag_21\n      jump\t// in\n    tag_20:\n      mload(0x40)\n      dup1\n      swap2\n      sub\n      swap1\n      return\n        /* \"code-eater/solodity-project/Lottery.sol\":113:150  address payable[] public participants */\n    tag_5:\n      callvalue\n      dup1\n      iszero\n      tag_22\n      jumpi\n      0x00\n      dup1\n      revert\n    tag_22:\n      pop\n      tag_23\n      0x04\n      dup1\n      calldatasize\n      sub\n      dup2\n      add\n      swap1\n      tag_24\n      swap2\n      swap1\n      tag_25\n      jump\t// in\n    tag_24:\n      tag_26\n      jump\t// in\n    tag_23:\n      mload(0x40)\n      tag_27\n      swap2\n      swap1\n      tag_28\n      jump\t// in\n    tag_27:\n      mload(0x40)\n      dup1\n      swap2\n      sub\n      swap1\n      return\n        /* \"code-eater/solodity-project/Lottery.sol\":84:106  address public manager */\n    tag_6:\n      callvalue\n      dup1\n      iszero\n      tag_29\n      jumpi\n      0x00\n      dup1\n      revert\n    tag_29:\n      pop\n      tag_30\n      tag_31\n      jump\t// in\n    tag_30:\n      mload(0x40)\n      tag_32\n      swap2\n      swap1\n      tag_21\n      jump\t// in\n    tag_32:\n      mload(0x40)\n      dup1\n      swap2\n      sub\n      swap1\n      return\n        /* \"code-eater/solodity-project/Lottery.sol\":524:690  function random() public view returns (uint){... */\n    tag_7:\n      callvalue\n      dup1\n      iszero\n      tag_33\n      jumpi\n      0x00\n      dup1\n      revert\n    tag_33:\n      pop\n      tag_34\n      tag_35\n      jump\t// in\n    tag_34:\n      mload(0x40)\n      tag_36\n      swap2\n      swap1\n      tag_16\n      jump\t// in\n    tag_36:\n      mload(0x40)\n      dup1\n      swap2\n      sub\n      swap1\n      return\n        /* \"code-eater/solodity-project/Lottery.sol\":373:516  function getBalance() public view returns(uint){... */\n    tag_14:\n        /* \"code-eater/solodity-project/Lottery.sol\":415:419  uint */\n      0x00\n        /* \"code-eater/solodity-project/Lottery.sol\":453:460  manager */\n      dup1\n      0x00\n      swap1\n      sload\n      swap1\n      0x0100\n      exp\n      swap1\n      div\n      0xffffffffffffffffffffffffffffffffffffffff\n      and\n        /* \"code-eater/solodity-project/Lottery.sol\":439:460  msg.sender == manager */\n      0xffffffffffffffffffffffffffffffffffffffff\n      and\n        /* \"code-eater/solodity-project/Lottery.sol\":439:449  msg.sender */\n      caller\n        /* \"code-eater/solodity-project/Lottery.sol\":439:460  msg.sender == manager */\n      0xffffffffffffffffffffffffffffffffffffffff\n      and\n      eq\n        /* \"code-eater/solodity-project/Lottery.sol\":430:461  require( msg.sender == manager) */\n      tag_38\n      jumpi\n      0x00\n      dup1\n      revert\n    tag_38:\n        /* \"code-eater/solodity-project/Lottery.sol\":480:501  address(this).balance */\n      selfbalance\n        /* \"code-eater/solodity-project/Lottery.sol\":472:501  return  address(this).balance */\n      swap1\n      pop\n        /* \"code-eater/solodity-project/Lottery.sol\":373:516  function getBalance() public view returns(uint){... */\n      swap1\n      jump\t// out\n        /* \"code-eater/solodity-project/Lottery.sol\":698:1017  function selectWinner() public view returns(address){... */\n    tag_19:\n        /* \"code-eater/solodity-project/Lottery.sol\":742:749  address */\n      0x00\n        /* \"code-eater/solodity-project/Lottery.sol\":783:790  manager */\n      dup1\n      0x00\n      swap1\n      sload\n      swap1\n      0x0100\n      exp\n      swap1\n      div\n      0xffffffffffffffffffffffffffffffffffffffff\n      and\n        /* \"code-eater/solodity-project/Lottery.sol\":769:790  msg.sender == manager */\n      0xffffffffffffffffffffffffffffffffffffffff\n      and\n        /* \"code-eater/solodity-project/Lottery.sol\":769:779  msg.sender */\n      caller\n        /* \"code-eater/solodity-project/Lottery.sol\":769:790  msg.sender == manager */\n      0xffffffffffffffffffffffffffffffffffffffff\n      and\n      eq\n        /* \"code-eater/solodity-project/Lottery.sol\":761:791  require(msg.sender == manager) */\n      tag_40\n      jumpi\n      0x00\n      dup1\n      revert\n    tag_40:\n        /* \"code-eater/solodity-project/Lottery.sol\":832:833  3 */\n      0x03\n        /* \"code-eater/solodity-project/Lottery.sol\":810:822  participants */\n      0x01\n        /* \"code-eater/solodity-project/Lottery.sol\":810:829  participants.length */\n      dup1\n      sload\n      swap1\n      pop\n        /* \"code-eater/solodity-project/Lottery.sol\":810:833  participants.length >=3 */\n      lt\n      iszero\n        /* \"code-eater/solodity-project/Lottery.sol\":802:834  require(participants.length >=3) */\n      tag_41\n      jumpi\n      0x00\n      dup1\n      revert\n    tag_41:\n        /* \"code-eater/solodity-project/Lottery.sol\":845:851  uint r */\n      0x00\n        /* \"code-eater/solodity-project/Lottery.sol\":855:863  random() */\n      tag_42\n        /* \"code-eater/solodity-project/Lottery.sol\":855:861  random */\n      tag_35\n        /* \"code-eater/solodity-project/Lottery.sol\":855:863  random() */\n      jump\t// in\n    tag_42:\n        /* \"code-eater/solodity-project/Lottery.sol\":845:863  uint r  = random() */\n      swap1\n      pop\n        /* \"code-eater/solodity-project/Lottery.sol\":875:897  address payable winner */\n      0x00\n        /* \"code-eater/solodity-project/Lottery.sol\":908:918  uint index */\n      dup1\n        /* \"code-eater/solodity-project/Lottery.sol\":927:939  participants */\n      0x01\n        /* \"code-eater/solodity-project/Lottery.sol\":927:946  participants.length */\n      dup1\n      sload\n      swap1\n      pop\n        /* \"code-eater/solodity-project/Lottery.sol\":923:924  r */\n      dup4\n        /* \"code-eater/solodity-project/Lottery.sol\":923:946  r % participants.length */\n      tag_43\n      swap2\n      swap1\n      tag_44\n      jump\t// in\n    tag_43:\n        /* \"code-eater/solodity-project/Lottery.sol\":908:946  uint index  =  r % participants.length */\n      swap1\n      pop\n        /* \"code-eater/solodity-project/Lottery.sol\":966:978  participants */\n      0x01\n        /* \"code-eater/solodity-project/Lottery.sol\":979:984  index */\n      dup2\n        /* \"code-eater/solodity-project/Lottery.sol\":966:985  participants[index] */\n      dup2\n      sload\n      dup2\n      lt\n      tag_45\n      jumpi\n      tag_46\n      tag_47\n      jump\t// in\n    tag_46:\n    tag_45:\n      swap1\n      0x00\n      mstore\n      keccak256(0x00, 0x20)\n      add\n      0x00\n      swap1\n      sload\n      swap1\n      0x0100\n      exp\n      swap1\n      div\n      0xffffffffffffffffffffffffffffffffffffffff\n      and\n        /* \"code-eater/solodity-project/Lottery.sol\":957:985  winner = participants[index] */\n      swap2\n      pop\n        /* \"code-eater/solodity-project/Lottery.sol\":1003:1009  winner */\n      dup2\n        /* \"code-eater/solodity-project/Lottery.sol\":996:1009  return winner */\n      swap4\n      pop\n      pop\n      pop\n      pop\n        /* \"code-eater/solodity-project/Lottery.sol\":698:1017  function selectWinner() public view returns(address){... */\n      swap1\n      jump\t// out\n        /* \"code-eater/solodity-project/Lottery.sol\":113:150  address payable[] public participants */\n    tag_26:\n      0x01\n      dup2\n      dup2\n      sload\n      dup2\n      lt\n      tag_49\n      jumpi\n      0x00\n      dup1\n      revert\n    tag_49:\n      swap1\n      0x00\n      mstore\n      keccak256(0x00, 0x20)\n      add\n      0x00\n      swap2\n      pop\n      sload\n      swap1\n      0x0100\n      exp\n      swap1\n      div\n      0xffffffffffffffffffffffffffffffffffffffff\n      and\n      dup2\n      jump\t// out\n        /* \"code-eater/solodity-project/Lottery.sol\":84:106  address public manager */\n    tag_31:\n      0x00\n      dup1\n      sload\n      swap1\n      0x0100\n      exp\n      swap1\n      div\n      0xffffffffffffffffffffffffffffffffffffffff\n      and\n      dup2\n      jump\t// out\n        /* \"code-eater/solodity-project/Lottery.sol\":524:690  function random() public view returns (uint){... */\n    tag_35:\n        /* \"code-eater/solodity-project/Lottery.sol\":563:567  uint */\n      0x00\n        /* \"code-eater/solodity-project/Lottery.sol\":628:640  block.number */\n      number\n        /* \"code-eater/solodity-project/Lottery.sol\":618:641  blockhash(block.number) */\n      blockhash\n        /* \"code-eater/solodity-project/Lottery.sol\":643:658  block.timestamp */\n      timestamp\n        /* \"code-eater/solodity-project/Lottery.sol\":660:672  participants */\n      0x01\n        /* \"code-eater/solodity-project/Lottery.sol\":660:679  participants.length */\n      dup1\n      sload\n      swap1\n      pop\n        /* \"code-eater/solodity-project/Lottery.sol\":601:680  abi.encodePacked(blockhash(block.number), block.timestamp, participants.length) */\n      add(0x20, mload(0x40))\n      tag_52\n      swap4\n      swap3\n      swap2\n      swap1\n      tag_53\n      jump\t// in\n    tag_52:\n      mload(0x40)\n      0x20\n      dup2\n      dup4\n      sub\n      sub\n      dup2\n      mstore\n      swap1\n      0x40\n      mstore\n        /* \"code-eater/solodity-project/Lottery.sol\":591:681  keccak256(abi.encodePacked(blockhash(block.number), block.timestamp, participants.length)) */\n      dup1\n      mload\n      swap1\n      0x20\n      add\n      keccak256\n        /* \"code-eater/solodity-project/Lottery.sol\":584:682  uint ( keccak256(abi.encodePacked(blockhash(block.number), block.timestamp, participants.length))) */\n      0x00\n      shr\n        /* \"code-eater/solodity-project/Lottery.sol\":577:682  return uint ( keccak256(abi.encodePacked(blockhash(block.number), block.timestamp, participants.length))) */\n      swap1\n      pop\n        /* \"code-eater/solodity-project/Lottery.sol\":524:690  function random() public view returns (uint){... */\n      swap1\n      jump\t// out\n        /* \"#utility.yul\":7:84   */\n    tag_54:\n        /* \"#utility.yul\":44:51   */\n      0x00\n        /* \"#utility.yul\":73:78   */\n      dup2\n        /* \"#utility.yul\":62:78   */\n      swap1\n      pop\n        /* \"#utility.yul\":7:84   */\n      swap2\n      swap1\n      pop\n      jump\t// out\n        /* \"#utility.yul\":90:208   */\n    tag_55:\n        /* \"#utility.yul\":177:201   */\n      tag_75\n        /* \"#utility.yul\":195:200   */\n      dup2\n        /* \"#utility.yul\":177:201   */\n      tag_54\n      jump\t// in\n    tag_75:\n        /* \"#utility.yul\":172:175   */\n      dup3\n        /* \"#utility.yul\":165:202   */\n      mstore\n        /* \"#utility.yul\":90:208   */\n      pop\n      pop\n      jump\t// out\n        /* \"#utility.yul\":214:436   */\n    tag_16:\n        /* \"#utility.yul\":307:311   */\n      0x00\n        /* \"#utility.yul\":345:347   */\n      0x20\n        /* \"#utility.yul\":334:343   */\n      dup3\n        /* \"#utility.yul\":330:348   */\n      add\n        /* \"#utility.yul\":322:348   */\n      swap1\n      pop\n        /* \"#utility.yul\":358:429   */\n      tag_77\n        /* \"#utility.yul\":426:427   */\n      0x00\n        /* \"#utility.yul\":415:424   */\n      dup4\n        /* \"#utility.yul\":411:428   */\n      add\n        /* \"#utility.yul\":402:408   */\n      dup5\n        /* \"#utility.yul\":358:429   */\n      tag_55\n      jump\t// in\n    tag_77:\n        /* \"#utility.yul\":214:436   */\n      swap3\n      swap2\n      pop\n      pop\n      jump\t// out\n        /* \"#utility.yul\":442:568   */\n    tag_56:\n        /* \"#utility.yul\":479:486   */\n      0x00\n        /* \"#utility.yul\":519:561   */\n      0xffffffffffffffffffffffffffffffffffffffff\n        /* \"#utility.yul\":512:517   */\n      dup3\n        /* \"#utility.yul\":508:562   */\n      and\n        /* \"#utility.yul\":497:562   */\n      swap1\n      pop\n        /* \"#utility.yul\":442:568   */\n      swap2\n      swap1\n      pop\n      jump\t// out\n        /* \"#utility.yul\":574:670   */\n    tag_57:\n        /* \"#utility.yul\":611:618   */\n      0x00\n        /* \"#utility.yul\":640:664   */\n      tag_80\n        /* \"#utility.yul\":658:663   */\n      dup3\n        /* \"#utility.yul\":640:664   */\n      tag_56\n      jump\t// in\n    tag_80:\n        /* \"#utility.yul\":629:664   */\n      swap1\n      pop\n        /* \"#utility.yul\":574:670   */\n      swap2\n      swap1\n      pop\n      jump\t// out\n        /* \"#utility.yul\":676:794   */\n    tag_58:\n        /* \"#utility.yul\":763:787   */\n      tag_82\n        /* \"#utility.yul\":781:786   */\n      dup2\n        /* \"#utility.yul\":763:787   */\n      tag_57\n      jump\t// in\n    tag_82:\n        /* \"#utility.yul\":758:761   */\n      dup3\n        /* \"#utility.yul\":751:788   */\n      mstore\n        /* \"#utility.yul\":676:794   */\n      pop\n      pop\n      jump\t// out\n        /* \"#utility.yul\":800:1022   */\n    tag_21:\n        /* \"#utility.yul\":893:897   */\n      0x00\n        /* \"#utility.yul\":931:933   */\n      0x20\n        /* \"#utility.yul\":920:929   */\n      dup3\n        /* \"#utility.yul\":916:934   */\n      add\n        /* \"#utility.yul\":908:934   */\n      swap1\n      pop\n        /* \"#utility.yul\":944:1015   */\n      tag_84\n        /* \"#utility.yul\":1012:1013   */\n      0x00\n        /* \"#utility.yul\":1001:1010   */\n      dup4\n        /* \"#utility.yul\":997:1014   */\n      add\n        /* \"#utility.yul\":988:994   */\n      dup5\n        /* \"#utility.yul\":944:1015   */\n      tag_58\n      jump\t// in\n    tag_84:\n        /* \"#utility.yul\":800:1022   */\n      swap3\n      swap2\n      pop\n      pop\n      jump\t// out\n        /* \"#utility.yul\":1109:1226   */\n    tag_60:\n        /* \"#utility.yul\":1218:1219   */\n      0x00\n        /* \"#utility.yul\":1215:1216   */\n      dup1\n        /* \"#utility.yul\":1208:1220   */\n      revert\n        /* \"#utility.yul\":1355:1477   */\n    tag_62:\n        /* \"#utility.yul\":1428:1452   */\n      tag_89\n        /* \"#utility.yul\":1446:1451   */\n      dup2\n        /* \"#utility.yul\":1428:1452   */\n      tag_54\n      jump\t// in\n    tag_89:\n        /* \"#utility.yul\":1421:1426   */\n      dup2\n        /* \"#utility.yul\":1418:1453   */\n      eq\n        /* \"#utility.yul\":1408:1471   */\n      tag_90\n      jumpi\n        /* \"#utility.yul\":1467:1468   */\n      0x00\n        /* \"#utility.yul\":1464:1465   */\n      dup1\n        /* \"#utility.yul\":1457:1469   */\n      revert\n        /* \"#utility.yul\":1408:1471   */\n    tag_90:\n        /* \"#utility.yul\":1355:1477   */\n      pop\n      jump\t// out\n        /* \"#utility.yul\":1483:1622   */\n    tag_63:\n        /* \"#utility.yul\":1529:1534   */\n      0x00\n        /* \"#utility.yul\":1567:1573   */\n      dup2\n        /* \"#utility.yul\":1554:1574   */\n      calldataload\n        /* \"#utility.yul\":1545:1574   */\n      swap1\n      pop\n        /* \"#utility.yul\":1583:1616   */\n      tag_92\n        /* \"#utility.yul\":1610:1615   */\n      dup2\n        /* \"#utility.yul\":1583:1616   */\n      tag_62\n      jump\t// in\n    tag_92:\n        /* \"#utility.yul\":1483:1622   */\n      swap3\n      swap2\n      pop\n      pop\n      jump\t// out\n        /* \"#utility.yul\":1628:1957   */\n    tag_25:\n        /* \"#utility.yul\":1687:1693   */\n      0x00\n        /* \"#utility.yul\":1736:1738   */\n      0x20\n        /* \"#utility.yul\":1724:1733   */\n      dup3\n        /* \"#utility.yul\":1715:1722   */\n      dup5\n        /* \"#utility.yul\":1711:1734   */\n      sub\n        /* \"#utility.yul\":1707:1739   */\n      slt\n        /* \"#utility.yul\":1704:1823   */\n      iszero\n      tag_94\n      jumpi\n        /* \"#utility.yul\":1742:1821   */\n      tag_95\n      tag_60\n      jump\t// in\n    tag_95:\n        /* \"#utility.yul\":1704:1823   */\n    tag_94:\n        /* \"#utility.yul\":1862:1863   */\n      0x00\n        /* \"#utility.yul\":1887:1940   */\n      tag_96\n        /* \"#utility.yul\":1932:1939   */\n      dup5\n        /* \"#utility.yul\":1923:1929   */\n      dup3\n        /* \"#utility.yul\":1912:1921   */\n      dup6\n        /* \"#utility.yul\":1908:1930   */\n      add\n        /* \"#utility.yul\":1887:1940   */\n      tag_63\n      jump\t// in\n    tag_96:\n        /* \"#utility.yul\":1877:1940   */\n      swap2\n      pop\n        /* \"#utility.yul\":1833:1950   */\n      pop\n        /* \"#utility.yul\":1628:1957   */\n      swap3\n      swap2\n      pop\n      pop\n      jump\t// out\n        /* \"#utility.yul\":1963:2067   */\n    tag_64:\n        /* \"#utility.yul\":2008:2015   */\n      0x00\n        /* \"#utility.yul\":2037:2061   */\n      tag_98\n        /* \"#utility.yul\":2055:2060   */\n      dup3\n        /* \"#utility.yul\":2037:2061   */\n      tag_56\n      jump\t// in\n    tag_98:\n        /* \"#utility.yul\":2026:2061   */\n      swap1\n      pop\n        /* \"#utility.yul\":1963:2067   */\n      swap2\n      swap1\n      pop\n      jump\t// out\n        /* \"#utility.yul\":2073:2215   */\n    tag_65:\n        /* \"#utility.yul\":2176:2208   */\n      tag_100\n        /* \"#utility.yul\":2202:2207   */\n      dup2\n        /* \"#utility.yul\":2176:2208   */\n      tag_64\n      jump\t// in\n    tag_100:\n        /* \"#utility.yul\":2171:2174   */\n      dup3\n        /* \"#utility.yul\":2164:2209   */\n      mstore\n        /* \"#utility.yul\":2073:2215   */\n      pop\n      pop\n      jump\t// out\n        /* \"#utility.yul\":2221:2475   */\n    tag_28:\n        /* \"#utility.yul\":2330:2334   */\n      0x00\n        /* \"#utility.yul\":2368:2370   */\n      0x20\n        /* \"#utility.yul\":2357:2366   */\n      dup3\n        /* \"#utility.yul\":2353:2371   */\n      add\n        /* \"#utility.yul\":2345:2371   */\n      swap1\n      pop\n        /* \"#utility.yul\":2381:2468   */\n      tag_102\n        /* \"#utility.yul\":2465:2466   */\n      0x00\n        /* \"#utility.yul\":2454:2463   */\n      dup4\n        /* \"#utility.yul\":2450:2467   */\n      add\n        /* \"#utility.yul\":2441:2447   */\n      dup5\n        /* \"#utility.yul\":2381:2468   */\n      tag_65\n      jump\t// in\n    tag_102:\n        /* \"#utility.yul\":2221:2475   */\n      swap3\n      swap2\n      pop\n      pop\n      jump\t// out\n        /* \"#utility.yul\":2481:2661   */\n    tag_66:\n        /* \"#utility.yul\":2529:2606   */\n      0x4e487b7100000000000000000000000000000000000000000000000000000000\n        /* \"#utility.yul\":2526:2527   */\n      0x00\n        /* \"#utility.yul\":2519:2607   */\n      mstore\n        /* \"#utility.yul\":2626:2630   */\n      0x12\n        /* \"#utility.yul\":2623:2624   */\n      0x04\n        /* \"#utility.yul\":2616:2631   */\n      mstore\n        /* \"#utility.yul\":2650:2654   */\n      0x24\n        /* \"#utility.yul\":2647:2648   */\n      0x00\n        /* \"#utility.yul\":2640:2655   */\n      revert\n        /* \"#utility.yul\":2667:2843   */\n    tag_44:\n        /* \"#utility.yul\":2699:2700   */\n      0x00\n        /* \"#utility.yul\":2716:2736   */\n      tag_105\n        /* \"#utility.yul\":2734:2735   */\n      dup3\n        /* \"#utility.yul\":2716:2736   */\n      tag_54\n      jump\t// in\n    tag_105:\n        /* \"#utility.yul\":2711:2736   */\n      swap2\n      pop\n        /* \"#utility.yul\":2750:2770   */\n      tag_106\n        /* \"#utility.yul\":2768:2769   */\n      dup4\n        /* \"#utility.yul\":2750:2770   */\n      tag_54\n      jump\t// in\n    tag_106:\n        /* \"#utility.yul\":2745:2770   */\n      swap3\n      pop\n        /* \"#utility.yul\":2789:2790   */\n      dup3\n        /* \"#utility.yul\":2779:2814   */\n      tag_107\n      jumpi\n        /* \"#utility.yul\":2794:2812   */\n      tag_108\n      tag_66\n      jump\t// in\n    tag_108:\n        /* \"#utility.yul\":2779:2814   */\n    tag_107:\n        /* \"#utility.yul\":2835:2836   */\n      dup3\n        /* \"#utility.yul\":2832:2833   */\n      dup3\n        /* \"#utility.yul\":2828:2837   */\n      mod\n        /* \"#utility.yul\":2823:2837   */\n      swap1\n      pop\n        /* \"#utility.yul\":2667:2843   */\n      swap3\n      swap2\n      pop\n      pop\n      jump\t// out\n        /* \"#utility.yul\":2849:3029   */\n    tag_47:\n        /* \"#utility.yul\":2897:2974   */\n      0x4e487b7100000000000000000000000000000000000000000000000000000000\n        /* \"#utility.yul\":2894:2895   */\n      0x00\n        /* \"#utility.yul\":2887:2975   */\n      mstore\n        /* \"#utility.yul\":2994:2998   */\n      0x32\n        /* \"#utility.yul\":2991:2992   */\n      0x04\n        /* \"#utility.yul\":2984:2999   */\n      mstore\n        /* \"#utility.yul\":3018:3022   */\n      0x24\n        /* \"#utility.yul\":3015:3016   */\n      0x00\n        /* \"#utility.yul\":3008:3023   */\n      revert\n        /* \"#utility.yul\":3035:3112   */\n    tag_67:\n        /* \"#utility.yul\":3072:3079   */\n      0x00\n        /* \"#utility.yul\":3101:3106   */\n      dup2\n        /* \"#utility.yul\":3090:3106   */\n      swap1\n      pop\n        /* \"#utility.yul\":3035:3112   */\n      swap2\n      swap1\n      pop\n      jump\t// out\n        /* \"#utility.yul\":3118:3197   */\n    tag_68:\n        /* \"#utility.yul\":3157:3164   */\n      0x00\n        /* \"#utility.yul\":3186:3191   */\n      dup2\n        /* \"#utility.yul\":3175:3191   */\n      swap1\n      pop\n        /* \"#utility.yul\":3118:3197   */\n      swap2\n      swap1\n      pop\n      jump\t// out\n        /* \"#utility.yul\":3203:3360   */\n    tag_69:\n        /* \"#utility.yul\":3308:3353   */\n      tag_113\n        /* \"#utility.yul\":3328:3352   */\n      tag_114\n        /* \"#utility.yul\":3346:3351   */\n      dup3\n        /* \"#utility.yul\":3328:3352   */\n      tag_67\n      jump\t// in\n    tag_114:\n        /* \"#utility.yul\":3308:3353   */\n      tag_68\n      jump\t// in\n    tag_113:\n        /* \"#utility.yul\":3303:3306   */\n      dup3\n        /* \"#utility.yul\":3296:3354   */\n      mstore\n        /* \"#utility.yul\":3203:3360   */\n      pop\n      pop\n      jump\t// out\n        /* \"#utility.yul\":3366:3445   */\n    tag_70:\n        /* \"#utility.yul\":3405:3412   */\n      0x00\n        /* \"#utility.yul\":3434:3439   */\n      dup2\n        /* \"#utility.yul\":3423:3439   */\n      swap1\n      pop\n        /* \"#utility.yul\":3366:3445   */\n      swap2\n      swap1\n      pop\n      jump\t// out\n        /* \"#utility.yul\":3451:3608   */\n    tag_71:\n        /* \"#utility.yul\":3556:3601   */\n      tag_117\n        /* \"#utility.yul\":3576:3600   */\n      tag_118\n        /* \"#utility.yul\":3594:3599   */\n      dup3\n        /* \"#utility.yul\":3576:3600   */\n      tag_54\n      jump\t// in\n    tag_118:\n        /* \"#utility.yul\":3556:3601   */\n      tag_70\n      jump\t// in\n    tag_117:\n        /* \"#utility.yul\":3551:3554   */\n      dup3\n        /* \"#utility.yul\":3544:3602   */\n      mstore\n        /* \"#utility.yul\":3451:3608   */\n      pop\n      pop\n      jump\t// out\n        /* \"#utility.yul\":3614:4152   */\n    tag_53:\n        /* \"#utility.yul\":3782:3785   */\n      0x00\n        /* \"#utility.yul\":3797:3872   */\n      tag_120\n        /* \"#utility.yul\":3868:3871   */\n      dup3\n        /* \"#utility.yul\":3859:3865   */\n      dup7\n        /* \"#utility.yul\":3797:3872   */\n      tag_69\n      jump\t// in\n    tag_120:\n        /* \"#utility.yul\":3897:3899   */\n      0x20\n        /* \"#utility.yul\":3892:3895   */\n      dup3\n        /* \"#utility.yul\":3888:3900   */\n      add\n        /* \"#utility.yul\":3881:3900   */\n      swap2\n      pop\n        /* \"#utility.yul\":3910:3985   */\n      tag_121\n        /* \"#utility.yul\":3981:3984   */\n      dup3\n        /* \"#utility.yul\":3972:3978   */\n      dup6\n        /* \"#utility.yul\":3910:3985   */\n      tag_71\n      jump\t// in\n    tag_121:\n        /* \"#utility.yul\":4010:4012   */\n      0x20\n        /* \"#utility.yul\":4005:4008   */\n      dup3\n        /* \"#utility.yul\":4001:4013   */\n      add\n        /* \"#utility.yul\":3994:4013   */\n      swap2\n      pop\n        /* \"#utility.yul\":4023:4098   */\n      tag_122\n        /* \"#utility.yul\":4094:4097   */\n      dup3\n        /* \"#utility.yul\":4085:4091   */\n      dup5\n        /* \"#utility.yul\":4023:4098   */\n      tag_71\n      jump\t// in\n    tag_122:\n        /* \"#utility.yul\":4123:4125   */\n      0x20\n        /* \"#utility.yul\":4118:4121   */\n      dup3\n        /* \"#utility.yul\":4114:4126   */\n      add\n        /* \"#utility.yul\":4107:4126   */\n      swap2\n      pop\n        /* \"#utility.yul\":4143:4146   */\n      dup2\n        /* \"#utility.yul\":4136:4146   */\n      swap1\n      pop\n        /* \"#utility.yul\":3614:4152   */\n      swap5\n      swap4\n      pop\n      pop\n      pop\n      pop\n      jump\t// out\n\n    auxdata: 0xa2646970667358221220fe7adb6dfb1156e540c3942188ea5d8a8dc7c883b924cc6b1d1ba015add124bd64736f6c63430008120033\n}\n",
				"bytecode": {
					"linkReferences": {},
					"object": "608060405234801561001057600080fd5b50336000806101000a81548173ffffffffffffffffffffffffffffffffffffffff021916908373ffffffffffffffffffffffffffffffffffffffff16021790555061060a806100606000396000f3fe60806040526004361061004e5760003560e01c806312065fe0146100d057806333a99e04146100fb57806335c1d34914610126578063481c6a75146101635780635ec01e4d1461018e576100cb565b366100cb57670de0b6b3a7640000341461006757600080fd5b6001339080600181540180825580915050600190039060005260206000200160009091909190916101000a81548173ffffffffffffffffffffffffffffffffffffffff021916908373ffffffffffffffffffffffffffffffffffffffff1602179055005b600080fd5b3480156100dc57600080fd5b506100e56101b9565b6040516100f291906103ab565b60405180910390f35b34801561010757600080fd5b5061011061021a565b60405161011d9190610407565b60405180910390f35b34801561013257600080fd5b5061014d60048036038101906101489190610453565b6102f4565b60405161015a91906104a1565b60405180910390f35b34801561016f57600080fd5b50610178610333565b6040516101859190610407565b60405180910390f35b34801561019a57600080fd5b506101a3610357565b6040516101b091906103ab565b60405180910390f35b60008060009054906101000a900473ffffffffffffffffffffffffffffffffffffffff1673ffffffffffffffffffffffffffffffffffffffff163373ffffffffffffffffffffffffffffffffffffffff161461021457600080fd5b47905090565b60008060009054906101000a900473ffffffffffffffffffffffffffffffffffffffff1673ffffffffffffffffffffffffffffffffffffffff163373ffffffffffffffffffffffffffffffffffffffff161461027557600080fd5b6003600180549050101561028857600080fd5b6000610292610357565b9050600080600180549050836102a891906104eb565b9050600181815481106102be576102bd61051c565b5b9060005260206000200160009054906101000a900473ffffffffffffffffffffffffffffffffffffffff16915081935050505090565b6001818154811061030457600080fd5b906000526020600020016000915054906101000a900473ffffffffffffffffffffffffffffffffffffffff1681565b60008054906101000a900473ffffffffffffffffffffffffffffffffffffffff1681565b600043404260018054905060405160200161037493929190610597565b6040516020818303038152906040528051906020012060001c905090565b6000819050919050565b6103a581610392565b82525050565b60006020820190506103c0600083018461039c565b92915050565b600073ffffffffffffffffffffffffffffffffffffffff82169050919050565b60006103f1826103c6565b9050919050565b610401816103e6565b82525050565b600060208201905061041c60008301846103f8565b92915050565b600080fd5b61043081610392565b811461043b57600080fd5b50565b60008135905061044d81610427565b92915050565b60006020828403121561046957610468610422565b5b60006104778482850161043e565b91505092915050565b600061048b826103c6565b9050919050565b61049b81610480565b82525050565b60006020820190506104b66000830184610492565b92915050565b7f4e487b7100000000000000000000000000000000000000000000000000000000600052601260045260246000fd5b60006104f682610392565b915061050183610392565b925082610511576105106104bc565b5b828206905092915050565b7f4e487b7100000000000000000000000000000000000000000000000000000000600052603260045260246000fd5b6000819050919050565b6000819050919050565b61057061056b8261054b565b610555565b82525050565b6000819050919050565b61059161058c82610392565b610576565b82525050565b60006105a3828661055f565b6020820191506105b38285610580565b6020820191506105c38284610580565b60208201915081905094935050505056fea2646970667358221220fe7adb6dfb1156e540c3942188ea5d8a8dc7c883b924cc6b1d1ba015add124bd64736f6c63430008120033",
					"opcodes": "PUSH1 0x80 PUSH1 0x40 MSTORE CALLVALUE DUP1 ISZERO PUSH2 0x10 JUMPI PUSH1 0x0 DUP1 REVERT JUMPDEST POP CALLER PUSH1 0x0 DUP1 PUSH2 0x100 EXP DUP2 SLOAD DUP2 PUSH20 0xFFFFFFFFFFFFFFFFFFFFFFFFFFFFFFFFFFFFFFFF MUL NOT AND SWAP1 DUP4 PUSH20 0xFFFFFFFFFFFFFFFFFFFFFFFFFFFFFFFFFFFFFFFF AND MUL OR SWAP1 SSTORE POP PUSH2 0x60A DUP1 PUSH2 0x60 PUSH1 0x0 CODECOPY PUSH1 0x0 RETURN INVALID PUSH1 0x80 PUSH1 0x40 MSTORE PUSH1 0x4 CALLDATASIZE LT PUSH2 0x4E JUMPI PUSH1 0x0 CALLDATALOAD PUSH1 0xE0 SHR DUP1 PUSH4 0x12065FE0 EQ PUSH2 0xD0 JUMPI DUP1 PUSH4 0x33A99E04 EQ PUSH2 0xFB JUMPI DUP1 PUSH4 0x35C1D349 EQ PUSH2 0x126 JUMPI DUP1 PUSH4 0x481C6A75 EQ PUSH2 0x163 JUMPI DUP1 PUSH4 0x5EC01E4D EQ PUSH2 0x18E JUMPI PUSH2 0xCB JUMP JUMPDEST CALLDATASIZE PUSH2 0xCB JUMPI PUSH8 0xDE0B6B3A7640000 CALLVALUE EQ PUSH2 0x67 JUMPI PUSH1 0x0 DUP1 REVERT JUMPDEST PUSH1 0x1 CALLER SWAP1 DUP1 PUSH1 0x1 DUP2 SLOAD ADD DUP1 DUP3 SSTORE DUP1 SWAP2 POP POP PUSH1 0x1 SWAP1 SUB SWAP1 PUSH1 0x0 MSTORE PUSH1 0x20 PUSH1 0x0 KECCAK256 ADD PUSH1 0x0 SWAP1 SWAP2 SWAP1 SWAP2 SWAP1 SWAP2 PUSH2 0x100 EXP DUP2 SLOAD DUP2 PUSH20 0xFFFFFFFFFFFFFFFFFFFFFFFFFFFFFFFFFFFFFFFF MUL NOT AND SWAP1 DUP4 PUSH20 0xFFFFFFFFFFFFFFFFFFFFFFFFFFFFFFFFFFFFFFFF AND MUL OR SWAP1 SSTORE STOP JUMPDEST PUSH1 0x0 DUP1 REVERT JUMPDEST CALLVALUE DUP1 ISZERO PUSH2 0xDC JUMPI PUSH1 0x0 DUP1 REVERT JUMPDEST POP PUSH2 0xE5 PUSH2 0x1B9 JUMP JUMPDEST PUSH1 0x40 MLOAD PUSH2 0xF2 SWAP2 SWAP1 PUSH2 0x3AB JUMP JUMPDEST PUSH1 0x40 MLOAD DUP1 SWAP2 SUB SWAP1 RETURN JUMPDEST CALLVALUE DUP1 ISZERO PUSH2 0x107 JUMPI PUSH1 0x0 DUP1 REVERT JUMPDEST POP PUSH2 0x110 PUSH2 0x21A JUMP JUMPDEST PUSH1 0x40 MLOAD PUSH2 0x11D SWAP2 SWAP1 PUSH2 0x407 JUMP JUMPDEST PUSH1 0x40 MLOAD DUP1 SWAP2 SUB SWAP1 RETURN JUMPDEST CALLVALUE DUP1 ISZERO PUSH2 0x132 JUMPI PUSH1 0x0 DUP1 REVERT JUMPDEST POP PUSH2 0x14D PUSH1 0x4 DUP1 CALLDATASIZE SUB DUP2 ADD SWAP1 PUSH2 0x148 SWAP2 SWAP1 PUSH2 0x453 JUMP JUMPDEST PUSH2 0x2F4 JUMP JUMPDEST PUSH1 0x40 MLOAD PUSH2 0x15A SWAP2 SWAP1 PUSH2 0x4A1 JUMP JUMPDEST PUSH1 0x40 MLOAD DUP1 SWAP2 SUB SWAP1 RETURN JUMPDEST CALLVALUE DUP1 ISZERO PUSH2 0x16F JUMPI PUSH1 0x0 DUP1 REVERT JUMPDEST POP PUSH2 0x178 PUSH2 0x333 JUMP JUMPDEST PUSH1 0x40 MLOAD PUSH2 0x185 SWAP2 SWAP1 PUSH2 0x407 JUMP JUMPDEST PUSH1 0x40 MLOAD DUP1 SWAP2 SUB SWAP1 RETURN JUMPDEST CALLVALUE DUP1 ISZERO PUSH2 0x19A JUMPI PUSH1 0x0 DUP1 REVERT JUMPDEST POP PUSH2 0x1A3 PUSH2 0x357 JUMP JUMPDEST PUSH1 0x40 MLOAD PUSH2 0x1B0 SWAP2 SWAP1 PUSH2 0x3AB JUMP JUMPDEST PUSH1 0x40 MLOAD DUP1 SWAP2 SUB SWAP1 RETURN JUMPDEST PUSH1 0x0 DUP1 PUSH1 0x0 SWAP1 SLOAD SWAP1 PUSH2 0x100 EXP SWAP1 DIV PUSH20 0xFFFFFFFFFFFFFFFFFFFFFFFFFFFFFFFFFFFFFFFF AND PUSH20 0xFFFFFFFFFFFFFFFFFFFFFFFFFFFFFFFFFFFFFFFF AND CALLER PUSH20 0xFFFFFFFFFFFFFFFFFFFFFFFFFFFFFFFFFFFFFFFF AND EQ PUSH2 0x214 JUMPI PUSH1 0x0 DUP1 REVERT JUMPDEST SELFBALANCE SWAP1 POP SWAP1 JUMP JUMPDEST PUSH1 0x0 DUP1 PUSH1 0x0 SWAP1 SLOAD SWAP1 PUSH2 0x100 EXP SWAP1 DIV PUSH20 0xFFFFFFFFFFFFFFFFFFFFFFFFFFFFFFFFFFFFFFFF AND PUSH20 0xFFFFFFFFFFFFFFFFFFFFFFFFFFFFFFFFFFFFFFFF AND CALLER PUSH20 0xFFFFFFFFFFFFFFFFFFFFFFFFFFFFFFFFFFFFFFFF AND EQ PUSH2 0x275 JUMPI PUSH1 0x0 DUP1 REVERT JUMPDEST PUSH1 0x3 PUSH1 0x1 DUP1 SLOAD SWAP1 POP LT ISZERO PUSH2 0x288 JUMPI PUSH1 0x0 DUP1 REVERT JUMPDEST PUSH1 0x0 PUSH2 0x292 PUSH2 0x357 JUMP JUMPDEST SWAP1 POP PUSH1 0x0 DUP1 PUSH1 0x1 DUP1 SLOAD SWAP1 POP DUP4 PUSH2 0x2A8 SWAP2 SWAP1 PUSH2 0x4EB JUMP JUMPDEST SWAP1 POP PUSH1 0x1 DUP2 DUP2 SLOAD DUP2 LT PUSH2 0x2BE JUMPI PUSH2 0x2BD PUSH2 0x51C JUMP JUMPDEST JUMPDEST SWAP1 PUSH1 0x0 MSTORE PUSH1 0x20 PUSH1 0x0 KECCAK256 ADD PUSH1 0x0 SWAP1 SLOAD SWAP1 PUSH2 0x100 EXP SWAP1 DIV PUSH20 0xFFFFFFFFFFFFFFFFFFFFFFFFFFFFFFFFFFFFFFFF AND SWAP2 POP DUP2 SWAP4 POP POP POP POP SWAP1 JUMP JUMPDEST PUSH1 0x1 DUP2 DUP2 SLOAD DUP2 LT PUSH2 0x304 JUMPI PUSH1 0x0 DUP1 REVERT JUMPDEST SWAP1 PUSH1 0x0 MSTORE PUSH1 0x20 PUSH1 0x0 KECCAK256 ADD PUSH1 0x0 SWAP2 POP SLOAD SWAP1 PUSH2 0x100 EXP SWAP1 DIV PUSH20 0xFFFFFFFFFFFFFFFFFFFFFFFFFFFFFFFFFFFFFFFF AND DUP2 JUMP JUMPDEST PUSH1 0x0 DUP1 SLOAD SWAP1 PUSH2 0x100 EXP SWAP1 DIV PUSH20 0xFFFFFFFFFFFFFFFFFFFFFFFFFFFFFFFFFFFFFFFF AND DUP2 JUMP JUMPDEST PUSH1 0x0 NUMBER BLOCKHASH TIMESTAMP PUSH1 0x1 DUP1 SLOAD SWAP1 POP PUSH1 0x40 MLOAD PUSH1 0x20 ADD PUSH2 0x374 SWAP4 SWAP3 SWAP2 SWAP1 PUSH2 0x597 JUMP JUMPDEST PUSH1 0x40 MLOAD PUSH1 0x20 DUP2 DUP4 SUB SUB DUP2 MSTORE SWAP1 PUSH1 0x40 MSTORE DUP1 MLOAD SWAP1 PUSH1 0x20 ADD KECCAK256 PUSH1 0x0 SHR SWAP1 POP SWAP1 JUMP JUMPDEST PUSH1 0x0 DUP2 SWAP1 POP SWAP2 SWAP1 POP JUMP JUMPDEST PUSH2 0x3A5 DUP2 PUSH2 0x392 JUMP JUMPDEST DUP3 MSTORE POP POP JUMP JUMPDEST PUSH1 0x0 PUSH1 0x20 DUP3 ADD SWAP1 POP PUSH2 0x3C0 PUSH1 0x0 DUP4 ADD DUP5 PUSH2 0x39C JUMP JUMPDEST SWAP3 SWAP2 POP POP JUMP JUMPDEST PUSH1 0x0 PUSH20 0xFFFFFFFFFFFFFFFFFFFFFFFFFFFFFFFFFFFFFFFF DUP3 AND SWAP1 POP SWAP2 SWAP1 POP JUMP JUMPDEST PUSH1 0x0 PUSH2 0x3F1 DUP3 PUSH2 0x3C6 JUMP JUMPDEST SWAP1 POP SWAP2 SWAP1 POP JUMP JUMPDEST PUSH2 0x401 DUP2 PUSH2 0x3E6 JUMP JUMPDEST DUP3 MSTORE POP POP JUMP JUMPDEST PUSH1 0x0 PUSH1 0x20 DUP3 ADD SWAP1 POP PUSH2 0x41C PUSH1 0x0 DUP4 ADD DUP5 PUSH2 0x3F8 JUMP JUMPDEST SWAP3 SWAP2 POP POP JUMP JUMPDEST PUSH1 0x0 DUP1 REVERT JUMPDEST PUSH2 0x430 DUP2 PUSH2 0x392 JUMP JUMPDEST DUP2 EQ PUSH2 0x43B JUMPI PUSH1 0x0 DUP1 REVERT JUMPDEST POP JUMP JUMPDEST PUSH1 0x0 DUP2 CALLDATALOAD SWAP1 POP PUSH2 0x44D DUP2 PUSH2 0x427 JUMP JUMPDEST SWAP3 SWAP2 POP POP JUMP JUMPDEST PUSH1 0x0 PUSH1 0x20 DUP3 DUP5 SUB SLT ISZERO PUSH2 0x469 JUMPI PUSH2 0x468 PUSH2 0x422 JUMP JUMPDEST JUMPDEST PUSH1 0x0 PUSH2 0x477 DUP5 DUP3 DUP6 ADD PUSH2 0x43E JUMP JUMPDEST SWAP2 POP POP SWAP3 SWAP2 POP POP JUMP JUMPDEST PUSH1 0x0 PUSH2 0x48B DUP3 PUSH2 0x3C6 JUMP JUMPDEST SWAP1 POP SWAP2 SWAP1 POP JUMP JUMPDEST PUSH2 0x49B DUP2 PUSH2 0x480 JUMP JUMPDEST DUP3 MSTORE POP POP JUMP JUMPDEST PUSH1 0x0 PUSH1 0x20 DUP3 ADD SWAP1 POP PUSH2 0x4B6 PUSH1 0x0 DUP4 ADD DUP5 PUSH2 0x492 JUMP JUMPDEST SWAP3 SWAP2 POP POP JUMP JUMPDEST PUSH32 0x4E487B7100000000000000000000000000000000000000000000000000000000 PUSH1 0x0 MSTORE PUSH1 0x12 PUSH1 0x4 MSTORE PUSH1 0x24 PUSH1 0x0 REVERT JUMPDEST PUSH1 0x0 PUSH2 0x4F6 DUP3 PUSH2 0x392 JUMP JUMPDEST SWAP2 POP PUSH2 0x501 DUP4 PUSH2 0x392 JUMP JUMPDEST SWAP3 POP DUP3 PUSH2 0x511 JUMPI PUSH2 0x510 PUSH2 0x4BC JUMP JUMPDEST JUMPDEST DUP3 DUP3 MOD SWAP1 POP SWAP3 SWAP2 POP POP JUMP JUMPDEST PUSH32 0x4E487B7100000000000000000000000000000000000000000000000000000000 PUSH1 0x0 MSTORE PUSH1 0x32 PUSH1 0x4 MSTORE PUSH1 0x24 PUSH1 0x0 REVERT JUMPDEST PUSH1 0x0 DUP2 SWAP1 POP SWAP2 SWAP1 POP JUMP JUMPDEST PUSH1 0x0 DUP2 SWAP1 POP SWAP2 SWAP1 POP JUMP JUMPDEST PUSH2 0x570 PUSH2 0x56B DUP3 PUSH2 0x54B JUMP JUMPDEST PUSH2 0x555 JUMP JUMPDEST DUP3 MSTORE POP POP JUMP JUMPDEST PUSH1 0x0 DUP2 SWAP1 POP SWAP2 SWAP1 POP JUMP JUMPDEST PUSH2 0x591 PUSH2 0x58C DUP3 PUSH2 0x392 JUMP JUMPDEST PUSH2 0x576 JUMP JUMPDEST DUP3 MSTORE POP POP JUMP JUMPDEST PUSH1 0x0 PUSH2 0x5A3 DUP3 DUP7 PUSH2 0x55F JUMP JUMPDEST PUSH1 0x20 DUP3 ADD SWAP2 POP PUSH2 0x5B3 DUP3 DUP6 PUSH2 0x580 JUMP JUMPDEST PUSH1 0x20 DUP3 ADD SWAP2 POP PUSH2 0x5C3 DUP3 DUP5 PUSH2 0x580 JUMP JUMPDEST PUSH1 0x20 DUP3 ADD SWAP2 POP DUP2 SWAP1 POP SWAP5 SWAP4 POP POP POP POP JUMP INVALID LOG2 PUSH5 0x6970667358 0x22 SLT KECCAK256 INVALID PUSH27 0xDB6DFB1156E540C3942188EA5D8A8DC7C883B924CC6B1D1BA015AD 0xD1 0x24 0xBD PUSH5 0x736F6C6343 STOP ADDMOD SLT STOP CALLER "
				},
				"gasEstimates": {
					"creation": {
						"codeDepositCost": "309200",
						"executionCost": "24615",
						"totalCost": "333815"
					},
					"external": {
						"getBalance()": "2487",
						"manager()": "2555",
						"participants(uint256)": "4978",
						"random()": "infinite",
						"selectWinner()": "infinite"
					}
				},
				"methodIdentifiers": {
					"getBalance()": "12065fe0",
					"manager()": "481c6a75",
					"participants(uint256)": "35c1d349",
					"random()": "5ec01e4d",
					"selectWinner()": "33a99e04"
				}
			},
			"storageLayout": {
				"storage": [
					{
						"astId": 3,
						"contract": "code-eater/solodity-project/Lottery.sol:Lottery",
						"label": "manager",
						"offset": 0,
						"slot": "0",
						"type": "t_address"
					},
					{
						"astId": 6,
						"contract": "code-eater/solodity-project/Lottery.sol:Lottery",
						"label": "participants",
						"offset": 0,
						"slot": "1",
						"type": "t_array(t_address_payable)dyn_storage"
					}
				],
				"types": {
					"t_address": {
						"encoding": "inplace",
						"label": "address",
						"numberOfBytes": "20"
					},
					"t_address_payable": {
						"encoding": "inplace",
						"label": "address payable",
						"numberOfBytes": "20"
					},
					"t_array(t_address_payable)dyn_storage": {
						"base": "t_address_payable",
						"encoding": "dynamic_array",
						"label": "address payable[]",
						"numberOfBytes": "32"
					}
				}
			},
			"userdoc": {
				"kind": "user",
				"methods": {},
				"version": 1
			}
		}
	}
}