{
	"by-daulat-hussain/solidity/02-counter/demo.sol": {
		"Demo": {
			"abi": [
				{
					"inputs": [],
					"name": "addNFT",
					"outputs": [],
					"stateMutability": "nonpayable",
					"type": "function"
				},
				{
					"inputs": [],
					"name": "checkTotalNFT",
					"outputs": [
						{
							"internalType": "uint256",
							"name": "",
							"type": "uint256"
						}
					],
					"stateMutability": "view",
					"type": "function"
				},
				{
					"inputs": [],
					"name": "deleteNFT",
					"outputs": [],
					"stateMutability": "nonpayable",
					"type": "function"
				},
				{
					"inputs": [],
					"name": "numberUfNFT",
					"outputs": [
						{
							"internalType": "uint256",
							"name": "",
							"type": "uint256"
						}
					],
					"stateMutability": "view",
					"type": "function"
				}
			],
			"devdoc": {
				"kind": "dev",
				"methods": {},
				"version": 1
			},
			"evm": {
				"assembly": "    /* \"by-daulat-hussain/solidity/02-counter/demo.sol\":60:347  contract Demo{\r... */\n  mstore(0x40, 0x80)\n  callvalue\n  dup1\n  iszero\n  tag_1\n  jumpi\n  0x00\n  dup1\n  revert\ntag_1:\n  pop\n  dataSize(sub_0)\n  dup1\n  dataOffset(sub_0)\n  0x00\n  codecopy\n  0x00\n  return\nstop\n\nsub_0: assembly {\n        /* \"by-daulat-hussain/solidity/02-counter/demo.sol\":60:347  contract Demo{\r... */\n      mstore(0x40, 0x80)\n      callvalue\n      dup1\n      iszero\n      tag_1\n      jumpi\n      0x00\n      dup1\n      revert\n    tag_1:\n      pop\n      jumpi(tag_2, lt(calldatasize, 0x04))\n      shr(0xe0, calldataload(0x00))\n      dup1\n      0x3d82faf0\n      eq\n      tag_3\n      jumpi\n      dup1\n      0x8acc7b47\n      eq\n      tag_4\n      jumpi\n      dup1\n      0xe02b87bb\n      eq\n      tag_5\n      jumpi\n      dup1\n      0xe1607d06\n      eq\n      tag_6\n      jumpi\n    tag_2:\n      0x00\n      dup1\n      revert\n        /* \"by-daulat-hussain/solidity/02-counter/demo.sol\":253:344  function checkTotalNFT() public view returns(uint256) {\r... */\n    tag_3:\n      tag_7\n      tag_8\n      jump\t// in\n    tag_7:\n      mload(0x40)\n      tag_9\n      swap2\n      swap1\n      tag_10\n      jump\t// in\n    tag_9:\n      mload(0x40)\n      dup1\n      swap2\n      sub\n      swap1\n      return\n        /* \"by-daulat-hussain/solidity/02-counter/demo.sol\":112:173  function addNFT() public  {\r... */\n    tag_4:\n      tag_11\n      tag_12\n      jump\t// in\n    tag_11:\n      stop\n        /* \"by-daulat-hussain/solidity/02-counter/demo.sol\":181:245  function deleteNFT() public  {\r... */\n    tag_5:\n      tag_13\n      tag_14\n      jump\t// in\n    tag_13:\n      stop\n        /* \"by-daulat-hussain/solidity/02-counter/demo.sol\":80:103  uint public numberUfNFT */\n    tag_6:\n      tag_15\n      tag_16\n      jump\t// in\n    tag_15:\n      mload(0x40)\n      tag_17\n      swap2\n      swap1\n      tag_10\n      jump\t// in\n    tag_17:\n      mload(0x40)\n      dup1\n      swap2\n      sub\n      swap1\n      return\n        /* \"by-daulat-hussain/solidity/02-counter/demo.sol\":253:344  function checkTotalNFT() public view returns(uint256) {\r... */\n    tag_8:\n        /* \"by-daulat-hussain/solidity/02-counter/demo.sol\":298:305  uint256 */\n      0x00\n        /* \"by-daulat-hussain/solidity/02-counter/demo.sol\":325:336  numberUfNFT */\n      dup1\n      sload\n        /* \"by-daulat-hussain/solidity/02-counter/demo.sol\":318:336  return numberUfNFT */\n      swap1\n      pop\n        /* \"by-daulat-hussain/solidity/02-counter/demo.sol\":253:344  function checkTotalNFT() public view returns(uint256) {\r... */\n      swap1\n      jump\t// out\n        /* \"by-daulat-hussain/solidity/02-counter/demo.sol\":112:173  function addNFT() public  {\r... */\n    tag_12:\n        /* \"by-daulat-hussain/solidity/02-counter/demo.sol\":164:165  1 */\n      0x01\n        /* \"by-daulat-hussain/solidity/02-counter/demo.sol\":149:160  numberUfNFT */\n      0x00\n      dup1\n        /* \"by-daulat-hussain/solidity/02-counter/demo.sol\":149:165  numberUfNFT += 1 */\n      dup3\n      dup3\n      sload\n      tag_20\n      swap2\n      swap1\n      tag_21\n      jump\t// in\n    tag_20:\n      swap3\n      pop\n      pop\n      dup2\n      swap1\n      sstore\n      pop\n        /* \"by-daulat-hussain/solidity/02-counter/demo.sol\":112:173  function addNFT() public  {\r... */\n      jump\t// out\n        /* \"by-daulat-hussain/solidity/02-counter/demo.sol\":181:245  function deleteNFT() public  {\r... */\n    tag_14:\n        /* \"by-daulat-hussain/solidity/02-counter/demo.sol\":236:237  1 */\n      0x01\n        /* \"by-daulat-hussain/solidity/02-counter/demo.sol\":221:232  numberUfNFT */\n      0x00\n      dup1\n        /* \"by-daulat-hussain/solidity/02-counter/demo.sol\":221:237  numberUfNFT -= 1 */\n      dup3\n      dup3\n      sload\n      tag_23\n      swap2\n      swap1\n      tag_24\n      jump\t// in\n    tag_23:\n      swap3\n      pop\n      pop\n      dup2\n      swap1\n      sstore\n      pop\n        /* \"by-daulat-hussain/solidity/02-counter/demo.sol\":181:245  function deleteNFT() public  {\r... */\n      jump\t// out\n        /* \"by-daulat-hussain/solidity/02-counter/demo.sol\":80:103  uint public numberUfNFT */\n    tag_16:\n      sload(0x00)\n      dup2\n      jump\t// out\n        /* \"#utility.yul\":7:125   */\n    tag_26:\n        /* \"#utility.yul\":94:118   */\n      tag_28\n        /* \"#utility.yul\":112:117   */\n      dup2\n        /* \"#utility.yul\":94:118   */\n      tag_29\n      jump\t// in\n    tag_28:\n        /* \"#utility.yul\":89:92   */\n      dup3\n        /* \"#utility.yul\":82:119   */\n      mstore\n        /* \"#utility.yul\":72:125   */\n      pop\n      pop\n      jump\t// out\n        /* \"#utility.yul\":131:353   */\n    tag_10:\n      0x00\n        /* \"#utility.yul\":262:264   */\n      0x20\n        /* \"#utility.yul\":251:260   */\n      dup3\n        /* \"#utility.yul\":247:265   */\n      add\n        /* \"#utility.yul\":239:265   */\n      swap1\n      pop\n        /* \"#utility.yul\":275:346   */\n      tag_31\n        /* \"#utility.yul\":343:344   */\n      0x00\n        /* \"#utility.yul\":332:341   */\n      dup4\n        /* \"#utility.yul\":328:345   */\n      add\n        /* \"#utility.yul\":319:325   */\n      dup5\n        /* \"#utility.yul\":275:346   */\n      tag_26\n      jump\t// in\n    tag_31:\n        /* \"#utility.yul\":229:353   */\n      swap3\n      swap2\n      pop\n      pop\n      jump\t// out\n        /* \"#utility.yul\":359:664   */\n    tag_21:\n      0x00\n        /* \"#utility.yul\":418:438   */\n      tag_33\n        /* \"#utility.yul\":436:437   */\n      dup3\n        /* \"#utility.yul\":418:438   */\n      tag_29\n      jump\t// in\n    tag_33:\n        /* \"#utility.yul\":413:438   */\n      swap2\n      pop\n        /* \"#utility.yul\":452:472   */\n      tag_34\n        /* \"#utility.yul\":470:471   */\n      dup4\n        /* \"#utility.yul\":452:472   */\n      tag_29\n      jump\t// in\n    tag_34:\n        /* \"#utility.yul\":447:472   */\n      swap3\n      pop\n        /* \"#utility.yul\":606:607   */\n      dup3\n        /* \"#utility.yul\":538:604   */\n      0xffffffffffffffffffffffffffffffffffffffffffffffffffffffffffffffff\n        /* \"#utility.yul\":534:608   */\n      sub\n        /* \"#utility.yul\":531:532   */\n      dup3\n        /* \"#utility.yul\":528:609   */\n      gt\n        /* \"#utility.yul\":525:527   */\n      iszero\n      tag_35\n      jumpi\n        /* \"#utility.yul\":612:630   */\n      tag_36\n      tag_37\n      jump\t// in\n    tag_36:\n        /* \"#utility.yul\":525:527   */\n    tag_35:\n        /* \"#utility.yul\":656:657   */\n      dup3\n        /* \"#utility.yul\":653:654   */\n      dup3\n        /* \"#utility.yul\":649:658   */\n      add\n        /* \"#utility.yul\":642:658   */\n      swap1\n      pop\n        /* \"#utility.yul\":403:664   */\n      swap3\n      swap2\n      pop\n      pop\n      jump\t// out\n        /* \"#utility.yul\":670:861   */\n    tag_24:\n      0x00\n        /* \"#utility.yul\":730:750   */\n      tag_39\n        /* \"#utility.yul\":748:749   */\n      dup3\n        /* \"#utility.yul\":730:750   */\n      tag_29\n      jump\t// in\n    tag_39:\n        /* \"#utility.yul\":725:750   */\n      swap2\n      pop\n        /* \"#utility.yul\":764:784   */\n      tag_40\n        /* \"#utility.yul\":782:783   */\n      dup4\n        /* \"#utility.yul\":764:784   */\n      tag_29\n      jump\t// in\n    tag_40:\n        /* \"#utility.yul\":759:784   */\n      swap3\n      pop\n        /* \"#utility.yul\":803:804   */\n      dup3\n        /* \"#utility.yul\":800:801   */\n      dup3\n        /* \"#utility.yul\":797:805   */\n      lt\n        /* \"#utility.yul\":794:796   */\n      iszero\n      tag_41\n      jumpi\n        /* \"#utility.yul\":808:826   */\n      tag_42\n      tag_37\n      jump\t// in\n    tag_42:\n        /* \"#utility.yul\":794:796   */\n    tag_41:\n        /* \"#utility.yul\":853:854   */\n      dup3\n        /* \"#utility.yul\":850:851   */\n      dup3\n        /* \"#utility.yul\":846:855   */\n      sub\n        /* \"#utility.yul\":838:855   */\n      swap1\n      pop\n        /* \"#utility.yul\":715:861   */\n      swap3\n      swap2\n      pop\n      pop\n      jump\t// out\n        /* \"#utility.yul\":867:944   */\n    tag_29:\n      0x00\n        /* \"#utility.yul\":933:938   */\n      dup2\n        /* \"#utility.yul\":922:938   */\n      swap1\n      pop\n        /* \"#utility.yul\":912:944   */\n      swap2\n      swap1\n      pop\n      jump\t// out\n        /* \"#utility.yul\":950:1130   */\n    tag_37:\n        /* \"#utility.yul\":998:1075   */\n      0x4e487b7100000000000000000000000000000000000000000000000000000000\n        /* \"#utility.yul\":995:996   */\n      0x00\n        /* \"#utility.yul\":988:1076   */\n      mstore\n        /* \"#utility.yul\":1095:1099   */\n      0x11\n        /* \"#utility.yul\":1092:1093   */\n      0x04\n        /* \"#utility.yul\":1085:1100   */\n      mstore\n        /* \"#utility.yul\":1119:1123   */\n      0x24\n        /* \"#utility.yul\":1116:1117   */\n      0x00\n        /* \"#utility.yul\":1109:1124   */\n      revert\n\n    auxdata: 0xa26469706673582212203ee3238411ecf625ae00ffb24c4598e4548f063ba7ff893b462fe038712a4ea164736f6c63430008000033\n}\n",
				"bytecode": {
					"linkReferences": {},
					"object": "608060405234801561001057600080fd5b50610209806100206000396000f3fe608060405234801561001057600080fd5b506004361061004c5760003560e01c80633d82faf0146100515780638acc7b471461006f578063e02b87bb14610079578063e1607d0614610083575b600080fd5b6100596100a1565b60405161006691906100f5565b60405180910390f35b6100776100aa565b005b6100816100c5565b005b61008b6100e0565b60405161009891906100f5565b60405180910390f35b60008054905090565b60016000808282546100bc9190610110565b92505081905550565b60016000808282546100d79190610166565b92505081905550565b60005481565b6100ef8161019a565b82525050565b600060208201905061010a60008301846100e6565b92915050565b600061011b8261019a565b91506101268361019a565b9250827fffffffffffffffffffffffffffffffffffffffffffffffffffffffffffffffff0382111561015b5761015a6101a4565b5b828201905092915050565b60006101718261019a565b915061017c8361019a565b92508282101561018f5761018e6101a4565b5b828203905092915050565b6000819050919050565b7f4e487b7100000000000000000000000000000000000000000000000000000000600052601160045260246000fdfea26469706673582212203ee3238411ecf625ae00ffb24c4598e4548f063ba7ff893b462fe038712a4ea164736f6c63430008000033",
					"opcodes": "PUSH1 0x80 PUSH1 0x40 MSTORE CALLVALUE DUP1 ISZERO PUSH2 0x10 JUMPI PUSH1 0x0 DUP1 REVERT JUMPDEST POP PUSH2 0x209 DUP1 PUSH2 0x20 PUSH1 0x0 CODECOPY PUSH1 0x0 RETURN INVALID PUSH1 0x80 PUSH1 0x40 MSTORE CALLVALUE DUP1 ISZERO PUSH2 0x10 JUMPI PUSH1 0x0 DUP1 REVERT JUMPDEST POP PUSH1 0x4 CALLDATASIZE LT PUSH2 0x4C JUMPI PUSH1 0x0 CALLDATALOAD PUSH1 0xE0 SHR DUP1 PUSH4 0x3D82FAF0 EQ PUSH2 0x51 JUMPI DUP1 PUSH4 0x8ACC7B47 EQ PUSH2 0x6F JUMPI DUP1 PUSH4 0xE02B87BB EQ PUSH2 0x79 JUMPI DUP1 PUSH4 0xE1607D06 EQ PUSH2 0x83 JUMPI JUMPDEST PUSH1 0x0 DUP1 REVERT JUMPDEST PUSH2 0x59 PUSH2 0xA1 JUMP JUMPDEST PUSH1 0x40 MLOAD PUSH2 0x66 SWAP2 SWAP1 PUSH2 0xF5 JUMP JUMPDEST PUSH1 0x40 MLOAD DUP1 SWAP2 SUB SWAP1 RETURN JUMPDEST PUSH2 0x77 PUSH2 0xAA JUMP JUMPDEST STOP JUMPDEST PUSH2 0x81 PUSH2 0xC5 JUMP JUMPDEST STOP JUMPDEST PUSH2 0x8B PUSH2 0xE0 JUMP JUMPDEST PUSH1 0x40 MLOAD PUSH2 0x98 SWAP2 SWAP1 PUSH2 0xF5 JUMP JUMPDEST PUSH1 0x40 MLOAD DUP1 SWAP2 SUB SWAP1 RETURN JUMPDEST PUSH1 0x0 DUP1 SLOAD SWAP1 POP SWAP1 JUMP JUMPDEST PUSH1 0x1 PUSH1 0x0 DUP1 DUP3 DUP3 SLOAD PUSH2 0xBC SWAP2 SWAP1 PUSH2 0x110 JUMP JUMPDEST SWAP3 POP POP DUP2 SWAP1 SSTORE POP JUMP JUMPDEST PUSH1 0x1 PUSH1 0x0 DUP1 DUP3 DUP3 SLOAD PUSH2 0xD7 SWAP2 SWAP1 PUSH2 0x166 JUMP JUMPDEST SWAP3 POP POP DUP2 SWAP1 SSTORE POP JUMP JUMPDEST PUSH1 0x0 SLOAD DUP2 JUMP JUMPDEST PUSH2 0xEF DUP2 PUSH2 0x19A JUMP JUMPDEST DUP3 MSTORE POP POP JUMP JUMPDEST PUSH1 0x0 PUSH1 0x20 DUP3 ADD SWAP1 POP PUSH2 0x10A PUSH1 0x0 DUP4 ADD DUP5 PUSH2 0xE6 JUMP JUMPDEST SWAP3 SWAP2 POP POP JUMP JUMPDEST PUSH1 0x0 PUSH2 0x11B DUP3 PUSH2 0x19A JUMP JUMPDEST SWAP2 POP PUSH2 0x126 DUP4 PUSH2 0x19A JUMP JUMPDEST SWAP3 POP DUP3 PUSH32 0xFFFFFFFFFFFFFFFFFFFFFFFFFFFFFFFFFFFFFFFFFFFFFFFFFFFFFFFFFFFFFFFF SUB DUP3 GT ISZERO PUSH2 0x15B JUMPI PUSH2 0x15A PUSH2 0x1A4 JUMP JUMPDEST JUMPDEST DUP3 DUP3 ADD SWAP1 POP SWAP3 SWAP2 POP POP JUMP JUMPDEST PUSH1 0x0 PUSH2 0x171 DUP3 PUSH2 0x19A JUMP JUMPDEST SWAP2 POP PUSH2 0x17C DUP4 PUSH2 0x19A JUMP JUMPDEST SWAP3 POP DUP3 DUP3 LT ISZERO PUSH2 0x18F JUMPI PUSH2 0x18E PUSH2 0x1A4 JUMP JUMPDEST JUMPDEST DUP3 DUP3 SUB SWAP1 POP SWAP3 SWAP2 POP POP JUMP JUMPDEST PUSH1 0x0 DUP2 SWAP1 POP SWAP2 SWAP1 POP JUMP JUMPDEST PUSH32 0x4E487B7100000000000000000000000000000000000000000000000000000000 PUSH1 0x0 MSTORE PUSH1 0x11 PUSH1 0x4 MSTORE PUSH1 0x24 PUSH1 0x0 REVERT INVALID LOG2 PUSH5 0x6970667358 0x22 SLT KECCAK256 RETURNDATACOPY 0xE3 0x23 DUP5 GT 0xEC 0xF6 0x25 0xAE STOP SELFDESTRUCT 0xB2 0x4C GASLIMIT SWAP9 0xE4 SLOAD DUP16 MOD EXTCODESIZE 0xA7 SELFDESTRUCT DUP10 EXTCODESIZE CHAINID 0x2F 0xE0 CODESIZE PUSH18 0x2A4EA164736F6C6343000800003300000000 "
				},
				"gasEstimates": {
					"creation": {
						"codeDepositCost": "104200",
						"executionCost": "153",
						"totalCost": "104353"
					},
					"external": {
						"addNFT()": "infinite",
						"checkTotalNFT()": "1115",
						"deleteNFT()": "infinite",
						"numberUfNFT()": "1173"
					}
				},
				"methodIdentifiers": {
					"addNFT()": "8acc7b47",
					"checkTotalNFT()": "3d82faf0",
					"deleteNFT()": "e02b87bb",
					"numberUfNFT()": "e1607d06"
				}
			},
			"storageLayout": {
				"storage": [
					{
						"astId": 3,
						"contract": "by-daulat-hussain/solidity/02-counter/demo.sol:Demo",
						"label": "numberUfNFT",
						"offset": 0,
						"slot": "0",
						"type": "t_uint256"
					}
				],
				"types": {
					"t_uint256": {
						"encoding": "inplace",
						"label": "uint256",
						"numberOfBytes": "32"
					}
				}
			},
			"userdoc": {
				"kind": "user",
				"methods": {},
				"version": 1
			}
		}
	}
}