{
	"code-eater/16-enum/16-enum.sol": {
		"State": {
			"abi": [
				{
					"inputs": [],
					"name": "changeOwner",
					"outputs": [],
					"stateMutability": "nonpayable",
					"type": "function"
				},
				{
					"inputs": [],
					"name": "lottery",
					"outputs": [
						{
							"internalType": "uint256",
							"name": "",
							"type": "uint256"
						}
					],
					"stateMutability": "view",
					"type": "function"
				},
				{
					"inputs": [],
					"name": "owner",
					"outputs": [],
					"stateMutability": "nonpayable",
					"type": "function"
				},
				{
					"inputs": [],
					"name": "u1",
					"outputs": [
						{
							"internalType": "enum State.user",
							"name": "",
							"type": "uint8"
						}
					],
					"stateMutability": "view",
					"type": "function"
				}
			],
			"devdoc": {
				"kind": "dev",
				"methods": {},
				"version": 1
			},
			"evm": {
				"assembly": "    /* \"code-eater/16-enum/16-enum.sol\":83:476  contract State... */\n  mstore(0x40, 0x80)\n    /* \"code-eater/16-enum/16-enum.sol\":223:235  user.allowed */\n  0x00\n    /* \"code-eater/16-enum/16-enum.sol\":206:235  user public u1 = user.allowed */\n  dup1\n  exp(0x0100, 0x00)\n  dup2\n  sload\n  dup2\n  0xff\n  mul\n  not\n  and\n  swap1\n  dup4\n  0x02\n  dup2\n  gt\n  iszero\n  tag_1\n  jumpi\n  tag_2\n  tag_3\n  jump\t// in\ntag_2:\ntag_1:\n  mul\n  or\n  swap1\n  sstore\n  pop\n    /* \"code-eater/16-enum/16-enum.sol\":279:283  1000 */\n  0x03e8\n    /* \"code-eater/16-enum/16-enum.sol\":257:283  uint public lottery = 1000 */\n  0x01\n  sstore\n    /* \"code-eater/16-enum/16-enum.sol\":83:476  contract State... */\n  callvalue\n  dup1\n  iszero\n  tag_4\n  jumpi\n  0x00\n  dup1\n  revert\ntag_4:\n  pop\n  jump(tag_5)\n    /* \"#utility.yul\":7:187   */\ntag_3:\n    /* \"#utility.yul\":55:132   */\n  0x4e487b7100000000000000000000000000000000000000000000000000000000\n    /* \"#utility.yul\":52:53   */\n  0x00\n    /* \"#utility.yul\":45:133   */\n  mstore\n    /* \"#utility.yul\":152:156   */\n  0x21\n    /* \"#utility.yul\":149:150   */\n  0x04\n    /* \"#utility.yul\":142:157   */\n  mstore\n    /* \"#utility.yul\":176:180   */\n  0x24\n    /* \"#utility.yul\":173:174   */\n  0x00\n    /* \"#utility.yul\":166:181   */\n  revert\n    /* \"code-eater/16-enum/16-enum.sol\":83:476  contract State... */\ntag_5:\n  dataSize(sub_0)\n  dup1\n  dataOffset(sub_0)\n  0x00\n  codecopy\n  0x00\n  return\nstop\n\nsub_0: assembly {\n        /* \"code-eater/16-enum/16-enum.sol\":83:476  contract State... */\n      mstore(0x40, 0x80)\n      callvalue\n      dup1\n      iszero\n      tag_1\n      jumpi\n      0x00\n      dup1\n      revert\n    tag_1:\n      pop\n      jumpi(tag_2, lt(calldatasize, 0x04))\n      shr(0xe0, calldataload(0x00))\n      dup1\n      0x1aa35610\n      eq\n      tag_3\n      jumpi\n      dup1\n      0x62a09477\n      eq\n      tag_4\n      jumpi\n      dup1\n      0x8da5cb5b\n      eq\n      tag_5\n      jumpi\n      dup1\n      0xba13a572\n      eq\n      tag_6\n      jumpi\n    tag_2:\n      0x00\n      dup1\n      revert\n        /* \"code-eater/16-enum/16-enum.sol\":206:235  user public u1 = user.allowed */\n    tag_3:\n      tag_7\n      tag_8\n      jump\t// in\n    tag_7:\n      mload(0x40)\n      tag_9\n      swap2\n      swap1\n      tag_10\n      jump\t// in\n    tag_9:\n      mload(0x40)\n      dup1\n      swap2\n      sub\n      swap1\n      return\n        /* \"code-eater/16-enum/16-enum.sol\":401:471  function changeOwner() public {... */\n    tag_4:\n      tag_11\n      tag_12\n      jump\t// in\n    tag_11:\n      stop\n        /* \"code-eater/16-enum/16-enum.sol\":292:395  function owner() public {... */\n    tag_5:\n      tag_13\n      tag_14\n      jump\t// in\n    tag_13:\n      stop\n        /* \"code-eater/16-enum/16-enum.sol\":257:283  uint public lottery = 1000 */\n    tag_6:\n      tag_15\n      tag_16\n      jump\t// in\n    tag_15:\n      mload(0x40)\n      tag_17\n      swap2\n      swap1\n      tag_18\n      jump\t// in\n    tag_17:\n      mload(0x40)\n      dup1\n      swap2\n      sub\n      swap1\n      return\n        /* \"code-eater/16-enum/16-enum.sol\":206:235  user public u1 = user.allowed */\n    tag_8:\n      0x00\n      dup1\n      sload\n      swap1\n      0x0100\n      exp\n      swap1\n      div\n      0xff\n      and\n      dup2\n      jump\t// out\n        /* \"code-eater/16-enum/16-enum.sol\":401:471  function changeOwner() public {... */\n    tag_12:\n        /* \"code-eater/16-enum/16-enum.sol\":447:463  user.not_allowed */\n      0x01\n        /* \"code-eater/16-enum/16-enum.sol\":442:444  u1 */\n      0x00\n      dup1\n        /* \"code-eater/16-enum/16-enum.sol\":442:463  u1 = user.not_allowed */\n      0x0100\n      exp\n      dup2\n      sload\n      dup2\n      0xff\n      mul\n      not\n      and\n      swap1\n      dup4\n      0x02\n      dup2\n      gt\n      iszero\n      tag_20\n      jumpi\n      tag_21\n      tag_22\n      jump\t// in\n    tag_21:\n    tag_20:\n      mul\n      or\n      swap1\n      sstore\n      pop\n        /* \"code-eater/16-enum/16-enum.sol\":401:471  function changeOwner() public {... */\n      jump\t// out\n        /* \"code-eater/16-enum/16-enum.sol\":292:395  function owner() public {... */\n    tag_14:\n        /* \"code-eater/16-enum/16-enum.sol\":337:349  user.allowed */\n      0x00\n        /* \"code-eater/16-enum/16-enum.sol\":331:349  u1 == user.allowed */\n      0x02\n      dup2\n      gt\n      iszero\n      tag_24\n      jumpi\n      tag_25\n      tag_22\n      jump\t// in\n    tag_25:\n    tag_24:\n        /* \"code-eater/16-enum/16-enum.sol\":331:333  u1 */\n      0x00\n      dup1\n      sload\n      swap1\n      0x0100\n      exp\n      swap1\n      div\n      0xff\n      and\n        /* \"code-eater/16-enum/16-enum.sol\":331:349  u1 == user.allowed */\n      0x02\n      dup2\n      gt\n      iszero\n      tag_26\n      jumpi\n      tag_27\n      tag_22\n      jump\t// in\n    tag_27:\n    tag_26:\n      sub\n        /* \"code-eater/16-enum/16-enum.sol\":327:388  if( u1 == user.allowed){... */\n      tag_28\n      jumpi\n        /* \"code-eater/16-enum/16-enum.sol\":375:376  0 */\n      0x00\n        /* \"code-eater/16-enum/16-enum.sol\":365:372  lottery */\n      0x01\n        /* \"code-eater/16-enum/16-enum.sol\":365:376  lottery = 0 */\n      dup2\n      swap1\n      sstore\n      pop\n        /* \"code-eater/16-enum/16-enum.sol\":327:388  if( u1 == user.allowed){... */\n    tag_28:\n        /* \"code-eater/16-enum/16-enum.sol\":292:395  function owner() public {... */\n      jump\t// out\n        /* \"code-eater/16-enum/16-enum.sol\":257:283  uint public lottery = 1000 */\n    tag_16:\n      sload(0x01)\n      dup2\n      jump\t// out\n        /* \"#utility.yul\":7:187   */\n    tag_22:\n        /* \"#utility.yul\":55:132   */\n      0x4e487b7100000000000000000000000000000000000000000000000000000000\n        /* \"#utility.yul\":52:53   */\n      0x00\n        /* \"#utility.yul\":45:133   */\n      mstore\n        /* \"#utility.yul\":152:156   */\n      0x21\n        /* \"#utility.yul\":149:150   */\n      0x04\n        /* \"#utility.yul\":142:157   */\n      mstore\n        /* \"#utility.yul\":176:180   */\n      0x24\n        /* \"#utility.yul\":173:174   */\n      0x00\n        /* \"#utility.yul\":166:181   */\n      revert\n        /* \"#utility.yul\":193:304   */\n    tag_29:\n        /* \"#utility.yul\":272:273   */\n      0x03\n        /* \"#utility.yul\":265:270   */\n      dup2\n        /* \"#utility.yul\":262:274   */\n      lt\n        /* \"#utility.yul\":252:298   */\n      tag_38\n      jumpi\n        /* \"#utility.yul\":278:296   */\n      tag_39\n      tag_22\n      jump\t// in\n    tag_39:\n        /* \"#utility.yul\":252:298   */\n    tag_38:\n        /* \"#utility.yul\":193:304   */\n      pop\n      jump\t// out\n        /* \"#utility.yul\":310:433   */\n    tag_30:\n        /* \"#utility.yul\":353:360   */\n      0x00\n        /* \"#utility.yul\":382:387   */\n      dup2\n        /* \"#utility.yul\":371:387   */\n      swap1\n      pop\n        /* \"#utility.yul\":388:427   */\n      tag_41\n        /* \"#utility.yul\":421:426   */\n      dup3\n        /* \"#utility.yul\":388:427   */\n      tag_29\n      jump\t// in\n    tag_41:\n        /* \"#utility.yul\":310:433   */\n      swap2\n      swap1\n      pop\n      jump\t// out\n        /* \"#utility.yul\":439:562   */\n    tag_31:\n        /* \"#utility.yul\":493:502   */\n      0x00\n        /* \"#utility.yul\":526:556   */\n      tag_43\n        /* \"#utility.yul\":550:555   */\n      dup3\n        /* \"#utility.yul\":526:556   */\n      tag_30\n      jump\t// in\n    tag_43:\n        /* \"#utility.yul\":513:556   */\n      swap1\n      pop\n        /* \"#utility.yul\":439:562   */\n      swap2\n      swap1\n      pop\n      jump\t// out\n        /* \"#utility.yul\":568:707   */\n    tag_32:\n        /* \"#utility.yul\":659:700   */\n      tag_45\n        /* \"#utility.yul\":694:699   */\n      dup2\n        /* \"#utility.yul\":659:700   */\n      tag_31\n      jump\t// in\n    tag_45:\n        /* \"#utility.yul\":654:657   */\n      dup3\n        /* \"#utility.yul\":647:701   */\n      mstore\n        /* \"#utility.yul\":568:707   */\n      pop\n      pop\n      jump\t// out\n        /* \"#utility.yul\":713:943   */\n    tag_10:\n        /* \"#utility.yul\":810:814   */\n      0x00\n        /* \"#utility.yul\":848:850   */\n      0x20\n        /* \"#utility.yul\":837:846   */\n      dup3\n        /* \"#utility.yul\":833:851   */\n      add\n        /* \"#utility.yul\":825:851   */\n      swap1\n      pop\n        /* \"#utility.yul\":861:936   */\n      tag_47\n        /* \"#utility.yul\":933:934   */\n      0x00\n        /* \"#utility.yul\":922:931   */\n      dup4\n        /* \"#utility.yul\":918:935   */\n      add\n        /* \"#utility.yul\":909:915   */\n      dup5\n        /* \"#utility.yul\":861:936   */\n      tag_32\n      jump\t// in\n    tag_47:\n        /* \"#utility.yul\":713:943   */\n      swap3\n      swap2\n      pop\n      pop\n      jump\t// out\n        /* \"#utility.yul\":949:1026   */\n    tag_33:\n        /* \"#utility.yul\":986:993   */\n      0x00\n        /* \"#utility.yul\":1015:1020   */\n      dup2\n        /* \"#utility.yul\":1004:1020   */\n      swap1\n      pop\n        /* \"#utility.yul\":949:1026   */\n      swap2\n      swap1\n      pop\n      jump\t// out\n        /* \"#utility.yul\":1032:1150   */\n    tag_34:\n        /* \"#utility.yul\":1119:1143   */\n      tag_50\n        /* \"#utility.yul\":1137:1142   */\n      dup2\n        /* \"#utility.yul\":1119:1143   */\n      tag_33\n      jump\t// in\n    tag_50:\n        /* \"#utility.yul\":1114:1117   */\n      dup3\n        /* \"#utility.yul\":1107:1144   */\n      mstore\n        /* \"#utility.yul\":1032:1150   */\n      pop\n      pop\n      jump\t// out\n        /* \"#utility.yul\":1156:1378   */\n    tag_18:\n        /* \"#utility.yul\":1249:1253   */\n      0x00\n        /* \"#utility.yul\":1287:1289   */\n      0x20\n        /* \"#utility.yul\":1276:1285   */\n      dup3\n        /* \"#utility.yul\":1272:1290   */\n      add\n        /* \"#utility.yul\":1264:1290   */\n      swap1\n      pop\n        /* \"#utility.yul\":1300:1371   */\n      tag_52\n        /* \"#utility.yul\":1368:1369   */\n      0x00\n        /* \"#utility.yul\":1357:1366   */\n      dup4\n        /* \"#utility.yul\":1353:1370   */\n      add\n        /* \"#utility.yul\":1344:1350   */\n      dup5\n        /* \"#utility.yul\":1300:1371   */\n      tag_34\n      jump\t// in\n    tag_52:\n        /* \"#utility.yul\":1156:1378   */\n      swap3\n      swap2\n      pop\n      pop\n      jump\t// out\n\n    auxdata: 0xa2646970667358221220b94c70c4e2e0ca440b73eaa04ab1a4cda0e19e7a79aeb93ed9a91d6c5449c11264736f6c63430008140033\n}\n",
				"bytecode": {
					"linkReferences": {},
					"object": "60806040525f805f6101000a81548160ff0219169083600281111561002757610026610043565b5b02179055506103e860015534801561003d575f80fd5b50610070565b7f4e487b71000000000000000000000000000000000000000000000000000000005f52602160045260245ffd5b6102138061007d5f395ff3fe608060405234801561000f575f80fd5b506004361061004a575f3560e01c80631aa356101461004e57806362a094771461006c5780638da5cb5b14610076578063ba13a57214610080575b5f80fd5b61005661009e565b6040516100639190610193565b60405180910390f35b6100746100ae565b005b61007e6100d9565b005b61008861011a565b60405161009591906101c4565b60405180910390f35b5f8054906101000a900460ff1681565b60015f806101000a81548160ff021916908360028111156100d2576100d1610120565b5b0217905550565b5f60028111156100ec576100eb610120565b5b5f8054906101000a900460ff16600281111561010b5761010a610120565b5b03610118575f6001819055505b565b60015481565b7f4e487b71000000000000000000000000000000000000000000000000000000005f52602160045260245ffd5b6003811061015e5761015d610120565b5b50565b5f81905061016e8261014d565b919050565b5f61017d82610161565b9050919050565b61018d81610173565b82525050565b5f6020820190506101a65f830184610184565b92915050565b5f819050919050565b6101be816101ac565b82525050565b5f6020820190506101d75f8301846101b5565b9291505056fea2646970667358221220b94c70c4e2e0ca440b73eaa04ab1a4cda0e19e7a79aeb93ed9a91d6c5449c11264736f6c63430008140033",
					"opcodes": "PUSH1 0x80 PUSH1 0x40 MSTORE PUSH0 DUP1 PUSH0 PUSH2 0x100 EXP DUP2 SLOAD DUP2 PUSH1 0xFF MUL NOT AND SWAP1 DUP4 PUSH1 0x2 DUP2 GT ISZERO PUSH2 0x27 JUMPI PUSH2 0x26 PUSH2 0x43 JUMP JUMPDEST JUMPDEST MUL OR SWAP1 SSTORE POP PUSH2 0x3E8 PUSH1 0x1 SSTORE CALLVALUE DUP1 ISZERO PUSH2 0x3D JUMPI PUSH0 DUP1 REVERT JUMPDEST POP PUSH2 0x70 JUMP JUMPDEST PUSH32 0x4E487B7100000000000000000000000000000000000000000000000000000000 PUSH0 MSTORE PUSH1 0x21 PUSH1 0x4 MSTORE PUSH1 0x24 PUSH0 REVERT JUMPDEST PUSH2 0x213 DUP1 PUSH2 0x7D PUSH0 CODECOPY PUSH0 RETURN INVALID PUSH1 0x80 PUSH1 0x40 MSTORE CALLVALUE DUP1 ISZERO PUSH2 0xF JUMPI PUSH0 DUP1 REVERT JUMPDEST POP PUSH1 0x4 CALLDATASIZE LT PUSH2 0x4A JUMPI PUSH0 CALLDATALOAD PUSH1 0xE0 SHR DUP1 PUSH4 0x1AA35610 EQ PUSH2 0x4E JUMPI DUP1 PUSH4 0x62A09477 EQ PUSH2 0x6C JUMPI DUP1 PUSH4 0x8DA5CB5B EQ PUSH2 0x76 JUMPI DUP1 PUSH4 0xBA13A572 EQ PUSH2 0x80 JUMPI JUMPDEST PUSH0 DUP1 REVERT JUMPDEST PUSH2 0x56 PUSH2 0x9E JUMP JUMPDEST PUSH1 0x40 MLOAD PUSH2 0x63 SWAP2 SWAP1 PUSH2 0x193 JUMP JUMPDEST PUSH1 0x40 MLOAD DUP1 SWAP2 SUB SWAP1 RETURN JUMPDEST PUSH2 0x74 PUSH2 0xAE JUMP JUMPDEST STOP JUMPDEST PUSH2 0x7E PUSH2 0xD9 JUMP JUMPDEST STOP JUMPDEST PUSH2 0x88 PUSH2 0x11A JUMP JUMPDEST PUSH1 0x40 MLOAD PUSH2 0x95 SWAP2 SWAP1 PUSH2 0x1C4 JUMP JUMPDEST PUSH1 0x40 MLOAD DUP1 SWAP2 SUB SWAP1 RETURN JUMPDEST PUSH0 DUP1 SLOAD SWAP1 PUSH2 0x100 EXP SWAP1 DIV PUSH1 0xFF AND DUP2 JUMP JUMPDEST PUSH1 0x1 PUSH0 DUP1 PUSH2 0x100 EXP DUP2 SLOAD DUP2 PUSH1 0xFF MUL NOT AND SWAP1 DUP4 PUSH1 0x2 DUP2 GT ISZERO PUSH2 0xD2 JUMPI PUSH2 0xD1 PUSH2 0x120 JUMP JUMPDEST JUMPDEST MUL OR SWAP1 SSTORE POP JUMP JUMPDEST PUSH0 PUSH1 0x2 DUP2 GT ISZERO PUSH2 0xEC JUMPI PUSH2 0xEB PUSH2 0x120 JUMP JUMPDEST JUMPDEST PUSH0 DUP1 SLOAD SWAP1 PUSH2 0x100 EXP SWAP1 DIV PUSH1 0xFF AND PUSH1 0x2 DUP2 GT ISZERO PUSH2 0x10B JUMPI PUSH2 0x10A PUSH2 0x120 JUMP JUMPDEST JUMPDEST SUB PUSH2 0x118 JUMPI PUSH0 PUSH1 0x1 DUP2 SWAP1 SSTORE POP JUMPDEST JUMP JUMPDEST PUSH1 0x1 SLOAD DUP2 JUMP JUMPDEST PUSH32 0x4E487B7100000000000000000000000000000000000000000000000000000000 PUSH0 MSTORE PUSH1 0x21 PUSH1 0x4 MSTORE PUSH1 0x24 PUSH0 REVERT JUMPDEST PUSH1 0x3 DUP2 LT PUSH2 0x15E JUMPI PUSH2 0x15D PUSH2 0x120 JUMP JUMPDEST JUMPDEST POP JUMP JUMPDEST PUSH0 DUP2 SWAP1 POP PUSH2 0x16E DUP3 PUSH2 0x14D JUMP JUMPDEST SWAP2 SWAP1 POP JUMP JUMPDEST PUSH0 PUSH2 0x17D DUP3 PUSH2 0x161 JUMP JUMPDEST SWAP1 POP SWAP2 SWAP1 POP JUMP JUMPDEST PUSH2 0x18D DUP2 PUSH2 0x173 JUMP JUMPDEST DUP3 MSTORE POP POP JUMP JUMPDEST PUSH0 PUSH1 0x20 DUP3 ADD SWAP1 POP PUSH2 0x1A6 PUSH0 DUP4 ADD DUP5 PUSH2 0x184 JUMP JUMPDEST SWAP3 SWAP2 POP POP JUMP JUMPDEST PUSH0 DUP2 SWAP1 POP SWAP2 SWAP1 POP JUMP JUMPDEST PUSH2 0x1BE DUP2 PUSH2 0x1AC JUMP JUMPDEST DUP3 MSTORE POP POP JUMP JUMPDEST PUSH0 PUSH1 0x20 DUP3 ADD SWAP1 POP PUSH2 0x1D7 PUSH0 DUP4 ADD DUP5 PUSH2 0x1B5 JUMP JUMPDEST SWAP3 SWAP2 POP POP JUMP INVALID LOG2 PUSH5 0x6970667358 0x22 SLT KECCAK256 0xB9 0x4C PUSH17 0xC4E2E0CA440B73EAA04AB1A4CDA0E19E7A PUSH26 0xAEB93ED9A91D6C5449C11264736F6C6343000814003300000000 "
				},
				"gasEstimates": {
					"creation": {
						"codeDepositCost": "106200",
						"executionCost": "46554",
						"totalCost": "152754"
					},
					"external": {
						"changeOwner()": "24429",
						"lottery()": "2469",
						"owner()": "7384",
						"u1()": "2529"
					}
				},
				"methodIdentifiers": {
					"changeOwner()": "62a09477",
					"lottery()": "ba13a572",
					"owner()": "8da5cb5b",
					"u1()": "1aa35610"
				}
			},
			"storageLayout": {
				"storage": [
					{
						"astId": 10,
						"contract": "code-eater/16-enum/16-enum.sol:State",
						"label": "u1",
						"offset": 0,
						"slot": "0",
						"type": "t_enum(user)5"
					},
					{
						"astId": 13,
						"contract": "code-eater/16-enum/16-enum.sol:State",
						"label": "lottery",
						"offset": 0,
						"slot": "1",
						"type": "t_uint256"
					}
				],
				"types": {
					"t_enum(user)5": {
						"encoding": "inplace",
						"label": "enum State.user",
						"numberOfBytes": "1"
					},
					"t_uint256": {
						"encoding": "inplace",
						"label": "uint256",
						"numberOfBytes": "32"
					}
				}
			},
			"userdoc": {
				"kind": "user",
				"methods": {},
				"version": 1
			}
		}
	}
}